{
  "_format": "hh-sol-artifact-1",
  "contractName": "MockPolygonL1Switchboard",
  "sourceName": "contracts/mocks/MockPolygonL1Switchboard.sol",
  "abi": [
    {
      "inputs": [
        {
          "internalType": "uint32",
          "name": "chainSlug_",
          "type": "uint32"
        },
        {
          "internalType": "address",
          "name": "checkpointManager_",
          "type": "address"
        },
        {
          "internalType": "address",
          "name": "fxRoot_",
          "type": "address"
        },
        {
          "internalType": "address",
          "name": "owner_",
          "type": "address"
        },
        {
          "internalType": "address",
          "name": "socket_",
          "type": "address"
        },
        {
          "internalType": "contract ISignatureVerifier",
          "name": "signatureVerifier_",
          "type": "address"
        }
      ],
      "stateMutability": "nonpayable",
      "type": "constructor"
    },
    {
      "inputs": [],
      "name": "AlreadyInitialized",
      "type": "error"
    },
    {
      "inputs": [],
      "name": "FeesNotEnough",
      "type": "error"
    },
    {
      "inputs": [],
      "name": "InvalidNonce",
      "type": "error"
    },
    {
      "inputs": [],
      "name": "InvalidSender",
      "type": "error"
    },
    {
      "inputs": [],
      "name": "InvalidTokenAddress",
      "type": "error"
    },
    {
      "inputs": [
        {
          "internalType": "bytes32",
          "name": "role",
          "type": "bytes32"
        }
      ],
      "name": "NoPermit",
      "type": "error"
    },
    {
      "inputs": [],
      "name": "NoRootFound",
      "type": "error"
    },
    {
      "inputs": [],
      "name": "OnlyExecutionManager",
      "type": "error"
    },
    {
      "inputs": [],
      "name": "OnlyNominee",
      "type": "error"
    },
    {
      "inputs": [],
      "name": "OnlyOwner",
      "type": "error"
    },
    {
      "inputs": [],
      "name": "UnequalArrayLengths",
      "type": "error"
    },
    {
      "inputs": [],
      "name": "ZeroAddress",
      "type": "error"
    },
    {
      "anonymous": false,
      "inputs": [
        {
          "indexed": false,
          "internalType": "address",
          "name": "fxChildTunnel",
          "type": "address"
        },
        {
          "indexed": false,
          "internalType": "address",
          "name": "newFxChildTunnel",
          "type": "address"
        }
      ],
      "name": "FxChildTunnelSet",
      "type": "event"
    },
    {
      "anonymous": false,
      "inputs": [
        {
          "indexed": false,
          "internalType": "bool",
          "name": "isGlobalTipped",
          "type": "bool"
        }
      ],
      "name": "GlobalTripChanged",
      "type": "event"
    },
    {
      "anonymous": false,
      "inputs": [
        {
          "indexed": false,
          "internalType": "bytes32",
          "name": "packetId",
          "type": "bytes32"
        }
      ],
      "name": "InitiatedNativeConfirmation",
      "type": "event"
    },
    {
      "anonymous": false,
      "inputs": [
        {
          "indexed": true,
          "internalType": "address",
          "name": "claimer",
          "type": "address"
        }
      ],
      "name": "OwnerClaimed",
      "type": "event"
    },
    {
      "anonymous": false,
      "inputs": [
        {
          "indexed": true,
          "internalType": "address",
          "name": "nominee",
          "type": "address"
        }
      ],
      "name": "OwnerNominated",
      "type": "event"
    },
    {
      "anonymous": false,
      "inputs": [
        {
          "indexed": true,
          "internalType": "bytes32",
          "name": "role",
          "type": "bytes32"
        },
        {
          "indexed": true,
          "internalType": "address",
          "name": "grantee",
          "type": "address"
        }
      ],
      "name": "RoleGranted",
      "type": "event"
    },
    {
      "anonymous": false,
      "inputs": [
        {
          "indexed": true,
          "internalType": "bytes32",
          "name": "role",
          "type": "bytes32"
        },
        {
          "indexed": true,
          "internalType": "address",
          "name": "revokee",
          "type": "address"
        }
      ],
      "name": "RoleRevoked",
      "type": "event"
    },
    {
      "anonymous": false,
      "inputs": [
        {
          "indexed": false,
          "internalType": "bytes32",
          "name": "packetId",
          "type": "bytes32"
        },
        {
          "indexed": false,
          "internalType": "bytes32",
          "name": "root",
          "type": "bytes32"
        }
      ],
      "name": "RootReceived",
      "type": "event"
    },
    {
      "anonymous": false,
      "inputs": [
        {
          "indexed": false,
          "internalType": "uint256",
          "name": "switchboardFees",
          "type": "uint256"
        },
        {
          "indexed": false,
          "internalType": "uint256",
          "name": "verificationOverheadFees",
          "type": "uint256"
        }
      ],
      "name": "SwitchboardFeesSet",
      "type": "event"
    },
    {
      "anonymous": false,
      "inputs": [
        {
          "indexed": false,
          "internalType": "address",
          "name": "remoteNativeSwitchboard",
          "type": "address"
        }
      ],
      "name": "UpdatedRemoteNativeSwitchboard",
      "type": "event"
    },
    {
      "inputs": [],
      "name": "SEND_MESSAGE_EVENT_SIG",
      "outputs": [
        {
          "internalType": "bytes32",
          "name": "",
          "type": "bytes32"
        }
      ],
      "stateMutability": "view",
      "type": "function"
    },
    {
      "inputs": [
        {
          "internalType": "bytes32",
          "name": "root_",
          "type": "bytes32"
        },
        {
          "internalType": "bytes32",
          "name": "packetId_",
          "type": "bytes32"
        },
        {
          "internalType": "uint256",
          "name": "",
          "type": "uint256"
        },
        {
          "internalType": "uint32",
          "name": "",
          "type": "uint32"
        },
        {
          "internalType": "uint256",
          "name": "",
          "type": "uint256"
        }
      ],
      "name": "allowPacket",
      "outputs": [
        {
          "internalType": "bool",
          "name": "",
          "type": "bool"
        }
      ],
      "stateMutability": "view",
      "type": "function"
    },
    {
      "inputs": [],
      "name": "capacitor__",
      "outputs": [
        {
          "internalType": "contract ICapacitor",
          "name": "",
          "type": "address"
        }
      ],
      "stateMutability": "view",
      "type": "function"
    },
    {
      "inputs": [],
      "name": "chainSlug",
      "outputs": [
        {
          "internalType": "uint32",
          "name": "",
          "type": "uint32"
        }
      ],
      "stateMutability": "view",
      "type": "function"
    },
    {
      "inputs": [],
      "name": "checkpointManager",
      "outputs": [
        {
          "internalType": "contract ICheckpointManager",
          "name": "",
          "type": "address"
        }
      ],
      "stateMutability": "view",
      "type": "function"
    },
    {
      "inputs": [],
      "name": "claimOwner",
      "outputs": [],
      "stateMutability": "nonpayable",
      "type": "function"
    },
    {
      "inputs": [],
      "name": "fxChildTunnel",
      "outputs": [
        {
          "internalType": "address",
          "name": "",
          "type": "address"
        }
      ],
      "stateMutability": "view",
      "type": "function"
    },
    {
      "inputs": [],
      "name": "fxRoot",
      "outputs": [
        {
          "internalType": "contract IFxStateSender",
          "name": "",
          "type": "address"
        }
      ],
      "stateMutability": "view",
      "type": "function"
    },
    {
      "inputs": [
        {
          "internalType": "uint32",
          "name": "",
          "type": "uint32"
        }
      ],
      "name": "getMinFees",
      "outputs": [
        {
          "internalType": "uint128",
          "name": "switchboardFee_",
          "type": "uint128"
        },
        {
          "internalType": "uint128",
          "name": "verificationFee_",
          "type": "uint128"
        }
      ],
      "stateMutability": "view",
      "type": "function"
    },
    {
      "inputs": [
        {
          "internalType": "bytes32[]",
          "name": "roleNames_",
          "type": "bytes32[]"
        },
        {
          "internalType": "uint32[]",
          "name": "slugs_",
          "type": "uint32[]"
        },
        {
          "internalType": "address[]",
          "name": "grantees_",
          "type": "address[]"
        }
      ],
      "name": "grantBatchRole",
      "outputs": [],
      "stateMutability": "nonpayable",
      "type": "function"
    },
    {
      "inputs": [
        {
          "internalType": "bytes32",
          "name": "role_",
          "type": "bytes32"
        },
        {
          "internalType": "address",
          "name": "grantee_",
          "type": "address"
        }
      ],
      "name": "grantRole",
      "outputs": [],
      "stateMutability": "nonpayable",
      "type": "function"
    },
    {
      "inputs": [
        {
          "internalType": "bytes32",
          "name": "roleName_",
          "type": "bytes32"
        },
        {
          "internalType": "uint32",
          "name": "chainSlug_",
          "type": "uint32"
        },
        {
          "internalType": "address",
          "name": "grantee_",
          "type": "address"
        }
      ],
      "name": "grantRoleWithSlug",
      "outputs": [],
      "stateMutability": "nonpayable",
      "type": "function"
    },
    {
      "inputs": [
        {
          "internalType": "bytes32",
          "name": "role_",
          "type": "bytes32"
        },
        {
          "internalType": "address",
          "name": "address_",
          "type": "address"
        }
      ],
      "name": "hasRole",
      "outputs": [
        {
          "internalType": "bool",
          "name": "",
          "type": "bool"
        }
      ],
      "stateMutability": "view",
      "type": "function"
    },
    {
      "inputs": [
        {
          "internalType": "bytes32",
          "name": "roleName_",
          "type": "bytes32"
        },
        {
          "internalType": "uint32",
          "name": "chainSlug_",
          "type": "uint32"
        },
        {
          "internalType": "address",
          "name": "address_",
          "type": "address"
        }
      ],
      "name": "hasRoleWithSlug",
      "outputs": [
        {
          "internalType": "bool",
          "name": "",
          "type": "bool"
        }
      ],
      "stateMutability": "view",
      "type": "function"
    },
    {
      "inputs": [
        {
          "internalType": "bytes32",
          "name": "packetId_",
          "type": "bytes32"
        }
      ],
      "name": "initiateNativeConfirmation",
      "outputs": [],
      "stateMutability": "payable",
      "type": "function"
    },
    {
      "inputs": [],
      "name": "isGlobalTipped",
      "outputs": [
        {
          "internalType": "bool",
          "name": "",
          "type": "bool"
        }
      ],
      "stateMutability": "view",
      "type": "function"
    },
    {
      "inputs": [],
      "name": "isInitialized",
      "outputs": [
        {
          "internalType": "bool",
          "name": "",
          "type": "bool"
        }
      ],
      "stateMutability": "view",
      "type": "function"
    },
    {
      "inputs": [
        {
          "internalType": "address",
          "name": "",
          "type": "address"
        }
      ],
      "name": "nextNonce",
      "outputs": [
        {
          "internalType": "uint256",
          "name": "",
          "type": "uint256"
        }
      ],
      "stateMutability": "view",
      "type": "function"
    },
    {
      "inputs": [
        {
          "internalType": "address",
          "name": "nominee_",
          "type": "address"
        }
      ],
      "name": "nominateOwner",
      "outputs": [],
      "stateMutability": "nonpayable",
      "type": "function"
    },
    {
      "inputs": [],
      "name": "nominee",
      "outputs": [
        {
          "internalType": "address",
          "name": "",
          "type": "address"
        }
      ],
      "stateMutability": "view",
      "type": "function"
    },
    {
      "inputs": [],
      "name": "owner",
      "outputs": [
        {
          "internalType": "address",
          "name": "",
          "type": "address"
        }
      ],
      "stateMutability": "view",
      "type": "function"
    },
    {
      "inputs": [
        {
          "internalType": "bytes32",
          "name": "",
          "type": "bytes32"
        }
      ],
      "name": "packetIdToRoot",
      "outputs": [
        {
          "internalType": "bytes32",
          "name": "",
          "type": "bytes32"
        }
      ],
      "stateMutability": "view",
      "type": "function"
    },
    {
      "inputs": [
        {
          "internalType": "bytes32",
          "name": "",
          "type": "bytes32"
        }
      ],
      "name": "processedExits",
      "outputs": [
        {
          "internalType": "bool",
          "name": "",
          "type": "bool"
        }
      ],
      "stateMutability": "view",
      "type": "function"
    },
    {
      "inputs": [
        {
          "internalType": "uint32",
          "name": "",
          "type": "uint32"
        }
      ],
      "name": "receiveFees",
      "outputs": [],
      "stateMutability": "payable",
      "type": "function"
    },
    {
      "inputs": [
        {
          "internalType": "bytes",
          "name": "inputData",
          "type": "bytes"
        }
      ],
      "name": "receiveMessage",
      "outputs": [],
      "stateMutability": "nonpayable",
      "type": "function"
    },
    {
      "inputs": [
        {
          "internalType": "bytes",
          "name": "data_",
          "type": "bytes"
        }
      ],
      "name": "receivePacket",
      "outputs": [],
      "stateMutability": "nonpayable",
      "type": "function"
    },
    {
      "inputs": [
        {
          "internalType": "bytes32",
          "name": "packetId_",
          "type": "bytes32"
        },
        {
          "internalType": "bytes32",
          "name": "root_",
          "type": "bytes32"
        }
      ],
      "name": "receivePacket",
      "outputs": [],
      "stateMutability": "nonpayable",
      "type": "function"
    },
    {
      "inputs": [
        {
          "internalType": "uint32",
          "name": "siblingChainSlug_",
          "type": "uint32"
        },
        {
          "internalType": "uint256",
          "name": "maxPacketLength_",
          "type": "uint256"
        },
        {
          "internalType": "uint256",
          "name": "capacitorType_",
          "type": "uint256"
        },
        {
          "internalType": "uint256",
          "name": "initialPacketCount_",
          "type": "uint256"
        },
        {
          "internalType": "address",
          "name": "remoteNativeSwitchboard_",
          "type": "address"
        }
      ],
      "name": "registerSiblingSlug",
      "outputs": [],
      "stateMutability": "nonpayable",
      "type": "function"
    },
    {
      "inputs": [],
      "name": "remoteNativeSwitchboard",
      "outputs": [
        {
          "internalType": "address",
          "name": "",
          "type": "address"
        }
      ],
      "stateMutability": "view",
      "type": "function"
    },
    {
      "inputs": [
        {
          "internalType": "address",
          "name": "token_",
          "type": "address"
        },
        {
          "internalType": "address",
          "name": "rescueTo_",
          "type": "address"
        },
        {
          "internalType": "uint256",
          "name": "amount_",
          "type": "uint256"
        }
      ],
      "name": "rescueFunds",
      "outputs": [],
      "stateMutability": "nonpayable",
      "type": "function"
    },
    {
      "inputs": [
        {
          "internalType": "bytes32[]",
          "name": "roleNames_",
          "type": "bytes32[]"
        },
        {
          "internalType": "uint32[]",
          "name": "slugs_",
          "type": "uint32[]"
        },
        {
          "internalType": "address[]",
          "name": "grantees_",
          "type": "address[]"
        }
      ],
      "name": "revokeBatchRole",
      "outputs": [],
      "stateMutability": "nonpayable",
      "type": "function"
    },
    {
      "inputs": [
        {
          "internalType": "bytes32",
          "name": "role_",
          "type": "bytes32"
        },
        {
          "internalType": "address",
          "name": "revokee_",
          "type": "address"
        }
      ],
      "name": "revokeRole",
      "outputs": [],
      "stateMutability": "nonpayable",
      "type": "function"
    },
    {
      "inputs": [
        {
          "internalType": "bytes32",
          "name": "roleName_",
          "type": "bytes32"
        },
        {
          "internalType": "uint32",
          "name": "chainSlug_",
          "type": "uint32"
        },
        {
          "internalType": "address",
          "name": "grantee_",
          "type": "address"
        }
      ],
      "name": "revokeRoleWithSlug",
      "outputs": [],
      "stateMutability": "nonpayable",
      "type": "function"
    },
    {
      "inputs": [
        {
          "internalType": "uint256",
          "name": "nonce_",
          "type": "uint256"
        },
        {
          "internalType": "uint32",
          "name": "",
          "type": "uint32"
        },
        {
          "internalType": "uint128",
          "name": "switchboardFees_",
          "type": "uint128"
        },
        {
          "internalType": "uint128",
          "name": "verificationOverheadFees_",
          "type": "uint128"
        },
        {
          "internalType": "bytes",
          "name": "signature_",
          "type": "bytes"
        }
      ],
      "name": "setFees",
      "outputs": [],
      "stateMutability": "nonpayable",
      "type": "function"
    },
    {
      "inputs": [
        {
          "internalType": "address",
          "name": "fxChildTunnel_",
          "type": "address"
        }
      ],
      "name": "setFxChildTunnel",
      "outputs": [],
      "stateMutability": "nonpayable",
      "type": "function"
    },
    {
      "inputs": [],
      "name": "signatureVerifier__",
      "outputs": [
        {
          "internalType": "contract ISignatureVerifier",
          "name": "",
          "type": "address"
        }
      ],
      "stateMutability": "view",
      "type": "function"
    },
    {
      "inputs": [],
      "name": "socket__",
      "outputs": [
        {
          "internalType": "contract ISocket",
          "name": "",
          "type": "address"
        }
      ],
      "stateMutability": "view",
      "type": "function"
    },
    {
      "inputs": [],
      "name": "switchboardFees",
      "outputs": [
        {
          "internalType": "uint128",
          "name": "",
          "type": "uint128"
        }
      ],
      "stateMutability": "view",
      "type": "function"
    },
    {
      "inputs": [
        {
          "internalType": "uint256",
          "name": "nonce_",
          "type": "uint256"
        },
        {
          "internalType": "bytes",
          "name": "signature_",
          "type": "bytes"
        }
      ],
      "name": "tripGlobal",
      "outputs": [],
      "stateMutability": "nonpayable",
      "type": "function"
    },
    {
      "inputs": [
        {
          "internalType": "uint256",
          "name": "nonce_",
          "type": "uint256"
        },
        {
          "internalType": "bytes",
          "name": "signature_",
          "type": "bytes"
        }
      ],
      "name": "unTrip",
      "outputs": [],
      "stateMutability": "nonpayable",
      "type": "function"
    },
    {
      "inputs": [
        {
          "internalType": "uint32",
          "name": "siblingChainSlug_",
          "type": "uint32"
        },
        {
          "internalType": "address",
          "name": "remoteNativeSwitchboard_",
          "type": "address"
        }
      ],
      "name": "updateSibling",
      "outputs": [],
      "stateMutability": "nonpayable",
      "type": "function"
    },
    {
      "inputs": [],
      "name": "verificationOverheadFees",
      "outputs": [
        {
          "internalType": "uint128",
          "name": "",
          "type": "uint128"
        }
      ],
      "stateMutability": "view",
      "type": "function"
    },
    {
      "inputs": [
        {
          "internalType": "address",
          "name": "withdrawTo_",
          "type": "address"
        }
      ],
      "name": "withdrawFees",
      "outputs": [],
      "stateMutability": "nonpayable",
      "type": "function"
    }
  ],
  "bytecode": "0x60e06040523480156200001157600080fd5b5060405162004ad938038062004ad9833981016040819052620000349162000112565b85858585858584848388848780806200004d81620000a6565b5050506001600160a01b0392831660a05263ffffffff90911660c0528116608052600a80549382166001600160a01b031994851617905560098054929091169190921617905550620001ae9a5050505050505050505050565b600080546001600160a01b0383166001600160a01b0319918216811783556001805490921690915560405190917ffbe19c9b601f5ee90b44c7390f3fa2319eba01762d34ee372aeafd59b25c7f8791a250565b6001600160a01b03811681146200010f57600080fd5b50565b60008060008060008060c087890312156200012c57600080fd5b865163ffffffff811681146200014157600080fd5b60208801519096506200015481620000f9565b60408801519095506200016781620000f9565b60608801519094506200017a81620000f9565b60808801519093506200018d81620000f9565b60a0880151909250620001a081620000f9565b809150509295509295509295565b60805160a05160c0516148bc6200021d6000396000818161081f01528181610d4301528181611a890152611d82015260008181610895015281816115370152818161171801526117ea01526000818161093b01528181610d9001528181611ad60152611de801526148bc6000f3fe6080604052600436106102dc5760003560e01c8063771e14b911610184578063c0857ba0116100d6578063d5b8da731161008a578063ecb9748411610064578063ecb97484146109aa578063f22b460e146109ca578063f953cec7146109ea57600080fd5b8063d5b8da7314610929578063da5b9f761461095d578063de9b771f1461097d57600080fd5b8063c8779308116100bb578063c8779308146108b7578063d39a38c1146108e9578063d547741f1461090957600080fd5b8063c0857ba014610856578063c6a261d21461088357600080fd5b80639aefe4e011610138578063a9a599e011610112578063a9a599e0146107da578063aea4e49e146107ed578063b349ba651461080d57600080fd5b80639aefe4e014610787578063a0851863146107a7578063a9a541b2146107c757600080fd5b806391d148541161016957806391d148541461070d5780639242863b1461072d578063972c49281461075a57600080fd5b8063771e14b9146106b95780638da5cb5b146106e257600080fd5b806325750e371161023d5780633bd1adec116101f15780635b94db27116101cb5780635b94db2714610649578063607f2d42146106695780636ccae0541461069957600080fd5b80633bd1adec146105f457806343fa97ca146106095780634c4081801461062957600080fd5b80632f2ff15d116102225780632f2ff15d14610564578063357a6c6314610584578063392e53cd146105b157600080fd5b806325750e37146105245780632e7eb2581461054457600080fd5b80631ba8e484116102945780631e867311116102795780631e8673111461048b57806320f99c0a146104ab57806324677dfc146104f757600080fd5b80631ba8e4841461040d5780631dd935841461042d57600080fd5b80630e387de6116102c55780630e387de614610397578063128e1d61146103cb578063164e68de146103ed57600080fd5b806306da42e0146102e15780630cd55abf1461035c575b600080fd5b3480156102ed57600080fd5b5061032e6102fc366004613e10565b506006546fffffffffffffffffffffffffffffffff808216927001000000000000000000000000000000009092041690565b604080516fffffffffffffffffffffffffffffffff9384168152929091166020830152015b60405180910390f35b34801561036857600080fd5b50610389610377366004613e4d565b60086020526000908152604090205481565b604051908152602001610353565b3480156103a357600080fd5b506103897f8c5261668696ce22758910d05bab8f186d6eb247ceac2af2e82c7dc17669b03681565b3480156103d757600080fd5b506103eb6103e6366004613f84565b610a0a565b005b3480156103f957600080fd5b506103eb610408366004613e4d565b610a16565b34801561041957600080fd5b506103eb610428366004613fb9565b610b03565b34801561043957600080fd5b5060065461046a9070010000000000000000000000000000000090046fffffffffffffffffffffffffffffffff1681565b6040516fffffffffffffffffffffffffffffffff9091168152602001610353565b34801561049757600080fd5b506103eb6104a6366004614045565b610b64565b3480156104b757600080fd5b5060015473ffffffffffffffffffffffffffffffffffffffff165b60405173ffffffffffffffffffffffffffffffffffffffff9091168152602001610353565b34801561050357600080fd5b506003546104d29073ffffffffffffffffffffffffffffffffffffffff1681565b34801561053057600080fd5b506103eb61053f3660046140df565b610d0a565b34801561055057600080fd5b506103eb61055f366004613fb9565b610f23565b34801561057057600080fd5b506103eb61057f366004614126565b610f7f565b34801561059057600080fd5b506005546104d29073ffffffffffffffffffffffffffffffffffffffff1681565b3480156105bd57600080fd5b506003546105e4907501000000000000000000000000000000000000000000900460ff1681565b6040519015158152602001610353565b34801561060057600080fd5b506103eb610fda565b34801561061557600080fd5b506103eb610624366004614045565b611036565b34801561063557600080fd5b506105e4610644366004614156565b6111d2565b34801561065557600080fd5b506103eb610664366004613e4d565b611250565b34801561067557600080fd5b506105e461068436600461419d565b600c6020526000908152604090205460ff1681565b3480156106a557600080fd5b506103eb6106b43660046141b6565b611310565b3480156106c557600080fd5b5060065461046a906fffffffffffffffffffffffffffffffff1681565b3480156106ee57600080fd5b5060005473ffffffffffffffffffffffffffffffffffffffff166104d2565b34801561071957600080fd5b506105e4610728366004614126565b6113ae565b34801561073957600080fd5b5061038961074836600461419d565b60076020526000908152604090205481565b34801561076657600080fd5b50600b546104d29073ffffffffffffffffffffffffffffffffffffffff1681565b34801561079357600080fd5b506103eb6107a23660046141f7565b6113eb565b3480156107b357600080fd5b506103eb6107c236600461424b565b61163a565b6103eb6107d5366004613e10565b6117e8565b6103eb6107e836600461419d565b6118da565b3480156107f957600080fd5b506103eb610808366004613e4d565b611927565b34801561081957600080fd5b506108417f000000000000000000000000000000000000000000000000000000000000000081565b60405163ffffffff9091168152602001610353565b34801561086257600080fd5b50600a546104d29073ffffffffffffffffffffffffffffffffffffffff1681565b34801561088f57600080fd5b506104d27f000000000000000000000000000000000000000000000000000000000000000081565b3480156108c357600080fd5b506003546105e49074010000000000000000000000000000000000000000900460ff1681565b3480156108f557600080fd5b506103eb6109043660046140df565b611a50565b34801561091557600080fd5b506103eb610924366004614126565b611c77565b34801561093557600080fd5b506104d27f000000000000000000000000000000000000000000000000000000000000000081565b34801561096957600080fd5b506103eb610978366004614277565b611cd2565b34801561098957600080fd5b506009546104d29073ffffffffffffffffffffffffffffffffffffffff1681565b3480156109b657600080fd5b506105e46109c5366004613fb9565b611d34565b3480156109d657600080fd5b506103eb6109e53660046142b9565b611d49565b3480156109f657600080fd5b506103eb610a05366004613f84565b611f9a565b610a1381611fac565b50565b3360009081527f9b7ec560033b826bc253a5f1a8b5e6a61c8d2a6e8731a9872b68296f6024c5ac60205260409020547f5d8e12c39142ff96d79d04d15d1ba1269e4fe57bb9d26f43523628b34ba108ec9060ff16610aa8576040517f962f6333000000000000000000000000000000000000000000000000000000008152600481018290526024015b60405180910390fd5b73ffffffffffffffffffffffffffffffffffffffff8216610af5576040517fd92e233d00000000000000000000000000000000000000000000000000000000815260040160405180910390fd5b610aff8247612011565b5050565b60005473ffffffffffffffffffffffffffffffffffffffff163314610b54576040517f5fc483c500000000000000000000000000000000000000000000000000000000815260040160405180910390fd5b610b5f838383612086565b505050565b60005473ffffffffffffffffffffffffffffffffffffffff163314610bb5576040517f5fc483c500000000000000000000000000000000000000000000000000000000815260040160405180910390fd5b8481141580610bc45750848314155b15610bfb576040517f11e86f7300000000000000000000000000000000000000000000000000000000815260040160405180910390fd5b8460005b81811015610d00576000868683818110610c1b57610c1b614366565b9050602002016020810190610c309190613e10565b63ffffffff161115610cb057610cab888883818110610c5157610c51614366565b90506020020135878784818110610c6a57610c6a614366565b9050602002016020810190610c7f9190613e10565b868685818110610c9157610c91614366565b9050602002016020810190610ca69190613e4d565b612086565b610cf8565b610cf8888883818110610cc557610cc5614366565b90506020020135858584818110610cde57610cde614366565b9050602002016020810190610cf39190613e4d565b6120c3565b600101610bff565b5050505050505050565b604080517f634a973a0f5cd4600a56e0f9a2f08c30188ba14ccde33b0d70b56e34e192d5596020820152309181019190915263ffffffff7f000000000000000000000000000000000000000000000000000000000000000016606082015260808101839052600060a082018190529073ffffffffffffffffffffffffffffffffffffffff7f000000000000000000000000000000000000000000000000000000000000000016906397aba7f99060c00160405160208183030381529060405280519060200120846040518363ffffffff1660e01b8152600401610dee929190614403565b602060405180830381865afa158015610e0b573d6000803e3d6000fd5b505050506040513d601f19601f82011682018060405250810190610e2f919061441c565b9050610e5b7fb0a81253fa41a5cd7c5885c220c30d519a0d552984e0d69edda03449f69fa6db82612146565b73ffffffffffffffffffffffffffffffffffffffff811660009081526008602052604090208054600181019091558314610ec1576040517f756688fe00000000000000000000000000000000000000000000000000000000815260040160405180910390fd5b600380547fffffffffffffffffffffff00ffffffffffffffffffffffffffffffffffffffff169055604051600081527f42a60e0dc12250ea896a8f5156f1f3aa4567cd2bd87a72bc097210dc02ec2e05906020015b60405180910390a1505050565b60005473ffffffffffffffffffffffffffffffffffffffff163314610f74576040517f5fc483c500000000000000000000000000000000000000000000000000000000815260040160405180910390fd5b610b5f8383836121b2565b60005473ffffffffffffffffffffffffffffffffffffffff163314610fd0576040517f5fc483c500000000000000000000000000000000000000000000000000000000815260040160405180910390fd5b610aff82826121ef565b60015473ffffffffffffffffffffffffffffffffffffffff16331461102b576040517f7c91ccdd00000000000000000000000000000000000000000000000000000000815260040160405180910390fd5b61103433612275565b565b60005473ffffffffffffffffffffffffffffffffffffffff163314611087576040517f5fc483c500000000000000000000000000000000000000000000000000000000815260040160405180910390fd5b84811415806110965750848314155b156110cd576040517f11e86f7300000000000000000000000000000000000000000000000000000000815260040160405180910390fd5b8460005b81811015610d005760008686838181106110ed576110ed614366565b90506020020160208101906111029190613e10565b63ffffffff1611156111825761117d88888381811061112357611123614366565b9050602002013587878481811061113c5761113c614366565b90506020020160208101906111519190613e10565b86868581811061116357611163614366565b90506020020160208101906111789190613e4d565b6121b2565b6111ca565b6111ca88888381811061119757611197614366565b905060200201358585848181106111b0576111b0614366565b90506020020160208101906111c59190613e4d565b6121ef565b6001016110d1565b600354600090859074010000000000000000000000000000000000000000900460ff1615611204576000915050611247565b6004548167ffffffffffffffff161015611222576000915050611247565b6000868152600760205260409020548714611241576000915050611247565b60019150505b95945050505050565b60005473ffffffffffffffffffffffffffffffffffffffff1633146112a1576040517f5fc483c500000000000000000000000000000000000000000000000000000000815260040160405180910390fd5b600180547fffffffffffffffffffffffff00000000000000000000000000000000000000001673ffffffffffffffffffffffffffffffffffffffff83169081179091556040517f906a1c6bd7e3091ea86693dd029a831c19049ce77f1dce2ce0bab1cacbabce2290600090a250565b3360009081527f4933f7bec34ee32db93e9f5cd7e0519781b395282211f4f6857489046ea38f7660205260409020547fc4c453d647953c0fd35db5a34ee76e60fb4abc3a8fb891a25936b70b38f292539060ff1661139d576040517f962f633300000000000000000000000000000000000000000000000000000000815260048101829052602401610a9f565b6113a88484846122ed565b50505050565b600082815260026020908152604080832073ffffffffffffffffffffffffffffffffffffffff8516845290915281205460ff165b90505b92915050565b3360009081527f0f4a237b7f9e071a612ddea08a06576f25cc7dffe13a46307ee64fe2318b3c3e60205260409020547f71840dc4906352362b0cdaf79870196c8e42acafade72d5d5a6d59291253ceb19060ff16611478576040517f962f633300000000000000000000000000000000000000000000000000000000815260048101829052602401610a9f565b6003547501000000000000000000000000000000000000000000900460ff16156114ce576040517f0dc149f000000000000000000000000000000000000000000000000000000000815260040160405180910390fd5b60048381556040517f0b04bb4100000000000000000000000000000000000000000000000000000000815263ffffffff881691810191909152602481018690526044810185905273ffffffffffffffffffffffffffffffffffffffff83811660648301526000917f000000000000000000000000000000000000000000000000000000000000000090911690630b04bb419060840160408051808303816000875af1158015611581573d6000803e3d6000fd5b505050506040513d601f19601f820116820180604052508101906115a59190614439565b506003805475010000000000000000000000000000000000000000007fffffffffffffffffffff00ff000000000000000000000000000000000000000090911673ffffffffffffffffffffffffffffffffffffffff93841617179055600580547fffffffffffffffffffffffff0000000000000000000000000000000000000000169490911693909317909255505050505050565b3360009081527f0f4a237b7f9e071a612ddea08a06576f25cc7dffe13a46307ee64fe2318b3c3e60205260409020547f71840dc4906352362b0cdaf79870196c8e42acafade72d5d5a6d59291253ceb19060ff166116c7576040517f962f633300000000000000000000000000000000000000000000000000000000815260048101829052602401610a9f565b6040517f81403a0200000000000000000000000000000000000000000000000000000000815263ffffffff8416600482015273ffffffffffffffffffffffffffffffffffffffff83811660248301527f000000000000000000000000000000000000000000000000000000000000000016906381403a0290604401600060405180830381600087803b15801561175c57600080fd5b505af1158015611770573d6000803e3d6000fd5b5050600580547fffffffffffffffffffffffff00000000000000000000000000000000000000001673ffffffffffffffffffffffffffffffffffffffff86169081179091556040519081527f8d7fa3c81f6134b31f8d89d4a3adeb890d8f0db2a30cbccc23a9c8435f03ad3992506020019050610f16565b7f000000000000000000000000000000000000000000000000000000000000000073ffffffffffffffffffffffffffffffffffffffff16626186f76040518163ffffffff1660e01b8152600401602060405180830381865afa158015611852573d6000803e3d6000fd5b505050506040513d601f19601f82011682018060405250810190611876919061441c565b73ffffffffffffffffffffffffffffffffffffffff163373ffffffffffffffffffffffffffffffffffffffff1614610a13576040517f03c377c500000000000000000000000000000000000000000000000000000000815260040160405180910390fd5b60006118e5826123dd565b90506118f081612411565b6040518281527f118f46da596dcf5757e155f254ae6f1c47c18382c3bddcf0570141bd656304429060200160405180910390a15050565b3360009081527f0f4a237b7f9e071a612ddea08a06576f25cc7dffe13a46307ee64fe2318b3c3e60205260409020547f71840dc4906352362b0cdaf79870196c8e42acafade72d5d5a6d59291253ceb19060ff166119b4576040517f962f633300000000000000000000000000000000000000000000000000000000815260048101829052602401610a9f565b600b546040805173ffffffffffffffffffffffffffffffffffffffff928316815291841660208301527f11557b7c006b8298beb377784ee494517280faec50dbd5e6589dcdb94b283bd2910160405180910390a150600b80547fffffffffffffffffffffffff00000000000000000000000000000000000000001673ffffffffffffffffffffffffffffffffffffffff92909216919091179055565b604080517f052968298b6036970c558bc24c756e7e868d9e6b79756deb4bce3a2d0b1f7ea06020820152309181019190915263ffffffff7f000000000000000000000000000000000000000000000000000000000000000016606082015260808101839052600160a082015260009073ffffffffffffffffffffffffffffffffffffffff7f000000000000000000000000000000000000000000000000000000000000000016906397aba7f99060c00160405160208183030381529060405280519060200120846040518363ffffffff1660e01b8152600401611b34929190614403565b602060405180830381865afa158015611b51573d6000803e3d6000fd5b505050506040513d601f19601f82011682018060405250810190611b75919061441c565b9050611ba17fd66a896d5b3e8cd31bfd557e6ebdb5bba4561c7ce6573d5c6716876cbc83dbdd82612146565b73ffffffffffffffffffffffffffffffffffffffff811660009081526008602052604090208054600181019091558314611c07576040517f756688fe00000000000000000000000000000000000000000000000000000000815260040160405180910390fd5b600380547fffffffffffffffffffffff00ffffffffffffffffffffffffffffffffffffffff1674010000000000000000000000000000000000000000179055604051600181527f42a60e0dc12250ea896a8f5156f1f3aa4567cd2bd87a72bc097210dc02ec2e0590602001610f16565b60005473ffffffffffffffffffffffffffffffffffffffff163314611cc8576040517f5fc483c500000000000000000000000000000000000000000000000000000000815260040160405180910390fd5b610aff82826120c3565b6040517f08c379a000000000000000000000000000000000000000000000000000000000815260206004820152600d60248201527f4f4e4c595f46585f4348494c44000000000000000000000000000000000000006044820152606401610a9f565b6000611d418484846124a2565b949350505050565b604080517ff2deac1744cfd52ddfce21c5ff26abf413f6418dc4a35916e26daefd87e04ab66020820152309181019190915263ffffffff7f0000000000000000000000000000000000000000000000000000000000000000166060820152608081018790526fffffffffffffffffffffffffffffffff80861660a0830152841660c082015260009073ffffffffffffffffffffffffffffffffffffffff7f000000000000000000000000000000000000000000000000000000000000000016906397aba7f99060e0016040516020818303038152906040528051906020012085856040518463ffffffff1660e01b8152600401611e4893929190614468565b602060405180830381865afa158015611e65573d6000803e3d6000fd5b505050506040513d601f19601f82011682018060405250810190611e89919061441c565b9050611eb57f429672025b2dcb8754ca4b57943f34ac66900598787cb1f1e857291dedbf34d382612146565b73ffffffffffffffffffffffffffffffffffffffff811660009081526008602052604090208054600181019091558714611f1b576040517f756688fe00000000000000000000000000000000000000000000000000000000815260040160405180910390fd5b6fffffffffffffffffffffffffffffffff858116700100000000000000000000000000000000868316810282811760068190556040805192861690941782529190910490921660208301527f89c4b3602e1b8a85a33f0479f41d1ea82a498a69064feebc9c43b28fc42fc9d6910160405180910390a150505050505050565b6000611fa582612530565b9050610aff815b60008082806020019051810190611fc391906144bc565b60008281526007602090815260409182902083905581518481529081018390529294509092507f2deb1178e3fb26e6028dd1e65f4b256ad4d081b5378f772dc39abffae644dff89101610f16565b600080600080600085875af1905080610b5f576040517f08c379a000000000000000000000000000000000000000000000000000000000815260206004820152601360248201527f4554485f5452414e534645525f4641494c4544000000000000000000000000006044820152606401610a9f565b610b5f83836040516020016120ab92919091825263ffffffff16602082015260400190565b60405160208183030381529060405280519060200120825b600082815260026020908152604080832073ffffffffffffffffffffffffffffffffffffffff8516808552925280832080547fffffffffffffffffffffffffffffffffffffffffffffffffffffffffffffff0016905551909184917f155aaafb6329a2098580462df33ec4b7441b19729b9601c5fc17ae1cf99a8a529190a35050565b600082815260026020908152604080832073ffffffffffffffffffffffffffffffffffffffff8516845290915290205460ff16610aff576040517f962f633300000000000000000000000000000000000000000000000000000000815260048101839052602401610a9f565b610b5f83836040516020016121d792919091825263ffffffff16602082015260400190565b60405160208183030381529060405280519060200120825b600082815260026020908152604080832073ffffffffffffffffffffffffffffffffffffffff8516808552925280832080547fffffffffffffffffffffffffffffffffffffffffffffffffffffffffffffff0016600117905551909184917f2ae6a113c0ed5b78a53413ffbb7679881f11145ccfba4fb92e863dfcd5a1d2f39190a35050565b6000805473ffffffffffffffffffffffffffffffffffffffff83167fffffffffffffffffffffffff0000000000000000000000000000000000000000918216811783556001805490921690915560405190917ffbe19c9b601f5ee90b44c7390f3fa2319eba01762d34ee372aeafd59b25c7f8791a250565b73ffffffffffffffffffffffffffffffffffffffff821661233a576040517fd92e233d00000000000000000000000000000000000000000000000000000000815260040160405180910390fd5b7fffffffffffffffffffffffff111111111111111111111111111111111111111273ffffffffffffffffffffffffffffffffffffffff84160161238157610b5f8282612011565b8273ffffffffffffffffffffffffffffffffffffffff163b6000036123d2576040517f1eb00b0600000000000000000000000000000000000000000000000000000000815260040160405180910390fd5b610b5f838383612911565b6060816123e9836129e0565b6040805160208101939093528201526060016040516020818303038152906040529050919050565b600954600b546040517fb472047700000000000000000000000000000000000000000000000000000000815273ffffffffffffffffffffffffffffffffffffffff9283169263b47204779261246d9291169085906004016144e0565b600060405180830381600087803b15801561248757600080fd5b505af115801561249b573d6000803e3d6000fd5b5050505050565b6000611d4184846040516020016124c992919091825263ffffffff16602082015260400190565b604080517fffffffffffffffffffffffffffffffffffffffffffffffffffffffffffffffe0818403018152918152815160209283012060009081526002835281812073ffffffffffffffffffffffffffffffffffffffff8716825290925290205460ff1690565b6060600061253d83612ac0565b9050600061254a82612b1f565b9050600061255783612b48565b905060008161256584612b71565b61256e86612d5f565b6040516020016125809392919061450f565b604080517fffffffffffffffffffffffffffffffffffffffffffffffffffffffffffffffe081840301815291815281516020928301206000818152600c90935291205490915060ff1615612655576040517f08c379a0000000000000000000000000000000000000000000000000000000008152602060048201526024808201527f4678526f6f7454756e6e656c3a20455849545f414c52454144595f50524f434560448201527f53534544000000000000000000000000000000000000000000000000000000006064820152608401610a9f565b6000818152600c6020526040812080547fffffffffffffffffffffffffffffffffffffffffffffffffffffffffffffff0016600117905561269585612d7b565b905060006126a282612ec5565b90506126ad81612f55565b600b5473ffffffffffffffffffffffffffffffffffffffff908116911614612757576040517f08c379a000000000000000000000000000000000000000000000000000000000815260206004820152602560248201527f4678526f6f7454756e6e656c3a20494e56414c49445f46585f4348494c445f5460448201527f554e4e454c0000000000000000000000000000000000000000000000000000006064820152608401610a9f565b600061276287612f7e565b9050612782612772846020015190565b8761277c8a612f9a565b84612fb6565b61280e576040517f08c379a000000000000000000000000000000000000000000000000000000000815260206004820152602360248201527f4678526f6f7454756e6e656c3a20494e56414c49445f524543454950545f505260448201527f4f4f4600000000000000000000000000000000000000000000000000000000006064820152608401610a9f565b61283c8561281b89613268565b6128248a613284565b8461282e8c6132a0565b6128378d6132bc565b6132d8565b600061284783613438565b90507f8c5261668696ce22758910d05bab8f186d6eb247ceac2af2e82c7dc17669b03661287d612878836000613474565b6134ac565b146128e4576040517f08c379a000000000000000000000000000000000000000000000000000000000815260206004820152601f60248201527f4678526f6f7454756e6e656c3a20494e56414c49445f5349474e4154555245006044820152606401610a9f565b60006128ef84613527565b806020019051810190612902919061453c565b9b9a5050505050505050505050565b60006040517fa9059cbb00000000000000000000000000000000000000000000000000000000815273ffffffffffffffffffffffffffffffffffffffff84166004820152826024820152602060006044836000895af13d15601f3d11600160005114161716915050806113a8576040517f08c379a000000000000000000000000000000000000000000000000000000000815260206004820152600f60248201527f5452414e534645525f4641494c454400000000000000000000000000000000006044820152606401610a9f565b6003546040517fd1af313c00000000000000000000000000000000000000000000000000000000815267ffffffffffffffff83166004820152600091839173ffffffffffffffffffffffffffffffffffffffff9091169063d1af313c90602401602060405180830381865afa158015612a5d573d6000803e3d6000fd5b505050506040513d601f19601f82011682018060405250810190612a8191906145aa565b915081612aba576040517f849713b000000000000000000000000000000000000000000000000000000000815260040160405180910390fd5b50919050565b6040805160208101909152606081526000612b0a612b058460408051808201825260008082526020918201528151808301909252825182529182019181019190915290565b613543565b60408051602081019091529081529392505050565b60606113e58260000151600881518110612b3b57612b3b614366565b6020026020010151613659565b60006113e58260000151600281518110612b6457612b64614366565b60200260200101516134ac565b604080516020810190915260008152815160609190156113e557600080612b996000866136f6565b60f81c90506001811480612bb057508060ff166003145b15612c7057600185516002612bc591906145f2565b612bcf9190614609565b67ffffffffffffffff811115612be757612be7613e6a565b6040519080825280601f01601f191660200182016040528015612c11576020820181803683370190505b5092506000612c216001876136f6565b90508084600081518110612c3757612c37614366565b60200101907effffffffffffffffffffffffffffffffffffffffffffffffffffffffffffff1916908160001a9053506001925050612cd4565b600285516002612c8091906145f2565b612c8a9190614609565b67ffffffffffffffff811115612ca257612ca2613e6a565b6040519080825280601f01601f191660200182016040528015612ccc576020820181803683370190505b509250600091505b60ff82165b8351811015612d5657612d03612cf260ff851683614609565b612cfd90600261461c565b876136f6565b848281518110612d1557612d15614366565b60200101907effffffffffffffffffffffffffffffffffffffffffffffffffffffffffffff1916908160001a90535080612d4e8161462f565b915050612cd9565b50505092915050565b60006113e58260000151600981518110612b6457612b64614366565b612d9f60405180606001604052806060815260200160608152602001600081525090565b612db98260000151600681518110612b3b57612b3b614366565b602082810182905260408051808201825260008082529083015280518082019091528251815291810190820152612def81613777565b15612e0457612dfd81613543565b8252612eb1565b60208201518051600090612e1a90600190614609565b67ffffffffffffffff811115612e3257612e32613e6a565b6040519080825280601f01601f191660200182016040528015612e5c576020820181803683370190505b509050600080836021019150826020019050612e7a828285516137b2565b604080518082018252600080825260209182015281518083019092528451825280850190820152612eaa90613543565b8652505050505b612eba83612d5f565b604083015250919050565b604080516080810182526000918101828152606080830193909352815260208101919091526000612f138360000151600381518110612f0657612f06614366565b6020026020010151613543565b836040015181518110612f2857612f28614366565b602002602001015190506040518060400160405280828152602001612f4c83613543565b90529392505050565b60006113e58260200151600081518110612f7157612f71614366565b602002602001015161383d565b60006113e58260000151600581518110612b6457612b64614366565b60606113e58260000151600781518110612b3b57612b3b614366565b600080612fea8460408051808201825260008082526020918201528151808301909252825182529182019181019190915290565b90506000612ff782613543565b9050606080856000806130098b612b71565b90508051600003613024576000975050505050505050611d41565b60005b865181101561325857815183111561304a57600098505050505050505050611d41565b61306c87828151811061305f5761305f614366565b6020026020010151613857565b95508580519060200120841461308d57600098505050505050505050611d41565b6130a2878281518110612f0657612f06614366565b945084516011036131745781518303613101578c805190602001206130d386601081518110612b3b57612b3b614366565b80519060200120036130f057600198505050505050505050611d41565b600098505050505050505050611d41565b600082848151811061311557613115614366565b016020015160f81c9050601081111561313a5760009950505050505050505050611d41565b61315f868260ff168151811061315257613152614366565b60200260200101516138d6565b945061316c60018561461c565b935050613246565b84516002036130f057600061319f61319887600081518110612b3b57612b3b614366565b8486613904565b83519091506131ae828661461c565b03613201578d805190602001206131d187600181518110612b3b57612b3b614366565b80519060200120036131ef5760019950505050505050505050611d41565b60009950505050505050505050611d41565b8060000361321b5760009950505050505050505050611d41565b613225818561461c565b935061323d8660018151811061315257613152614366565b94506132469050565b806132508161462f565b915050613027565b5050505050505050949350505050565b60006113e58260000151600381518110612b6457612b64614366565b60006113e58260000151600481518110612b6457612b64614366565b60006113e58260000151600081518110612b6457612b64614366565b60606113e58260000151600181518110612b3b57612b3b614366565b600a546040517f41539d4a000000000000000000000000000000000000000000000000000000008152600481018490526000918291829173ffffffffffffffffffffffffffffffffffffffff16906341539d4a9060240160a060405180830381865afa15801561334c573d6000803e3d6000fd5b505050506040513d601f19601f820116820180604052508101906133709190614667565b50935050925092506133c7828a6133879190614609565b6040805160208082018e90528183018d9052606082018c905260808083018c90528351808403909101815260a09092019092528051910120908587613a3c565b61342d576040517f08c379a000000000000000000000000000000000000000000000000000000000815260206004820152601c60248201527f4678526f6f7454756e6e656c3a20494e56414c49445f484541444552000000006044820152606401610a9f565b505050505050505050565b604080516020810190915260608152604051806020016040528061346c8460200151600181518110612f0657612f06614366565b905292915050565b6040805180820190915260008082526020820152825180518390811061349c5761349c614366565b6020026020010151905092915050565b8051600090158015906134c157508151602110155b6134ca57600080fd5b60006134d98360200151613be9565b905060008184600001516134ed9190614609565b9050600080838660200151613502919061461c565b905080519150602083101561351e57826020036101000a820491505b50949350505050565b60606113e58260200151600281518110612b3b57612b3b614366565b606061354e82613777565b61355757600080fd5b600061356283613c6b565b905060008167ffffffffffffffff81111561357f5761357f613e6a565b6040519080825280602002602001820160405280156135c457816020015b604080518082019091526000808252602082015281526020019060019003908161359d5790505b50905060006135d68560200151613be9565b85602001516135e5919061461c565b90506000805b8481101561364e576135fc83613cf0565b915060405180604001604052808381526020018481525084828151811061362557613625614366565b602090810291909101015261363a828461461c565b9250806136468161462f565b9150506135eb565b509195945050505050565b805160609061366757600080fd5b60006136768360200151613be9565b9050600081846000015161368a9190614609565b905060008167ffffffffffffffff8111156136a7576136a7613e6a565b6040519080825280601f01601f1916602001820160405280156136d1576020820181803683370190505b509050600081602001905061351e8487602001516136ef919061461c565b8285613db2565b60006137036002846146d5565b1561373d576010826137166002866146e9565b8151811061372657613726614366565b0160200151613738919060f81c6146fd565b61376d565b60108261374b6002866146e9565b8151811061375b5761375b614366565b016020015161376d919060f81c61471f565b60f81b9392505050565b8051600090810361378a57506000919050565b6020820151805160001a9060c08210156137a8575060009392505050565b5060019392505050565b806000036137bf57505050565b602081106137f757825182526137d660208461461c565b92506137e360208361461c565b91506137f0602082614609565b90506137bf565b8060000361380457505050565b60006001613813836020614609565b61381f90610100614861565b6138299190614609565b935183518516941916939093179091525050565b805160009060151461384e57600080fd5b6113e5826134ac565b60606000826000015167ffffffffffffffff81111561387857613878613e6a565b6040519080825280601f01601f1916602001820160405280156138a2576020820181803683370190505b50905080516000036138b45792915050565b60008160200190506138cf8460200151828660000151613db2565b5092915050565b80516000906021146138e757600080fd5b600080836020015160016138fb919061461c565b51949350505050565b6000808061391186612b71565b90506000815167ffffffffffffffff81111561392f5761392f613e6a565b6040519080825280601f01601f191660200182016040528015613959576020820181803683370190505b509050845b825161396a908761461c565b811015613a0d57600087828151811061398557613985614366565b01602001517fff0000000000000000000000000000000000000000000000000000000000000016905080836139ba8985614609565b815181106139ca576139ca614366565b60200101907effffffffffffffffffffffffffffffffffffffffffffffffffffffffffffff1916908160001a905350508080613a059061462f565b91505061395e565b508080519060200120828051906020012003613a2c5781519250613a31565b600092505b509095945050505050565b600060208251613a4c91906146d5565b15613ab3576040517f08c379a000000000000000000000000000000000000000000000000000000000815260206004820152601460248201527f496e76616c69642070726f6f66206c656e6774680000000000000000000000006044820152606401610a9f565b600060208351613ac391906146e9565b9050613ad0816002614861565b8510613b38576040517f08c379a000000000000000000000000000000000000000000000000000000000815260206004820152601560248201527f4c65616620696e64657820697320746f6f2062696700000000000000000000006044820152606401610a9f565b60008660205b85518111613bdb57858101519250613b576002896146d5565b600003613b8f576040805160208101849052908101849052606001604051602081830303815290604052805190602001209150613bbc565b60408051602081018590529081018390526060016040516020818303038152906040528051906020012091505b613bc76002896146e9565b9750613bd460208261461c565b9050613b3e565b509094149695505050505050565b8051600090811a6080811015613c025750600092915050565b60b8811080613c1d575060c08110801590613c1d575060f881105b15613c2b5750600192915050565b60c0811015613c5f57613c40600160b861486d565b613c4d9060ff1682614609565b613c5890600161461c565b9392505050565b613c40600160f861486d565b80516000908103613c7e57506000919050565b600080613c8e8460200151613be9565b8460200151613c9d919061461c565b9050600084600001518560200151613cb5919061461c565b90505b80821015613ce757613cc982613cf0565b613cd3908361461c565b915082613cdf8161462f565b935050613cb8565b50909392505050565b80516000908190811a6080811015613d0b57600191506138cf565b60b8811015613d3157613d1f608082614609565b613d2a90600161461c565b91506138cf565b60c0811015613d5e5760b78103600185019450806020036101000a855104600182018101935050506138cf565b60f8811015613d7257613d1f60c082614609565b60019390930151602084900360f7016101000a90049092017fffffffffffffffffffffffffffffffffffffffffffffffffffffffffffffff0a0192915050565b80600003613dbf57505050565b602081106137f75782518252613dd660208461461c565b9250613de360208361461c565b9150613df0602082614609565b9050613dbf565b803563ffffffff81168114613e0b57600080fd5b919050565b600060208284031215613e2257600080fd5b6113e282613df7565b73ffffffffffffffffffffffffffffffffffffffff81168114610a1357600080fd5b600060208284031215613e5f57600080fd5b8135613c5881613e2b565b7f4e487b7100000000000000000000000000000000000000000000000000000000600052604160045260246000fd5b604051601f82017fffffffffffffffffffffffffffffffffffffffffffffffffffffffffffffffe016810167ffffffffffffffff81118282101715613ee057613ee0613e6a565b604052919050565b600067ffffffffffffffff821115613f0257613f02613e6a565b50601f017fffffffffffffffffffffffffffffffffffffffffffffffffffffffffffffffe01660200190565b600082601f830112613f3f57600080fd5b8135613f52613f4d82613ee8565b613e99565b818152846020838601011115613f6757600080fd5b816020850160208301376000918101602001919091529392505050565b600060208284031215613f9657600080fd5b813567ffffffffffffffff811115613fad57600080fd5b611d4184828501613f2e565b600080600060608486031215613fce57600080fd5b83359250613fde60208501613df7565b91506040840135613fee81613e2b565b809150509250925092565b60008083601f84011261400b57600080fd5b50813567ffffffffffffffff81111561402357600080fd5b6020830191508360208260051b850101111561403e57600080fd5b9250929050565b6000806000806000806060878903121561405e57600080fd5b863567ffffffffffffffff8082111561407657600080fd5b6140828a838b01613ff9565b9098509650602089013591508082111561409b57600080fd5b6140a78a838b01613ff9565b909650945060408901359150808211156140c057600080fd5b506140cd89828a01613ff9565b979a9699509497509295939492505050565b600080604083850312156140f257600080fd5b82359150602083013567ffffffffffffffff81111561411057600080fd5b61411c85828601613f2e565b9150509250929050565b6000806040838503121561413957600080fd5b82359150602083013561414b81613e2b565b809150509250929050565b600080600080600060a0868803121561416e57600080fd5b85359450602086013593506040860135925061418c60608701613df7565b949793965091946080013592915050565b6000602082840312156141af57600080fd5b5035919050565b6000806000606084860312156141cb57600080fd5b83356141d681613e2b565b925060208401356141e681613e2b565b929592945050506040919091013590565b600080600080600060a0868803121561420f57600080fd5b61421886613df7565b9450602086013593506040860135925060608601359150608086013561423d81613e2b565b809150509295509295909350565b6000806040838503121561425e57600080fd5b61426783613df7565b9150602083013561414b81613e2b565b6000806040838503121561428a57600080fd5b50508035926020909101359150565b80356fffffffffffffffffffffffffffffffff81168114613e0b57600080fd5b60008060008060008060a087890312156142d257600080fd5b863595506142e260208801613df7565b94506142f060408801614299565b93506142fe60608801614299565b9250608087013567ffffffffffffffff8082111561431b57600080fd5b818901915089601f83011261432f57600080fd5b81358181111561433e57600080fd5b8a602082850101111561435057600080fd5b6020830194508093505050509295509295509295565b7f4e487b7100000000000000000000000000000000000000000000000000000000600052603260045260246000fd5b60005b838110156143b0578181015183820152602001614398565b50506000910152565b600081518084526143d1816020860160208601614395565b601f017fffffffffffffffffffffffffffffffffffffffffffffffffffffffffffffffe0169290920160200192915050565b828152604060208201526000611d4160408301846143b9565b60006020828403121561442e57600080fd5b8151613c5881613e2b565b6000806040838503121561444c57600080fd5b825161445781613e2b565b602084015190925061414b81613e2b565b83815260406020820152816040820152818360608301376000818301606090810191909152601f9092017fffffffffffffffffffffffffffffffffffffffffffffffffffffffffffffffe016010192915050565b600080604083850312156144cf57600080fd5b505080516020909101519092909150565b73ffffffffffffffffffffffffffffffffffffffff83168152604060208201526000611d4160408301846143b9565b83815260008351614527816020850160208801614395565b60209201918201929092526040019392505050565b60006020828403121561454e57600080fd5b815167ffffffffffffffff81111561456557600080fd5b8201601f8101841361457657600080fd5b8051614584613f4d82613ee8565b81815285602083850101111561459957600080fd5b611247826020830160208601614395565b6000602082840312156145bc57600080fd5b5051919050565b7f4e487b7100000000000000000000000000000000000000000000000000000000600052601160045260246000fd5b80820281158282048414176113e5576113e56145c3565b818103818111156113e5576113e56145c3565b808201808211156113e5576113e56145c3565b60007fffffffffffffffffffffffffffffffffffffffffffffffffffffffffffffffff8203614660576146606145c3565b5060010190565b600080600080600060a0868803121561467f57600080fd5b85519450602086015193506040860151925060608601519150608086015161423d81613e2b565b7f4e487b7100000000000000000000000000000000000000000000000000000000600052601260045260246000fd5b6000826146e4576146e46146a6565b500690565b6000826146f8576146f86146a6565b500490565b600060ff831680614710576147106146a6565b8060ff84160691505092915050565b600060ff831680614732576147326146a6565b8060ff84160491505092915050565b600181815b8085111561479a57817fffffffffffffffffffffffffffffffffffffffffffffffffffffffffffffffff04821115614780576147806145c3565b8085161561478d57918102915b93841c9390800290614746565b509250929050565b6000826147b1575060016113e5565b816147be575060006113e5565b81600181146147d457600281146147de576147fa565b60019150506113e5565b60ff8411156147ef576147ef6145c3565b50506001821b6113e5565b5060208310610133831016604e8410600b841016171561481d575081810a6113e5565b6148278383614741565b807fffffffffffffffffffffffffffffffffffffffffffffffffffffffffffffffff04821115614859576148596145c3565b029392505050565b60006113e283836147a2565b60ff82811682821603908111156113e5576113e56145c356fea2646970667358221220986fc955ba7cfd37e0b9830bf4c04191f30384eb0adc4bbc10b7fd024d779d5364736f6c63430008130033",
  "linkReferences": {},
  "deployedLinkReferences": {}
}