{
  "_format": "hh-sol-artifact-1",
  "contractName": "KintoDeployer",
  "sourceName": "contracts/utils/KintoDeployer.sol",
  "abi": [
    {
      "anonymous": false,
      "inputs": [
        {
          "indexed": true,
          "internalType": "address",
          "name": "addr",
          "type": "address"
        }
      ],
      "name": "ContractDeployed",
      "type": "event"
    },
    {
      "inputs": [
        {
          "internalType": "address",
          "name": "nominee",
          "type": "address"
        },
        {
          "internalType": "bytes",
          "name": "bytecode",
          "type": "bytes"
        },
        {
          "internalType": "bytes32",
          "name": "salt",
          "type": "bytes32"
        }
      ],
      "name": "deploy",
      "outputs": [
        {
          "internalType": "address",
          "name": "",
          "type": "address"
        }
      ],
      "stateMutability": "payable",
      "type": "function"
    }
  ],
  "bytecode": "0x608060405234801561001057600080fd5b5061041e806100206000396000f3fe60806040526004361061001e5760003560e01c806337e9ccea14610023575b600080fd5b6100366100313660046102d9565b61005f565b60405173ffffffffffffffffffffffffffffffffffffffff909116815260200160405180910390f35b600080828451602086016000f5905073ffffffffffffffffffffffffffffffffffffffff81166100ef576040517f08c379a000000000000000000000000000000000000000000000000000000000815260206004820152601960248201527f4661696c656420746f206465706c6f7920636f6e747261637400000000000000604482015260640160405180910390fd5b8073ffffffffffffffffffffffffffffffffffffffff16638da5cb5b6040518163ffffffff1660e01b8152600401602060405180830381865afa925050508015610174575060408051601f3d9081017fffffffffffffffffffffffffffffffffffffffffffffffffffffffffffffffe0168201909252610171918101906103c4565b60015b1561023c5773ffffffffffffffffffffffffffffffffffffffff8116301480156101b3575073ffffffffffffffffffffffffffffffffffffffff861615155b1561023a576040517f5b94db2700000000000000000000000000000000000000000000000000000000815273ffffffffffffffffffffffffffffffffffffffff8781166004830152831690635b94db2790602401600060405180830381600087803b15801561022157600080fd5b505af1158015610235573d6000803e3d6000fd5b505050505b505b60405173ffffffffffffffffffffffffffffffffffffffff8216907f8ffcdc15a283d706d38281f500270d8b5a656918f555de0913d7455e3e6bc1bf90600090a2949350505050565b73ffffffffffffffffffffffffffffffffffffffff811681146102a757600080fd5b50565b7f4e487b7100000000000000000000000000000000000000000000000000000000600052604160045260246000fd5b6000806000606084860312156102ee57600080fd5b83356102f981610285565b9250602084013567ffffffffffffffff8082111561031657600080fd5b818601915086601f83011261032a57600080fd5b81358181111561033c5761033c6102aa565b604051601f82017fffffffffffffffffffffffffffffffffffffffffffffffffffffffffffffffe0908116603f01168101908382118183101715610382576103826102aa565b8160405282815289602084870101111561039b57600080fd5b826020860160208301376000602084830101528096505050505050604084013590509250925092565b6000602082840312156103d657600080fd5b81516103e181610285565b939250505056fea26469706673582212203be897be6c4acb589c2556ebeafd5e39af3559464392923a91b8b3aa941a50c664736f6c63430008130033",
  "linkReferences": {},
  "deployedLinkReferences": {}
}