{
  "_format": "hh-sol-artifact-1",
  "contractName": "OpenExecutionManager",
  "sourceName": "contracts/OpenExecutionManager.sol",
  "abi": [
    {
      "inputs": [
        {
          "internalType": "address",
          "name": "owner_",
          "type": "address"
        },
        {
          "internalType": "uint32",
          "name": "chainSlug_",
          "type": "uint32"
        },
        {
          "internalType": "contract ISocket",
          "name": "socket_",
          "type": "address"
        },
        {
          "internalType": "contract ISignatureVerifier",
          "name": "signatureVerifier_",
          "type": "address"
        }
      ],
      "stateMutability": "nonpayable",
      "type": "constructor"
    },
    {
      "inputs": [],
      "name": "FeesTooHigh",
      "type": "error"
    },
    {
      "inputs": [],
      "name": "InsufficientFees",
      "type": "error"
    },
    {
      "inputs": [],
      "name": "InsufficientMsgValue",
      "type": "error"
    },
    {
      "inputs": [],
      "name": "InvalidMsgValue",
      "type": "error"
    },
    {
      "inputs": [],
      "name": "InvalidNonce",
      "type": "error"
    },
    {
      "inputs": [],
      "name": "InvalidTokenAddress",
      "type": "error"
    },
    {
      "inputs": [],
      "name": "MsgValueTooHigh",
      "type": "error"
    },
    {
      "inputs": [],
      "name": "MsgValueTooLow",
      "type": "error"
    },
    {
      "inputs": [
        {
          "internalType": "bytes32",
          "name": "role",
          "type": "bytes32"
        }
      ],
      "name": "NoPermit",
      "type": "error"
    },
    {
      "inputs": [],
      "name": "OnlyNominee",
      "type": "error"
    },
    {
      "inputs": [],
      "name": "OnlyOwner",
      "type": "error"
    },
    {
      "inputs": [],
      "name": "OnlySocket",
      "type": "error"
    },
    {
      "inputs": [],
      "name": "PayloadTooLarge",
      "type": "error"
    },
    {
      "inputs": [],
      "name": "UnequalArrayLengths",
      "type": "error"
    },
    {
      "inputs": [],
      "name": "ZeroAddress",
      "type": "error"
    },
    {
      "anonymous": false,
      "inputs": [
        {
          "indexed": false,
          "internalType": "uint256",
          "name": "siblingChainSlug",
          "type": "uint256"
        },
        {
          "indexed": false,
          "internalType": "uint128",
          "name": "executionFees",
          "type": "uint128"
        }
      ],
      "name": "ExecutionFeesSet",
      "type": "event"
    },
    {
      "anonymous": false,
      "inputs": [
        {
          "indexed": false,
          "internalType": "address",
          "name": "account",
          "type": "address"
        },
        {
          "indexed": false,
          "internalType": "uint32",
          "name": "siblingChainSlug",
          "type": "uint32"
        },
        {
          "indexed": false,
          "internalType": "uint256",
          "name": "amount",
          "type": "uint256"
        }
      ],
      "name": "ExecutionFeesWithdrawn",
      "type": "event"
    },
    {
      "anonymous": false,
      "inputs": [
        {
          "indexed": false,
          "internalType": "uint256",
          "name": "siblingChainSlug",
          "type": "uint256"
        },
        {
          "indexed": false,
          "internalType": "uint256",
          "name": "msgValueMaxThresholdSet",
          "type": "uint256"
        }
      ],
      "name": "MsgValueMaxThresholdSet",
      "type": "event"
    },
    {
      "anonymous": false,
      "inputs": [
        {
          "indexed": false,
          "internalType": "uint256",
          "name": "siblingChainSlug",
          "type": "uint256"
        },
        {
          "indexed": false,
          "internalType": "uint256",
          "name": "msgValueMinThresholdSet",
          "type": "uint256"
        }
      ],
      "name": "MsgValueMinThresholdSet",
      "type": "event"
    },
    {
      "anonymous": false,
      "inputs": [
        {
          "indexed": true,
          "internalType": "address",
          "name": "claimer",
          "type": "address"
        }
      ],
      "name": "OwnerClaimed",
      "type": "event"
    },
    {
      "anonymous": false,
      "inputs": [
        {
          "indexed": true,
          "internalType": "address",
          "name": "nominee",
          "type": "address"
        }
      ],
      "name": "OwnerNominated",
      "type": "event"
    },
    {
      "anonymous": false,
      "inputs": [
        {
          "indexed": false,
          "internalType": "uint256",
          "name": "siblingChainSlug",
          "type": "uint256"
        },
        {
          "indexed": false,
          "internalType": "uint256",
          "name": "relativeNativeTokenPrice",
          "type": "uint256"
        }
      ],
      "name": "RelativeNativeTokenPriceSet",
      "type": "event"
    },
    {
      "anonymous": false,
      "inputs": [
        {
          "indexed": true,
          "internalType": "bytes32",
          "name": "role",
          "type": "bytes32"
        },
        {
          "indexed": true,
          "internalType": "address",
          "name": "grantee",
          "type": "address"
        }
      ],
      "name": "RoleGranted",
      "type": "event"
    },
    {
      "anonymous": false,
      "inputs": [
        {
          "indexed": true,
          "internalType": "bytes32",
          "name": "role",
          "type": "bytes32"
        },
        {
          "indexed": true,
          "internalType": "address",
          "name": "revokee",
          "type": "address"
        }
      ],
      "name": "RoleRevoked",
      "type": "event"
    },
    {
      "anonymous": false,
      "inputs": [
        {
          "indexed": false,
          "internalType": "address",
          "name": "switchboard",
          "type": "address"
        },
        {
          "indexed": false,
          "internalType": "uint32",
          "name": "siblingChainSlug",
          "type": "uint32"
        },
        {
          "indexed": false,
          "internalType": "uint256",
          "name": "amount",
          "type": "uint256"
        }
      ],
      "name": "SwitchboardFeesWithdrawn",
      "type": "event"
    },
    {
      "anonymous": false,
      "inputs": [
        {
          "indexed": false,
          "internalType": "address",
          "name": "transmitManager",
          "type": "address"
        },
        {
          "indexed": false,
          "internalType": "uint32",
          "name": "siblingChainSlug",
          "type": "uint32"
        },
        {
          "indexed": false,
          "internalType": "uint256",
          "name": "amount",
          "type": "uint256"
        }
      ],
      "name": "TransmissionFeesWithdrawn",
      "type": "event"
    },
    {
      "inputs": [],
      "name": "chainSlug",
      "outputs": [
        {
          "internalType": "uint32",
          "name": "",
          "type": "uint32"
        }
      ],
      "stateMutability": "view",
      "type": "function"
    },
    {
      "inputs": [],
      "name": "claimOwner",
      "outputs": [],
      "stateMutability": "nonpayable",
      "type": "function"
    },
    {
      "inputs": [
        {
          "internalType": "uint32",
          "name": "",
          "type": "uint32"
        }
      ],
      "name": "executionFees",
      "outputs": [
        {
          "internalType": "uint128",
          "name": "",
          "type": "uint128"
        }
      ],
      "stateMutability": "view",
      "type": "function"
    },
    {
      "inputs": [
        {
          "internalType": "uint256",
          "name": "minMsgGasLimit_",
          "type": "uint256"
        },
        {
          "internalType": "uint256",
          "name": "payloadSize_",
          "type": "uint256"
        },
        {
          "internalType": "bytes32",
          "name": "executionParams_",
          "type": "bytes32"
        },
        {
          "internalType": "bytes32",
          "name": "",
          "type": "bytes32"
        },
        {
          "internalType": "uint32",
          "name": "siblingChainSlug_",
          "type": "uint32"
        },
        {
          "internalType": "address",
          "name": "transmitManager_",
          "type": "address"
        }
      ],
      "name": "getExecutionTransmissionMinFees",
      "outputs": [
        {
          "internalType": "uint128",
          "name": "minExecutionFee",
          "type": "uint128"
        },
        {
          "internalType": "uint128",
          "name": "transmissionFees",
          "type": "uint128"
        }
      ],
      "stateMutability": "view",
      "type": "function"
    },
    {
      "inputs": [
        {
          "internalType": "uint256",
          "name": "gasLimit_",
          "type": "uint256"
        },
        {
          "internalType": "uint256",
          "name": "payloadSize_",
          "type": "uint256"
        },
        {
          "internalType": "bytes32",
          "name": "executionParams_",
          "type": "bytes32"
        },
        {
          "internalType": "uint32",
          "name": "siblingChainSlug_",
          "type": "uint32"
        }
      ],
      "name": "getMinFees",
      "outputs": [
        {
          "internalType": "uint128",
          "name": "minExecutionFee",
          "type": "uint128"
        }
      ],
      "stateMutability": "view",
      "type": "function"
    },
    {
      "inputs": [
        {
          "internalType": "bytes32[]",
          "name": "roleNames_",
          "type": "bytes32[]"
        },
        {
          "internalType": "uint32[]",
          "name": "slugs_",
          "type": "uint32[]"
        },
        {
          "internalType": "address[]",
          "name": "grantees_",
          "type": "address[]"
        }
      ],
      "name": "grantBatchRole",
      "outputs": [],
      "stateMutability": "nonpayable",
      "type": "function"
    },
    {
      "inputs": [
        {
          "internalType": "bytes32",
          "name": "role_",
          "type": "bytes32"
        },
        {
          "internalType": "address",
          "name": "grantee_",
          "type": "address"
        }
      ],
      "name": "grantRole",
      "outputs": [],
      "stateMutability": "nonpayable",
      "type": "function"
    },
    {
      "inputs": [
        {
          "internalType": "bytes32",
          "name": "roleName_",
          "type": "bytes32"
        },
        {
          "internalType": "uint32",
          "name": "chainSlug_",
          "type": "uint32"
        },
        {
          "internalType": "address",
          "name": "grantee_",
          "type": "address"
        }
      ],
      "name": "grantRoleWithSlug",
      "outputs": [],
      "stateMutability": "nonpayable",
      "type": "function"
    },
    {
      "inputs": [
        {
          "internalType": "bytes32",
          "name": "role_",
          "type": "bytes32"
        },
        {
          "internalType": "address",
          "name": "address_",
          "type": "address"
        }
      ],
      "name": "hasRole",
      "outputs": [
        {
          "internalType": "bool",
          "name": "",
          "type": "bool"
        }
      ],
      "stateMutability": "view",
      "type": "function"
    },
    {
      "inputs": [
        {
          "internalType": "bytes32",
          "name": "roleName_",
          "type": "bytes32"
        },
        {
          "internalType": "uint32",
          "name": "chainSlug_",
          "type": "uint32"
        },
        {
          "internalType": "address",
          "name": "address_",
          "type": "address"
        }
      ],
      "name": "hasRoleWithSlug",
      "outputs": [
        {
          "internalType": "bool",
          "name": "",
          "type": "bool"
        }
      ],
      "stateMutability": "view",
      "type": "function"
    },
    {
      "inputs": [
        {
          "internalType": "bytes32",
          "name": "packedMessage",
          "type": "bytes32"
        },
        {
          "internalType": "bytes",
          "name": "sig",
          "type": "bytes"
        }
      ],
      "name": "isExecutor",
      "outputs": [
        {
          "internalType": "address",
          "name": "executor",
          "type": "address"
        },
        {
          "internalType": "bool",
          "name": "isValidExecutor",
          "type": "bool"
        }
      ],
      "stateMutability": "view",
      "type": "function"
    },
    {
      "inputs": [
        {
          "internalType": "uint32",
          "name": "",
          "type": "uint32"
        }
      ],
      "name": "msgValueMaxThreshold",
      "outputs": [
        {
          "internalType": "uint256",
          "name": "",
          "type": "uint256"
        }
      ],
      "stateMutability": "view",
      "type": "function"
    },
    {
      "inputs": [
        {
          "internalType": "uint32",
          "name": "",
          "type": "uint32"
        }
      ],
      "name": "msgValueMinThreshold",
      "outputs": [
        {
          "internalType": "uint256",
          "name": "",
          "type": "uint256"
        }
      ],
      "stateMutability": "view",
      "type": "function"
    },
    {
      "inputs": [
        {
          "internalType": "address",
          "name": "",
          "type": "address"
        }
      ],
      "name": "nextNonce",
      "outputs": [
        {
          "internalType": "uint256",
          "name": "",
          "type": "uint256"
        }
      ],
      "stateMutability": "view",
      "type": "function"
    },
    {
      "inputs": [
        {
          "internalType": "address",
          "name": "nominee_",
          "type": "address"
        }
      ],
      "name": "nominateOwner",
      "outputs": [],
      "stateMutability": "nonpayable",
      "type": "function"
    },
    {
      "inputs": [],
      "name": "nominee",
      "outputs": [
        {
          "internalType": "address",
          "name": "",
          "type": "address"
        }
      ],
      "stateMutability": "view",
      "type": "function"
    },
    {
      "inputs": [],
      "name": "owner",
      "outputs": [
        {
          "internalType": "address",
          "name": "",
          "type": "address"
        }
      ],
      "stateMutability": "view",
      "type": "function"
    },
    {
      "inputs": [
        {
          "internalType": "uint256",
          "name": "minMsgGasLimit_",
          "type": "uint256"
        },
        {
          "internalType": "uint256",
          "name": "payloadSize_",
          "type": "uint256"
        },
        {
          "internalType": "bytes32",
          "name": "executionParams_",
          "type": "bytes32"
        },
        {
          "internalType": "bytes32",
          "name": "",
          "type": "bytes32"
        },
        {
          "internalType": "uint32",
          "name": "siblingChainSlug_",
          "type": "uint32"
        },
        {
          "internalType": "uint128",
          "name": "switchboardFees_",
          "type": "uint128"
        },
        {
          "internalType": "uint128",
          "name": "verificationOverheadFees_",
          "type": "uint128"
        },
        {
          "internalType": "address",
          "name": "transmitManager_",
          "type": "address"
        },
        {
          "internalType": "address",
          "name": "switchboard_",
          "type": "address"
        },
        {
          "internalType": "uint256",
          "name": "maxPacketLength_",
          "type": "uint256"
        }
      ],
      "name": "payAndCheckFees",
      "outputs": [
        {
          "internalType": "uint128",
          "name": "executionFee",
          "type": "uint128"
        },
        {
          "internalType": "uint128",
          "name": "transmissionFees",
          "type": "uint128"
        }
      ],
      "stateMutability": "payable",
      "type": "function"
    },
    {
      "inputs": [
        {
          "internalType": "uint32",
          "name": "",
          "type": "uint32"
        }
      ],
      "name": "relativeNativeTokenPrice",
      "outputs": [
        {
          "internalType": "uint256",
          "name": "",
          "type": "uint256"
        }
      ],
      "stateMutability": "view",
      "type": "function"
    },
    {
      "inputs": [
        {
          "internalType": "address",
          "name": "token_",
          "type": "address"
        },
        {
          "internalType": "address",
          "name": "rescueTo_",
          "type": "address"
        },
        {
          "internalType": "uint256",
          "name": "amount_",
          "type": "uint256"
        }
      ],
      "name": "rescueFunds",
      "outputs": [],
      "stateMutability": "nonpayable",
      "type": "function"
    },
    {
      "inputs": [
        {
          "internalType": "bytes32[]",
          "name": "roleNames_",
          "type": "bytes32[]"
        },
        {
          "internalType": "uint32[]",
          "name": "slugs_",
          "type": "uint32[]"
        },
        {
          "internalType": "address[]",
          "name": "grantees_",
          "type": "address[]"
        }
      ],
      "name": "revokeBatchRole",
      "outputs": [],
      "stateMutability": "nonpayable",
      "type": "function"
    },
    {
      "inputs": [
        {
          "internalType": "bytes32",
          "name": "role_",
          "type": "bytes32"
        },
        {
          "internalType": "address",
          "name": "revokee_",
          "type": "address"
        }
      ],
      "name": "revokeRole",
      "outputs": [],
      "stateMutability": "nonpayable",
      "type": "function"
    },
    {
      "inputs": [
        {
          "internalType": "bytes32",
          "name": "roleName_",
          "type": "bytes32"
        },
        {
          "internalType": "uint32",
          "name": "chainSlug_",
          "type": "uint32"
        },
        {
          "internalType": "address",
          "name": "grantee_",
          "type": "address"
        }
      ],
      "name": "revokeRoleWithSlug",
      "outputs": [],
      "stateMutability": "nonpayable",
      "type": "function"
    },
    {
      "inputs": [
        {
          "internalType": "uint256",
          "name": "nonce_",
          "type": "uint256"
        },
        {
          "internalType": "uint32",
          "name": "siblingChainSlug_",
          "type": "uint32"
        },
        {
          "internalType": "uint128",
          "name": "executionFees_",
          "type": "uint128"
        },
        {
          "internalType": "bytes",
          "name": "signature_",
          "type": "bytes"
        }
      ],
      "name": "setExecutionFees",
      "outputs": [],
      "stateMutability": "nonpayable",
      "type": "function"
    },
    {
      "inputs": [
        {
          "internalType": "uint256",
          "name": "nonce_",
          "type": "uint256"
        },
        {
          "internalType": "uint32",
          "name": "siblingChainSlug_",
          "type": "uint32"
        },
        {
          "internalType": "uint256",
          "name": "msgValueMaxThreshold_",
          "type": "uint256"
        },
        {
          "internalType": "bytes",
          "name": "signature_",
          "type": "bytes"
        }
      ],
      "name": "setMsgValueMaxThreshold",
      "outputs": [],
      "stateMutability": "nonpayable",
      "type": "function"
    },
    {
      "inputs": [
        {
          "internalType": "uint256",
          "name": "nonce_",
          "type": "uint256"
        },
        {
          "internalType": "uint32",
          "name": "siblingChainSlug_",
          "type": "uint32"
        },
        {
          "internalType": "uint256",
          "name": "msgValueMinThreshold_",
          "type": "uint256"
        },
        {
          "internalType": "bytes",
          "name": "signature_",
          "type": "bytes"
        }
      ],
      "name": "setMsgValueMinThreshold",
      "outputs": [],
      "stateMutability": "nonpayable",
      "type": "function"
    },
    {
      "inputs": [
        {
          "internalType": "uint256",
          "name": "nonce_",
          "type": "uint256"
        },
        {
          "internalType": "uint32",
          "name": "siblingChainSlug_",
          "type": "uint32"
        },
        {
          "internalType": "uint256",
          "name": "relativeNativeTokenPrice_",
          "type": "uint256"
        },
        {
          "internalType": "bytes",
          "name": "signature_",
          "type": "bytes"
        }
      ],
      "name": "setRelativeNativeTokenPrice",
      "outputs": [],
      "stateMutability": "nonpayable",
      "type": "function"
    },
    {
      "inputs": [
        {
          "internalType": "uint32",
          "name": "remoteChainSlug_",
          "type": "uint32"
        },
        {
          "internalType": "uint128",
          "name": "fees_",
          "type": "uint128"
        }
      ],
      "name": "setTransmissionMinFees",
      "outputs": [],
      "stateMutability": "nonpayable",
      "type": "function"
    },
    {
      "inputs": [],
      "name": "signatureVerifier__",
      "outputs": [
        {
          "internalType": "contract ISignatureVerifier",
          "name": "",
          "type": "address"
        }
      ],
      "stateMutability": "view",
      "type": "function"
    },
    {
      "inputs": [],
      "name": "socket__",
      "outputs": [
        {
          "internalType": "contract ISocket",
          "name": "",
          "type": "address"
        }
      ],
      "stateMutability": "view",
      "type": "function"
    },
    {
      "inputs": [
        {
          "internalType": "uint32",
          "name": "",
          "type": "uint32"
        }
      ],
      "name": "totalExecutionAndTransmissionFees",
      "outputs": [
        {
          "internalType": "uint128",
          "name": "totalExecutionFees",
          "type": "uint128"
        },
        {
          "internalType": "uint128",
          "name": "totalTransmissionFees",
          "type": "uint128"
        }
      ],
      "stateMutability": "view",
      "type": "function"
    },
    {
      "inputs": [
        {
          "internalType": "address",
          "name": "",
          "type": "address"
        },
        {
          "internalType": "uint32",
          "name": "",
          "type": "uint32"
        }
      ],
      "name": "totalSwitchboardFees",
      "outputs": [
        {
          "internalType": "uint128",
          "name": "",
          "type": "uint128"
        }
      ],
      "stateMutability": "view",
      "type": "function"
    },
    {
      "inputs": [
        {
          "internalType": "address",
          "name": "",
          "type": "address"
        },
        {
          "internalType": "uint32",
          "name": "",
          "type": "uint32"
        }
      ],
      "name": "transmissionMinFees",
      "outputs": [
        {
          "internalType": "uint128",
          "name": "",
          "type": "uint128"
        }
      ],
      "stateMutability": "view",
      "type": "function"
    },
    {
      "inputs": [
        {
          "internalType": "address",
          "name": "",
          "type": "address"
        },
        {
          "internalType": "uint128",
          "name": "",
          "type": "uint128"
        },
        {
          "internalType": "bytes32",
          "name": "",
          "type": "bytes32"
        }
      ],
      "name": "updateExecutionFees",
      "outputs": [],
      "stateMutability": "view",
      "type": "function"
    },
    {
      "inputs": [
        {
          "internalType": "bytes32",
          "name": "executionParams_",
          "type": "bytes32"
        },
        {
          "internalType": "uint256",
          "name": "msgValue_",
          "type": "uint256"
        }
      ],
      "name": "verifyParams",
      "outputs": [],
      "stateMutability": "pure",
      "type": "function"
    },
    {
      "inputs": [
        {
          "internalType": "uint32",
          "name": "siblingChainSlug_",
          "type": "uint32"
        },
        {
          "internalType": "uint128",
          "name": "amount_",
          "type": "uint128"
        },
        {
          "internalType": "address",
          "name": "withdrawTo_",
          "type": "address"
        }
      ],
      "name": "withdrawExecutionFees",
      "outputs": [],
      "stateMutability": "nonpayable",
      "type": "function"
    },
    {
      "inputs": [
        {
          "internalType": "uint32",
          "name": "siblingChainSlug_",
          "type": "uint32"
        },
        {
          "internalType": "address",
          "name": "switchboard_",
          "type": "address"
        },
        {
          "internalType": "uint128",
          "name": "amount_",
          "type": "uint128"
        }
      ],
      "name": "withdrawSwitchboardFees",
      "outputs": [],
      "stateMutability": "nonpayable",
      "type": "function"
    },
    {
      "inputs": [
        {
          "internalType": "uint32",
          "name": "siblingChainSlug_",
          "type": "uint32"
        },
        {
          "internalType": "uint128",
          "name": "amount_",
          "type": "uint128"
        }
      ],
      "name": "withdrawTransmissionFees",
      "outputs": [],
      "stateMutability": "nonpayable",
      "type": "function"
    }
  ],
  "bytecode": "0x60e06040523480156200001157600080fd5b5060405162003717380380620037178339810160408190526200003491620000de565b83838383838080620000468162000072565b50505063ffffffff90921660c0526001600160a01b039182166080521660a052506200014e9350505050565b600080546001600160a01b0383166001600160a01b0319918216811783556001805490921690915560405190917ffbe19c9b601f5ee90b44c7390f3fa2319eba01762d34ee372aeafd59b25c7f8791a250565b6001600160a01b0381168114620000db57600080fd5b50565b60008060008060808587031215620000f557600080fd5b84516200010281620000c5565b602086015190945063ffffffff811681146200011d57600080fd5b60408601519093506200013081620000c5565b60608601519092506200014381620000c5565b939692955090935050565b60805160a05160c05161354c620001cb6000396000818161082801528181610c8d01528181611a7801528181611ca10152611f02015260008181610871015281816112fb01526124960152600081816108c501528181610d1e0152818161199901528181611b0901528181611d070152611f93015261354c6000f3fe6080604052600436106102845760003560e01c80638da5cb5b11610153578063aea3d96b116100cb578063d5b8da731161007f578063de8c4ff911610064578063de8c4ff914610931578063ecb9748414610951578063f1f069d61461097157600080fd5b8063d5b8da73146108b3578063d81381d5146108e757600080fd5b8063b349ba65116100b0578063b349ba6514610816578063c6a261d21461085f578063d547741f1461089357600080fd5b8063aea3d96b1461079f578063b0c34229146107bf57600080fd5b8063955b1590116101225780639f4ad32e116101075780639f4ad32e1461073f578063a18857001461075f578063a56d92ce1461077f57600080fd5b8063955b1590146106f25780639f1028551461071f57600080fd5b80638da5cb5b1461062b57806390d241f11461065657806391d1485414610676578063954d09c9146106a657600080fd5b806338fe3025116102015780635b94db27116101b55780636e3c05621161019a5780636e3c0562146105a257806371c4717b146105c25780637644e7fa146105fe57600080fd5b80635b94db27146105625780636ccae0541461058257600080fd5b80633bd1adec116101e65780633bd1adec1461050057806343fa97ca146105155780634d1bf1891461053557600080fd5b806338fe3025146104615780633b13d3f11461048157600080fd5b80631e867311116102585780632e7eb2581161023d5780632e7eb258146104015780632f2ff15d14610421578063308795b21461044157600080fd5b80631e8673111461039557806320f99c0a146103b557600080fd5b80626fc3e2146102895780630cd55abf146102f957806311cf8aa5146103345780631ba8e48414610373575b600080fd5b34801561029557600080fd5b506102d36102a4366004612c7c565b60046020908152600092835260408084209091529082529020546fffffffffffffffffffffffffffffffff1681565b6040516fffffffffffffffffffffffffffffffff90911681526020015b60405180910390f35b34801561030557600080fd5b50610326610314366004612cb1565b60056020526000908152604090205481565b6040519081526020016102f0565b34801561034057600080fd5b506102d361034f366004612cd5565b6006602052600090815260409020546fffffffffffffffffffffffffffffffff1681565b34801561037f57600080fd5b5061039361038e366004612cf0565b610991565b005b3480156103a157600080fd5b506103936103b0366004612d7c565b6109f2565b3480156103c157600080fd5b5060015473ffffffffffffffffffffffffffffffffffffffff165b60405173ffffffffffffffffffffffffffffffffffffffff90911681526020016102f0565b34801561040d57600080fd5b5061039361041c366004612cf0565b610b98565b34801561042d57600080fd5b5061039361043c366004612e16565b610bf4565b34801561044d57600080fd5b5061039361045c366004612e88565b610c53565b34801561046d57600080fd5b506102d361047c366004612ef0565b610e89565b34801561048d57600080fd5b5061039361049c366004612f4f565b33600090815260076020908152604080832063ffffffff9590951683529390529190912080547fffffffffffffffffffffffffffffffff00000000000000000000000000000000166fffffffffffffffffffffffffffffffff909216919091179055565b34801561050c57600080fd5b50610393610ea0565b34801561052157600080fd5b50610393610530366004612d7c565b610efc565b34801561054157600080fd5b50610326610550366004612cd5565b600a6020526000908152604090205481565b34801561056e57600080fd5b5061039361057d366004612cb1565b611098565b34801561058e57600080fd5b5061039361059d366004612f79565b611158565b3480156105ae57600080fd5b506103936105bd366004612f4f565b6111fb565b6105d56105d0366004612fba565b6114a0565b604080516fffffffffffffffffffffffffffffffff9384168152929091166020830152016102f0565b34801561060a57600080fd5b50610326610619366004612cd5565b60096020526000908152604090205481565b34801561063757600080fd5b5060005473ffffffffffffffffffffffffffffffffffffffff166103dc565b34801561066257600080fd5b50610393610671366004613057565b611759565b34801561068257600080fd5b50610696610691366004612e16565b611957565b60405190151581526020016102f0565b3480156106b257600080fd5b506106c66106c13660046130cb565b611994565b6040805173ffffffffffffffffffffffffffffffffffffffff90931683529015156020830152016102f0565b3480156106fe57600080fd5b5061032661070d366004612cd5565b60086020526000908152604090205481565b34801561072b57600080fd5b5061039361073a366004612e88565b611a3e565b34801561074b57600080fd5b5061039361075a3660046131a4565b611c68565b34801561076b57600080fd5b5061039361077a366004612e88565b611ec8565b34801561078b57600080fd5b5061039361079a3660046131f6565b6120f2565b3480156107ab57600080fd5b506105d56107ba366004613218565b61216a565b3480156107cb57600080fd5b506105d56107da366004612cd5565b6003602052600090815260409020546fffffffffffffffffffffffffffffffff8082169170010000000000000000000000000000000090041682565b34801561082257600080fd5b5061084a7f000000000000000000000000000000000000000000000000000000000000000081565b60405163ffffffff90911681526020016102f0565b34801561086b57600080fd5b506103dc7f000000000000000000000000000000000000000000000000000000000000000081565b34801561089f57600080fd5b506103936108ae366004612e16565b6121d5565b3480156108bf57600080fd5b506103dc7f000000000000000000000000000000000000000000000000000000000000000081565b3480156108f357600080fd5b506102d3610902366004612c7c565b60076020908152600092835260408084209091529082529020546fffffffffffffffffffffffffffffffff1681565b34801561093d57600080fd5b5061039361094c366004613274565b612230565b34801561095d57600080fd5b5061069661096c366004612cf0565b612469565b34801561097d57600080fd5b5061039361098c3660046132a0565b61247e565b60005473ffffffffffffffffffffffffffffffffffffffff1633146109e2576040517f5fc483c500000000000000000000000000000000000000000000000000000000815260040160405180910390fd5b6109ed8383836124ed565b505050565b60005473ffffffffffffffffffffffffffffffffffffffff163314610a43576040517f5fc483c500000000000000000000000000000000000000000000000000000000815260040160405180910390fd5b8481141580610a525750848314155b15610a89576040517f11e86f7300000000000000000000000000000000000000000000000000000000815260040160405180910390fd5b8460005b81811015610b8e576000868683818110610aa957610aa96132de565b9050602002016020810190610abe9190612cd5565b63ffffffff161115610b3e57610b39888883818110610adf57610adf6132de565b90506020020135878784818110610af857610af86132de565b9050602002016020810190610b0d9190612cd5565b868685818110610b1f57610b1f6132de565b9050602002016020810190610b349190612cb1565b6124ed565b610b86565b610b86888883818110610b5357610b536132de565b90506020020135858584818110610b6c57610b6c6132de565b9050602002016020810190610b819190612cb1565b61252a565b600101610a8d565b5050505050505050565b60005473ffffffffffffffffffffffffffffffffffffffff163314610be9576040517f5fc483c500000000000000000000000000000000000000000000000000000000815260040160405180910390fd5b6109ed8383836125ad565b60005473ffffffffffffffffffffffffffffffffffffffff163314610c45576040517f5fc483c500000000000000000000000000000000000000000000000000000000815260040160405180910390fd5b610c4f82826125ea565b5050565b604080517f5498237e9cba7720b9d4b88ac1ad78e4c78dae0cb7b6b33a329e330ca9349f8f602080830191909152308284015263ffffffff7f0000000000000000000000000000000000000000000000000000000000000000811660608401528716608083015260a0820188905260c08083018790528351808403909101815260e083019384905280519101207f97aba7f90000000000000000000000000000000000000000000000000000000090925260009173ffffffffffffffffffffffffffffffffffffffff7f000000000000000000000000000000000000000000000000000000000000000016916397aba7f991610d55918790879060e40161330d565b602060405180830381865afa158015610d72573d6000803e3d6000fd5b505050506040513d601f19601f82011682018060405250810190610d969190613361565b9050610dc97f429672025b2dcb8754ca4b57943f34ac66900598787cb1f1e857291dedbf34d38663ffffffff1683612670565b73ffffffffffffffffffffffffffffffffffffffff811660009081526005602052604090208054600181019091558614610e2f576040517f756688fe00000000000000000000000000000000000000000000000000000000815260040160405180910390fd5b63ffffffff8516600081815260096020908152604091829020879055815192835282018690527f9e2bb394655fb30d5d70b657711b435d31ad553885bfea5d029d96b4cc82dc7a91015b60405180910390a1505050505050565b6000610e9785858585612703565b95945050505050565b60015473ffffffffffffffffffffffffffffffffffffffff163314610ef1576040517f7c91ccdd00000000000000000000000000000000000000000000000000000000815260040160405180910390fd5b610efa33612904565b565b60005473ffffffffffffffffffffffffffffffffffffffff163314610f4d576040517f5fc483c500000000000000000000000000000000000000000000000000000000815260040160405180910390fd5b8481141580610f5c5750848314155b15610f93576040517f11e86f7300000000000000000000000000000000000000000000000000000000815260040160405180910390fd5b8460005b81811015610b8e576000868683818110610fb357610fb36132de565b9050602002016020810190610fc89190612cd5565b63ffffffff16111561104857611043888883818110610fe957610fe96132de565b90506020020135878784818110611002576110026132de565b90506020020160208101906110179190612cd5565b868685818110611029576110296132de565b905060200201602081019061103e9190612cb1565b6125ad565b611090565b61109088888381811061105d5761105d6132de565b90506020020135858584818110611076576110766132de565b905060200201602081019061108b9190612cb1565b6125ea565b600101610f97565b60005473ffffffffffffffffffffffffffffffffffffffff1633146110e9576040517f5fc483c500000000000000000000000000000000000000000000000000000000815260040160405180910390fd5b600180547fffffffffffffffffffffffff00000000000000000000000000000000000000001673ffffffffffffffffffffffffffffffffffffffff83169081179091556040517f906a1c6bd7e3091ea86693dd029a831c19049ce77f1dce2ce0bab1cacbabce2290600090a250565b3360009081527f4933f7bec34ee32db93e9f5cd7e0519781b395282211f4f6857489046ea38f7660205260409020547fc4c453d647953c0fd35db5a34ee76e60fb4abc3a8fb891a25936b70b38f292539060ff166111ea576040517f962f6333000000000000000000000000000000000000000000000000000000008152600481018290526024015b60405180910390fd5b6111f584848461297c565b50505050565b63ffffffff82166000908152600360205260409020546fffffffffffffffffffffffffffffffff808316700100000000000000000000000000000000909204161015611273576040517f8d53e55300000000000000000000000000000000000000000000000000000000815260040160405180910390fd5b63ffffffff8216600090815260036020526040902080548291906010906112c190849070010000000000000000000000000000000090046fffffffffffffffffffffffffffffffff166133ad565b92506101000a8154816fffffffffffffffffffffffffffffffff02191690836fffffffffffffffffffffffffffffffff16021790555060007f000000000000000000000000000000000000000000000000000000000000000073ffffffffffffffffffffffffffffffffffffffff166341805c246040518163ffffffff1660e01b8152600401602060405180830381865afa158015611364573d6000803e3d6000fd5b505050506040513d601f19601f820116820180604052508101906113889190613361565b6040517fa9a541b200000000000000000000000000000000000000000000000000000000815263ffffffff8516600482015290915073ffffffffffffffffffffffffffffffffffffffff82169063a9a541b2906fffffffffffffffffffffffffffffffff8516906024016000604051808303818588803b15801561140b57600080fd5b505af115801561141f573d6000803e3d6000fd5b50506040805173ffffffffffffffffffffffffffffffffffffffff8616815263ffffffff881660208201526fffffffffffffffffffffffffffffffff8716918101919091527fb8fee8df7dff1cee6b16775bb2292a5341317514d9c5399dd2a62303e3f92c1a935060600191506114939050565b60405180910390a1505050565b6000806fffffffffffffffffffffffffffffffff34106114ec576040517f1841b4e100000000000000000000000000000000000000000000000000000000815260040160405180910390fd5b73ffffffffffffffffffffffffffffffffffffffff8516600090815260076020908152604080832063ffffffff8c16845290915290205434906115429085906fffffffffffffffffffffffffffffffff1661340c565b915060006115528e8e8e8d612703565b90506000611560898361343b565b90508061156d8b8661343b565b611577919061343b565b6fffffffffffffffffffffffffffffffff16836fffffffffffffffffffffffffffffffff1610156115d4576040517f8d53e55300000000000000000000000000000000000000000000000000000000815260040160405180910390fd5b896115df85856133ad565b6115e991906133ad565b63ffffffff8c166000908152600360209081526040918290208251808401845290546fffffffffffffffffffffffffffffffff808216835270010000000000000000000000000000000090910416918101919091528151808301909252805192975091819061165990899061343b565b6fffffffffffffffffffffffffffffffff168152602001868360200151611680919061343b565b6fffffffffffffffffffffffffffffffff90811690915263ffffffff8e1660008181526003602090815260408083208651968301518616700100000000000000000000000000000000029686169690961790955573ffffffffffffffffffffffffffffffffffffffff8d168252600481528482209282529190915291822080548e9391926117109185911661343b565b92506101000a8154816fffffffffffffffffffffffffffffffff02191690836fffffffffffffffffffffffffffffffff160217905550505050509a509a98505050505050505050565b73ffffffffffffffffffffffffffffffffffffffff8216600090815260046020908152604080832063ffffffff871684529091529020546fffffffffffffffffffffffffffffffff808316911610156117de576040517f8d53e55300000000000000000000000000000000000000000000000000000000815260040160405180910390fd5b73ffffffffffffffffffffffffffffffffffffffff8216600090815260046020908152604080832063ffffffff87168452909152812080548392906118369084906fffffffffffffffffffffffffffffffff166133ad565b82546101009290920a6fffffffffffffffffffffffffffffffff8181021990931691831602179091556040517fa9a541b200000000000000000000000000000000000000000000000000000000815263ffffffff8616600482015273ffffffffffffffffffffffffffffffffffffffff8516925063a9a541b2918416906024016000604051808303818588803b1580156118cf57600080fd5b505af11580156118e3573d6000803e3d6000fd5b50506040805173ffffffffffffffffffffffffffffffffffffffff8716815263ffffffff881660208201526fffffffffffffffffffffffffffffffff8616918101919091527fe7ea372fbcab98f6f74f62c16d1127e475529579f63121bf168773850739e3f9935060600191506114939050565b600082815260026020908152604080832073ffffffffffffffffffffffffffffffffffffffff8516845290915281205460ff165b90505b92915050565b6000807f000000000000000000000000000000000000000000000000000000000000000073ffffffffffffffffffffffffffffffffffffffff166397aba7f985856040518363ffffffff1660e01b81526004016119f2929190613464565b602060405180830381865afa158015611a0f573d6000803e3d6000fd5b505050506040513d601f19601f82011682018060405250810190611a339190613361565b946001945092505050565b604080517f097d8e0ecdafcc3ab6916c2b486af7d06325dcdf5bd46372f340eea8cffd674c602080830191909152308284015263ffffffff7f0000000000000000000000000000000000000000000000000000000000000000811660608401528716608083015260a0820188905260c08083018790528351808403909101815260e083019384905280519101207f97aba7f90000000000000000000000000000000000000000000000000000000090925260009173ffffffffffffffffffffffffffffffffffffffff7f000000000000000000000000000000000000000000000000000000000000000016916397aba7f991611b40918790879060e40161330d565b602060405180830381865afa158015611b5d573d6000803e3d6000fd5b505050506040513d601f19601f82011682018060405250810190611b819190613361565b9050611bb47f429672025b2dcb8754ca4b57943f34ac66900598787cb1f1e857291dedbf34d38663ffffffff1683612670565b73ffffffffffffffffffffffffffffffffffffffff811660009081526005602052604090208054600181019091558614611c1a576040517f756688fe00000000000000000000000000000000000000000000000000000000815260040160405180910390fd5b63ffffffff8516600081815260086020908152604091829020879055815192835282018690527fcaade52e9295f5cd4e1762d70bf40bf839fbbc232469ca3c7ac0de77d156d4889101610e79565b604080517ff2deac1744cfd52ddfce21c5ff26abf413f6418dc4a35916e26daefd87e04ab66020820152309181019190915263ffffffff7f0000000000000000000000000000000000000000000000000000000000000000811660608301528516608082015260a081018690526fffffffffffffffffffffffffffffffff841660c082015260009073ffffffffffffffffffffffffffffffffffffffff7f000000000000000000000000000000000000000000000000000000000000000016906397aba7f99060e0016040516020818303038152906040528051906020012085856040518463ffffffff1660e01b8152600401611d679392919061330d565b602060405180830381865afa158015611d84573d6000803e3d6000fd5b505050506040513d601f19601f82011682018060405250810190611da89190613361565b9050611ddb7f429672025b2dcb8754ca4b57943f34ac66900598787cb1f1e857291dedbf34d38663ffffffff1683612670565b73ffffffffffffffffffffffffffffffffffffffff811660009081526005602052604090208054600181019091558614611e41576040517f756688fe00000000000000000000000000000000000000000000000000000000815260040160405180910390fd5b63ffffffff851660008181526006602090815260409182902080547fffffffffffffffffffffffffffffffff00000000000000000000000000000000166fffffffffffffffffffffffffffffffff89169081179091558251938452908301527f6f6b67028f327b717005aaa24a2e98fae60f71b6e59ed9ae762cfd7ec7b0e2309101610e79565b604080517f6ae815499d9e0b180f1f7632798b7dfd6565f2ed8e2745b19af5de7bde5e62aa602080830191909152308284015263ffffffff7f0000000000000000000000000000000000000000000000000000000000000000811660608401528716608083015260a0820188905260c08083018790528351808403909101815260e083019384905280519101207f97aba7f90000000000000000000000000000000000000000000000000000000090925260009173ffffffffffffffffffffffffffffffffffffffff7f000000000000000000000000000000000000000000000000000000000000000016916397aba7f991611fca918790879060e40161330d565b602060405180830381865afa158015611fe7573d6000803e3d6000fd5b505050506040513d601f19601f8201168201806040525081019061200b9190613361565b905061203e7f429672025b2dcb8754ca4b57943f34ac66900598787cb1f1e857291dedbf34d38663ffffffff1683612670565b73ffffffffffffffffffffffffffffffffffffffff8116600090815260056020526040902080546001810190915586146120a4576040517f756688fe00000000000000000000000000000000000000000000000000000000815260040160405180910390fd5b63ffffffff85166000818152600a6020908152604091829020879055815192835282018690527ff31f7eb11567a8d1fd792197d4328a9b4514b8fe89a70807e29132ce2b8e93f09101610e79565b8160f881901c60008190036121075750505050565b7effffffffffffffffffffffffffffffffffffffffffffffffffffffffffffff821680841015612163576040517f78f38f7600000000000000000000000000000000000000000000000000000000815260040160405180910390fd5b5050505050565b60008061217988888887612703565b73ffffffffffffffffffffffffffffffffffffffff909316600090815260076020908152604080832063ffffffff9097168352959052939093205491976fffffffffffffffffffffffffffffffff909216965090945050505050565b60005473ffffffffffffffffffffffffffffffffffffffff163314612226576040517f5fc483c500000000000000000000000000000000000000000000000000000000815260040160405180910390fd5b610c4f828261252a565b3360009081527f9b7ec560033b826bc253a5f1a8b5e6a61c8d2a6e8731a9872b68296f6024c5ac60205260409020547f5d8e12c39142ff96d79d04d15d1ba1269e4fe57bb9d26f43523628b34ba108ec9060ff166122bd576040517f962f6333000000000000000000000000000000000000000000000000000000008152600481018290526024016111e1565b73ffffffffffffffffffffffffffffffffffffffff821661230a576040517fd92e233d00000000000000000000000000000000000000000000000000000000815260040160405180910390fd5b63ffffffff84166000908152600360205260409020546fffffffffffffffffffffffffffffffff8085169116101561236e576040517f8d53e55300000000000000000000000000000000000000000000000000000000815260040160405180910390fd5b63ffffffff8416600090815260036020526040812080548592906123a59084906fffffffffffffffffffffffffffffffff166133ad565b92506101000a8154816fffffffffffffffffffffffffffffffff02191690836fffffffffffffffffffffffffffffffff1602179055506123f782846fffffffffffffffffffffffffffffffff16612a6c565b6040805173ffffffffffffffffffffffffffffffffffffffff8416815263ffffffff861660208201526fffffffffffffffffffffffffffffffff85168183015290517fb2d1c6b6dcf53eb15f8fb6c88a3642c4d7407333bcd0e16d6e5789f6beb51fb99181900360600190a150505050565b6000612476848484612ae1565b949350505050565b3373ffffffffffffffffffffffffffffffffffffffff7f000000000000000000000000000000000000000000000000000000000000000016146109ed576040517f503284dc00000000000000000000000000000000000000000000000000000000815260040160405180910390fd5b6109ed838360405160200161251292919091825263ffffffff16602082015260400190565b60405160208183030381529060405280519060200120825b600082815260026020908152604080832073ffffffffffffffffffffffffffffffffffffffff8516808552925280832080547fffffffffffffffffffffffffffffffffffffffffffffffffffffffffffffff0016905551909184917f155aaafb6329a2098580462df33ec4b7441b19729b9601c5fc17ae1cf99a8a529190a35050565b6109ed83836040516020016125d292919091825263ffffffff16602082015260400190565b60405160208183030381529060405280519060200120825b600082815260026020908152604080832073ffffffffffffffffffffffffffffffffffffffff8516808552925280832080547fffffffffffffffffffffffffffffffffffffffffffffffffffffffffffffff0016600117905551909184917f2ae6a113c0ed5b78a53413ffbb7679881f11145ccfba4fb92e863dfcd5a1d2f39190a35050565b6040805160208082018690528183018590528251808303840181526060909201835281519181019190912060008181526002835283812073ffffffffffffffffffffffffffffffffffffffff861682529092529190205460ff166111f5576040517f962f6333000000000000000000000000000000000000000000000000000000008152600481018290526024016111e1565b6000610bb8841115612741576040517f492f620d00000000000000000000000000000000000000000000000000000000815260040160405180910390fd5b8260f881901c60008190036127805750505063ffffffff81166000908152600660205260409020546fffffffffffffffffffffffffffffffff16612476565b63ffffffff84166000908152600960205260409020547effffffffffffffffffffffffffffffffffffffffffffffffffffffffffffff8316908110156127f2576040517f508aaf0000000000000000000000000000000000000000000000000000000000815260040160405180910390fd5b63ffffffff85166000908152600a6020526040902054811115612841576040517f5dffc92f00000000000000000000000000000000000000000000000000000000815260040160405180910390fd5b63ffffffff8516600090815260086020526040812054670de0b6b3a76400009061286c9084906134d8565b61287691906134ef565b63ffffffff8716600090815260066020526040812054919250906128ac906fffffffffffffffffffffffffffffffff1683613503565b90506fffffffffffffffffffffffffffffffff81106128f7576040517fc9034e1800000000000000000000000000000000000000000000000000000000815260040160405180910390fd5b9998505050505050505050565b6000805473ffffffffffffffffffffffffffffffffffffffff83167fffffffffffffffffffffffff0000000000000000000000000000000000000000918216811783556001805490921690915560405190917ffbe19c9b601f5ee90b44c7390f3fa2319eba01762d34ee372aeafd59b25c7f8791a250565b73ffffffffffffffffffffffffffffffffffffffff82166129c9576040517fd92e233d00000000000000000000000000000000000000000000000000000000815260040160405180910390fd5b7fffffffffffffffffffffffff111111111111111111111111111111111111111273ffffffffffffffffffffffffffffffffffffffff841601612a10576109ed8282612a6c565b8273ffffffffffffffffffffffffffffffffffffffff163b600003612a61576040517f1eb00b0600000000000000000000000000000000000000000000000000000000815260040160405180910390fd5b6109ed838383612b6f565b600080600080600085875af19050806109ed576040517f08c379a000000000000000000000000000000000000000000000000000000000815260206004820152601360248201527f4554485f5452414e534645525f4641494c45440000000000000000000000000060448201526064016111e1565b60006124768484604051602001612b0892919091825263ffffffff16602082015260400190565b604080517fffffffffffffffffffffffffffffffffffffffffffffffffffffffffffffffe0818403018152918152815160209283012060009081526002835281812073ffffffffffffffffffffffffffffffffffffffff8716825290925290205460ff1690565b60006040517fa9059cbb00000000000000000000000000000000000000000000000000000000815273ffffffffffffffffffffffffffffffffffffffff84166004820152826024820152602060006044836000895af13d15601f3d11600160005114161716915050806111f5576040517f08c379a000000000000000000000000000000000000000000000000000000000815260206004820152600f60248201527f5452414e534645525f4641494c4544000000000000000000000000000000000060448201526064016111e1565b73ffffffffffffffffffffffffffffffffffffffff81168114612c6057600080fd5b50565b803563ffffffff81168114612c7757600080fd5b919050565b60008060408385031215612c8f57600080fd5b8235612c9a81612c3e565b9150612ca860208401612c63565b90509250929050565b600060208284031215612cc357600080fd5b8135612cce81612c3e565b9392505050565b600060208284031215612ce757600080fd5b61198b82612c63565b600080600060608486031215612d0557600080fd5b83359250612d1560208501612c63565b91506040840135612d2581612c3e565b809150509250925092565b60008083601f840112612d4257600080fd5b50813567ffffffffffffffff811115612d5a57600080fd5b6020830191508360208260051b8501011115612d7557600080fd5b9250929050565b60008060008060008060608789031215612d9557600080fd5b863567ffffffffffffffff80821115612dad57600080fd5b612db98a838b01612d30565b90985096506020890135915080821115612dd257600080fd5b612dde8a838b01612d30565b90965094506040890135915080821115612df757600080fd5b50612e0489828a01612d30565b979a9699509497509295939492505050565b60008060408385031215612e2957600080fd5b823591506020830135612e3b81612c3e565b809150509250929050565b60008083601f840112612e5857600080fd5b50813567ffffffffffffffff811115612e7057600080fd5b602083019150836020828501011115612d7557600080fd5b600080600080600060808688031215612ea057600080fd5b85359450612eb060208701612c63565b935060408601359250606086013567ffffffffffffffff811115612ed357600080fd5b612edf88828901612e46565b969995985093965092949392505050565b60008060008060808587031215612f0657600080fd5b843593506020850135925060408501359150612f2460608601612c63565b905092959194509250565b80356fffffffffffffffffffffffffffffffff81168114612c7757600080fd5b60008060408385031215612f6257600080fd5b612f6b83612c63565b9150612ca860208401612f2f565b600080600060608486031215612f8e57600080fd5b8335612f9981612c3e565b92506020840135612fa981612c3e565b929592945050506040919091013590565b6000806000806000806000806000806101408b8d031215612fda57600080fd5b8a35995060208b0135985060408b0135975060608b01359650612fff60808c01612c63565b955061300d60a08c01612f2f565b945061301b60c08c01612f2f565b935060e08b013561302b81612c3e565b92506101008b013561303c81612c3e565b809250506101208b013590509295989b9194979a5092959850565b60008060006060848603121561306c57600080fd5b61307584612c63565b9250602084013561308581612c3e565b915061309360408501612f2f565b90509250925092565b7f4e487b7100000000000000000000000000000000000000000000000000000000600052604160045260246000fd5b600080604083850312156130de57600080fd5b82359150602083013567ffffffffffffffff808211156130fd57600080fd5b818501915085601f83011261311157600080fd5b8135818111156131235761312361309c565b604051601f82017fffffffffffffffffffffffffffffffffffffffffffffffffffffffffffffffe0908116603f011681019083821181831017156131695761316961309c565b8160405282815288602084870101111561318257600080fd5b8260208601602083013760006020848301015280955050505050509250929050565b6000806000806000608086880312156131bc57600080fd5b853594506131cc60208701612c63565b93506131da60408701612f2f565b9250606086013567ffffffffffffffff811115612ed357600080fd5b6000806040838503121561320957600080fd5b50508035926020909101359150565b60008060008060008060c0878903121561323157600080fd5b8635955060208701359450604087013593506060870135925061325660808801612c63565b915060a087013561326681612c3e565b809150509295509295509295565b60008060006060848603121561328957600080fd5b61329284612c63565b9250612d1560208501612f2f565b6000806000606084860312156132b557600080fd5b83356132c081612c3e565b92506132ce60208501612f2f565b9150604084013590509250925092565b7f4e487b7100000000000000000000000000000000000000000000000000000000600052603260045260246000fd5b83815260406020820152816040820152818360608301376000818301606090810191909152601f9092017fffffffffffffffffffffffffffffffffffffffffffffffffffffffffffffffe016010192915050565b60006020828403121561337357600080fd5b8151612cce81612c3e565b7f4e487b7100000000000000000000000000000000000000000000000000000000600052601160045260246000fd5b6fffffffffffffffffffffffffffffffff8281168282160390808211156133d6576133d661337e565b5092915050565b7f4e487b7100000000000000000000000000000000000000000000000000000000600052601260045260246000fd5b60006fffffffffffffffffffffffffffffffff8084168061342f5761342f6133dd565b92169190910492915050565b6fffffffffffffffffffffffffffffffff8181168382160190808211156133d6576133d661337e565b82815260006020604081840152835180604085015260005b818110156134985785810183015185820160600152820161347c565b5060006060828601015260607fffffffffffffffffffffffffffffffffffffffffffffffffffffffffffffffe0601f830116850101925050509392505050565b808202811582820484141761198e5761198e61337e565b6000826134fe576134fe6133dd565b500490565b8082018082111561198e5761198e61337e56fea2646970667358221220fb688b7b9b297f61007495ff0c44bbd636ece964e78d946c79c9daf57fb306de64736f6c63430008130033",
  "linkReferences": {},
  "deployedLinkReferences": {}
}