{
  "_format": "hh-sol-artifact-1",
  "contractName": "SimulatorUtils",
  "sourceName": "contracts/mocks/fee-updater/SimulatorUtils.sol",
  "abi": [
    {
      "inputs": [
        {
          "internalType": "address",
          "name": "socket_",
          "type": "address"
        },
        {
          "internalType": "address",
          "name": "signatureVerifier_",
          "type": "address"
        },
        {
          "internalType": "address",
          "name": "signer_",
          "type": "address"
        },
        {
          "internalType": "uint32",
          "name": "siblingSlug_",
          "type": "uint32"
        }
      ],
      "stateMutability": "nonpayable",
      "type": "constructor"
    },
    {
      "inputs": [],
      "name": "InsufficientMsgValue",
      "type": "error"
    },
    {
      "inputs": [
        {
          "internalType": "bytes32",
          "name": "role",
          "type": "bytes32"
        }
      ],
      "name": "NoPermit",
      "type": "error"
    },
    {
      "inputs": [],
      "name": "OnlyNominee",
      "type": "error"
    },
    {
      "inputs": [],
      "name": "OnlyOwner",
      "type": "error"
    },
    {
      "inputs": [],
      "name": "UnequalArrayLengths",
      "type": "error"
    },
    {
      "anonymous": false,
      "inputs": [
        {
          "indexed": true,
          "internalType": "address",
          "name": "claimer",
          "type": "address"
        }
      ],
      "name": "OwnerClaimed",
      "type": "event"
    },
    {
      "anonymous": false,
      "inputs": [
        {
          "indexed": true,
          "internalType": "address",
          "name": "nominee",
          "type": "address"
        }
      ],
      "name": "OwnerNominated",
      "type": "event"
    },
    {
      "anonymous": false,
      "inputs": [
        {
          "indexed": true,
          "internalType": "bytes32",
          "name": "role",
          "type": "bytes32"
        },
        {
          "indexed": true,
          "internalType": "address",
          "name": "grantee",
          "type": "address"
        }
      ],
      "name": "RoleGranted",
      "type": "event"
    },
    {
      "anonymous": false,
      "inputs": [
        {
          "indexed": true,
          "internalType": "bytes32",
          "name": "role",
          "type": "bytes32"
        },
        {
          "indexed": true,
          "internalType": "address",
          "name": "revokee",
          "type": "address"
        }
      ],
      "name": "RoleRevoked",
      "type": "event"
    },
    {
      "inputs": [
        {
          "internalType": "uint32",
          "name": "siblingSlug_",
          "type": "uint32"
        },
        {
          "internalType": "bytes32",
          "name": "digest_",
          "type": "bytes32"
        },
        {
          "internalType": "bytes",
          "name": "signature_",
          "type": "bytes"
        }
      ],
      "name": "checkTransmitter",
      "outputs": [
        {
          "internalType": "address",
          "name": "",
          "type": "address"
        },
        {
          "internalType": "bool",
          "name": "",
          "type": "bool"
        }
      ],
      "stateMutability": "view",
      "type": "function"
    },
    {
      "inputs": [],
      "name": "claimOwner",
      "outputs": [],
      "stateMutability": "nonpayable",
      "type": "function"
    },
    {
      "inputs": [
        {
          "internalType": "bytes32[]",
          "name": "roleNames_",
          "type": "bytes32[]"
        },
        {
          "internalType": "uint32[]",
          "name": "slugs_",
          "type": "uint32[]"
        },
        {
          "internalType": "address[]",
          "name": "grantees_",
          "type": "address[]"
        }
      ],
      "name": "grantBatchRole",
      "outputs": [],
      "stateMutability": "nonpayable",
      "type": "function"
    },
    {
      "inputs": [
        {
          "internalType": "bytes32",
          "name": "role_",
          "type": "bytes32"
        },
        {
          "internalType": "address",
          "name": "grantee_",
          "type": "address"
        }
      ],
      "name": "grantRole",
      "outputs": [],
      "stateMutability": "nonpayable",
      "type": "function"
    },
    {
      "inputs": [
        {
          "internalType": "bytes32",
          "name": "roleName_",
          "type": "bytes32"
        },
        {
          "internalType": "uint32",
          "name": "chainSlug_",
          "type": "uint32"
        },
        {
          "internalType": "address",
          "name": "grantee_",
          "type": "address"
        }
      ],
      "name": "grantRoleWithSlug",
      "outputs": [],
      "stateMutability": "nonpayable",
      "type": "function"
    },
    {
      "inputs": [
        {
          "internalType": "bytes32",
          "name": "role_",
          "type": "bytes32"
        },
        {
          "internalType": "address",
          "name": "address_",
          "type": "address"
        }
      ],
      "name": "hasRole",
      "outputs": [
        {
          "internalType": "bool",
          "name": "",
          "type": "bool"
        }
      ],
      "stateMutability": "view",
      "type": "function"
    },
    {
      "inputs": [
        {
          "internalType": "bytes32",
          "name": "roleName_",
          "type": "bytes32"
        },
        {
          "internalType": "uint32",
          "name": "chainSlug_",
          "type": "uint32"
        },
        {
          "internalType": "address",
          "name": "address_",
          "type": "address"
        }
      ],
      "name": "hasRoleWithSlug",
      "outputs": [
        {
          "internalType": "bool",
          "name": "",
          "type": "bool"
        }
      ],
      "stateMutability": "view",
      "type": "function"
    },
    {
      "inputs": [
        {
          "internalType": "bytes32",
          "name": "packedMessage",
          "type": "bytes32"
        },
        {
          "internalType": "bytes",
          "name": "sig",
          "type": "bytes"
        }
      ],
      "name": "isExecutor",
      "outputs": [
        {
          "internalType": "address",
          "name": "executor",
          "type": "address"
        },
        {
          "internalType": "bool",
          "name": "isValidExecutor",
          "type": "bool"
        }
      ],
      "stateMutability": "view",
      "type": "function"
    },
    {
      "inputs": [
        {
          "internalType": "address",
          "name": "nominee_",
          "type": "address"
        }
      ],
      "name": "nominateOwner",
      "outputs": [],
      "stateMutability": "nonpayable",
      "type": "function"
    },
    {
      "inputs": [],
      "name": "nominee",
      "outputs": [
        {
          "internalType": "address",
          "name": "",
          "type": "address"
        }
      ],
      "stateMutability": "view",
      "type": "function"
    },
    {
      "inputs": [],
      "name": "owner",
      "outputs": [
        {
          "internalType": "address",
          "name": "",
          "type": "address"
        }
      ],
      "stateMutability": "view",
      "type": "function"
    },
    {
      "inputs": [
        {
          "internalType": "bytes32[]",
          "name": "roleNames_",
          "type": "bytes32[]"
        },
        {
          "internalType": "uint32[]",
          "name": "slugs_",
          "type": "uint32[]"
        },
        {
          "internalType": "address[]",
          "name": "grantees_",
          "type": "address[]"
        }
      ],
      "name": "revokeBatchRole",
      "outputs": [],
      "stateMutability": "nonpayable",
      "type": "function"
    },
    {
      "inputs": [
        {
          "internalType": "bytes32",
          "name": "role_",
          "type": "bytes32"
        },
        {
          "internalType": "address",
          "name": "revokee_",
          "type": "address"
        }
      ],
      "name": "revokeRole",
      "outputs": [],
      "stateMutability": "nonpayable",
      "type": "function"
    },
    {
      "inputs": [
        {
          "internalType": "bytes32",
          "name": "roleName_",
          "type": "bytes32"
        },
        {
          "internalType": "uint32",
          "name": "chainSlug_",
          "type": "uint32"
        },
        {
          "internalType": "address",
          "name": "grantee_",
          "type": "address"
        }
      ],
      "name": "revokeRoleWithSlug",
      "outputs": [],
      "stateMutability": "nonpayable",
      "type": "function"
    },
    {
      "inputs": [],
      "name": "signatureVerifier__",
      "outputs": [
        {
          "internalType": "contract ISignatureVerifier",
          "name": "",
          "type": "address"
        }
      ],
      "stateMutability": "view",
      "type": "function"
    },
    {
      "inputs": [],
      "name": "socket__",
      "outputs": [
        {
          "internalType": "contract ISocket",
          "name": "",
          "type": "address"
        }
      ],
      "stateMutability": "view",
      "type": "function"
    },
    {
      "inputs": [
        {
          "internalType": "address",
          "name": "",
          "type": "address"
        },
        {
          "internalType": "uint128",
          "name": "",
          "type": "uint128"
        },
        {
          "internalType": "bytes32",
          "name": "",
          "type": "bytes32"
        }
      ],
      "name": "updateExecutionFees",
      "outputs": [],
      "stateMutability": "view",
      "type": "function"
    },
    {
      "inputs": [
        {
          "internalType": "bytes32",
          "name": "executionParams_",
          "type": "bytes32"
        },
        {
          "internalType": "uint256",
          "name": "msgValue_",
          "type": "uint256"
        }
      ],
      "name": "verifyParams",
      "outputs": [],
      "stateMutability": "pure",
      "type": "function"
    }
  ],
  "bytecode": "0x60806040523480156200001157600080fd5b50604051620015aa380380620015aa8339810160408190526200003491620001f2565b3380806200004281620000d8565b5050600380546001600160a01b038088166001600160a01b031992831617909255600480549287169290911691909117905550620000a27fd6a0f92c822ccba0fa91b30f08f085e68bc8eb3bb140aa16f8dc33ea47eb6cf282846200012b565b620000ce7fd8aa0f3194971a2a116679f7c2090f6939c8d4e01a2a8d7e41d55e5351469e63836200017a565b5050505062000259565b600080546001600160a01b0383166001600160a01b0319918216811783556001805490921690915560405190917ffbe19c9b601f5ee90b44c7390f3fa2319eba01762d34ee372aeafd59b25c7f8791a250565b6200017583836040516020016200015292919091825263ffffffff16602082015260400190565b60405160208183030381529060405280519060200120826200017a60201b60201c565b505050565b60008281526002602090815260408083206001600160a01b0385168085529252808320805460ff1916600117905551909184917f2ae6a113c0ed5b78a53413ffbb7679881f11145ccfba4fb92e863dfcd5a1d2f39190a35050565b80516001600160a01b0381168114620001ed57600080fd5b919050565b600080600080608085870312156200020957600080fd5b6200021485620001d5565b93506200022460208601620001d5565b92506200023460408601620001d5565b9150606085015163ffffffff811681146200024e57600080fd5b939692955090935050565b61134180620002696000396000f3fe608060405234801561001057600080fd5b50600436106101365760003560e01c806391d14854116100b2578063c6a261d211610081578063d5b8da7311610066578063d5b8da73146102d4578063ecb97484146102f4578063f1f069d61461030757600080fd5b8063c6a261d2146102a1578063d547741f146102c157600080fd5b806391d1485414610219578063954d09c91461023c578063a56d92ce1461027b578063b7ee4eb91461028e57600080fd5b80632f2ff15d1161010957806343fa97ca116100ee57806343fa97ca146101d55780635b94db27146101e85780638da5cb5b146101fb57600080fd5b80632f2ff15d146101ba5780633bd1adec146101cd57600080fd5b80631ba8e4841461013b5780631e8673111461015057806320f99c0a146101635780632e7eb258146101a7575b600080fd5b61014e610149366004610e62565b61031a565b005b61014e61015e366004610eee565b61037b565b60015473ffffffffffffffffffffffffffffffffffffffff165b60405173ffffffffffffffffffffffffffffffffffffffff90911681526020015b60405180910390f35b61014e6101b5366004610e62565b610521565b61014e6101c8366004610f88565b61057d565b61014e6105dc565b61014e6101e3366004610eee565b610638565b61014e6101f6366004610fb8565b6107d4565b60005473ffffffffffffffffffffffffffffffffffffffff1661017d565b61022c610227366004610f88565b610894565b604051901515815260200161019e565b61024f61024a366004611004565b6108cf565b6040805173ffffffffffffffffffffffffffffffffffffffff909316835290151560208301520161019e565b61014e6102893660046110dd565b6109b3565b61024f61029c3660046110ff565b610a2b565b60035461017d9073ffffffffffffffffffffffffffffffffffffffff1681565b61014e6102cf366004610f88565b610b07565b60045461017d9073ffffffffffffffffffffffffffffffffffffffff1681565b61022c610302366004610e62565b610b62565b61014e610315366004611186565b610b77565b60005473ffffffffffffffffffffffffffffffffffffffff16331461036b576040517f5fc483c500000000000000000000000000000000000000000000000000000000815260040160405180910390fd5b610376838383610b9b565b505050565b60005473ffffffffffffffffffffffffffffffffffffffff1633146103cc576040517f5fc483c500000000000000000000000000000000000000000000000000000000815260040160405180910390fd5b84811415806103db5750848314155b15610412576040517f11e86f7300000000000000000000000000000000000000000000000000000000815260040160405180910390fd5b8460005b81811015610517576000868683818110610432576104326111dc565b9050602002016020810190610447919061120b565b63ffffffff1611156104c7576104c2888883818110610468576104686111dc565b90506020020135878784818110610481576104816111dc565b9050602002016020810190610496919061120b565b8686858181106104a8576104a86111dc565b90506020020160208101906104bd9190610fb8565b610b9b565b61050f565b61050f8888838181106104dc576104dc6111dc565b905060200201358585848181106104f5576104f56111dc565b905060200201602081019061050a9190610fb8565b610bd8565b600101610416565b5050505050505050565b60005473ffffffffffffffffffffffffffffffffffffffff163314610572576040517f5fc483c500000000000000000000000000000000000000000000000000000000815260040160405180910390fd5b610376838383610c5b565b60005473ffffffffffffffffffffffffffffffffffffffff1633146105ce576040517f5fc483c500000000000000000000000000000000000000000000000000000000815260040160405180910390fd5b6105d88282610c98565b5050565b60015473ffffffffffffffffffffffffffffffffffffffff16331461062d576040517f7c91ccdd00000000000000000000000000000000000000000000000000000000815260040160405180910390fd5b61063633610d1e565b565b60005473ffffffffffffffffffffffffffffffffffffffff163314610689576040517f5fc483c500000000000000000000000000000000000000000000000000000000815260040160405180910390fd5b84811415806106985750848314155b156106cf576040517f11e86f7300000000000000000000000000000000000000000000000000000000815260040160405180910390fd5b8460005b818110156105175760008686838181106106ef576106ef6111dc565b9050602002016020810190610704919061120b565b63ffffffff1611156107845761077f888883818110610725576107256111dc565b9050602002013587878481811061073e5761073e6111dc565b9050602002016020810190610753919061120b565b868685818110610765576107656111dc565b905060200201602081019061077a9190610fb8565b610c5b565b6107cc565b6107cc888883818110610799576107996111dc565b905060200201358585848181106107b2576107b26111dc565b90506020020160208101906107c79190610fb8565b610c98565b6001016106d3565b60005473ffffffffffffffffffffffffffffffffffffffff163314610825576040517f5fc483c500000000000000000000000000000000000000000000000000000000815260040160405180910390fd5b600180547fffffffffffffffffffffffff00000000000000000000000000000000000000001673ffffffffffffffffffffffffffffffffffffffff83169081179091556040517f906a1c6bd7e3091ea86693dd029a831c19049ce77f1dce2ce0bab1cacbabce2290600090a250565b600082815260026020908152604080832073ffffffffffffffffffffffffffffffffffffffff8516845290915281205460ff165b9392505050565b600480546040517f97aba7f9000000000000000000000000000000000000000000000000000000008152600092839273ffffffffffffffffffffffffffffffffffffffff16916397aba7f991610929918891889101611226565b602060405180830381865afa158015610946573d6000803e3d6000fd5b505050506040513d601f19601f8201168201806040525081019061096a919061129a565b73ffffffffffffffffffffffffffffffffffffffff81166000527f59aaad84481dba1ea935653b992572e94234e3bd8a15f7adf9511af432a4fd4f602052946001945092505050565b8160f881901c60008190036109c85750505050565b7effffffffffffffffffffffffffffffffffffffffffffffffffffffffffffff821680841015610a24576040517f78f38f7600000000000000000000000000000000000000000000000000000000815260040160405180910390fd5b5050505050565b600480546040517f97aba7f90000000000000000000000000000000000000000000000000000000081526000928392839273ffffffffffffffffffffffffffffffffffffffff909116916397aba7f991610a8b918a918a918a91016112b7565b602060405180830381865afa158015610aa8573d6000803e3d6000fd5b505050506040513d601f19601f82011682018060405250810190610acc919061129a565b9050610af97fd6a0f92c822ccba0fa91b30f08f085e68bc8eb3bb140aa16f8dc33ea47eb6cf28883610d96565b509660019650945050505050565b60005473ffffffffffffffffffffffffffffffffffffffff163314610b58576040517f5fc483c500000000000000000000000000000000000000000000000000000000815260040160405180910390fd5b6105d88282610bd8565b6000610b6f848484610d96565b949350505050565b60035473ffffffffffffffffffffffffffffffffffffffff16331461037657505050565b6103768383604051602001610bc092919091825263ffffffff16602082015260400190565b60405160208183030381529060405280519060200120825b600082815260026020908152604080832073ffffffffffffffffffffffffffffffffffffffff8516808552925280832080547fffffffffffffffffffffffffffffffffffffffffffffffffffffffffffffff0016905551909184917f155aaafb6329a2098580462df33ec4b7441b19729b9601c5fc17ae1cf99a8a529190a35050565b6103768383604051602001610c8092919091825263ffffffff16602082015260400190565b60405160208183030381529060405280519060200120825b600082815260026020908152604080832073ffffffffffffffffffffffffffffffffffffffff8516808552925280832080547fffffffffffffffffffffffffffffffffffffffffffffffffffffffffffffff0016600117905551909184917f2ae6a113c0ed5b78a53413ffbb7679881f11145ccfba4fb92e863dfcd5a1d2f39190a35050565b6000805473ffffffffffffffffffffffffffffffffffffffff83167fffffffffffffffffffffffff0000000000000000000000000000000000000000918216811783556001805490921690915560405190917ffbe19c9b601f5ee90b44c7390f3fa2319eba01762d34ee372aeafd59b25c7f8791a250565b6000610b6f8484604051602001610dbd92919091825263ffffffff16602082015260400190565b604080517fffffffffffffffffffffffffffffffffffffffffffffffffffffffffffffffe0818403018152918152815160209283012060009081526002835281812073ffffffffffffffffffffffffffffffffffffffff8716825290925290205460ff1690565b803563ffffffff81168114610e3857600080fd5b919050565b73ffffffffffffffffffffffffffffffffffffffff81168114610e5f57600080fd5b50565b600080600060608486031215610e7757600080fd5b83359250610e8760208501610e24565b91506040840135610e9781610e3d565b809150509250925092565b60008083601f840112610eb457600080fd5b50813567ffffffffffffffff811115610ecc57600080fd5b6020830191508360208260051b8501011115610ee757600080fd5b9250929050565b60008060008060008060608789031215610f0757600080fd5b863567ffffffffffffffff80821115610f1f57600080fd5b610f2b8a838b01610ea2565b90985096506020890135915080821115610f4457600080fd5b610f508a838b01610ea2565b90965094506040890135915080821115610f6957600080fd5b50610f7689828a01610ea2565b979a9699509497509295939492505050565b60008060408385031215610f9b57600080fd5b823591506020830135610fad81610e3d565b809150509250929050565b600060208284031215610fca57600080fd5b81356108c881610e3d565b7f4e487b7100000000000000000000000000000000000000000000000000000000600052604160045260246000fd5b6000806040838503121561101757600080fd5b82359150602083013567ffffffffffffffff8082111561103657600080fd5b818501915085601f83011261104a57600080fd5b81358181111561105c5761105c610fd5565b604051601f82017fffffffffffffffffffffffffffffffffffffffffffffffffffffffffffffffe0908116603f011681019083821181831017156110a2576110a2610fd5565b816040528281528860208487010111156110bb57600080fd5b8260208601602083013760006020848301015280955050505050509250929050565b600080604083850312156110f057600080fd5b50508035926020909101359150565b6000806000806060858703121561111557600080fd5b61111e85610e24565b935060208501359250604085013567ffffffffffffffff8082111561114257600080fd5b818701915087601f83011261115657600080fd5b81358181111561116557600080fd5b88602082850101111561117757600080fd5b95989497505060200194505050565b60008060006060848603121561119b57600080fd5b83356111a681610e3d565b925060208401356fffffffffffffffffffffffffffffffff811681146111cb57600080fd5b929592945050506040919091013590565b7f4e487b7100000000000000000000000000000000000000000000000000000000600052603260045260246000fd5b60006020828403121561121d57600080fd5b6108c882610e24565b82815260006020604081840152835180604085015260005b8181101561125a5785810183015185820160600152820161123e565b5060006060828601015260607fffffffffffffffffffffffffffffffffffffffffffffffffffffffffffffffe0601f830116850101925050509392505050565b6000602082840312156112ac57600080fd5b81516108c881610e3d565b83815260406020820152816040820152818360608301376000818301606090810191909152601f9092017fffffffffffffffffffffffffffffffffffffffffffffffffffffffffffffffe01601019291505056fea26469706673582212208f327602954b65d0da4f63198870bda058e73cfb863dd5c60d57ffd5be62473a64736f6c63430008130033",
  "linkReferences": {},
  "deployedLinkReferences": {}
}