{
  "_format": "hh-sol-artifact-1",
  "contractName": "ExecutionManager",
  "sourceName": "contracts/ExecutionManager.sol",
  "abi": [
    {
      "inputs": [
        {
          "internalType": "address",
          "name": "owner_",
          "type": "address"
        },
        {
          "internalType": "uint32",
          "name": "chainSlug_",
          "type": "uint32"
        },
        {
          "internalType": "contract ISocket",
          "name": "socket_",
          "type": "address"
        },
        {
          "internalType": "contract ISignatureVerifier",
          "name": "signatureVerifier_",
          "type": "address"
        }
      ],
      "stateMutability": "nonpayable",
      "type": "constructor"
    },
    {
      "inputs": [],
      "name": "FeesTooHigh",
      "type": "error"
    },
    {
      "inputs": [],
      "name": "InsufficientFees",
      "type": "error"
    },
    {
      "inputs": [],
      "name": "InsufficientMsgValue",
      "type": "error"
    },
    {
      "inputs": [],
      "name": "InvalidMsgValue",
      "type": "error"
    },
    {
      "inputs": [],
      "name": "InvalidNonce",
      "type": "error"
    },
    {
      "inputs": [],
      "name": "InvalidTokenAddress",
      "type": "error"
    },
    {
      "inputs": [],
      "name": "MsgValueTooHigh",
      "type": "error"
    },
    {
      "inputs": [],
      "name": "MsgValueTooLow",
      "type": "error"
    },
    {
      "inputs": [
        {
          "internalType": "bytes32",
          "name": "role",
          "type": "bytes32"
        }
      ],
      "name": "NoPermit",
      "type": "error"
    },
    {
      "inputs": [],
      "name": "OnlyNominee",
      "type": "error"
    },
    {
      "inputs": [],
      "name": "OnlyOwner",
      "type": "error"
    },
    {
      "inputs": [],
      "name": "OnlySocket",
      "type": "error"
    },
    {
      "inputs": [],
      "name": "PayloadTooLarge",
      "type": "error"
    },
    {
      "inputs": [],
      "name": "UnequalArrayLengths",
      "type": "error"
    },
    {
      "inputs": [],
      "name": "ZeroAddress",
      "type": "error"
    },
    {
      "anonymous": false,
      "inputs": [
        {
          "indexed": false,
          "internalType": "uint256",
          "name": "siblingChainSlug",
          "type": "uint256"
        },
        {
          "indexed": false,
          "internalType": "uint128",
          "name": "executionFees",
          "type": "uint128"
        }
      ],
      "name": "ExecutionFeesSet",
      "type": "event"
    },
    {
      "anonymous": false,
      "inputs": [
        {
          "indexed": false,
          "internalType": "address",
          "name": "account",
          "type": "address"
        },
        {
          "indexed": false,
          "internalType": "uint32",
          "name": "siblingChainSlug",
          "type": "uint32"
        },
        {
          "indexed": false,
          "internalType": "uint256",
          "name": "amount",
          "type": "uint256"
        }
      ],
      "name": "ExecutionFeesWithdrawn",
      "type": "event"
    },
    {
      "anonymous": false,
      "inputs": [
        {
          "indexed": false,
          "internalType": "uint256",
          "name": "siblingChainSlug",
          "type": "uint256"
        },
        {
          "indexed": false,
          "internalType": "uint256",
          "name": "msgValueMaxThresholdSet",
          "type": "uint256"
        }
      ],
      "name": "MsgValueMaxThresholdSet",
      "type": "event"
    },
    {
      "anonymous": false,
      "inputs": [
        {
          "indexed": false,
          "internalType": "uint256",
          "name": "siblingChainSlug",
          "type": "uint256"
        },
        {
          "indexed": false,
          "internalType": "uint256",
          "name": "msgValueMinThresholdSet",
          "type": "uint256"
        }
      ],
      "name": "MsgValueMinThresholdSet",
      "type": "event"
    },
    {
      "anonymous": false,
      "inputs": [
        {
          "indexed": true,
          "internalType": "address",
          "name": "claimer",
          "type": "address"
        }
      ],
      "name": "OwnerClaimed",
      "type": "event"
    },
    {
      "anonymous": false,
      "inputs": [
        {
          "indexed": true,
          "internalType": "address",
          "name": "nominee",
          "type": "address"
        }
      ],
      "name": "OwnerNominated",
      "type": "event"
    },
    {
      "anonymous": false,
      "inputs": [
        {
          "indexed": false,
          "internalType": "uint256",
          "name": "siblingChainSlug",
          "type": "uint256"
        },
        {
          "indexed": false,
          "internalType": "uint256",
          "name": "relativeNativeTokenPrice",
          "type": "uint256"
        }
      ],
      "name": "RelativeNativeTokenPriceSet",
      "type": "event"
    },
    {
      "anonymous": false,
      "inputs": [
        {
          "indexed": true,
          "internalType": "bytes32",
          "name": "role",
          "type": "bytes32"
        },
        {
          "indexed": true,
          "internalType": "address",
          "name": "grantee",
          "type": "address"
        }
      ],
      "name": "RoleGranted",
      "type": "event"
    },
    {
      "anonymous": false,
      "inputs": [
        {
          "indexed": true,
          "internalType": "bytes32",
          "name": "role",
          "type": "bytes32"
        },
        {
          "indexed": true,
          "internalType": "address",
          "name": "revokee",
          "type": "address"
        }
      ],
      "name": "RoleRevoked",
      "type": "event"
    },
    {
      "anonymous": false,
      "inputs": [
        {
          "indexed": false,
          "internalType": "address",
          "name": "switchboard",
          "type": "address"
        },
        {
          "indexed": false,
          "internalType": "uint32",
          "name": "siblingChainSlug",
          "type": "uint32"
        },
        {
          "indexed": false,
          "internalType": "uint256",
          "name": "amount",
          "type": "uint256"
        }
      ],
      "name": "SwitchboardFeesWithdrawn",
      "type": "event"
    },
    {
      "anonymous": false,
      "inputs": [
        {
          "indexed": false,
          "internalType": "address",
          "name": "transmitManager",
          "type": "address"
        },
        {
          "indexed": false,
          "internalType": "uint32",
          "name": "siblingChainSlug",
          "type": "uint32"
        },
        {
          "indexed": false,
          "internalType": "uint256",
          "name": "amount",
          "type": "uint256"
        }
      ],
      "name": "TransmissionFeesWithdrawn",
      "type": "event"
    },
    {
      "inputs": [],
      "name": "chainSlug",
      "outputs": [
        {
          "internalType": "uint32",
          "name": "",
          "type": "uint32"
        }
      ],
      "stateMutability": "view",
      "type": "function"
    },
    {
      "inputs": [],
      "name": "claimOwner",
      "outputs": [],
      "stateMutability": "nonpayable",
      "type": "function"
    },
    {
      "inputs": [
        {
          "internalType": "uint32",
          "name": "",
          "type": "uint32"
        }
      ],
      "name": "executionFees",
      "outputs": [
        {
          "internalType": "uint128",
          "name": "",
          "type": "uint128"
        }
      ],
      "stateMutability": "view",
      "type": "function"
    },
    {
      "inputs": [
        {
          "internalType": "uint256",
          "name": "minMsgGasLimit_",
          "type": "uint256"
        },
        {
          "internalType": "uint256",
          "name": "payloadSize_",
          "type": "uint256"
        },
        {
          "internalType": "bytes32",
          "name": "executionParams_",
          "type": "bytes32"
        },
        {
          "internalType": "bytes32",
          "name": "",
          "type": "bytes32"
        },
        {
          "internalType": "uint32",
          "name": "siblingChainSlug_",
          "type": "uint32"
        },
        {
          "internalType": "address",
          "name": "transmitManager_",
          "type": "address"
        }
      ],
      "name": "getExecutionTransmissionMinFees",
      "outputs": [
        {
          "internalType": "uint128",
          "name": "minExecutionFee",
          "type": "uint128"
        },
        {
          "internalType": "uint128",
          "name": "transmissionFees",
          "type": "uint128"
        }
      ],
      "stateMutability": "view",
      "type": "function"
    },
    {
      "inputs": [
        {
          "internalType": "uint256",
          "name": "gasLimit_",
          "type": "uint256"
        },
        {
          "internalType": "uint256",
          "name": "payloadSize_",
          "type": "uint256"
        },
        {
          "internalType": "bytes32",
          "name": "executionParams_",
          "type": "bytes32"
        },
        {
          "internalType": "uint32",
          "name": "siblingChainSlug_",
          "type": "uint32"
        }
      ],
      "name": "getMinFees",
      "outputs": [
        {
          "internalType": "uint128",
          "name": "minExecutionFee",
          "type": "uint128"
        }
      ],
      "stateMutability": "view",
      "type": "function"
    },
    {
      "inputs": [
        {
          "internalType": "bytes32[]",
          "name": "roleNames_",
          "type": "bytes32[]"
        },
        {
          "internalType": "uint32[]",
          "name": "slugs_",
          "type": "uint32[]"
        },
        {
          "internalType": "address[]",
          "name": "grantees_",
          "type": "address[]"
        }
      ],
      "name": "grantBatchRole",
      "outputs": [],
      "stateMutability": "nonpayable",
      "type": "function"
    },
    {
      "inputs": [
        {
          "internalType": "bytes32",
          "name": "role_",
          "type": "bytes32"
        },
        {
          "internalType": "address",
          "name": "grantee_",
          "type": "address"
        }
      ],
      "name": "grantRole",
      "outputs": [],
      "stateMutability": "nonpayable",
      "type": "function"
    },
    {
      "inputs": [
        {
          "internalType": "bytes32",
          "name": "roleName_",
          "type": "bytes32"
        },
        {
          "internalType": "uint32",
          "name": "chainSlug_",
          "type": "uint32"
        },
        {
          "internalType": "address",
          "name": "grantee_",
          "type": "address"
        }
      ],
      "name": "grantRoleWithSlug",
      "outputs": [],
      "stateMutability": "nonpayable",
      "type": "function"
    },
    {
      "inputs": [
        {
          "internalType": "bytes32",
          "name": "role_",
          "type": "bytes32"
        },
        {
          "internalType": "address",
          "name": "address_",
          "type": "address"
        }
      ],
      "name": "hasRole",
      "outputs": [
        {
          "internalType": "bool",
          "name": "",
          "type": "bool"
        }
      ],
      "stateMutability": "view",
      "type": "function"
    },
    {
      "inputs": [
        {
          "internalType": "bytes32",
          "name": "roleName_",
          "type": "bytes32"
        },
        {
          "internalType": "uint32",
          "name": "chainSlug_",
          "type": "uint32"
        },
        {
          "internalType": "address",
          "name": "address_",
          "type": "address"
        }
      ],
      "name": "hasRoleWithSlug",
      "outputs": [
        {
          "internalType": "bool",
          "name": "",
          "type": "bool"
        }
      ],
      "stateMutability": "view",
      "type": "function"
    },
    {
      "inputs": [
        {
          "internalType": "bytes32",
          "name": "packedMessage",
          "type": "bytes32"
        },
        {
          "internalType": "bytes",
          "name": "sig",
          "type": "bytes"
        }
      ],
      "name": "isExecutor",
      "outputs": [
        {
          "internalType": "address",
          "name": "executor",
          "type": "address"
        },
        {
          "internalType": "bool",
          "name": "isValidExecutor",
          "type": "bool"
        }
      ],
      "stateMutability": "view",
      "type": "function"
    },
    {
      "inputs": [
        {
          "internalType": "uint32",
          "name": "",
          "type": "uint32"
        }
      ],
      "name": "msgValueMaxThreshold",
      "outputs": [
        {
          "internalType": "uint256",
          "name": "",
          "type": "uint256"
        }
      ],
      "stateMutability": "view",
      "type": "function"
    },
    {
      "inputs": [
        {
          "internalType": "uint32",
          "name": "",
          "type": "uint32"
        }
      ],
      "name": "msgValueMinThreshold",
      "outputs": [
        {
          "internalType": "uint256",
          "name": "",
          "type": "uint256"
        }
      ],
      "stateMutability": "view",
      "type": "function"
    },
    {
      "inputs": [
        {
          "internalType": "address",
          "name": "",
          "type": "address"
        }
      ],
      "name": "nextNonce",
      "outputs": [
        {
          "internalType": "uint256",
          "name": "",
          "type": "uint256"
        }
      ],
      "stateMutability": "view",
      "type": "function"
    },
    {
      "inputs": [
        {
          "internalType": "address",
          "name": "nominee_",
          "type": "address"
        }
      ],
      "name": "nominateOwner",
      "outputs": [],
      "stateMutability": "nonpayable",
      "type": "function"
    },
    {
      "inputs": [],
      "name": "nominee",
      "outputs": [
        {
          "internalType": "address",
          "name": "",
          "type": "address"
        }
      ],
      "stateMutability": "view",
      "type": "function"
    },
    {
      "inputs": [],
      "name": "owner",
      "outputs": [
        {
          "internalType": "address",
          "name": "",
          "type": "address"
        }
      ],
      "stateMutability": "view",
      "type": "function"
    },
    {
      "inputs": [
        {
          "internalType": "uint256",
          "name": "minMsgGasLimit_",
          "type": "uint256"
        },
        {
          "internalType": "uint256",
          "name": "payloadSize_",
          "type": "uint256"
        },
        {
          "internalType": "bytes32",
          "name": "executionParams_",
          "type": "bytes32"
        },
        {
          "internalType": "bytes32",
          "name": "",
          "type": "bytes32"
        },
        {
          "internalType": "uint32",
          "name": "siblingChainSlug_",
          "type": "uint32"
        },
        {
          "internalType": "uint128",
          "name": "switchboardFees_",
          "type": "uint128"
        },
        {
          "internalType": "uint128",
          "name": "verificationOverheadFees_",
          "type": "uint128"
        },
        {
          "internalType": "address",
          "name": "transmitManager_",
          "type": "address"
        },
        {
          "internalType": "address",
          "name": "switchboard_",
          "type": "address"
        },
        {
          "internalType": "uint256",
          "name": "maxPacketLength_",
          "type": "uint256"
        }
      ],
      "name": "payAndCheckFees",
      "outputs": [
        {
          "internalType": "uint128",
          "name": "executionFee",
          "type": "uint128"
        },
        {
          "internalType": "uint128",
          "name": "transmissionFees",
          "type": "uint128"
        }
      ],
      "stateMutability": "payable",
      "type": "function"
    },
    {
      "inputs": [
        {
          "internalType": "uint32",
          "name": "",
          "type": "uint32"
        }
      ],
      "name": "relativeNativeTokenPrice",
      "outputs": [
        {
          "internalType": "uint256",
          "name": "",
          "type": "uint256"
        }
      ],
      "stateMutability": "view",
      "type": "function"
    },
    {
      "inputs": [
        {
          "internalType": "address",
          "name": "token_",
          "type": "address"
        },
        {
          "internalType": "address",
          "name": "rescueTo_",
          "type": "address"
        },
        {
          "internalType": "uint256",
          "name": "amount_",
          "type": "uint256"
        }
      ],
      "name": "rescueFunds",
      "outputs": [],
      "stateMutability": "nonpayable",
      "type": "function"
    },
    {
      "inputs": [
        {
          "internalType": "bytes32[]",
          "name": "roleNames_",
          "type": "bytes32[]"
        },
        {
          "internalType": "uint32[]",
          "name": "slugs_",
          "type": "uint32[]"
        },
        {
          "internalType": "address[]",
          "name": "grantees_",
          "type": "address[]"
        }
      ],
      "name": "revokeBatchRole",
      "outputs": [],
      "stateMutability": "nonpayable",
      "type": "function"
    },
    {
      "inputs": [
        {
          "internalType": "bytes32",
          "name": "role_",
          "type": "bytes32"
        },
        {
          "internalType": "address",
          "name": "revokee_",
          "type": "address"
        }
      ],
      "name": "revokeRole",
      "outputs": [],
      "stateMutability": "nonpayable",
      "type": "function"
    },
    {
      "inputs": [
        {
          "internalType": "bytes32",
          "name": "roleName_",
          "type": "bytes32"
        },
        {
          "internalType": "uint32",
          "name": "chainSlug_",
          "type": "uint32"
        },
        {
          "internalType": "address",
          "name": "grantee_",
          "type": "address"
        }
      ],
      "name": "revokeRoleWithSlug",
      "outputs": [],
      "stateMutability": "nonpayable",
      "type": "function"
    },
    {
      "inputs": [
        {
          "internalType": "uint256",
          "name": "nonce_",
          "type": "uint256"
        },
        {
          "internalType": "uint32",
          "name": "siblingChainSlug_",
          "type": "uint32"
        },
        {
          "internalType": "uint128",
          "name": "executionFees_",
          "type": "uint128"
        },
        {
          "internalType": "bytes",
          "name": "signature_",
          "type": "bytes"
        }
      ],
      "name": "setExecutionFees",
      "outputs": [],
      "stateMutability": "nonpayable",
      "type": "function"
    },
    {
      "inputs": [
        {
          "internalType": "uint256",
          "name": "nonce_",
          "type": "uint256"
        },
        {
          "internalType": "uint32",
          "name": "siblingChainSlug_",
          "type": "uint32"
        },
        {
          "internalType": "uint256",
          "name": "msgValueMaxThreshold_",
          "type": "uint256"
        },
        {
          "internalType": "bytes",
          "name": "signature_",
          "type": "bytes"
        }
      ],
      "name": "setMsgValueMaxThreshold",
      "outputs": [],
      "stateMutability": "nonpayable",
      "type": "function"
    },
    {
      "inputs": [
        {
          "internalType": "uint256",
          "name": "nonce_",
          "type": "uint256"
        },
        {
          "internalType": "uint32",
          "name": "siblingChainSlug_",
          "type": "uint32"
        },
        {
          "internalType": "uint256",
          "name": "msgValueMinThreshold_",
          "type": "uint256"
        },
        {
          "internalType": "bytes",
          "name": "signature_",
          "type": "bytes"
        }
      ],
      "name": "setMsgValueMinThreshold",
      "outputs": [],
      "stateMutability": "nonpayable",
      "type": "function"
    },
    {
      "inputs": [
        {
          "internalType": "uint256",
          "name": "nonce_",
          "type": "uint256"
        },
        {
          "internalType": "uint32",
          "name": "siblingChainSlug_",
          "type": "uint32"
        },
        {
          "internalType": "uint256",
          "name": "relativeNativeTokenPrice_",
          "type": "uint256"
        },
        {
          "internalType": "bytes",
          "name": "signature_",
          "type": "bytes"
        }
      ],
      "name": "setRelativeNativeTokenPrice",
      "outputs": [],
      "stateMutability": "nonpayable",
      "type": "function"
    },
    {
      "inputs": [
        {
          "internalType": "uint32",
          "name": "remoteChainSlug_",
          "type": "uint32"
        },
        {
          "internalType": "uint128",
          "name": "fees_",
          "type": "uint128"
        }
      ],
      "name": "setTransmissionMinFees",
      "outputs": [],
      "stateMutability": "nonpayable",
      "type": "function"
    },
    {
      "inputs": [],
      "name": "signatureVerifier__",
      "outputs": [
        {
          "internalType": "contract ISignatureVerifier",
          "name": "",
          "type": "address"
        }
      ],
      "stateMutability": "view",
      "type": "function"
    },
    {
      "inputs": [],
      "name": "socket__",
      "outputs": [
        {
          "internalType": "contract ISocket",
          "name": "",
          "type": "address"
        }
      ],
      "stateMutability": "view",
      "type": "function"
    },
    {
      "inputs": [
        {
          "internalType": "uint32",
          "name": "",
          "type": "uint32"
        }
      ],
      "name": "totalExecutionAndTransmissionFees",
      "outputs": [
        {
          "internalType": "uint128",
          "name": "totalExecutionFees",
          "type": "uint128"
        },
        {
          "internalType": "uint128",
          "name": "totalTransmissionFees",
          "type": "uint128"
        }
      ],
      "stateMutability": "view",
      "type": "function"
    },
    {
      "inputs": [
        {
          "internalType": "address",
          "name": "",
          "type": "address"
        },
        {
          "internalType": "uint32",
          "name": "",
          "type": "uint32"
        }
      ],
      "name": "totalSwitchboardFees",
      "outputs": [
        {
          "internalType": "uint128",
          "name": "",
          "type": "uint128"
        }
      ],
      "stateMutability": "view",
      "type": "function"
    },
    {
      "inputs": [
        {
          "internalType": "address",
          "name": "",
          "type": "address"
        },
        {
          "internalType": "uint32",
          "name": "",
          "type": "uint32"
        }
      ],
      "name": "transmissionMinFees",
      "outputs": [
        {
          "internalType": "uint128",
          "name": "",
          "type": "uint128"
        }
      ],
      "stateMutability": "view",
      "type": "function"
    },
    {
      "inputs": [
        {
          "internalType": "address",
          "name": "",
          "type": "address"
        },
        {
          "internalType": "uint128",
          "name": "",
          "type": "uint128"
        },
        {
          "internalType": "bytes32",
          "name": "",
          "type": "bytes32"
        }
      ],
      "name": "updateExecutionFees",
      "outputs": [],
      "stateMutability": "view",
      "type": "function"
    },
    {
      "inputs": [
        {
          "internalType": "bytes32",
          "name": "executionParams_",
          "type": "bytes32"
        },
        {
          "internalType": "uint256",
          "name": "msgValue_",
          "type": "uint256"
        }
      ],
      "name": "verifyParams",
      "outputs": [],
      "stateMutability": "pure",
      "type": "function"
    },
    {
      "inputs": [
        {
          "internalType": "uint32",
          "name": "siblingChainSlug_",
          "type": "uint32"
        },
        {
          "internalType": "uint128",
          "name": "amount_",
          "type": "uint128"
        },
        {
          "internalType": "address",
          "name": "withdrawTo_",
          "type": "address"
        }
      ],
      "name": "withdrawExecutionFees",
      "outputs": [],
      "stateMutability": "nonpayable",
      "type": "function"
    },
    {
      "inputs": [
        {
          "internalType": "uint32",
          "name": "siblingChainSlug_",
          "type": "uint32"
        },
        {
          "internalType": "address",
          "name": "switchboard_",
          "type": "address"
        },
        {
          "internalType": "uint128",
          "name": "amount_",
          "type": "uint128"
        }
      ],
      "name": "withdrawSwitchboardFees",
      "outputs": [],
      "stateMutability": "nonpayable",
      "type": "function"
    },
    {
      "inputs": [
        {
          "internalType": "uint32",
          "name": "siblingChainSlug_",
          "type": "uint32"
        },
        {
          "internalType": "uint128",
          "name": "amount_",
          "type": "uint128"
        }
      ],
      "name": "withdrawTransmissionFees",
      "outputs": [],
      "stateMutability": "nonpayable",
      "type": "function"
    }
  ],
  "bytecode": "0x60e06040523480156200001157600080fd5b506040516200374f3803806200374f8339810160408190526200003491620000d5565b838080620000428162000069565b50505063ffffffff90921660c0526001600160a01b039182166080521660a0525062000145565b600080546001600160a01b0383166001600160a01b0319918216811783556001805490921690915560405190917ffbe19c9b601f5ee90b44c7390f3fa2319eba01762d34ee372aeafd59b25c7f8791a250565b6001600160a01b0381168114620000d257600080fd5b50565b60008060008060808587031215620000ec57600080fd5b8451620000f981620000bc565b602086015190945063ffffffff811681146200011457600080fd5b60408601519093506200012781620000bc565b60608601519092506200013a81620000bc565b939692955090935050565b60805160a05160c05161358d620001c26000396000818161082801528181610c8d01528181611ac201528181611ceb0152611f4c015260008181610871015281816112fb01526124e00152600081816108c501528181610d1e0152818161199901528181611b5301528181611d510152611fdd015261358d6000f3fe6080604052600436106102845760003560e01c80638da5cb5b11610153578063aea3d96b116100cb578063d5b8da731161007f578063de8c4ff911610064578063de8c4ff914610931578063ecb9748414610951578063f1f069d61461097157600080fd5b8063d5b8da73146108b3578063d81381d5146108e757600080fd5b8063b349ba65116100b0578063b349ba6514610816578063c6a261d21461085f578063d547741f1461089357600080fd5b8063aea3d96b1461079f578063b0c34229146107bf57600080fd5b8063955b1590116101225780639f4ad32e116101075780639f4ad32e1461073f578063a18857001461075f578063a56d92ce1461077f57600080fd5b8063955b1590146106f25780639f1028551461071f57600080fd5b80638da5cb5b1461062b57806390d241f11461065657806391d1485414610676578063954d09c9146106a657600080fd5b806338fe3025116102015780635b94db27116101b55780636e3c05621161019a5780636e3c0562146105a257806371c4717b146105c25780637644e7fa146105fe57600080fd5b80635b94db27146105625780636ccae0541461058257600080fd5b80633bd1adec116101e65780633bd1adec1461050057806343fa97ca146105155780634d1bf1891461053557600080fd5b806338fe3025146104615780633b13d3f11461048157600080fd5b80631e867311116102585780632e7eb2581161023d5780632e7eb258146104015780632f2ff15d14610421578063308795b21461044157600080fd5b80631e8673111461039557806320f99c0a146103b557600080fd5b80626fc3e2146102895780630cd55abf146102f957806311cf8aa5146103345780631ba8e48414610373575b600080fd5b34801561029557600080fd5b506102d36102a4366004612cc6565b60046020908152600092835260408084209091529082529020546fffffffffffffffffffffffffffffffff1681565b6040516fffffffffffffffffffffffffffffffff90911681526020015b60405180910390f35b34801561030557600080fd5b50610326610314366004612cf2565b60056020526000908152604090205481565b6040519081526020016102f0565b34801561034057600080fd5b506102d361034f366004612d16565b6006602052600090815260409020546fffffffffffffffffffffffffffffffff1681565b34801561037f57600080fd5b5061039361038e366004612d31565b610991565b005b3480156103a157600080fd5b506103936103b0366004612dbd565b6109f2565b3480156103c157600080fd5b5060015473ffffffffffffffffffffffffffffffffffffffff165b60405173ffffffffffffffffffffffffffffffffffffffff90911681526020016102f0565b34801561040d57600080fd5b5061039361041c366004612d31565b610b98565b34801561042d57600080fd5b5061039361043c366004612e57565b610bf4565b34801561044d57600080fd5b5061039361045c366004612ec9565b610c53565b34801561046d57600080fd5b506102d361047c366004612f31565b610e89565b34801561048d57600080fd5b5061039361049c366004612f90565b33600090815260076020908152604080832063ffffffff9590951683529390529190912080547fffffffffffffffffffffffffffffffff00000000000000000000000000000000166fffffffffffffffffffffffffffffffff909216919091179055565b34801561050c57600080fd5b50610393610ea0565b34801561052157600080fd5b50610393610530366004612dbd565b610efc565b34801561054157600080fd5b50610326610550366004612d16565b600a6020526000908152604090205481565b34801561056e57600080fd5b5061039361057d366004612cf2565b611098565b34801561058e57600080fd5b5061039361059d366004612fba565b611158565b3480156105ae57600080fd5b506103936105bd366004612f90565b6111fb565b6105d56105d0366004612ffb565b6114a0565b604080516fffffffffffffffffffffffffffffffff9384168152929091166020830152016102f0565b34801561060a57600080fd5b50610326610619366004612d16565b60096020526000908152604090205481565b34801561063757600080fd5b5060005473ffffffffffffffffffffffffffffffffffffffff166103dc565b34801561066257600080fd5b50610393610671366004613098565b611759565b34801561068257600080fd5b50610696610691366004612e57565b611957565b60405190151581526020016102f0565b3480156106b257600080fd5b506106c66106c136600461310c565b611994565b6040805173ffffffffffffffffffffffffffffffffffffffff90931683529015156020830152016102f0565b3480156106fe57600080fd5b5061032661070d366004612d16565b60086020526000908152604090205481565b34801561072b57600080fd5b5061039361073a366004612ec9565b611a88565b34801561074b57600080fd5b5061039361075a3660046131e5565b611cb2565b34801561076b57600080fd5b5061039361077a366004612ec9565b611f12565b34801561078b57600080fd5b5061039361079a366004613237565b61213c565b3480156107ab57600080fd5b506105d56107ba366004613259565b6121b4565b3480156107cb57600080fd5b506105d56107da366004612d16565b6003602052600090815260409020546fffffffffffffffffffffffffffffffff8082169170010000000000000000000000000000000090041682565b34801561082257600080fd5b5061084a7f000000000000000000000000000000000000000000000000000000000000000081565b60405163ffffffff90911681526020016102f0565b34801561086b57600080fd5b506103dc7f000000000000000000000000000000000000000000000000000000000000000081565b34801561089f57600080fd5b506103936108ae366004612e57565b61221f565b3480156108bf57600080fd5b506103dc7f000000000000000000000000000000000000000000000000000000000000000081565b3480156108f357600080fd5b506102d3610902366004612cc6565b60076020908152600092835260408084209091529082529020546fffffffffffffffffffffffffffffffff1681565b34801561093d57600080fd5b5061039361094c3660046132b5565b61227a565b34801561095d57600080fd5b5061069661096c366004612d31565b6124b3565b34801561097d57600080fd5b5061039361098c3660046132e1565b6124c8565b60005473ffffffffffffffffffffffffffffffffffffffff1633146109e2576040517f5fc483c500000000000000000000000000000000000000000000000000000000815260040160405180910390fd5b6109ed838383612537565b505050565b60005473ffffffffffffffffffffffffffffffffffffffff163314610a43576040517f5fc483c500000000000000000000000000000000000000000000000000000000815260040160405180910390fd5b8481141580610a525750848314155b15610a89576040517f11e86f7300000000000000000000000000000000000000000000000000000000815260040160405180910390fd5b8460005b81811015610b8e576000868683818110610aa957610aa961331f565b9050602002016020810190610abe9190612d16565b63ffffffff161115610b3e57610b39888883818110610adf57610adf61331f565b90506020020135878784818110610af857610af861331f565b9050602002016020810190610b0d9190612d16565b868685818110610b1f57610b1f61331f565b9050602002016020810190610b349190612cf2565b612537565b610b86565b610b86888883818110610b5357610b5361331f565b90506020020135858584818110610b6c57610b6c61331f565b9050602002016020810190610b819190612cf2565b612574565b600101610a8d565b5050505050505050565b60005473ffffffffffffffffffffffffffffffffffffffff163314610be9576040517f5fc483c500000000000000000000000000000000000000000000000000000000815260040160405180910390fd5b6109ed8383836125f7565b60005473ffffffffffffffffffffffffffffffffffffffff163314610c45576040517f5fc483c500000000000000000000000000000000000000000000000000000000815260040160405180910390fd5b610c4f8282612634565b5050565b604080517f5498237e9cba7720b9d4b88ac1ad78e4c78dae0cb7b6b33a329e330ca9349f8f602080830191909152308284015263ffffffff7f0000000000000000000000000000000000000000000000000000000000000000811660608401528716608083015260a0820188905260c08083018790528351808403909101815260e083019384905280519101207f97aba7f90000000000000000000000000000000000000000000000000000000090925260009173ffffffffffffffffffffffffffffffffffffffff7f000000000000000000000000000000000000000000000000000000000000000016916397aba7f991610d55918790879060e40161334e565b602060405180830381865afa158015610d72573d6000803e3d6000fd5b505050506040513d601f19601f82011682018060405250810190610d9691906133a2565b9050610dc97f429672025b2dcb8754ca4b57943f34ac66900598787cb1f1e857291dedbf34d38663ffffffff16836126ba565b73ffffffffffffffffffffffffffffffffffffffff811660009081526005602052604090208054600181019091558614610e2f576040517f756688fe00000000000000000000000000000000000000000000000000000000815260040160405180910390fd5b63ffffffff8516600081815260096020908152604091829020879055815192835282018690527f9e2bb394655fb30d5d70b657711b435d31ad553885bfea5d029d96b4cc82dc7a91015b60405180910390a1505050505050565b6000610e978585858561274d565b95945050505050565b60015473ffffffffffffffffffffffffffffffffffffffff163314610ef1576040517f7c91ccdd00000000000000000000000000000000000000000000000000000000815260040160405180910390fd5b610efa3361294e565b565b60005473ffffffffffffffffffffffffffffffffffffffff163314610f4d576040517f5fc483c500000000000000000000000000000000000000000000000000000000815260040160405180910390fd5b8481141580610f5c5750848314155b15610f93576040517f11e86f7300000000000000000000000000000000000000000000000000000000815260040160405180910390fd5b8460005b81811015610b8e576000868683818110610fb357610fb361331f565b9050602002016020810190610fc89190612d16565b63ffffffff16111561104857611043888883818110610fe957610fe961331f565b905060200201358787848181106110025761100261331f565b90506020020160208101906110179190612d16565b8686858181106110295761102961331f565b905060200201602081019061103e9190612cf2565b6125f7565b611090565b61109088888381811061105d5761105d61331f565b905060200201358585848181106110765761107661331f565b905060200201602081019061108b9190612cf2565b612634565b600101610f97565b60005473ffffffffffffffffffffffffffffffffffffffff1633146110e9576040517f5fc483c500000000000000000000000000000000000000000000000000000000815260040160405180910390fd5b600180547fffffffffffffffffffffffff00000000000000000000000000000000000000001673ffffffffffffffffffffffffffffffffffffffff83169081179091556040517f906a1c6bd7e3091ea86693dd029a831c19049ce77f1dce2ce0bab1cacbabce2290600090a250565b3360009081527f4933f7bec34ee32db93e9f5cd7e0519781b395282211f4f6857489046ea38f7660205260409020547fc4c453d647953c0fd35db5a34ee76e60fb4abc3a8fb891a25936b70b38f292539060ff166111ea576040517f962f6333000000000000000000000000000000000000000000000000000000008152600481018290526024015b60405180910390fd5b6111f58484846129c6565b50505050565b63ffffffff82166000908152600360205260409020546fffffffffffffffffffffffffffffffff808316700100000000000000000000000000000000909204161015611273576040517f8d53e55300000000000000000000000000000000000000000000000000000000815260040160405180910390fd5b63ffffffff8216600090815260036020526040902080548291906010906112c190849070010000000000000000000000000000000090046fffffffffffffffffffffffffffffffff166133ee565b92506101000a8154816fffffffffffffffffffffffffffffffff02191690836fffffffffffffffffffffffffffffffff16021790555060007f000000000000000000000000000000000000000000000000000000000000000073ffffffffffffffffffffffffffffffffffffffff166341805c246040518163ffffffff1660e01b8152600401602060405180830381865afa158015611364573d6000803e3d6000fd5b505050506040513d601f19601f8201168201806040525081019061138891906133a2565b6040517fa9a541b200000000000000000000000000000000000000000000000000000000815263ffffffff8516600482015290915073ffffffffffffffffffffffffffffffffffffffff82169063a9a541b2906fffffffffffffffffffffffffffffffff8516906024016000604051808303818588803b15801561140b57600080fd5b505af115801561141f573d6000803e3d6000fd5b50506040805173ffffffffffffffffffffffffffffffffffffffff8616815263ffffffff881660208201526fffffffffffffffffffffffffffffffff8716918101919091527fb8fee8df7dff1cee6b16775bb2292a5341317514d9c5399dd2a62303e3f92c1a935060600191506114939050565b60405180910390a1505050565b6000806fffffffffffffffffffffffffffffffff34106114ec576040517f1841b4e100000000000000000000000000000000000000000000000000000000815260040160405180910390fd5b73ffffffffffffffffffffffffffffffffffffffff8516600090815260076020908152604080832063ffffffff8c16845290915290205434906115429085906fffffffffffffffffffffffffffffffff1661344d565b915060006115528e8e8e8d61274d565b90506000611560898361347c565b90508061156d8b8661347c565b611577919061347c565b6fffffffffffffffffffffffffffffffff16836fffffffffffffffffffffffffffffffff1610156115d4576040517f8d53e55300000000000000000000000000000000000000000000000000000000815260040160405180910390fd5b896115df85856133ee565b6115e991906133ee565b63ffffffff8c166000908152600360209081526040918290208251808401845290546fffffffffffffffffffffffffffffffff808216835270010000000000000000000000000000000090910416918101919091528151808301909252805192975091819061165990899061347c565b6fffffffffffffffffffffffffffffffff168152602001868360200151611680919061347c565b6fffffffffffffffffffffffffffffffff90811690915263ffffffff8e1660008181526003602090815260408083208651968301518616700100000000000000000000000000000000029686169690961790955573ffffffffffffffffffffffffffffffffffffffff8d168252600481528482209282529190915291822080548e9391926117109185911661347c565b92506101000a8154816fffffffffffffffffffffffffffffffff02191690836fffffffffffffffffffffffffffffffff160217905550505050509a509a98505050505050505050565b73ffffffffffffffffffffffffffffffffffffffff8216600090815260046020908152604080832063ffffffff871684529091529020546fffffffffffffffffffffffffffffffff808316911610156117de576040517f8d53e55300000000000000000000000000000000000000000000000000000000815260040160405180910390fd5b73ffffffffffffffffffffffffffffffffffffffff8216600090815260046020908152604080832063ffffffff87168452909152812080548392906118369084906fffffffffffffffffffffffffffffffff166133ee565b82546101009290920a6fffffffffffffffffffffffffffffffff8181021990931691831602179091556040517fa9a541b200000000000000000000000000000000000000000000000000000000815263ffffffff8616600482015273ffffffffffffffffffffffffffffffffffffffff8516925063a9a541b2918416906024016000604051808303818588803b1580156118cf57600080fd5b505af11580156118e3573d6000803e3d6000fd5b50506040805173ffffffffffffffffffffffffffffffffffffffff8716815263ffffffff881660208201526fffffffffffffffffffffffffffffffff8616918101919091527fe7ea372fbcab98f6f74f62c16d1127e475529579f63121bf168773850739e3f9935060600191506114939050565b600082815260026020908152604080832073ffffffffffffffffffffffffffffffffffffffff8516845290915281205460ff165b90505b92915050565b6000807f000000000000000000000000000000000000000000000000000000000000000073ffffffffffffffffffffffffffffffffffffffff166397aba7f985856040518363ffffffff1660e01b81526004016119f29291906134a5565b602060405180830381865afa158015611a0f573d6000803e3d6000fd5b505050506040513d601f19601f82011682018060405250810190611a3391906133a2565b73ffffffffffffffffffffffffffffffffffffffff811660009081527f59aaad84481dba1ea935653b992572e94234e3bd8a15f7adf9511af432a4fd4f602052604090205490925060ff165b90509250929050565b604080517f097d8e0ecdafcc3ab6916c2b486af7d06325dcdf5bd46372f340eea8cffd674c602080830191909152308284015263ffffffff7f0000000000000000000000000000000000000000000000000000000000000000811660608401528716608083015260a0820188905260c08083018790528351808403909101815260e083019384905280519101207f97aba7f90000000000000000000000000000000000000000000000000000000090925260009173ffffffffffffffffffffffffffffffffffffffff7f000000000000000000000000000000000000000000000000000000000000000016916397aba7f991611b8a918790879060e40161334e565b602060405180830381865afa158015611ba7573d6000803e3d6000fd5b505050506040513d601f19601f82011682018060405250810190611bcb91906133a2565b9050611bfe7f429672025b2dcb8754ca4b57943f34ac66900598787cb1f1e857291dedbf34d38663ffffffff16836126ba565b73ffffffffffffffffffffffffffffffffffffffff811660009081526005602052604090208054600181019091558614611c64576040517f756688fe00000000000000000000000000000000000000000000000000000000815260040160405180910390fd5b63ffffffff8516600081815260086020908152604091829020879055815192835282018690527fcaade52e9295f5cd4e1762d70bf40bf839fbbc232469ca3c7ac0de77d156d4889101610e79565b604080517ff2deac1744cfd52ddfce21c5ff26abf413f6418dc4a35916e26daefd87e04ab66020820152309181019190915263ffffffff7f0000000000000000000000000000000000000000000000000000000000000000811660608301528516608082015260a081018690526fffffffffffffffffffffffffffffffff841660c082015260009073ffffffffffffffffffffffffffffffffffffffff7f000000000000000000000000000000000000000000000000000000000000000016906397aba7f99060e0016040516020818303038152906040528051906020012085856040518463ffffffff1660e01b8152600401611db19392919061334e565b602060405180830381865afa158015611dce573d6000803e3d6000fd5b505050506040513d601f19601f82011682018060405250810190611df291906133a2565b9050611e257f429672025b2dcb8754ca4b57943f34ac66900598787cb1f1e857291dedbf34d38663ffffffff16836126ba565b73ffffffffffffffffffffffffffffffffffffffff811660009081526005602052604090208054600181019091558614611e8b576040517f756688fe00000000000000000000000000000000000000000000000000000000815260040160405180910390fd5b63ffffffff851660008181526006602090815260409182902080547fffffffffffffffffffffffffffffffff00000000000000000000000000000000166fffffffffffffffffffffffffffffffff89169081179091558251938452908301527f6f6b67028f327b717005aaa24a2e98fae60f71b6e59ed9ae762cfd7ec7b0e2309101610e79565b604080517f6ae815499d9e0b180f1f7632798b7dfd6565f2ed8e2745b19af5de7bde5e62aa602080830191909152308284015263ffffffff7f0000000000000000000000000000000000000000000000000000000000000000811660608401528716608083015260a0820188905260c08083018790528351808403909101815260e083019384905280519101207f97aba7f90000000000000000000000000000000000000000000000000000000090925260009173ffffffffffffffffffffffffffffffffffffffff7f000000000000000000000000000000000000000000000000000000000000000016916397aba7f991612014918790879060e40161334e565b602060405180830381865afa158015612031573d6000803e3d6000fd5b505050506040513d601f19601f8201168201806040525081019061205591906133a2565b90506120887f429672025b2dcb8754ca4b57943f34ac66900598787cb1f1e857291dedbf34d38663ffffffff16836126ba565b73ffffffffffffffffffffffffffffffffffffffff8116600090815260056020526040902080546001810190915586146120ee576040517f756688fe00000000000000000000000000000000000000000000000000000000815260040160405180910390fd5b63ffffffff85166000818152600a6020908152604091829020879055815192835282018690527ff31f7eb11567a8d1fd792197d4328a9b4514b8fe89a70807e29132ce2b8e93f09101610e79565b8160f881901c60008190036121515750505050565b7effffffffffffffffffffffffffffffffffffffffffffffffffffffffffffff8216808410156121ad576040517f78f38f7600000000000000000000000000000000000000000000000000000000815260040160405180910390fd5b5050505050565b6000806121c38888888761274d565b73ffffffffffffffffffffffffffffffffffffffff909316600090815260076020908152604080832063ffffffff9097168352959052939093205491976fffffffffffffffffffffffffffffffff909216965090945050505050565b60005473ffffffffffffffffffffffffffffffffffffffff163314612270576040517f5fc483c500000000000000000000000000000000000000000000000000000000815260040160405180910390fd5b610c4f8282612574565b3360009081527f9b7ec560033b826bc253a5f1a8b5e6a61c8d2a6e8731a9872b68296f6024c5ac60205260409020547f5d8e12c39142ff96d79d04d15d1ba1269e4fe57bb9d26f43523628b34ba108ec9060ff16612307576040517f962f6333000000000000000000000000000000000000000000000000000000008152600481018290526024016111e1565b73ffffffffffffffffffffffffffffffffffffffff8216612354576040517fd92e233d00000000000000000000000000000000000000000000000000000000815260040160405180910390fd5b63ffffffff84166000908152600360205260409020546fffffffffffffffffffffffffffffffff808516911610156123b8576040517f8d53e55300000000000000000000000000000000000000000000000000000000815260040160405180910390fd5b63ffffffff8416600090815260036020526040812080548592906123ef9084906fffffffffffffffffffffffffffffffff166133ee565b92506101000a8154816fffffffffffffffffffffffffffffffff02191690836fffffffffffffffffffffffffffffffff16021790555061244182846fffffffffffffffffffffffffffffffff16612ab6565b6040805173ffffffffffffffffffffffffffffffffffffffff8416815263ffffffff861660208201526fffffffffffffffffffffffffffffffff85168183015290517fb2d1c6b6dcf53eb15f8fb6c88a3642c4d7407333bcd0e16d6e5789f6beb51fb99181900360600190a150505050565b60006124c0848484612b2b565b949350505050565b3373ffffffffffffffffffffffffffffffffffffffff7f000000000000000000000000000000000000000000000000000000000000000016146109ed576040517f503284dc00000000000000000000000000000000000000000000000000000000815260040160405180910390fd5b6109ed838360405160200161255c92919091825263ffffffff16602082015260400190565b60405160208183030381529060405280519060200120825b600082815260026020908152604080832073ffffffffffffffffffffffffffffffffffffffff8516808552925280832080547fffffffffffffffffffffffffffffffffffffffffffffffffffffffffffffff0016905551909184917f155aaafb6329a2098580462df33ec4b7441b19729b9601c5fc17ae1cf99a8a529190a35050565b6109ed838360405160200161261c92919091825263ffffffff16602082015260400190565b60405160208183030381529060405280519060200120825b600082815260026020908152604080832073ffffffffffffffffffffffffffffffffffffffff8516808552925280832080547fffffffffffffffffffffffffffffffffffffffffffffffffffffffffffffff0016600117905551909184917f2ae6a113c0ed5b78a53413ffbb7679881f11145ccfba4fb92e863dfcd5a1d2f39190a35050565b6040805160208082018690528183018590528251808303840181526060909201835281519181019190912060008181526002835283812073ffffffffffffffffffffffffffffffffffffffff861682529092529190205460ff166111f5576040517f962f6333000000000000000000000000000000000000000000000000000000008152600481018290526024016111e1565b6000610bb884111561278b576040517f492f620d00000000000000000000000000000000000000000000000000000000815260040160405180910390fd5b8260f881901c60008190036127ca5750505063ffffffff81166000908152600660205260409020546fffffffffffffffffffffffffffffffff166124c0565b63ffffffff84166000908152600960205260409020547effffffffffffffffffffffffffffffffffffffffffffffffffffffffffffff83169081101561283c576040517f508aaf0000000000000000000000000000000000000000000000000000000000815260040160405180910390fd5b63ffffffff85166000908152600a602052604090205481111561288b576040517f5dffc92f00000000000000000000000000000000000000000000000000000000815260040160405180910390fd5b63ffffffff8516600090815260086020526040812054670de0b6b3a7640000906128b6908490613519565b6128c09190613530565b63ffffffff8716600090815260066020526040812054919250906128f6906fffffffffffffffffffffffffffffffff1683613544565b90506fffffffffffffffffffffffffffffffff8110612941576040517fc9034e1800000000000000000000000000000000000000000000000000000000815260040160405180910390fd5b9998505050505050505050565b6000805473ffffffffffffffffffffffffffffffffffffffff83167fffffffffffffffffffffffff0000000000000000000000000000000000000000918216811783556001805490921690915560405190917ffbe19c9b601f5ee90b44c7390f3fa2319eba01762d34ee372aeafd59b25c7f8791a250565b73ffffffffffffffffffffffffffffffffffffffff8216612a13576040517fd92e233d00000000000000000000000000000000000000000000000000000000815260040160405180910390fd5b7fffffffffffffffffffffffff111111111111111111111111111111111111111273ffffffffffffffffffffffffffffffffffffffff841601612a5a576109ed8282612ab6565b8273ffffffffffffffffffffffffffffffffffffffff163b600003612aab576040517f1eb00b0600000000000000000000000000000000000000000000000000000000815260040160405180910390fd5b6109ed838383612bb9565b600080600080600085875af19050806109ed576040517f08c379a000000000000000000000000000000000000000000000000000000000815260206004820152601360248201527f4554485f5452414e534645525f4641494c45440000000000000000000000000060448201526064016111e1565b60006124c08484604051602001612b5292919091825263ffffffff16602082015260400190565b604080517fffffffffffffffffffffffffffffffffffffffffffffffffffffffffffffffe0818403018152918152815160209283012060009081526002835281812073ffffffffffffffffffffffffffffffffffffffff8716825290925290205460ff1690565b60006040517fa9059cbb00000000000000000000000000000000000000000000000000000000815273ffffffffffffffffffffffffffffffffffffffff84166004820152826024820152602060006044836000895af13d15601f3d11600160005114161716915050806111f5576040517f08c379a000000000000000000000000000000000000000000000000000000000815260206004820152600f60248201527f5452414e534645525f4641494c4544000000000000000000000000000000000060448201526064016111e1565b73ffffffffffffffffffffffffffffffffffffffff81168114612caa57600080fd5b50565b803563ffffffff81168114612cc157600080fd5b919050565b60008060408385031215612cd957600080fd5b8235612ce481612c88565b9150611a7f60208401612cad565b600060208284031215612d0457600080fd5b8135612d0f81612c88565b9392505050565b600060208284031215612d2857600080fd5b61198b82612cad565b600080600060608486031215612d4657600080fd5b83359250612d5660208501612cad565b91506040840135612d6681612c88565b809150509250925092565b60008083601f840112612d8357600080fd5b50813567ffffffffffffffff811115612d9b57600080fd5b6020830191508360208260051b8501011115612db657600080fd5b9250929050565b60008060008060008060608789031215612dd657600080fd5b863567ffffffffffffffff80821115612dee57600080fd5b612dfa8a838b01612d71565b90985096506020890135915080821115612e1357600080fd5b612e1f8a838b01612d71565b90965094506040890135915080821115612e3857600080fd5b50612e4589828a01612d71565b979a9699509497509295939492505050565b60008060408385031215612e6a57600080fd5b823591506020830135612e7c81612c88565b809150509250929050565b60008083601f840112612e9957600080fd5b50813567ffffffffffffffff811115612eb157600080fd5b602083019150836020828501011115612db657600080fd5b600080600080600060808688031215612ee157600080fd5b85359450612ef160208701612cad565b935060408601359250606086013567ffffffffffffffff811115612f1457600080fd5b612f2088828901612e87565b969995985093965092949392505050565b60008060008060808587031215612f4757600080fd5b843593506020850135925060408501359150612f6560608601612cad565b905092959194509250565b80356fffffffffffffffffffffffffffffffff81168114612cc157600080fd5b60008060408385031215612fa357600080fd5b612fac83612cad565b9150611a7f60208401612f70565b600080600060608486031215612fcf57600080fd5b8335612fda81612c88565b92506020840135612fea81612c88565b929592945050506040919091013590565b6000806000806000806000806000806101408b8d03121561301b57600080fd5b8a35995060208b0135985060408b0135975060608b0135965061304060808c01612cad565b955061304e60a08c01612f70565b945061305c60c08c01612f70565b935060e08b013561306c81612c88565b92506101008b013561307d81612c88565b809250506101208b013590509295989b9194979a5092959850565b6000806000606084860312156130ad57600080fd5b6130b684612cad565b925060208401356130c681612c88565b91506130d460408501612f70565b90509250925092565b7f4e487b7100000000000000000000000000000000000000000000000000000000600052604160045260246000fd5b6000806040838503121561311f57600080fd5b82359150602083013567ffffffffffffffff8082111561313e57600080fd5b818501915085601f83011261315257600080fd5b813581811115613164576131646130dd565b604051601f82017fffffffffffffffffffffffffffffffffffffffffffffffffffffffffffffffe0908116603f011681019083821181831017156131aa576131aa6130dd565b816040528281528860208487010111156131c357600080fd5b8260208601602083013760006020848301015280955050505050509250929050565b6000806000806000608086880312156131fd57600080fd5b8535945061320d60208701612cad565b935061321b60408701612f70565b9250606086013567ffffffffffffffff811115612f1457600080fd5b6000806040838503121561324a57600080fd5b50508035926020909101359150565b60008060008060008060c0878903121561327257600080fd5b8635955060208701359450604087013593506060870135925061329760808801612cad565b915060a08701356132a781612c88565b809150509295509295509295565b6000806000606084860312156132ca57600080fd5b6132d384612cad565b9250612d5660208501612f70565b6000806000606084860312156132f657600080fd5b833561330181612c88565b925061330f60208501612f70565b9150604084013590509250925092565b7f4e487b7100000000000000000000000000000000000000000000000000000000600052603260045260246000fd5b83815260406020820152816040820152818360608301376000818301606090810191909152601f9092017fffffffffffffffffffffffffffffffffffffffffffffffffffffffffffffffe016010192915050565b6000602082840312156133b457600080fd5b8151612d0f81612c88565b7f4e487b7100000000000000000000000000000000000000000000000000000000600052601160045260246000fd5b6fffffffffffffffffffffffffffffffff828116828216039080821115613417576134176133bf565b5092915050565b7f4e487b7100000000000000000000000000000000000000000000000000000000600052601260045260246000fd5b60006fffffffffffffffffffffffffffffffff808416806134705761347061341e565b92169190910492915050565b6fffffffffffffffffffffffffffffffff818116838216019080821115613417576134176133bf565b82815260006020604081840152835180604085015260005b818110156134d9578581018301518582016060015282016134bd565b5060006060828601015260607fffffffffffffffffffffffffffffffffffffffffffffffffffffffffffffffe0601f830116850101925050509392505050565b808202811582820484141761198e5761198e6133bf565b60008261353f5761353f61341e565b500490565b8082018082111561198e5761198e6133bf56fea2646970667358221220eef9a0a54a3112664971be0bfdbc65f6727412b26fa1b20b9d753c33abb45c1d64736f6c63430008130033",
  "linkReferences": {},
  "deployedLinkReferences": {}
}