{
  "_format": "hh-sol-artifact-1",
  "contractName": "Hasher",
  "sourceName": "contracts/utils/Hasher.sol",
  "abi": [
    {
      "inputs": [
        {
          "internalType": "address",
          "name": "owner_",
          "type": "address"
        }
      ],
      "stateMutability": "nonpayable",
      "type": "constructor"
    },
    {
      "inputs": [],
      "name": "InvalidTokenAddress",
      "type": "error"
    },
    {
      "inputs": [
        {
          "internalType": "bytes32",
          "name": "role",
          "type": "bytes32"
        }
      ],
      "name": "NoPermit",
      "type": "error"
    },
    {
      "inputs": [],
      "name": "OnlyNominee",
      "type": "error"
    },
    {
      "inputs": [],
      "name": "OnlyOwner",
      "type": "error"
    },
    {
      "inputs": [],
      "name": "ZeroAddress",
      "type": "error"
    },
    {
      "anonymous": false,
      "inputs": [
        {
          "indexed": true,
          "internalType": "address",
          "name": "claimer",
          "type": "address"
        }
      ],
      "name": "OwnerClaimed",
      "type": "event"
    },
    {
      "anonymous": false,
      "inputs": [
        {
          "indexed": true,
          "internalType": "address",
          "name": "nominee",
          "type": "address"
        }
      ],
      "name": "OwnerNominated",
      "type": "event"
    },
    {
      "anonymous": false,
      "inputs": [
        {
          "indexed": true,
          "internalType": "bytes32",
          "name": "role",
          "type": "bytes32"
        },
        {
          "indexed": true,
          "internalType": "address",
          "name": "grantee",
          "type": "address"
        }
      ],
      "name": "RoleGranted",
      "type": "event"
    },
    {
      "anonymous": false,
      "inputs": [
        {
          "indexed": true,
          "internalType": "bytes32",
          "name": "role",
          "type": "bytes32"
        },
        {
          "indexed": true,
          "internalType": "address",
          "name": "revokee",
          "type": "address"
        }
      ],
      "name": "RoleRevoked",
      "type": "event"
    },
    {
      "inputs": [],
      "name": "claimOwner",
      "outputs": [],
      "stateMutability": "nonpayable",
      "type": "function"
    },
    {
      "inputs": [
        {
          "internalType": "bytes32",
          "name": "role_",
          "type": "bytes32"
        },
        {
          "internalType": "address",
          "name": "grantee_",
          "type": "address"
        }
      ],
      "name": "grantRole",
      "outputs": [],
      "stateMutability": "nonpayable",
      "type": "function"
    },
    {
      "inputs": [
        {
          "internalType": "bytes32",
          "name": "role_",
          "type": "bytes32"
        },
        {
          "internalType": "address",
          "name": "address_",
          "type": "address"
        }
      ],
      "name": "hasRole",
      "outputs": [
        {
          "internalType": "bool",
          "name": "",
          "type": "bool"
        }
      ],
      "stateMutability": "view",
      "type": "function"
    },
    {
      "inputs": [
        {
          "internalType": "address",
          "name": "nominee_",
          "type": "address"
        }
      ],
      "name": "nominateOwner",
      "outputs": [],
      "stateMutability": "nonpayable",
      "type": "function"
    },
    {
      "inputs": [],
      "name": "nominee",
      "outputs": [
        {
          "internalType": "address",
          "name": "",
          "type": "address"
        }
      ],
      "stateMutability": "view",
      "type": "function"
    },
    {
      "inputs": [],
      "name": "owner",
      "outputs": [
        {
          "internalType": "address",
          "name": "",
          "type": "address"
        }
      ],
      "stateMutability": "view",
      "type": "function"
    },
    {
      "inputs": [
        {
          "internalType": "uint32",
          "name": "srcChainSlug_",
          "type": "uint32"
        },
        {
          "internalType": "address",
          "name": "srcPlug_",
          "type": "address"
        },
        {
          "internalType": "uint32",
          "name": "dstChainSlug_",
          "type": "uint32"
        },
        {
          "internalType": "address",
          "name": "dstPlug_",
          "type": "address"
        },
        {
          "components": [
            {
              "internalType": "bytes32",
              "name": "msgId",
              "type": "bytes32"
            },
            {
              "internalType": "uint256",
              "name": "executionFee",
              "type": "uint256"
            },
            {
              "internalType": "uint256",
              "name": "minMsgGasLimit",
              "type": "uint256"
            },
            {
              "internalType": "bytes32",
              "name": "executionParams",
              "type": "bytes32"
            },
            {
              "internalType": "bytes",
              "name": "payload",
              "type": "bytes"
            }
          ],
          "internalType": "struct ISocket.MessageDetails",
          "name": "messageDetails_",
          "type": "tuple"
        }
      ],
      "name": "packMessage",
      "outputs": [
        {
          "internalType": "bytes32",
          "name": "",
          "type": "bytes32"
        }
      ],
      "stateMutability": "pure",
      "type": "function"
    },
    {
      "inputs": [
        {
          "internalType": "address",
          "name": "token_",
          "type": "address"
        },
        {
          "internalType": "address",
          "name": "rescueTo_",
          "type": "address"
        },
        {
          "internalType": "uint256",
          "name": "amount_",
          "type": "uint256"
        }
      ],
      "name": "rescueFunds",
      "outputs": [],
      "stateMutability": "nonpayable",
      "type": "function"
    },
    {
      "inputs": [
        {
          "internalType": "bytes32",
          "name": "role_",
          "type": "bytes32"
        },
        {
          "internalType": "address",
          "name": "revokee_",
          "type": "address"
        }
      ],
      "name": "revokeRole",
      "outputs": [],
      "stateMutability": "nonpayable",
      "type": "function"
    }
  ],
  "bytecode": "0x608060405234801561001057600080fd5b50604051610d81380380610d8183398101604081905261002f9161011b565b808061003a8161006d565b5061006790507fc4c453d647953c0fd35db5a34ee76e60fb4abc3a8fb891a25936b70b38f29253826100c0565b5061014b565b600080546001600160a01b0383166001600160a01b0319918216811783556001805490921690915560405190917ffbe19c9b601f5ee90b44c7390f3fa2319eba01762d34ee372aeafd59b25c7f8791a250565b60008281526002602090815260408083206001600160a01b0385168085529252808320805460ff1916600117905551909184917f2ae6a113c0ed5b78a53413ffbb7679881f11145ccfba4fb92e863dfcd5a1d2f39190a35050565b60006020828403121561012d57600080fd5b81516001600160a01b038116811461014457600080fd5b9392505050565b610c278061015a6000396000f3fe608060405234801561001057600080fd5b50600436106100a35760003560e01c80635b94db27116100765780638da5cb5b1161005b5780638da5cb5b1461015057806391d148541461016e578063d547741f1461019157600080fd5b80635b94db271461012a5780636ccae0541461013d57600080fd5b806302ea1431146100a857806320f99c0a146100ce5780632f2ff15d1461010d5780633bd1adec14610122575b600080fd5b6100bb6100b636600461094e565b6101a4565b6040519081526020015b60405180910390f35b60015473ffffffffffffffffffffffffffffffffffffffff165b60405173ffffffffffffffffffffffffffffffffffffffff90911681526020016100c5565b61012061011b366004610a9a565b6101fc565b005b61012061025b565b610120610138366004610ac6565b6102b7565b61012061014b366004610ae1565b610377565b60005473ffffffffffffffffffffffffffffffffffffffff166100e8565b61018161017c366004610a9a565b61041a565b60405190151581526020016100c5565b61012061019f366004610a9a565b610455565b600085858585856000015186604001518760600151886020015189608001516040516020016101db99989796959493929190610b1d565b60405160208183030381529060405280519060200120905095945050505050565b60005473ffffffffffffffffffffffffffffffffffffffff16331461024d576040517f5fc483c500000000000000000000000000000000000000000000000000000000815260040160405180910390fd5b61025782826104b0565b5050565b60015473ffffffffffffffffffffffffffffffffffffffff1633146102ac576040517f7c91ccdd00000000000000000000000000000000000000000000000000000000815260040160405180910390fd5b6102b533610536565b565b60005473ffffffffffffffffffffffffffffffffffffffff163314610308576040517f5fc483c500000000000000000000000000000000000000000000000000000000815260040160405180910390fd5b600180547fffffffffffffffffffffffff00000000000000000000000000000000000000001673ffffffffffffffffffffffffffffffffffffffff83169081179091556040517f906a1c6bd7e3091ea86693dd029a831c19049ce77f1dce2ce0bab1cacbabce2290600090a250565b3360009081527f4933f7bec34ee32db93e9f5cd7e0519781b395282211f4f6857489046ea38f7660205260409020547fc4c453d647953c0fd35db5a34ee76e60fb4abc3a8fb891a25936b70b38f292539060ff16610409576040517f962f6333000000000000000000000000000000000000000000000000000000008152600481018290526024015b60405180910390fd5b6104148484846105ae565b50505050565b600082815260026020908152604080832073ffffffffffffffffffffffffffffffffffffffff8516845290915281205460ff165b9392505050565b60005473ffffffffffffffffffffffffffffffffffffffff1633146104a6576040517f5fc483c500000000000000000000000000000000000000000000000000000000815260040160405180910390fd5b61025782826106a3565b600082815260026020908152604080832073ffffffffffffffffffffffffffffffffffffffff8516808552925280832080547fffffffffffffffffffffffffffffffffffffffffffffffffffffffffffffff0016600117905551909184917f2ae6a113c0ed5b78a53413ffbb7679881f11145ccfba4fb92e863dfcd5a1d2f39190a35050565b6000805473ffffffffffffffffffffffffffffffffffffffff83167fffffffffffffffffffffffff0000000000000000000000000000000000000000918216811783556001805490921690915560405190917ffbe19c9b601f5ee90b44c7390f3fa2319eba01762d34ee372aeafd59b25c7f8791a250565b73ffffffffffffffffffffffffffffffffffffffff82166105fb576040517fd92e233d00000000000000000000000000000000000000000000000000000000815260040160405180910390fd5b7fffffffffffffffffffffffff111111111111111111111111111111111111111273ffffffffffffffffffffffffffffffffffffffff841601610647576106428282610726565b505050565b8273ffffffffffffffffffffffffffffffffffffffff163b600003610698576040517f1eb00b0600000000000000000000000000000000000000000000000000000000815260040160405180910390fd5b61064283838361079b565b600082815260026020908152604080832073ffffffffffffffffffffffffffffffffffffffff8516808552925280832080547fffffffffffffffffffffffffffffffffffffffffffffffffffffffffffffff0016905551909184917f155aaafb6329a2098580462df33ec4b7441b19729b9601c5fc17ae1cf99a8a529190a35050565b600080600080600085875af1905080610642576040517f08c379a000000000000000000000000000000000000000000000000000000000815260206004820152601360248201527f4554485f5452414e534645525f4641494c4544000000000000000000000000006044820152606401610400565b60006040517fa9059cbb00000000000000000000000000000000000000000000000000000000815273ffffffffffffffffffffffffffffffffffffffff84166004820152826024820152602060006044836000895af13d15601f3d1160016000511416171691505080610414576040517f08c379a000000000000000000000000000000000000000000000000000000000815260206004820152600f60248201527f5452414e534645525f4641494c454400000000000000000000000000000000006044820152606401610400565b803563ffffffff8116811461087e57600080fd5b919050565b803573ffffffffffffffffffffffffffffffffffffffff8116811461087e57600080fd5b7f4e487b7100000000000000000000000000000000000000000000000000000000600052604160045260246000fd5b60405160a0810167ffffffffffffffff811182821017156108f9576108f96108a7565b60405290565b604051601f82017fffffffffffffffffffffffffffffffffffffffffffffffffffffffffffffffe016810167ffffffffffffffff81118282101715610946576109466108a7565b604052919050565b600080600080600060a0868803121561096657600080fd5b61096f8661086a565b9450602061097e818801610883565b945061098c6040880161086a565b935061099a60608801610883565b9250608087013567ffffffffffffffff808211156109b757600080fd5b9088019060a0828b0312156109cb57600080fd5b6109d36108d6565b8235815283830135848201526040830135604082015260608301356060820152608083013582811115610a0557600080fd5b8084019350508a601f840112610a1a57600080fd5b823582811115610a2c57610a2c6108a7565b610a5c857fffffffffffffffffffffffffffffffffffffffffffffffffffffffffffffffe0601f840116016108ff565b92508083528b85828601011115610a7257600080fd5b8085850186850137600085828501015250816080820152809450505050509295509295909350565b60008060408385031215610aad57600080fd5b82359150610abd60208401610883565b90509250929050565b600060208284031215610ad857600080fd5b61044e82610883565b600080600060608486031215610af657600080fd5b610aff84610883565b9250610b0d60208501610883565b9150604084013590509250925092565b600061012063ffffffff808d168452602073ffffffffffffffffffffffffffffffffffffffff808e1682870152828d166040870152808c166060870152508960808601528860a08601528760c08601528660e086015282610100860152855191508183860152600092505b81831015610ba757858301810151858401610140015291820191610b88565b5061014091506000828286010152817fffffffffffffffffffffffffffffffffffffffffffffffffffffffffffffffe0601f830116850101925050509a995050505050505050505056fea2646970667358221220b191c82082243ba2213e5c31c01e1367f8bdf27c0d763a271c75cc733eb2261a64736f6c63430008130033",
  "linkReferences": {},
  "deployedLinkReferences": {}
}