{
  "_format": "hh-sol-artifact-1",
  "contractName": "HashChainDecapacitor",
  "sourceName": "contracts/decapacitors/HashChainDecapacitor.sol",
  "abi": [
    {
      "inputs": [
        {
          "internalType": "address",
          "name": "owner_",
          "type": "address"
        }
      ],
      "stateMutability": "nonpayable",
      "type": "constructor"
    },
    {
      "inputs": [],
      "name": "InvalidTokenAddress",
      "type": "error"
    },
    {
      "inputs": [
        {
          "internalType": "bytes32",
          "name": "role",
          "type": "bytes32"
        }
      ],
      "name": "NoPermit",
      "type": "error"
    },
    {
      "inputs": [],
      "name": "OnlyNominee",
      "type": "error"
    },
    {
      "inputs": [],
      "name": "OnlyOwner",
      "type": "error"
    },
    {
      "inputs": [],
      "name": "ZeroAddress",
      "type": "error"
    },
    {
      "anonymous": false,
      "inputs": [
        {
          "indexed": true,
          "internalType": "address",
          "name": "claimer",
          "type": "address"
        }
      ],
      "name": "OwnerClaimed",
      "type": "event"
    },
    {
      "anonymous": false,
      "inputs": [
        {
          "indexed": true,
          "internalType": "address",
          "name": "nominee",
          "type": "address"
        }
      ],
      "name": "OwnerNominated",
      "type": "event"
    },
    {
      "anonymous": false,
      "inputs": [
        {
          "indexed": true,
          "internalType": "bytes32",
          "name": "role",
          "type": "bytes32"
        },
        {
          "indexed": true,
          "internalType": "address",
          "name": "grantee",
          "type": "address"
        }
      ],
      "name": "RoleGranted",
      "type": "event"
    },
    {
      "anonymous": false,
      "inputs": [
        {
          "indexed": true,
          "internalType": "bytes32",
          "name": "role",
          "type": "bytes32"
        },
        {
          "indexed": true,
          "internalType": "address",
          "name": "revokee",
          "type": "address"
        }
      ],
      "name": "RoleRevoked",
      "type": "event"
    },
    {
      "inputs": [],
      "name": "claimOwner",
      "outputs": [],
      "stateMutability": "nonpayable",
      "type": "function"
    },
    {
      "inputs": [
        {
          "internalType": "bytes32",
          "name": "role_",
          "type": "bytes32"
        },
        {
          "internalType": "address",
          "name": "grantee_",
          "type": "address"
        }
      ],
      "name": "grantRole",
      "outputs": [],
      "stateMutability": "nonpayable",
      "type": "function"
    },
    {
      "inputs": [
        {
          "internalType": "bytes32",
          "name": "role_",
          "type": "bytes32"
        },
        {
          "internalType": "address",
          "name": "address_",
          "type": "address"
        }
      ],
      "name": "hasRole",
      "outputs": [
        {
          "internalType": "bool",
          "name": "",
          "type": "bool"
        }
      ],
      "stateMutability": "view",
      "type": "function"
    },
    {
      "inputs": [
        {
          "internalType": "address",
          "name": "nominee_",
          "type": "address"
        }
      ],
      "name": "nominateOwner",
      "outputs": [],
      "stateMutability": "nonpayable",
      "type": "function"
    },
    {
      "inputs": [],
      "name": "nominee",
      "outputs": [
        {
          "internalType": "address",
          "name": "",
          "type": "address"
        }
      ],
      "stateMutability": "view",
      "type": "function"
    },
    {
      "inputs": [],
      "name": "owner",
      "outputs": [
        {
          "internalType": "address",
          "name": "",
          "type": "address"
        }
      ],
      "stateMutability": "view",
      "type": "function"
    },
    {
      "inputs": [
        {
          "internalType": "address",
          "name": "token_",
          "type": "address"
        },
        {
          "internalType": "address",
          "name": "rescueTo_",
          "type": "address"
        },
        {
          "internalType": "uint256",
          "name": "amount_",
          "type": "uint256"
        }
      ],
      "name": "rescueFunds",
      "outputs": [],
      "stateMutability": "nonpayable",
      "type": "function"
    },
    {
      "inputs": [
        {
          "internalType": "bytes32",
          "name": "role_",
          "type": "bytes32"
        },
        {
          "internalType": "address",
          "name": "revokee_",
          "type": "address"
        }
      ],
      "name": "revokeRole",
      "outputs": [],
      "stateMutability": "nonpayable",
      "type": "function"
    },
    {
      "inputs": [
        {
          "internalType": "bytes32",
          "name": "root_",
          "type": "bytes32"
        },
        {
          "internalType": "bytes32",
          "name": "packedMessage_",
          "type": "bytes32"
        },
        {
          "internalType": "bytes",
          "name": "proof_",
          "type": "bytes"
        }
      ],
      "name": "verifyMessageInclusion",
      "outputs": [
        {
          "internalType": "bool",
          "name": "",
          "type": "bool"
        }
      ],
      "stateMutability": "pure",
      "type": "function"
    }
  ],
  "bytecode": "0x608060405234801561001057600080fd5b50604051610caf380380610caf83398101604081905261002f9161011b565b808061003a8161006d565b5061006790507fc4c453d647953c0fd35db5a34ee76e60fb4abc3a8fb891a25936b70b38f29253826100c0565b5061014b565b600080546001600160a01b0383166001600160a01b0319918216811783556001805490921690915560405190917ffbe19c9b601f5ee90b44c7390f3fa2319eba01762d34ee372aeafd59b25c7f8791a250565b60008281526002602090815260408083206001600160a01b0385168085529252808320805460ff1916600117905551909184917f2ae6a113c0ed5b78a53413ffbb7679881f11145ccfba4fb92e863dfcd5a1d2f39190a35050565b60006020828403121561012d57600080fd5b81516001600160a01b038116811461014457600080fd5b9392505050565b610b558061015a6000396000f3fe608060405234801561001057600080fd5b50600436106100a35760003560e01c80635b94db27116100765780638da5cb5b1161005b5780638da5cb5b1461015257806391d1485414610170578063d547741f1461018357600080fd5b80635b94db271461012c5780636ccae0541461013f57600080fd5b806320f99c0a146100a85780632d095c43146100ec5780632f2ff15d1461010f5780633bd1adec14610124575b600080fd5b60015473ffffffffffffffffffffffffffffffffffffffff165b60405173ffffffffffffffffffffffffffffffffffffffff90911681526020015b60405180910390f35b6100ff6100fa3660046108b9565b610196565b60405190151581526020016100e3565b61012261011d366004610962565b61024b565b005b6101226102aa565b61012261013a36600461098e565b610306565b61012261014d3660046109a9565b6103c6565b60005473ffffffffffffffffffffffffffffffffffffffff166100c2565b6100ff61017e366004610962565b610469565b610122610191366004610962565b6104a4565b6000806101a583850185610a14565b8051909150600080805b8381101561023157828582815181106101ca576101ca610af0565b60200260200101516040516020016101ec929190918252602082015260400190565b6040516020818303038152906040528051906020012092508885828151811061021757610217610af0565b60200260200101510361022957600191505b6001016101af565b50818914801561023e5750805b9998505050505050505050565b60005473ffffffffffffffffffffffffffffffffffffffff16331461029c576040517f5fc483c500000000000000000000000000000000000000000000000000000000815260040160405180910390fd5b6102a682826104ff565b5050565b60015473ffffffffffffffffffffffffffffffffffffffff1633146102fb576040517f7c91ccdd00000000000000000000000000000000000000000000000000000000815260040160405180910390fd5b61030433610585565b565b60005473ffffffffffffffffffffffffffffffffffffffff163314610357576040517f5fc483c500000000000000000000000000000000000000000000000000000000815260040160405180910390fd5b600180547fffffffffffffffffffffffff00000000000000000000000000000000000000001673ffffffffffffffffffffffffffffffffffffffff83169081179091556040517f906a1c6bd7e3091ea86693dd029a831c19049ce77f1dce2ce0bab1cacbabce2290600090a250565b3360009081527f4933f7bec34ee32db93e9f5cd7e0519781b395282211f4f6857489046ea38f7660205260409020547fc4c453d647953c0fd35db5a34ee76e60fb4abc3a8fb891a25936b70b38f292539060ff16610458576040517f962f6333000000000000000000000000000000000000000000000000000000008152600481018290526024015b60405180910390fd5b6104638484846105fd565b50505050565b600082815260026020908152604080832073ffffffffffffffffffffffffffffffffffffffff8516845290915281205460ff165b9392505050565b60005473ffffffffffffffffffffffffffffffffffffffff1633146104f5576040517f5fc483c500000000000000000000000000000000000000000000000000000000815260040160405180910390fd5b6102a682826106f2565b600082815260026020908152604080832073ffffffffffffffffffffffffffffffffffffffff8516808552925280832080547fffffffffffffffffffffffffffffffffffffffffffffffffffffffffffffff0016600117905551909184917f2ae6a113c0ed5b78a53413ffbb7679881f11145ccfba4fb92e863dfcd5a1d2f39190a35050565b6000805473ffffffffffffffffffffffffffffffffffffffff83167fffffffffffffffffffffffff0000000000000000000000000000000000000000918216811783556001805490921690915560405190917ffbe19c9b601f5ee90b44c7390f3fa2319eba01762d34ee372aeafd59b25c7f8791a250565b73ffffffffffffffffffffffffffffffffffffffff821661064a576040517fd92e233d00000000000000000000000000000000000000000000000000000000815260040160405180910390fd5b7fffffffffffffffffffffffff111111111111111111111111111111111111111273ffffffffffffffffffffffffffffffffffffffff841601610696576106918282610775565b505050565b8273ffffffffffffffffffffffffffffffffffffffff163b6000036106e7576040517f1eb00b0600000000000000000000000000000000000000000000000000000000815260040160405180910390fd5b6106918383836107ea565b600082815260026020908152604080832073ffffffffffffffffffffffffffffffffffffffff8516808552925280832080547fffffffffffffffffffffffffffffffffffffffffffffffffffffffffffffff0016905551909184917f155aaafb6329a2098580462df33ec4b7441b19729b9601c5fc17ae1cf99a8a529190a35050565b600080600080600085875af1905080610691576040517f08c379a000000000000000000000000000000000000000000000000000000000815260206004820152601360248201527f4554485f5452414e534645525f4641494c454400000000000000000000000000604482015260640161044f565b60006040517fa9059cbb00000000000000000000000000000000000000000000000000000000815273ffffffffffffffffffffffffffffffffffffffff84166004820152826024820152602060006044836000895af13d15601f3d1160016000511416171691505080610463576040517f08c379a000000000000000000000000000000000000000000000000000000000815260206004820152600f60248201527f5452414e534645525f4641494c45440000000000000000000000000000000000604482015260640161044f565b600080600080606085870312156108cf57600080fd5b8435935060208501359250604085013567ffffffffffffffff808211156108f557600080fd5b818701915087601f83011261090957600080fd5b81358181111561091857600080fd5b88602082850101111561092a57600080fd5b95989497505060200194505050565b803573ffffffffffffffffffffffffffffffffffffffff8116811461095d57600080fd5b919050565b6000806040838503121561097557600080fd5b8235915061098560208401610939565b90509250929050565b6000602082840312156109a057600080fd5b61049d82610939565b6000806000606084860312156109be57600080fd5b6109c784610939565b92506109d560208501610939565b9150604084013590509250925092565b7f4e487b7100000000000000000000000000000000000000000000000000000000600052604160045260246000fd5b60006020808385031215610a2757600080fd5b823567ffffffffffffffff80821115610a3f57600080fd5b818501915085601f830112610a5357600080fd5b813581811115610a6557610a656109e5565b8060051b6040517fffffffffffffffffffffffffffffffffffffffffffffffffffffffffffffffe0603f83011681018181108582111715610aa857610aa86109e5565b604052918252848201925083810185019188831115610ac657600080fd5b938501935b82851015610ae457843584529385019392850192610acb565b98975050505050505050565b7f4e487b7100000000000000000000000000000000000000000000000000000000600052603260045260246000fdfea2646970667358221220e7536b254aa8b836e2acf5b47440bf2c894fc00d4d610062d35b01c5c4109ef464736f6c63430008130033",
  "linkReferences": {},
  "deployedLinkReferences": {}
}