{
  "_format": "hh-sol-artifact-1",
  "contractName": "Counter",
  "sourceName": "contracts/examples/Counter.sol",
  "abi": [
    {
      "inputs": [
        {
          "internalType": "address",
          "name": "socket_",
          "type": "address"
        }
      ],
      "stateMutability": "nonpayable",
      "type": "constructor"
    },
    {
      "inputs": [],
      "name": "InvalidAmount",
      "type": "error"
    },
    {
      "inputs": [],
      "name": "InvalidTokenAddress",
      "type": "error"
    },
    {
      "inputs": [],
      "name": "OnlyNominee",
      "type": "error"
    },
    {
      "inputs": [],
      "name": "OnlyOwner",
      "type": "error"
    },
    {
      "inputs": [],
      "name": "OnlySocket",
      "type": "error"
    },
    {
      "inputs": [],
      "name": "ZeroAddress",
      "type": "error"
    },
    {
      "anonymous": false,
      "inputs": [
        {
          "indexed": true,
          "internalType": "address",
          "name": "claimer",
          "type": "address"
        }
      ],
      "name": "OwnerClaimed",
      "type": "event"
    },
    {
      "anonymous": false,
      "inputs": [
        {
          "indexed": true,
          "internalType": "address",
          "name": "nominee",
          "type": "address"
        }
      ],
      "name": "OwnerNominated",
      "type": "event"
    },
    {
      "inputs": [],
      "name": "OP_ADD",
      "outputs": [
        {
          "internalType": "bytes32",
          "name": "",
          "type": "bytes32"
        }
      ],
      "stateMutability": "view",
      "type": "function"
    },
    {
      "inputs": [],
      "name": "OP_SUB",
      "outputs": [
        {
          "internalType": "bytes32",
          "name": "",
          "type": "bytes32"
        }
      ],
      "stateMutability": "view",
      "type": "function"
    },
    {
      "inputs": [],
      "name": "claimOwner",
      "outputs": [],
      "stateMutability": "nonpayable",
      "type": "function"
    },
    {
      "inputs": [],
      "name": "counter",
      "outputs": [
        {
          "internalType": "uint256",
          "name": "",
          "type": "uint256"
        }
      ],
      "stateMutability": "view",
      "type": "function"
    },
    {
      "inputs": [
        {
          "internalType": "uint32",
          "name": "",
          "type": "uint32"
        },
        {
          "internalType": "bytes",
          "name": "payload_",
          "type": "bytes"
        }
      ],
      "name": "inbound",
      "outputs": [],
      "stateMutability": "payable",
      "type": "function"
    },
    {
      "inputs": [
        {
          "internalType": "uint256",
          "name": "amount_",
          "type": "uint256"
        }
      ],
      "name": "localAddOperation",
      "outputs": [],
      "stateMutability": "nonpayable",
      "type": "function"
    },
    {
      "inputs": [
        {
          "internalType": "uint256",
          "name": "amount_",
          "type": "uint256"
        }
      ],
      "name": "localSubOperation",
      "outputs": [],
      "stateMutability": "nonpayable",
      "type": "function"
    },
    {
      "inputs": [
        {
          "internalType": "address",
          "name": "nominee_",
          "type": "address"
        }
      ],
      "name": "nominateOwner",
      "outputs": [],
      "stateMutability": "nonpayable",
      "type": "function"
    },
    {
      "inputs": [],
      "name": "nominee",
      "outputs": [
        {
          "internalType": "address",
          "name": "",
          "type": "address"
        }
      ],
      "stateMutability": "view",
      "type": "function"
    },
    {
      "inputs": [],
      "name": "owner",
      "outputs": [
        {
          "internalType": "address",
          "name": "",
          "type": "address"
        }
      ],
      "stateMutability": "view",
      "type": "function"
    },
    {
      "inputs": [
        {
          "internalType": "uint32",
          "name": "chainSlug_",
          "type": "uint32"
        },
        {
          "internalType": "uint256",
          "name": "amount_",
          "type": "uint256"
        },
        {
          "internalType": "uint256",
          "name": "minMsgGasLimit_",
          "type": "uint256"
        },
        {
          "internalType": "bytes32",
          "name": "executionParams_",
          "type": "bytes32"
        },
        {
          "internalType": "bytes32",
          "name": "transmissionParams_",
          "type": "bytes32"
        }
      ],
      "name": "remoteAddOperation",
      "outputs": [],
      "stateMutability": "payable",
      "type": "function"
    },
    {
      "inputs": [
        {
          "internalType": "uint32",
          "name": "chainSlug_",
          "type": "uint32"
        },
        {
          "internalType": "uint256",
          "name": "amount_",
          "type": "uint256"
        },
        {
          "internalType": "uint256",
          "name": "minMsgGasLimit_",
          "type": "uint256"
        },
        {
          "internalType": "bytes32",
          "name": "executionParams_",
          "type": "bytes32"
        },
        {
          "internalType": "bytes32",
          "name": "transmissionParams_",
          "type": "bytes32"
        }
      ],
      "name": "remoteSubOperation",
      "outputs": [],
      "stateMutability": "payable",
      "type": "function"
    },
    {
      "inputs": [
        {
          "internalType": "address",
          "name": "token_",
          "type": "address"
        },
        {
          "internalType": "address",
          "name": "rescueTo_",
          "type": "address"
        },
        {
          "internalType": "uint256",
          "name": "amount_",
          "type": "uint256"
        }
      ],
      "name": "rescueFunds",
      "outputs": [],
      "stateMutability": "nonpayable",
      "type": "function"
    },
    {
      "inputs": [
        {
          "internalType": "uint32",
          "name": "remoteChainSlug_",
          "type": "uint32"
        },
        {
          "internalType": "address",
          "name": "remotePlug_",
          "type": "address"
        },
        {
          "internalType": "address",
          "name": "switchboard_",
          "type": "address"
        }
      ],
      "name": "setSocketConfig",
      "outputs": [],
      "stateMutability": "nonpayable",
      "type": "function"
    },
    {
      "inputs": [],
      "name": "socket",
      "outputs": [
        {
          "internalType": "address",
          "name": "",
          "type": "address"
        }
      ],
      "stateMutability": "view",
      "type": "function"
    }
  ],
  "bytecode": "0x60a060405234801561001057600080fd5b50604051610fbc380380610fbc83398101604081905261002f9161009e565b336100398161004b565b506001600160a01b03166080526100ce565b600080546001600160a01b0383166001600160a01b0319918216811783556001805490921690915560405190917ffbe19c9b601f5ee90b44c7390f3fa2319eba01762d34ee372aeafd59b25c7f8791a250565b6000602082840312156100b057600080fd5b81516001600160a01b03811681146100c757600080fd5b9392505050565b608051610ebe6100fe600039600081816101920152818161056701528181610756015261086c0152610ebe6000f3fe6080604052600436106100e85760003560e01c8063664c38f31161008a578063ae2cb7a711610059578063ae2cb7a7146102a6578063b9ffcc34146102c6578063c41f1f6c146102e6578063fcb32712146102f957600080fd5b8063664c38f3146102355780636ccae054146102485780637f63bce9146102685780638da5cb5b1461027b57600080fd5b80632602c01e116100c65780632602c01e146101b45780633bd1adec146101e85780635b94db27146101ff57806361bc221a1461021f57600080fd5b80630548a9e7146100ed57806320f99c0a1461013457806322c8f6cd14610180575b600080fd5b3480156100f957600080fd5b506101217fde6ce4bedbca0651358aef7b21343405a14691bbef1508653f9f01d39074661281565b6040519081526020015b60405180910390f35b34801561014057600080fd5b5060015473ffffffffffffffffffffffffffffffffffffffff165b60405173ffffffffffffffffffffffffffffffffffffffff909116815260200161012b565b34801561018c57600080fd5b5061015b7f000000000000000000000000000000000000000000000000000000000000000081565b3480156101c057600080fd5b506101217fbad314e77c9e165fb6cdad2b69ae15ea10f47a976480a84ea0ef9a8b8817b99781565b3480156101f457600080fd5b506101fd610319565b005b34801561020b57600080fd5b506101fd61021a366004610bb2565b610375565b34801561022b57600080fd5b5061012160025481565b6101fd610243366004610bef565b610435565b34801561025457600080fd5b506101fd610263366004610c31565b610498565b6101fd610276366004610bef565b6104f9565b34801561028757600080fd5b5060005473ffffffffffffffffffffffffffffffffffffffff1661015b565b3480156102b257600080fd5b506101fd6102c1366004610c72565b61053a565b3480156102d257600080fd5b506101fd6102e1366004610c72565b610546565b6101fd6102f4366004610c8b565b61054f565b34801561030557600080fd5b506101fd610314366004610d0e565b6106a5565b60015473ffffffffffffffffffffffffffffffffffffffff16331461036a576040517f7c91ccdd00000000000000000000000000000000000000000000000000000000815260040160405180910390fd5b610373336107b7565b565b60005473ffffffffffffffffffffffffffffffffffffffff1633146103c6576040517f5fc483c500000000000000000000000000000000000000000000000000000000815260040160405180910390fd5b600180547fffffffffffffffffffffffff00000000000000000000000000000000000000001673ffffffffffffffffffffffffffffffffffffffff83169081179091556040517f906a1c6bd7e3091ea86693dd029a831c19049ce77f1dce2ce0bab1cacbabce2290600090a250565b604080517fbad314e77c9e165fb6cdad2b69ae15ea10f47a976480a84ea0ef9a8b8817b99760208201529081018590523360608201526000906080015b6040516020818303038152906040529050610490868585858561082f565b505050505050565b60005473ffffffffffffffffffffffffffffffffffffffff1633146104e9576040517f5fc483c500000000000000000000000000000000000000000000000000000000815260040160405180910390fd5b6104f48383836108ee565b505050565b604080517fde6ce4bedbca0651358aef7b21343405a14691bbef1508653f9f01d3907466126020820152908101859052336060820152600090608001610472565b610543816109de565b50565b61054381610a34565b3373ffffffffffffffffffffffffffffffffffffffff7f000000000000000000000000000000000000000000000000000000000000000016146105be576040517f503284dc00000000000000000000000000000000000000000000000000000000815260040160405180910390fd5b6000806105cd83850185610d57565b50915091507fbad314e77c9e165fb6cdad2b69ae15ea10f47a976480a84ea0ef9a8b8817b99782036106075761060281610a34565b61069e565b7fde6ce4bedbca0651358aef7b21343405a14691bbef1508653f9f01d390746612820361063757610602816109de565b6040517f08c379a000000000000000000000000000000000000000000000000000000000815260206004820152601e60248201527f436f756e7465724d6f636b3a20496e76616c6964204f7065726174696f6e000060448201526064015b60405180910390fd5b5050505050565b60005473ffffffffffffffffffffffffffffffffffffffff1633146106f6576040517f5fc483c500000000000000000000000000000000000000000000000000000000815260040160405180910390fd5b6040517f3b1be67800000000000000000000000000000000000000000000000000000000815263ffffffff8416600482015273ffffffffffffffffffffffffffffffffffffffff83811660248301528281166044830181905260648301527f00000000000000000000000000000000000000000000000000000000000000001690633b1be67890608401600060405180830381600087803b15801561079a57600080fd5b505af11580156107ae573d6000803e3d6000fd5b50505050505050565b6000805473ffffffffffffffffffffffffffffffffffffffff83167fffffffffffffffffffffffff0000000000000000000000000000000000000000918216811783556001805490921690915560405190917ffbe19c9b601f5ee90b44c7390f3fa2319eba01762d34ee372aeafd59b25c7f8791a250565b6040517f3386774f00000000000000000000000000000000000000000000000000000000815273ffffffffffffffffffffffffffffffffffffffff7f00000000000000000000000000000000000000000000000000000000000000001690633386774f9034906108ab9089908990899089908990600401610d85565b60206040518083038185885af11580156108c9573d6000803e3d6000fd5b50505050506040513d601f19601f820116820180604052508101906104909190610e14565b73ffffffffffffffffffffffffffffffffffffffff821661093b576040517fd92e233d00000000000000000000000000000000000000000000000000000000815260040160405180910390fd5b7fffffffffffffffffffffffff111111111111111111111111111111111111111273ffffffffffffffffffffffffffffffffffffffff841601610982576104f48282610a46565b8273ffffffffffffffffffffffffffffffffffffffff163b6000036109d3576040517f1eb00b0600000000000000000000000000000000000000000000000000000000815260040160405180910390fd5b6104f4838383610abb565b806002541015610a1a576040517f2c5211c600000000000000000000000000000000000000000000000000000000815260040160405180910390fd5b8060026000828254610a2c9190610e5c565b909155505050565b8060026000828254610a2c9190610e75565b600080600080600085875af19050806104f4576040517f08c379a000000000000000000000000000000000000000000000000000000000815260206004820152601360248201527f4554485f5452414e534645525f4641494c4544000000000000000000000000006044820152606401610695565b60006040517fa9059cbb00000000000000000000000000000000000000000000000000000000815273ffffffffffffffffffffffffffffffffffffffff84166004820152826024820152602060006044836000895af13d15601f3d1160016000511416171691505080610b8a576040517f08c379a000000000000000000000000000000000000000000000000000000000815260206004820152600f60248201527f5452414e534645525f4641494c454400000000000000000000000000000000006044820152606401610695565b50505050565b73ffffffffffffffffffffffffffffffffffffffff8116811461054357600080fd5b600060208284031215610bc457600080fd5b8135610bcf81610b90565b9392505050565b803563ffffffff81168114610bea57600080fd5b919050565b600080600080600060a08688031215610c0757600080fd5b610c1086610bd6565b97602087013597506040870135966060810135965060800135945092505050565b600080600060608486031215610c4657600080fd5b8335610c5181610b90565b92506020840135610c6181610b90565b929592945050506040919091013590565b600060208284031215610c8457600080fd5b5035919050565b600080600060408486031215610ca057600080fd5b610ca984610bd6565b9250602084013567ffffffffffffffff80821115610cc657600080fd5b818601915086601f830112610cda57600080fd5b813581811115610ce957600080fd5b876020828501011115610cfb57600080fd5b6020830194508093505050509250925092565b600080600060608486031215610d2357600080fd5b610d2c84610bd6565b92506020840135610d3c81610b90565b91506040840135610d4c81610b90565b809150509250925092565b600080600060608486031215610d6c57600080fd5b83359250602084013591506040840135610d4c81610b90565b63ffffffff8616815260006020868184015285604084015284606084015260a0608084015283518060a085015260005b81811015610dd15785810183015185820160c001528201610db5565b50600060c0828601015260c07fffffffffffffffffffffffffffffffffffffffffffffffffffffffffffffffe0601f830116850101925050509695505050505050565b600060208284031215610e2657600080fd5b5051919050565b7f4e487b7100000000000000000000000000000000000000000000000000000000600052601160045260246000fd5b81810381811115610e6f57610e6f610e2d565b92915050565b80820180821115610e6f57610e6f610e2d56fea2646970667358221220bb38bf93fb4f5af9822fdc6f04956ec8c295d70d6cdd4e8cb4545ea15cd0255964736f6c63430008130033",
  "linkReferences": {},
  "deployedLinkReferences": {}
}