{
  "_format": "hh-sol-artifact-1",
  "contractName": "OptimismSwitchboard",
  "sourceName": "contracts/switchboard/native/OptimismSwitchboard.sol",
  "abi": [
    {
      "inputs": [
        {
          "internalType": "uint32",
          "name": "chainSlug_",
          "type": "uint32"
        },
        {
          "internalType": "uint256",
          "name": "receiveGasLimit_",
          "type": "uint256"
        },
        {
          "internalType": "address",
          "name": "owner_",
          "type": "address"
        },
        {
          "internalType": "address",
          "name": "socket_",
          "type": "address"
        },
        {
          "internalType": "address",
          "name": "crossDomainMessenger_",
          "type": "address"
        },
        {
          "internalType": "contract ISignatureVerifier",
          "name": "signatureVerifier_",
          "type": "address"
        }
      ],
      "stateMutability": "nonpayable",
      "type": "constructor"
    },
    {
      "inputs": [],
      "name": "AlreadyInitialized",
      "type": "error"
    },
    {
      "inputs": [],
      "name": "FeesNotEnough",
      "type": "error"
    },
    {
      "inputs": [],
      "name": "InvalidNonce",
      "type": "error"
    },
    {
      "inputs": [],
      "name": "InvalidSender",
      "type": "error"
    },
    {
      "inputs": [],
      "name": "InvalidTokenAddress",
      "type": "error"
    },
    {
      "inputs": [
        {
          "internalType": "bytes32",
          "name": "role",
          "type": "bytes32"
        }
      ],
      "name": "NoPermit",
      "type": "error"
    },
    {
      "inputs": [],
      "name": "NoRootFound",
      "type": "error"
    },
    {
      "inputs": [],
      "name": "OnlyExecutionManager",
      "type": "error"
    },
    {
      "inputs": [],
      "name": "OnlyNominee",
      "type": "error"
    },
    {
      "inputs": [],
      "name": "OnlyOwner",
      "type": "error"
    },
    {
      "inputs": [],
      "name": "UnequalArrayLengths",
      "type": "error"
    },
    {
      "inputs": [],
      "name": "ZeroAddress",
      "type": "error"
    },
    {
      "anonymous": false,
      "inputs": [
        {
          "indexed": false,
          "internalType": "bool",
          "name": "isGlobalTipped",
          "type": "bool"
        }
      ],
      "name": "GlobalTripChanged",
      "type": "event"
    },
    {
      "anonymous": false,
      "inputs": [
        {
          "indexed": false,
          "internalType": "bytes32",
          "name": "packetId",
          "type": "bytes32"
        }
      ],
      "name": "InitiatedNativeConfirmation",
      "type": "event"
    },
    {
      "anonymous": false,
      "inputs": [
        {
          "indexed": true,
          "internalType": "address",
          "name": "claimer",
          "type": "address"
        }
      ],
      "name": "OwnerClaimed",
      "type": "event"
    },
    {
      "anonymous": false,
      "inputs": [
        {
          "indexed": true,
          "internalType": "address",
          "name": "nominee",
          "type": "address"
        }
      ],
      "name": "OwnerNominated",
      "type": "event"
    },
    {
      "anonymous": false,
      "inputs": [
        {
          "indexed": true,
          "internalType": "bytes32",
          "name": "role",
          "type": "bytes32"
        },
        {
          "indexed": true,
          "internalType": "address",
          "name": "grantee",
          "type": "address"
        }
      ],
      "name": "RoleGranted",
      "type": "event"
    },
    {
      "anonymous": false,
      "inputs": [
        {
          "indexed": true,
          "internalType": "bytes32",
          "name": "role",
          "type": "bytes32"
        },
        {
          "indexed": true,
          "internalType": "address",
          "name": "revokee",
          "type": "address"
        }
      ],
      "name": "RoleRevoked",
      "type": "event"
    },
    {
      "anonymous": false,
      "inputs": [
        {
          "indexed": false,
          "internalType": "bytes32",
          "name": "packetId",
          "type": "bytes32"
        },
        {
          "indexed": false,
          "internalType": "bytes32",
          "name": "root",
          "type": "bytes32"
        }
      ],
      "name": "RootReceived",
      "type": "event"
    },
    {
      "anonymous": false,
      "inputs": [
        {
          "indexed": false,
          "internalType": "uint256",
          "name": "switchboardFees",
          "type": "uint256"
        },
        {
          "indexed": false,
          "internalType": "uint256",
          "name": "verificationOverheadFees",
          "type": "uint256"
        }
      ],
      "name": "SwitchboardFeesSet",
      "type": "event"
    },
    {
      "anonymous": false,
      "inputs": [
        {
          "indexed": false,
          "internalType": "uint256",
          "name": "receiveGasLimit",
          "type": "uint256"
        }
      ],
      "name": "UpdatedReceiveGasLimit",
      "type": "event"
    },
    {
      "anonymous": false,
      "inputs": [
        {
          "indexed": false,
          "internalType": "address",
          "name": "remoteNativeSwitchboard",
          "type": "address"
        }
      ],
      "name": "UpdatedRemoteNativeSwitchboard",
      "type": "event"
    },
    {
      "inputs": [
        {
          "internalType": "bytes32",
          "name": "root_",
          "type": "bytes32"
        },
        {
          "internalType": "bytes32",
          "name": "packetId_",
          "type": "bytes32"
        },
        {
          "internalType": "uint256",
          "name": "",
          "type": "uint256"
        },
        {
          "internalType": "uint32",
          "name": "",
          "type": "uint32"
        },
        {
          "internalType": "uint256",
          "name": "",
          "type": "uint256"
        }
      ],
      "name": "allowPacket",
      "outputs": [
        {
          "internalType": "bool",
          "name": "",
          "type": "bool"
        }
      ],
      "stateMutability": "view",
      "type": "function"
    },
    {
      "inputs": [],
      "name": "capacitor__",
      "outputs": [
        {
          "internalType": "contract ICapacitor",
          "name": "",
          "type": "address"
        }
      ],
      "stateMutability": "view",
      "type": "function"
    },
    {
      "inputs": [],
      "name": "chainSlug",
      "outputs": [
        {
          "internalType": "uint32",
          "name": "",
          "type": "uint32"
        }
      ],
      "stateMutability": "view",
      "type": "function"
    },
    {
      "inputs": [],
      "name": "claimOwner",
      "outputs": [],
      "stateMutability": "nonpayable",
      "type": "function"
    },
    {
      "inputs": [],
      "name": "crossDomainMessenger__",
      "outputs": [
        {
          "internalType": "contract ICrossDomainMessenger",
          "name": "",
          "type": "address"
        }
      ],
      "stateMutability": "view",
      "type": "function"
    },
    {
      "inputs": [
        {
          "internalType": "uint32",
          "name": "",
          "type": "uint32"
        }
      ],
      "name": "getMinFees",
      "outputs": [
        {
          "internalType": "uint128",
          "name": "switchboardFee_",
          "type": "uint128"
        },
        {
          "internalType": "uint128",
          "name": "verificationFee_",
          "type": "uint128"
        }
      ],
      "stateMutability": "view",
      "type": "function"
    },
    {
      "inputs": [
        {
          "internalType": "bytes32[]",
          "name": "roleNames_",
          "type": "bytes32[]"
        },
        {
          "internalType": "uint32[]",
          "name": "slugs_",
          "type": "uint32[]"
        },
        {
          "internalType": "address[]",
          "name": "grantees_",
          "type": "address[]"
        }
      ],
      "name": "grantBatchRole",
      "outputs": [],
      "stateMutability": "nonpayable",
      "type": "function"
    },
    {
      "inputs": [
        {
          "internalType": "bytes32",
          "name": "role_",
          "type": "bytes32"
        },
        {
          "internalType": "address",
          "name": "grantee_",
          "type": "address"
        }
      ],
      "name": "grantRole",
      "outputs": [],
      "stateMutability": "nonpayable",
      "type": "function"
    },
    {
      "inputs": [
        {
          "internalType": "bytes32",
          "name": "roleName_",
          "type": "bytes32"
        },
        {
          "internalType": "uint32",
          "name": "chainSlug_",
          "type": "uint32"
        },
        {
          "internalType": "address",
          "name": "grantee_",
          "type": "address"
        }
      ],
      "name": "grantRoleWithSlug",
      "outputs": [],
      "stateMutability": "nonpayable",
      "type": "function"
    },
    {
      "inputs": [
        {
          "internalType": "bytes32",
          "name": "role_",
          "type": "bytes32"
        },
        {
          "internalType": "address",
          "name": "address_",
          "type": "address"
        }
      ],
      "name": "hasRole",
      "outputs": [
        {
          "internalType": "bool",
          "name": "",
          "type": "bool"
        }
      ],
      "stateMutability": "view",
      "type": "function"
    },
    {
      "inputs": [
        {
          "internalType": "bytes32",
          "name": "roleName_",
          "type": "bytes32"
        },
        {
          "internalType": "uint32",
          "name": "chainSlug_",
          "type": "uint32"
        },
        {
          "internalType": "address",
          "name": "address_",
          "type": "address"
        }
      ],
      "name": "hasRoleWithSlug",
      "outputs": [
        {
          "internalType": "bool",
          "name": "",
          "type": "bool"
        }
      ],
      "stateMutability": "view",
      "type": "function"
    },
    {
      "inputs": [
        {
          "internalType": "bytes32",
          "name": "packetId_",
          "type": "bytes32"
        }
      ],
      "name": "initiateNativeConfirmation",
      "outputs": [],
      "stateMutability": "nonpayable",
      "type": "function"
    },
    {
      "inputs": [],
      "name": "isGlobalTipped",
      "outputs": [
        {
          "internalType": "bool",
          "name": "",
          "type": "bool"
        }
      ],
      "stateMutability": "view",
      "type": "function"
    },
    {
      "inputs": [],
      "name": "isInitialized",
      "outputs": [
        {
          "internalType": "bool",
          "name": "",
          "type": "bool"
        }
      ],
      "stateMutability": "view",
      "type": "function"
    },
    {
      "inputs": [
        {
          "internalType": "address",
          "name": "",
          "type": "address"
        }
      ],
      "name": "nextNonce",
      "outputs": [
        {
          "internalType": "uint256",
          "name": "",
          "type": "uint256"
        }
      ],
      "stateMutability": "view",
      "type": "function"
    },
    {
      "inputs": [
        {
          "internalType": "address",
          "name": "nominee_",
          "type": "address"
        }
      ],
      "name": "nominateOwner",
      "outputs": [],
      "stateMutability": "nonpayable",
      "type": "function"
    },
    {
      "inputs": [],
      "name": "nominee",
      "outputs": [
        {
          "internalType": "address",
          "name": "",
          "type": "address"
        }
      ],
      "stateMutability": "view",
      "type": "function"
    },
    {
      "inputs": [],
      "name": "owner",
      "outputs": [
        {
          "internalType": "address",
          "name": "",
          "type": "address"
        }
      ],
      "stateMutability": "view",
      "type": "function"
    },
    {
      "inputs": [
        {
          "internalType": "bytes32",
          "name": "",
          "type": "bytes32"
        }
      ],
      "name": "packetIdToRoot",
      "outputs": [
        {
          "internalType": "bytes32",
          "name": "",
          "type": "bytes32"
        }
      ],
      "stateMutability": "view",
      "type": "function"
    },
    {
      "inputs": [
        {
          "internalType": "uint32",
          "name": "",
          "type": "uint32"
        }
      ],
      "name": "receiveFees",
      "outputs": [],
      "stateMutability": "payable",
      "type": "function"
    },
    {
      "inputs": [],
      "name": "receiveGasLimit",
      "outputs": [
        {
          "internalType": "uint256",
          "name": "",
          "type": "uint256"
        }
      ],
      "stateMutability": "view",
      "type": "function"
    },
    {
      "inputs": [
        {
          "internalType": "bytes32",
          "name": "packetId_",
          "type": "bytes32"
        },
        {
          "internalType": "bytes32",
          "name": "root_",
          "type": "bytes32"
        }
      ],
      "name": "receivePacket",
      "outputs": [],
      "stateMutability": "nonpayable",
      "type": "function"
    },
    {
      "inputs": [
        {
          "internalType": "uint32",
          "name": "siblingChainSlug_",
          "type": "uint32"
        },
        {
          "internalType": "uint256",
          "name": "maxPacketLength_",
          "type": "uint256"
        },
        {
          "internalType": "uint256",
          "name": "capacitorType_",
          "type": "uint256"
        },
        {
          "internalType": "uint256",
          "name": "initialPacketCount_",
          "type": "uint256"
        },
        {
          "internalType": "address",
          "name": "remoteNativeSwitchboard_",
          "type": "address"
        }
      ],
      "name": "registerSiblingSlug",
      "outputs": [],
      "stateMutability": "nonpayable",
      "type": "function"
    },
    {
      "inputs": [],
      "name": "remoteNativeSwitchboard",
      "outputs": [
        {
          "internalType": "address",
          "name": "",
          "type": "address"
        }
      ],
      "stateMutability": "view",
      "type": "function"
    },
    {
      "inputs": [
        {
          "internalType": "address",
          "name": "token_",
          "type": "address"
        },
        {
          "internalType": "address",
          "name": "rescueTo_",
          "type": "address"
        },
        {
          "internalType": "uint256",
          "name": "amount_",
          "type": "uint256"
        }
      ],
      "name": "rescueFunds",
      "outputs": [],
      "stateMutability": "nonpayable",
      "type": "function"
    },
    {
      "inputs": [
        {
          "internalType": "bytes32[]",
          "name": "roleNames_",
          "type": "bytes32[]"
        },
        {
          "internalType": "uint32[]",
          "name": "slugs_",
          "type": "uint32[]"
        },
        {
          "internalType": "address[]",
          "name": "grantees_",
          "type": "address[]"
        }
      ],
      "name": "revokeBatchRole",
      "outputs": [],
      "stateMutability": "nonpayable",
      "type": "function"
    },
    {
      "inputs": [
        {
          "internalType": "bytes32",
          "name": "role_",
          "type": "bytes32"
        },
        {
          "internalType": "address",
          "name": "revokee_",
          "type": "address"
        }
      ],
      "name": "revokeRole",
      "outputs": [],
      "stateMutability": "nonpayable",
      "type": "function"
    },
    {
      "inputs": [
        {
          "internalType": "bytes32",
          "name": "roleName_",
          "type": "bytes32"
        },
        {
          "internalType": "uint32",
          "name": "chainSlug_",
          "type": "uint32"
        },
        {
          "internalType": "address",
          "name": "grantee_",
          "type": "address"
        }
      ],
      "name": "revokeRoleWithSlug",
      "outputs": [],
      "stateMutability": "nonpayable",
      "type": "function"
    },
    {
      "inputs": [
        {
          "internalType": "uint256",
          "name": "nonce_",
          "type": "uint256"
        },
        {
          "internalType": "uint32",
          "name": "",
          "type": "uint32"
        },
        {
          "internalType": "uint128",
          "name": "switchboardFees_",
          "type": "uint128"
        },
        {
          "internalType": "uint128",
          "name": "verificationOverheadFees_",
          "type": "uint128"
        },
        {
          "internalType": "bytes",
          "name": "signature_",
          "type": "bytes"
        }
      ],
      "name": "setFees",
      "outputs": [],
      "stateMutability": "nonpayable",
      "type": "function"
    },
    {
      "inputs": [],
      "name": "signatureVerifier__",
      "outputs": [
        {
          "internalType": "contract ISignatureVerifier",
          "name": "",
          "type": "address"
        }
      ],
      "stateMutability": "view",
      "type": "function"
    },
    {
      "inputs": [],
      "name": "socket__",
      "outputs": [
        {
          "internalType": "contract ISocket",
          "name": "",
          "type": "address"
        }
      ],
      "stateMutability": "view",
      "type": "function"
    },
    {
      "inputs": [],
      "name": "switchboardFees",
      "outputs": [
        {
          "internalType": "uint128",
          "name": "",
          "type": "uint128"
        }
      ],
      "stateMutability": "view",
      "type": "function"
    },
    {
      "inputs": [
        {
          "internalType": "uint256",
          "name": "nonce_",
          "type": "uint256"
        },
        {
          "internalType": "bytes",
          "name": "signature_",
          "type": "bytes"
        }
      ],
      "name": "tripGlobal",
      "outputs": [],
      "stateMutability": "nonpayable",
      "type": "function"
    },
    {
      "inputs": [
        {
          "internalType": "uint256",
          "name": "nonce_",
          "type": "uint256"
        },
        {
          "internalType": "bytes",
          "name": "signature_",
          "type": "bytes"
        }
      ],
      "name": "unTrip",
      "outputs": [],
      "stateMutability": "nonpayable",
      "type": "function"
    },
    {
      "inputs": [
        {
          "internalType": "uint256",
          "name": "receiveGasLimit_",
          "type": "uint256"
        }
      ],
      "name": "updateReceiveGasLimit",
      "outputs": [],
      "stateMutability": "nonpayable",
      "type": "function"
    },
    {
      "inputs": [
        {
          "internalType": "uint32",
          "name": "siblingChainSlug_",
          "type": "uint32"
        },
        {
          "internalType": "address",
          "name": "remoteNativeSwitchboard_",
          "type": "address"
        }
      ],
      "name": "updateSibling",
      "outputs": [],
      "stateMutability": "nonpayable",
      "type": "function"
    },
    {
      "inputs": [],
      "name": "verificationOverheadFees",
      "outputs": [
        {
          "internalType": "uint128",
          "name": "",
          "type": "uint128"
        }
      ],
      "stateMutability": "view",
      "type": "function"
    },
    {
      "inputs": [
        {
          "internalType": "address",
          "name": "withdrawTo_",
          "type": "address"
        }
      ],
      "name": "withdrawFees",
      "outputs": [],
      "stateMutability": "nonpayable",
      "type": "function"
    }
  ],
  "bytecode": "0x6101006040523480156200001257600080fd5b5060405162002f6638038062002f668339810160408190526200003591620000ea565b82868286808062000046816200007e565b5050506001600160a01b0392831660a05263ffffffff90911660c05281166080526009959095555090921660e052506200017a915050565b600080546001600160a01b0383166001600160a01b0319918216811783556001805490921690915560405190917ffbe19c9b601f5ee90b44c7390f3fa2319eba01762d34ee372aeafd59b25c7f8791a250565b6001600160a01b0381168114620000e757600080fd5b50565b60008060008060008060c087890312156200010457600080fd5b865163ffffffff811681146200011957600080fd5b6020880151604089015191975095506200013381620000d1565b60608801519094506200014681620000d1565b60808801519093506200015981620000d1565b60a08801519092506200016c81620000d1565b809150509295509295509295565b60805160a05160c05160e051612d5e6200020860003960008181610606015281816118bf01528181611bf50152611c6401526000818161076e01528181610c0c015281816119940152611db90152600081816107b7015281816114c8015281816116a9015261177b01526000818161085d01528181610c59015281816119e10152611e1f0152612d5e6000f3fe6080604052600436106102855760003560e01c8063729f35aa11610153578063a9a599e0116100cb578063d547741f1161007f578063da5b9f7611610064578063da5b9f761461087f578063ecb974841461089f578063f22b460e146108bf57600080fd5b8063d547741f1461082b578063d5b8da731461084b57600080fd5b8063c6a261d2116100b0578063c6a261d2146107a5578063c8779308146107d9578063d39a38c11461080b57600080fd5b8063a9a599e01461073c578063b349ba651461075c57600080fd5b806391d14854116101225780639aefe4e0116101075780639aefe4e0146106e9578063a085186314610709578063a9a541b21461072957600080fd5b806391d148541461069c5780639242863b146106bc57600080fd5b8063729f35aa146105f45780637645ab2b14610628578063771e14b9146106485780638da5cb5b1461067157600080fd5b806325750e37116102015780633bd1adec116101b55780634c4081801161019a5780634c408180146105945780635b94db27146105b45780636ccae054146105d457600080fd5b80633bd1adec1461055f57806343fa97ca1461057457600080fd5b80632f2ff15d116101e65780632f2ff15d146104cf578063357a6c63146104ef578063392e53cd1461051c57600080fd5b806325750e371461048f5780632e7eb258146104af57600080fd5b80631ba8e484116102585780631e8673111161023d5780631e867311146103f657806320f99c0a1461041657806324677dfc1461046257600080fd5b80631ba8e484146103785780631dd935841461039857600080fd5b806306da42e01461028a5780630cd55abf14610305578063122f6d3b14610340578063164e68de14610356575b600080fd5b34801561029657600080fd5b506102d76102a53660046126b6565b506006546fffffffffffffffffffffffffffffffff808216927001000000000000000000000000000000009092041690565b604080516fffffffffffffffffffffffffffffffff9384168152929091166020830152015b60405180910390f35b34801561031157600080fd5b506103326103203660046126f3565b60086020526000908152604090205481565b6040519081526020016102fc565b34801561034c57600080fd5b5061033260095481565b34801561036257600080fd5b506103766103713660046126f3565b6108df565b005b34801561038457600080fd5b50610376610393366004612710565b6109cc565b3480156103a457600080fd5b506006546103d59070010000000000000000000000000000000090046fffffffffffffffffffffffffffffffff1681565b6040516fffffffffffffffffffffffffffffffff90911681526020016102fc565b34801561040257600080fd5b5061037661041136600461279c565b610a2d565b34801561042257600080fd5b5060015473ffffffffffffffffffffffffffffffffffffffff165b60405173ffffffffffffffffffffffffffffffffffffffff90911681526020016102fc565b34801561046e57600080fd5b5060035461043d9073ffffffffffffffffffffffffffffffffffffffff1681565b34801561049b57600080fd5b506103766104aa366004612865565b610bd3565b3480156104bb57600080fd5b506103766104ca366004612710565b610dec565b3480156104db57600080fd5b506103766104ea36600461293e565b610e48565b3480156104fb57600080fd5b5060055461043d9073ffffffffffffffffffffffffffffffffffffffff1681565b34801561052857600080fd5b5060035461054f907501000000000000000000000000000000000000000000900460ff1681565b60405190151581526020016102fc565b34801561056b57600080fd5b50610376610ea3565b34801561058057600080fd5b5061037661058f36600461279c565b610eff565b3480156105a057600080fd5b5061054f6105af36600461296e565b61109b565b3480156105c057600080fd5b506103766105cf3660046126f3565b611119565b3480156105e057600080fd5b506103766105ef3660046129b5565b6111d9565b34801561060057600080fd5b5061043d7f000000000000000000000000000000000000000000000000000000000000000081565b34801561063457600080fd5b506103766106433660046129f6565b611277565b34801561065457600080fd5b506006546103d5906fffffffffffffffffffffffffffffffff1681565b34801561067d57600080fd5b5060005473ffffffffffffffffffffffffffffffffffffffff1661043d565b3480156106a857600080fd5b5061054f6106b736600461293e565b611341565b3480156106c857600080fd5b506103326106d73660046129f6565b60076020526000908152604090205481565b3480156106f557600080fd5b50610376610704366004612a0f565b61137c565b34801561071557600080fd5b50610376610724366004612a63565b6115cb565b6103766107373660046126b6565b611779565b34801561074857600080fd5b506103766107573660046129f6565b61186e565b34801561076857600080fd5b506107907f000000000000000000000000000000000000000000000000000000000000000081565b60405163ffffffff90911681526020016102fc565b3480156107b157600080fd5b5061043d7f000000000000000000000000000000000000000000000000000000000000000081565b3480156107e557600080fd5b5060035461054f9074010000000000000000000000000000000000000000900460ff1681565b34801561081757600080fd5b50610376610826366004612865565b61195b565b34801561083757600080fd5b5061037661084636600461293e565b611b82565b34801561085757600080fd5b5061043d7f000000000000000000000000000000000000000000000000000000000000000081565b34801561088b57600080fd5b5061037661089a366004612a8f565b611bdd565b3480156108ab57600080fd5b5061054f6108ba366004612710565b611d6b565b3480156108cb57600080fd5b506103766108da366004612ad1565b611d80565b3360009081527f9b7ec560033b826bc253a5f1a8b5e6a61c8d2a6e8731a9872b68296f6024c5ac60205260409020547f5d8e12c39142ff96d79d04d15d1ba1269e4fe57bb9d26f43523628b34ba108ec9060ff16610971576040517f962f6333000000000000000000000000000000000000000000000000000000008152600481018290526024015b60405180910390fd5b73ffffffffffffffffffffffffffffffffffffffff82166109be576040517fd92e233d00000000000000000000000000000000000000000000000000000000815260040160405180910390fd5b6109c88247611fd1565b5050565b60005473ffffffffffffffffffffffffffffffffffffffff163314610a1d576040517f5fc483c500000000000000000000000000000000000000000000000000000000815260040160405180910390fd5b610a28838383612046565b505050565b60005473ffffffffffffffffffffffffffffffffffffffff163314610a7e576040517f5fc483c500000000000000000000000000000000000000000000000000000000815260040160405180910390fd5b8481141580610a8d5750848314155b15610ac4576040517f11e86f7300000000000000000000000000000000000000000000000000000000815260040160405180910390fd5b8460005b81811015610bc9576000868683818110610ae457610ae4612b7e565b9050602002016020810190610af991906126b6565b63ffffffff161115610b7957610b74888883818110610b1a57610b1a612b7e565b90506020020135878784818110610b3357610b33612b7e565b9050602002016020810190610b4891906126b6565b868685818110610b5a57610b5a612b7e565b9050602002016020810190610b6f91906126f3565b612046565b610bc1565b610bc1888883818110610b8e57610b8e612b7e565b90506020020135858584818110610ba757610ba7612b7e565b9050602002016020810190610bbc91906126f3565b612083565b600101610ac8565b5050505050505050565b604080517f634a973a0f5cd4600a56e0f9a2f08c30188ba14ccde33b0d70b56e34e192d5596020820152309181019190915263ffffffff7f000000000000000000000000000000000000000000000000000000000000000016606082015260808101839052600060a082018190529073ffffffffffffffffffffffffffffffffffffffff7f000000000000000000000000000000000000000000000000000000000000000016906397aba7f99060c00160405160208183030381529060405280519060200120846040518363ffffffff1660e01b8152600401610cb7929190612c11565b602060405180830381865afa158015610cd4573d6000803e3d6000fd5b505050506040513d601f19601f82011682018060405250810190610cf89190612c2a565b9050610d247fb0a81253fa41a5cd7c5885c220c30d519a0d552984e0d69edda03449f69fa6db82612106565b73ffffffffffffffffffffffffffffffffffffffff811660009081526008602052604090208054600181019091558314610d8a576040517f756688fe00000000000000000000000000000000000000000000000000000000815260040160405180910390fd5b600380547fffffffffffffffffffffff00ffffffffffffffffffffffffffffffffffffffff169055604051600081527f42a60e0dc12250ea896a8f5156f1f3aa4567cd2bd87a72bc097210dc02ec2e05906020015b60405180910390a1505050565b60005473ffffffffffffffffffffffffffffffffffffffff163314610e3d576040517f5fc483c500000000000000000000000000000000000000000000000000000000815260040160405180910390fd5b610a28838383612172565b60005473ffffffffffffffffffffffffffffffffffffffff163314610e99576040517f5fc483c500000000000000000000000000000000000000000000000000000000815260040160405180910390fd5b6109c882826121af565b60015473ffffffffffffffffffffffffffffffffffffffff163314610ef4576040517f7c91ccdd00000000000000000000000000000000000000000000000000000000815260040160405180910390fd5b610efd33612235565b565b60005473ffffffffffffffffffffffffffffffffffffffff163314610f50576040517f5fc483c500000000000000000000000000000000000000000000000000000000815260040160405180910390fd5b8481141580610f5f5750848314155b15610f96576040517f11e86f7300000000000000000000000000000000000000000000000000000000815260040160405180910390fd5b8460005b81811015610bc9576000868683818110610fb657610fb6612b7e565b9050602002016020810190610fcb91906126b6565b63ffffffff16111561104b57611046888883818110610fec57610fec612b7e565b9050602002013587878481811061100557611005612b7e565b905060200201602081019061101a91906126b6565b86868581811061102c5761102c612b7e565b905060200201602081019061104191906126f3565b612172565b611093565b61109388888381811061106057611060612b7e565b9050602002013585858481811061107957611079612b7e565b905060200201602081019061108e91906126f3565b6121af565b600101610f9a565b600354600090859074010000000000000000000000000000000000000000900460ff16156110cd576000915050611110565b6004548167ffffffffffffffff1610156110eb576000915050611110565b600086815260076020526040902054871461110a576000915050611110565b60019150505b95945050505050565b60005473ffffffffffffffffffffffffffffffffffffffff16331461116a576040517f5fc483c500000000000000000000000000000000000000000000000000000000815260040160405180910390fd5b600180547fffffffffffffffffffffffff00000000000000000000000000000000000000001673ffffffffffffffffffffffffffffffffffffffff83169081179091556040517f906a1c6bd7e3091ea86693dd029a831c19049ce77f1dce2ce0bab1cacbabce2290600090a250565b3360009081527f4933f7bec34ee32db93e9f5cd7e0519781b395282211f4f6857489046ea38f7660205260409020547fc4c453d647953c0fd35db5a34ee76e60fb4abc3a8fb891a25936b70b38f292539060ff16611266576040517f962f633300000000000000000000000000000000000000000000000000000000815260048101829052602401610968565b6112718484846122ad565b50505050565b3360009081527f0f4a237b7f9e071a612ddea08a06576f25cc7dffe13a46307ee64fe2318b3c3e60205260409020547f71840dc4906352362b0cdaf79870196c8e42acafade72d5d5a6d59291253ceb19060ff16611304576040517f962f633300000000000000000000000000000000000000000000000000000000815260048101829052602401610968565b60098290556040518281527f5d81c162e881dc4db73751acf296c32aab88b4cbf2a54180e380a4b6fb10b506906020015b60405180910390a15050565b600082815260026020908152604080832073ffffffffffffffffffffffffffffffffffffffff8516845290915281205460ff165b9392505050565b3360009081527f0f4a237b7f9e071a612ddea08a06576f25cc7dffe13a46307ee64fe2318b3c3e60205260409020547f71840dc4906352362b0cdaf79870196c8e42acafade72d5d5a6d59291253ceb19060ff16611409576040517f962f633300000000000000000000000000000000000000000000000000000000815260048101829052602401610968565b6003547501000000000000000000000000000000000000000000900460ff161561145f576040517f0dc149f000000000000000000000000000000000000000000000000000000000815260040160405180910390fd5b60048381556040517f0b04bb4100000000000000000000000000000000000000000000000000000000815263ffffffff881691810191909152602481018690526044810185905273ffffffffffffffffffffffffffffffffffffffff83811660648301526000917f000000000000000000000000000000000000000000000000000000000000000090911690630b04bb419060840160408051808303816000875af1158015611512573d6000803e3d6000fd5b505050506040513d601f19601f820116820180604052508101906115369190612c47565b506003805475010000000000000000000000000000000000000000007fffffffffffffffffffff00ff000000000000000000000000000000000000000090911673ffffffffffffffffffffffffffffffffffffffff93841617179055600580547fffffffffffffffffffffffff0000000000000000000000000000000000000000169490911693909317909255505050505050565b3360009081527f0f4a237b7f9e071a612ddea08a06576f25cc7dffe13a46307ee64fe2318b3c3e60205260409020547f71840dc4906352362b0cdaf79870196c8e42acafade72d5d5a6d59291253ceb19060ff16611658576040517f962f633300000000000000000000000000000000000000000000000000000000815260048101829052602401610968565b6040517f81403a0200000000000000000000000000000000000000000000000000000000815263ffffffff8416600482015273ffffffffffffffffffffffffffffffffffffffff83811660248301527f000000000000000000000000000000000000000000000000000000000000000016906381403a0290604401600060405180830381600087803b1580156116ed57600080fd5b505af1158015611701573d6000803e3d6000fd5b5050600580547fffffffffffffffffffffffff00000000000000000000000000000000000000001673ffffffffffffffffffffffffffffffffffffffff86169081179091556040519081527f8d7fa3c81f6134b31f8d89d4a3adeb890d8f0db2a30cbccc23a9c8435f03ad3992506020019050610ddf565b7f000000000000000000000000000000000000000000000000000000000000000073ffffffffffffffffffffffffffffffffffffffff16626186f76040518163ffffffff1660e01b8152600401602060405180830381865afa1580156117e3573d6000803e3d6000fd5b505050506040513d601f19601f820116820180604052508101906118079190612c2a565b73ffffffffffffffffffffffffffffffffffffffff163373ffffffffffffffffffffffffffffffffffffffff161461186b576040517f03c377c500000000000000000000000000000000000000000000000000000000815260040160405180910390fd5b50565b60006118798261239d565b6005546009546040517f3dbb202b00000000000000000000000000000000000000000000000000000000815292935073ffffffffffffffffffffffffffffffffffffffff7f0000000000000000000000000000000000000000000000000000000000000000811693633dbb202b936118f8939216918691600401612c76565b600060405180830381600087803b15801561191257600080fd5b505af1158015611926573d6000803e3d6000fd5b505050507f118f46da596dcf5757e155f254ae6f1c47c18382c3bddcf0570141bd656304428260405161133591815260200190565b604080517f052968298b6036970c558bc24c756e7e868d9e6b79756deb4bce3a2d0b1f7ea06020820152309181019190915263ffffffff7f000000000000000000000000000000000000000000000000000000000000000016606082015260808101839052600160a082015260009073ffffffffffffffffffffffffffffffffffffffff7f000000000000000000000000000000000000000000000000000000000000000016906397aba7f99060c00160405160208183030381529060405280519060200120846040518363ffffffff1660e01b8152600401611a3f929190612c11565b602060405180830381865afa158015611a5c573d6000803e3d6000fd5b505050506040513d601f19601f82011682018060405250810190611a809190612c2a565b9050611aac7fd66a896d5b3e8cd31bfd557e6ebdb5bba4561c7ce6573d5c6716876cbc83dbdd82612106565b73ffffffffffffffffffffffffffffffffffffffff811660009081526008602052604090208054600181019091558314611b12576040517f756688fe00000000000000000000000000000000000000000000000000000000815260040160405180910390fd5b600380547fffffffffffffffffffffff00ffffffffffffffffffffffffffffffffffffffff1674010000000000000000000000000000000000000000179055604051600181527f42a60e0dc12250ea896a8f5156f1f3aa4567cd2bd87a72bc097210dc02ec2e0590602001610ddf565b60005473ffffffffffffffffffffffffffffffffffffffff163314611bd3576040517f5fc483c500000000000000000000000000000000000000000000000000000000815260040160405180910390fd5b6109c88282612083565b3373ffffffffffffffffffffffffffffffffffffffff7f000000000000000000000000000000000000000000000000000000000000000016141580611cec5750600554604080517f6e296e45000000000000000000000000000000000000000000000000000000008152905173ffffffffffffffffffffffffffffffffffffffff928316927f00000000000000000000000000000000000000000000000000000000000000001691636e296e459160048083019260209291908290030181865afa158015611caf573d6000803e3d6000fd5b505050506040513d601f19601f82011682018060405250810190611cd39190612c2a565b73ffffffffffffffffffffffffffffffffffffffff1614155b15611d23576040517fddb5de5e00000000000000000000000000000000000000000000000000000000815260040160405180910390fd5b60008281526007602090815260409182902083905581518481529081018390527f2deb1178e3fb26e6028dd1e65f4b256ad4d081b5378f772dc39abffae644dff89101611335565b6000611d78848484612460565b949350505050565b604080517ff2deac1744cfd52ddfce21c5ff26abf413f6418dc4a35916e26daefd87e04ab66020820152309181019190915263ffffffff7f0000000000000000000000000000000000000000000000000000000000000000166060820152608081018790526fffffffffffffffffffffffffffffffff80861660a0830152841660c082015260009073ffffffffffffffffffffffffffffffffffffffff7f000000000000000000000000000000000000000000000000000000000000000016906397aba7f99060e0016040516020818303038152906040528051906020012085856040518463ffffffff1660e01b8152600401611e7f93929190612cbb565b602060405180830381865afa158015611e9c573d6000803e3d6000fd5b505050506040513d601f19601f82011682018060405250810190611ec09190612c2a565b9050611eec7f429672025b2dcb8754ca4b57943f34ac66900598787cb1f1e857291dedbf34d382612106565b73ffffffffffffffffffffffffffffffffffffffff811660009081526008602052604090208054600181019091558714611f52576040517f756688fe00000000000000000000000000000000000000000000000000000000815260040160405180910390fd5b6fffffffffffffffffffffffffffffffff858116700100000000000000000000000000000000868316810282811760068190556040805192861690941782529190910490921660208301527f89c4b3602e1b8a85a33f0479f41d1ea82a498a69064feebc9c43b28fc42fc9d6910160405180910390a150505050505050565b600080600080600085875af1905080610a28576040517f08c379a000000000000000000000000000000000000000000000000000000000815260206004820152601360248201527f4554485f5452414e534645525f4641494c4544000000000000000000000000006044820152606401610968565b610a28838360405160200161206b92919091825263ffffffff16602082015260400190565b60405160208183030381529060405280519060200120825b600082815260026020908152604080832073ffffffffffffffffffffffffffffffffffffffff8516808552925280832080547fffffffffffffffffffffffffffffffffffffffffffffffffffffffffffffff0016905551909184917f155aaafb6329a2098580462df33ec4b7441b19729b9601c5fc17ae1cf99a8a529190a35050565b600082815260026020908152604080832073ffffffffffffffffffffffffffffffffffffffff8516845290915290205460ff166109c8576040517f962f633300000000000000000000000000000000000000000000000000000000815260048101839052602401610968565b610a28838360405160200161219792919091825263ffffffff16602082015260400190565b60405160208183030381529060405280519060200120825b600082815260026020908152604080832073ffffffffffffffffffffffffffffffffffffffff8516808552925280832080547fffffffffffffffffffffffffffffffffffffffffffffffffffffffffffffff0016600117905551909184917f2ae6a113c0ed5b78a53413ffbb7679881f11145ccfba4fb92e863dfcd5a1d2f39190a35050565b6000805473ffffffffffffffffffffffffffffffffffffffff83167fffffffffffffffffffffffff0000000000000000000000000000000000000000918216811783556001805490921690915560405190917ffbe19c9b601f5ee90b44c7390f3fa2319eba01762d34ee372aeafd59b25c7f8791a250565b73ffffffffffffffffffffffffffffffffffffffff82166122fa576040517fd92e233d00000000000000000000000000000000000000000000000000000000815260040160405180910390fd5b7fffffffffffffffffffffffff111111111111111111111111111111111111111273ffffffffffffffffffffffffffffffffffffffff84160161234157610a288282611fd1565b8273ffffffffffffffffffffffffffffffffffffffff163b600003612392576040517f1eb00b0600000000000000000000000000000000000000000000000000000000815260040160405180910390fd5b610a288383836124ee565b60607fda5b9f7600000000000000000000000000000000000000000000000000000000826123ca816125bd565b60405160248101929092526044820152606401604080517fffffffffffffffffffffffffffffffffffffffffffffffffffffffffffffffe08184030181529190526020810180517bffffffffffffffffffffffffffffffffffffffffffffffffffffffff167fffffffff000000000000000000000000000000000000000000000000000000009093169290921790915292915050565b6000611d78848460405160200161248792919091825263ffffffff16602082015260400190565b604080517fffffffffffffffffffffffffffffffffffffffffffffffffffffffffffffffe0818403018152918152815160209283012060009081526002835281812073ffffffffffffffffffffffffffffffffffffffff8716825290925290205460ff1690565b60006040517fa9059cbb00000000000000000000000000000000000000000000000000000000815273ffffffffffffffffffffffffffffffffffffffff84166004820152826024820152602060006044836000895af13d15601f3d1160016000511416171691505080611271576040517f08c379a000000000000000000000000000000000000000000000000000000000815260206004820152600f60248201527f5452414e534645525f4641494c454400000000000000000000000000000000006044820152606401610968565b6003546040517fd1af313c00000000000000000000000000000000000000000000000000000000815267ffffffffffffffff83166004820152600091839173ffffffffffffffffffffffffffffffffffffffff9091169063d1af313c90602401602060405180830381865afa15801561263a573d6000803e3d6000fd5b505050506040513d601f19601f8201168201806040525081019061265e9190612d0f565b915081612697576040517f849713b000000000000000000000000000000000000000000000000000000000815260040160405180910390fd5b50919050565b803563ffffffff811681146126b157600080fd5b919050565b6000602082840312156126c857600080fd5b6113758261269d565b73ffffffffffffffffffffffffffffffffffffffff8116811461186b57600080fd5b60006020828403121561270557600080fd5b8135611375816126d1565b60008060006060848603121561272557600080fd5b833592506127356020850161269d565b91506040840135612745816126d1565b809150509250925092565b60008083601f84011261276257600080fd5b50813567ffffffffffffffff81111561277a57600080fd5b6020830191508360208260051b850101111561279557600080fd5b9250929050565b600080600080600080606087890312156127b557600080fd5b863567ffffffffffffffff808211156127cd57600080fd5b6127d98a838b01612750565b909850965060208901359150808211156127f257600080fd5b6127fe8a838b01612750565b9096509450604089013591508082111561281757600080fd5b5061282489828a01612750565b979a9699509497509295939492505050565b7f4e487b7100000000000000000000000000000000000000000000000000000000600052604160045260246000fd5b6000806040838503121561287857600080fd5b82359150602083013567ffffffffffffffff8082111561289757600080fd5b818501915085601f8301126128ab57600080fd5b8135818111156128bd576128bd612836565b604051601f82017fffffffffffffffffffffffffffffffffffffffffffffffffffffffffffffffe0908116603f0116810190838211818310171561290357612903612836565b8160405282815288602084870101111561291c57600080fd5b8260208601602083013760006020848301015280955050505050509250929050565b6000806040838503121561295157600080fd5b823591506020830135612963816126d1565b809150509250929050565b600080600080600060a0868803121561298657600080fd5b8535945060208601359350604086013592506129a46060870161269d565b949793965091946080013592915050565b6000806000606084860312156129ca57600080fd5b83356129d5816126d1565b925060208401356129e5816126d1565b929592945050506040919091013590565b600060208284031215612a0857600080fd5b5035919050565b600080600080600060a08688031215612a2757600080fd5b612a308661269d565b94506020860135935060408601359250606086013591506080860135612a55816126d1565b809150509295509295909350565b60008060408385031215612a7657600080fd5b612a7f8361269d565b91506020830135612963816126d1565b60008060408385031215612aa257600080fd5b50508035926020909101359150565b80356fffffffffffffffffffffffffffffffff811681146126b157600080fd5b60008060008060008060a08789031215612aea57600080fd5b86359550612afa6020880161269d565b9450612b0860408801612ab1565b9350612b1660608801612ab1565b9250608087013567ffffffffffffffff80821115612b3357600080fd5b818901915089601f830112612b4757600080fd5b813581811115612b5657600080fd5b8a6020828501011115612b6857600080fd5b6020830194508093505050509295509295509295565b7f4e487b7100000000000000000000000000000000000000000000000000000000600052603260045260246000fd5b6000815180845260005b81811015612bd357602081850181015186830182015201612bb7565b5060006020828601015260207fffffffffffffffffffffffffffffffffffffffffffffffffffffffffffffffe0601f83011685010191505092915050565b828152604060208201526000611d786040830184612bad565b600060208284031215612c3c57600080fd5b8151611375816126d1565b60008060408385031215612c5a57600080fd5b8251612c65816126d1565b6020840151909250612963816126d1565b73ffffffffffffffffffffffffffffffffffffffff84168152606060208201526000612ca56060830185612bad565b905063ffffffff83166040830152949350505050565b83815260406020820152816040820152818360608301376000818301606090810191909152601f9092017fffffffffffffffffffffffffffffffffffffffffffffffffffffffffffffffe016010192915050565b600060208284031215612d2157600080fd5b505191905056fea264697066735822122011d50aee3cb2c9b94269ef001c56214a6521ca481fc96cc4926254f6e6878dfe64736f6c63430008130033",
  "linkReferences": {},
  "deployedLinkReferences": {}
}