{
  "_format": "hh-sol-artifact-1",
  "contractName": "HashChainCapacitor",
  "sourceName": "contracts/capacitors/HashChainCapacitor.sol",
  "abi": [
    {
      "inputs": [
        {
          "internalType": "address",
          "name": "socket_",
          "type": "address"
        },
        {
          "internalType": "address",
          "name": "owner_",
          "type": "address"
        },
        {
          "internalType": "uint256",
          "name": "maxPacketLength_",
          "type": "uint256"
        }
      ],
      "stateMutability": "nonpayable",
      "type": "constructor"
    },
    {
      "inputs": [],
      "name": "InsufficientMessageLength",
      "type": "error"
    },
    {
      "inputs": [],
      "name": "InvalidBatchSize",
      "type": "error"
    },
    {
      "inputs": [],
      "name": "InvalidPacketLength",
      "type": "error"
    },
    {
      "inputs": [],
      "name": "InvalidTokenAddress",
      "type": "error"
    },
    {
      "inputs": [
        {
          "internalType": "bytes32",
          "name": "role",
          "type": "bytes32"
        }
      ],
      "name": "NoPermit",
      "type": "error"
    },
    {
      "inputs": [],
      "name": "OnlyNominee",
      "type": "error"
    },
    {
      "inputs": [],
      "name": "OnlyOwner",
      "type": "error"
    },
    {
      "inputs": [],
      "name": "OnlySocket",
      "type": "error"
    },
    {
      "inputs": [],
      "name": "ZeroAddress",
      "type": "error"
    },
    {
      "anonymous": false,
      "inputs": [
        {
          "indexed": false,
          "internalType": "uint256",
          "name": "maxPacketLength",
          "type": "uint256"
        }
      ],
      "name": "MaxPacketLengthSet",
      "type": "event"
    },
    {
      "anonymous": false,
      "inputs": [
        {
          "indexed": false,
          "internalType": "bytes32",
          "name": "packedMessage",
          "type": "bytes32"
        },
        {
          "indexed": false,
          "internalType": "uint64",
          "name": "messageCount",
          "type": "uint64"
        },
        {
          "indexed": false,
          "internalType": "uint64",
          "name": "packetCount",
          "type": "uint64"
        },
        {
          "indexed": false,
          "internalType": "bytes32",
          "name": "newRootHash",
          "type": "bytes32"
        }
      ],
      "name": "MessageAdded",
      "type": "event"
    },
    {
      "anonymous": false,
      "inputs": [
        {
          "indexed": true,
          "internalType": "address",
          "name": "claimer",
          "type": "address"
        }
      ],
      "name": "OwnerClaimed",
      "type": "event"
    },
    {
      "anonymous": false,
      "inputs": [
        {
          "indexed": true,
          "internalType": "address",
          "name": "nominee",
          "type": "address"
        }
      ],
      "name": "OwnerNominated",
      "type": "event"
    },
    {
      "anonymous": false,
      "inputs": [
        {
          "indexed": true,
          "internalType": "bytes32",
          "name": "role",
          "type": "bytes32"
        },
        {
          "indexed": true,
          "internalType": "address",
          "name": "grantee",
          "type": "address"
        }
      ],
      "name": "RoleGranted",
      "type": "event"
    },
    {
      "anonymous": false,
      "inputs": [
        {
          "indexed": true,
          "internalType": "bytes32",
          "name": "role",
          "type": "bytes32"
        },
        {
          "indexed": true,
          "internalType": "address",
          "name": "revokee",
          "type": "address"
        }
      ],
      "name": "RoleRevoked",
      "type": "event"
    },
    {
      "inputs": [
        {
          "internalType": "bytes32",
          "name": "packedMessage_",
          "type": "bytes32"
        }
      ],
      "name": "addPackedMessage",
      "outputs": [],
      "stateMutability": "nonpayable",
      "type": "function"
    },
    {
      "inputs": [],
      "name": "claimOwner",
      "outputs": [],
      "stateMutability": "nonpayable",
      "type": "function"
    },
    {
      "inputs": [],
      "name": "getLastFilledPacket",
      "outputs": [
        {
          "internalType": "uint256",
          "name": "lastFilledPacket",
          "type": "uint256"
        }
      ],
      "stateMutability": "view",
      "type": "function"
    },
    {
      "inputs": [],
      "name": "getMaxPacketLength",
      "outputs": [
        {
          "internalType": "uint256",
          "name": "",
          "type": "uint256"
        }
      ],
      "stateMutability": "view",
      "type": "function"
    },
    {
      "inputs": [
        {
          "internalType": "uint256",
          "name": "batchSize_",
          "type": "uint256"
        }
      ],
      "name": "getNextPacketToBeSealed",
      "outputs": [
        {
          "internalType": "bytes32",
          "name": "root",
          "type": "bytes32"
        },
        {
          "internalType": "uint64",
          "name": "count",
          "type": "uint64"
        }
      ],
      "stateMutability": "view",
      "type": "function"
    },
    {
      "inputs": [],
      "name": "getNextPacketToBeSealed",
      "outputs": [
        {
          "internalType": "bytes32",
          "name": "root",
          "type": "bytes32"
        },
        {
          "internalType": "uint64",
          "name": "count",
          "type": "uint64"
        }
      ],
      "stateMutability": "view",
      "type": "function"
    },
    {
      "inputs": [
        {
          "internalType": "uint64",
          "name": "count_",
          "type": "uint64"
        }
      ],
      "name": "getRootByCount",
      "outputs": [
        {
          "internalType": "bytes32",
          "name": "",
          "type": "bytes32"
        }
      ],
      "stateMutability": "view",
      "type": "function"
    },
    {
      "inputs": [
        {
          "internalType": "bytes32",
          "name": "role_",
          "type": "bytes32"
        },
        {
          "internalType": "address",
          "name": "grantee_",
          "type": "address"
        }
      ],
      "name": "grantRole",
      "outputs": [],
      "stateMutability": "nonpayable",
      "type": "function"
    },
    {
      "inputs": [
        {
          "internalType": "bytes32",
          "name": "role_",
          "type": "bytes32"
        },
        {
          "internalType": "address",
          "name": "address_",
          "type": "address"
        }
      ],
      "name": "hasRole",
      "outputs": [
        {
          "internalType": "bool",
          "name": "",
          "type": "bool"
        }
      ],
      "stateMutability": "view",
      "type": "function"
    },
    {
      "inputs": [],
      "name": "maxPacketLength",
      "outputs": [
        {
          "internalType": "uint256",
          "name": "",
          "type": "uint256"
        }
      ],
      "stateMutability": "view",
      "type": "function"
    },
    {
      "inputs": [],
      "name": "messagePacked",
      "outputs": [
        {
          "internalType": "uint64",
          "name": "",
          "type": "uint64"
        }
      ],
      "stateMutability": "view",
      "type": "function"
    },
    {
      "inputs": [
        {
          "internalType": "uint64",
          "name": "",
          "type": "uint64"
        }
      ],
      "name": "messageRoots",
      "outputs": [
        {
          "internalType": "bytes32",
          "name": "",
          "type": "bytes32"
        }
      ],
      "stateMutability": "view",
      "type": "function"
    },
    {
      "inputs": [],
      "name": "nextMessageCount",
      "outputs": [
        {
          "internalType": "uint64",
          "name": "",
          "type": "uint64"
        }
      ],
      "stateMutability": "view",
      "type": "function"
    },
    {
      "inputs": [
        {
          "internalType": "address",
          "name": "nominee_",
          "type": "address"
        }
      ],
      "name": "nominateOwner",
      "outputs": [],
      "stateMutability": "nonpayable",
      "type": "function"
    },
    {
      "inputs": [],
      "name": "nominee",
      "outputs": [
        {
          "internalType": "address",
          "name": "",
          "type": "address"
        }
      ],
      "stateMutability": "view",
      "type": "function"
    },
    {
      "inputs": [],
      "name": "owner",
      "outputs": [
        {
          "internalType": "address",
          "name": "",
          "type": "address"
        }
      ],
      "stateMutability": "view",
      "type": "function"
    },
    {
      "inputs": [
        {
          "internalType": "address",
          "name": "token_",
          "type": "address"
        },
        {
          "internalType": "address",
          "name": "rescueTo_",
          "type": "address"
        },
        {
          "internalType": "uint256",
          "name": "amount_",
          "type": "uint256"
        }
      ],
      "name": "rescueFunds",
      "outputs": [],
      "stateMutability": "nonpayable",
      "type": "function"
    },
    {
      "inputs": [
        {
          "internalType": "bytes32",
          "name": "role_",
          "type": "bytes32"
        },
        {
          "internalType": "address",
          "name": "revokee_",
          "type": "address"
        }
      ],
      "name": "revokeRole",
      "outputs": [],
      "stateMutability": "nonpayable",
      "type": "function"
    },
    {
      "inputs": [
        {
          "internalType": "uint256",
          "name": "batchSize",
          "type": "uint256"
        }
      ],
      "name": "sealPacket",
      "outputs": [
        {
          "internalType": "bytes32",
          "name": "root",
          "type": "bytes32"
        },
        {
          "internalType": "uint64",
          "name": "packetCount",
          "type": "uint64"
        }
      ],
      "stateMutability": "nonpayable",
      "type": "function"
    },
    {
      "inputs": [],
      "name": "socket",
      "outputs": [
        {
          "internalType": "address",
          "name": "",
          "type": "address"
        }
      ],
      "stateMutability": "view",
      "type": "function"
    },
    {
      "inputs": [
        {
          "internalType": "uint256",
          "name": "maxPacketLength_",
          "type": "uint256"
        }
      ],
      "name": "updateMaxPacketLength",
      "outputs": [],
      "stateMutability": "nonpayable",
      "type": "function"
    }
  ],
  "bytecode": "0x60a0604052600680546001600160401b03191660011790553480156200002457600080fd5b50604051620016533803806200165383398101604081905262000047916200018f565b828280806200005681620000c4565b50506001600160a01b038216608052620000917fc4c453d647953c0fd35db5a34ee76e60fb4abc3a8fb891a25936b70b38f292538262000117565b5050600a6005541115620000b857604051632d1bad4760e11b815260040160405180910390fd5b60055550620001d09050565b600080546001600160a01b0383166001600160a01b0319918216811783556001805490921690915560405190917ffbe19c9b601f5ee90b44c7390f3fa2319eba01762d34ee372aeafd59b25c7f8791a250565b60008281526002602090815260408083206001600160a01b0385168085529252808320805460ff1916600117905551909184917f2ae6a113c0ed5b78a53413ffbb7679881f11145ccfba4fb92e863dfcd5a1d2f39190a35050565b80516001600160a01b03811681146200018a57600080fd5b919050565b600080600060608486031215620001a557600080fd5b620001b08462000172565b9250620001c06020850162000172565b9150604084015190509250925092565b608051611459620001fa600039600081816101fe015281816108970152610b8501526114596000f3fe608060405234801561001057600080fd5b50600436106101775760003560e01c80636afc0f38116100d85780639471651e1161008c578063d1af313c11610066578063d1af313c1461035e578063d547741f14610371578063d7c9eaac1461038457600080fd5b80639471651e14610339578063a056257814610341578063b213795e1461034a57600080fd5b80638da5cb5b116100bd5780638da5cb5b146102e557806391d1485414610303578063920ee8a81461032657600080fd5b80636afc0f38146102ca5780636ccae054146102d257600080fd5b80632ff9f2c91161012f57806359b5b9301161011457806359b5b930146102735780635b94db27146102a4578063662d98f1146102b757600080fd5b80632ff9f2c9146102635780633bd1adec1461026b57600080fd5b806322c8f6cd1161016057806322c8f6cd146101f95780632808c751146102205780632f2ff15d1461024e57600080fd5b806312146a561461017c57806320f99c0a146101ba575b600080fd5b60065461019c9068010000000000000000900467ffffffffffffffff1681565b60405167ffffffffffffffff90911681526020015b60405180910390f35b60015473ffffffffffffffffffffffffffffffffffffffff165b60405173ffffffffffffffffffffffffffffffffffffffff90911681526020016101b1565b6101d47f000000000000000000000000000000000000000000000000000000000000000081565b61024061022e366004611240565b60076020526000908152604090205481565b6040519081526020016101b1565b61026161025c36600461129a565b610397565b005b600554610240565b6102616103f6565b6102866102813660046112c6565b610452565b6040805192835267ffffffffffffffff9091166020830152016101b1565b6102616102b23660046112df565b61047f565b6102616102c53660046112c6565b61053f565b61024061075a565b6102616102e03660046112fa565b61079f565b60005473ffffffffffffffffffffffffffffffffffffffff166101d4565b61031661031136600461129a565b610842565b60405190151581526020016101b1565b6102616103343660046112c6565b61087f565b610286610ad6565b61024060055481565b60065461019c9067ffffffffffffffff1681565b61024061036c366004611240565b610b02565b61026161037f36600461129a565b610b0f565b6102866103923660046112c6565b610b6a565b60005473ffffffffffffffffffffffffffffffffffffffff1633146103e8576040517f5fc483c500000000000000000000000000000000000000000000000000000000815260040160405180910390fd5b6103f28282610db3565b5050565b60015473ffffffffffffffffffffffffffffffffffffffff163314610447576040517f7c91ccdd00000000000000000000000000000000000000000000000000000000815260040160405180910390fd5b61045033610e39565b565b60035460009068010000000000000000900467ffffffffffffffff166104788184610eb1565b9150915091565b60005473ffffffffffffffffffffffffffffffffffffffff1633146104d0576040517f5fc483c500000000000000000000000000000000000000000000000000000000815260040160405180910390fd5b600180547fffffffffffffffffffffffff00000000000000000000000000000000000000001673ffffffffffffffffffffffffffffffffffffffff83169081179091556040517f906a1c6bd7e3091ea86693dd029a831c19049ce77f1dce2ce0bab1cacbabce2290600090a250565b60005473ffffffffffffffffffffffffffffffffffffffff163314610590576040517f5fc483c500000000000000000000000000000000000000000000000000000000815260040160405180910390fd5b600a60055411156105cd576040517f5a375a8e00000000000000000000000000000000000000000000000000000000815260040160405180910390fd5b60055481101561071f5760065460035467ffffffffffffffff68010000000000000000830481169291811691600091859161060a91869116611365565b610614919061138d565b60038054919250829160009061063590849067ffffffffffffffff166113db565b92506101000a81548167ffffffffffffffff021916908367ffffffffffffffff16021790555060005b8167ffffffffffffffff168167ffffffffffffffff1610156106d557600061068686866113db565b67ffffffffffffffff81166000908152600760205260408120549192506004906106b085886113db565b67ffffffffffffffff168152602081019190915260400160002055935060010161065e565b50506006805467ffffffffffffffff90931668010000000000000000027fffffffffffffffffffffffffffffffff0000000000000000ffffffffffffffff90931692909217909155505b60058190556040518181527f973cca88828d48c288a7bca598528458fac2c67c5a79f0516d219528d5fed8129060200160405180910390a150565b60035460009067ffffffffffffffff161561078d576003546107889060019067ffffffffffffffff16611365565b610790565b60005b67ffffffffffffffff16905090565b3360009081527f4933f7bec34ee32db93e9f5cd7e0519781b395282211f4f6857489046ea38f7660205260409020547fc4c453d647953c0fd35db5a34ee76e60fb4abc3a8fb891a25936b70b38f292539060ff16610831576040517f962f6333000000000000000000000000000000000000000000000000000000008152600481018290526024015b60405180910390fd5b61083c848484610f84565b50505050565b600082815260026020908152604080832073ffffffffffffffffffffffffffffffffffffffff8516845290915281205460ff165b90505b92915050565b3373ffffffffffffffffffffffffffffffffffffffff7f000000000000000000000000000000000000000000000000000000000000000016146108ee576040517f503284dc00000000000000000000000000000000000000000000000000000000815260040160405180910390fd5b6006805460009167ffffffffffffffff909116908261090c836113fc565b82546101009290920a67ffffffffffffffff818102199093169183160217909155600354919250166000600781610944600186611365565b67ffffffffffffffff1681526020808201929092526040908101600020548151928301528101859052606001604080517fffffffffffffffffffffffffffffffffffffffffffffffffffffffffffffffe0818403018152918152815160209283012067ffffffffffffffff8087166000908152600790945291909220829055600554600654929350916109e591680100000000000000009091041685611365565b67ffffffffffffffff1603610a7f5767ffffffffffffffff8083166000908152600460205260409020829055600680547fffffffffffffffffffffffffffffffff0000000000000000ffffffffffffffff166801000000000000000083871602179055600380547fffffffffffffffffffffffffffffffffffffffffffffffff000000000000000081169083166001019092169190911790555b6040805185815267ffffffffffffffff85811660208301528416818301526060810183905290517faf9c720e1a6133b0e56bf01dd42587e33314a65cb7b81f680756df11acedc88b9181900360800190a150505050565b60035460009068010000000000000000900467ffffffffffffffff16610afc8183610eb1565b91509091565b6000610879826000610eb1565b60005473ffffffffffffffffffffffffffffffffffffffff163314610b60576040517f5fc483c500000000000000000000000000000000000000000000000000000000815260040160405180910390fd5b6103f28282611079565b6000803373ffffffffffffffffffffffffffffffffffffffff7f00000000000000000000000000000000000000000000000000000000000000001614610bdc576040517f503284dc00000000000000000000000000000000000000000000000000000000815260040160405180910390fd5b60065460055467ffffffffffffffff90911690841115610c28576040517f7862e95900000000000000000000000000000000000000000000000000000000815260040160405180910390fd5b6003805468010000000000000000900467ffffffffffffffff16906008610c4e836113fc565b82546101009290920a67ffffffffffffffff8181021990931691831602179091558116600090815260046020526040902054909250610d9057600654600090610cae90869068010000000000000000900467ffffffffffffffff166113db565b90508067ffffffffffffffff168211610cf3576040517fbcfdc01d00000000000000000000000000000000000000000000000000000000815260040160405180910390fd5b67ffffffffffffffff8181166000818152600760209081526040808320548886168452600490925290912055600680547fffffffffffffffffffffffffffffffff0000000000000000ffffffffffffffff1668010000000000000000909202919091179055600380547fffffffffffffffffffffffffffffffffffffffffffffffff00000000000000008116908316600101909216919091179055505b5067ffffffffffffffff8116600090815260046020526040902054939092509050565b600082815260026020908152604080832073ffffffffffffffffffffffffffffffffffffffff8516808552925280832080547fffffffffffffffffffffffffffffffffffffffffffffffffffffffffffffff0016600117905551909184917f2ae6a113c0ed5b78a53413ffbb7679881f11145ccfba4fb92e863dfcd5a1d2f39190a35050565b6000805473ffffffffffffffffffffffffffffffffffffffff83167fffffffffffffffffffffffff0000000000000000000000000000000000000000918216811783556001805490921690915560405190917ffbe19c9b601f5ee90b44c7390f3fa2319eba01762d34ee372aeafd59b25c7f8791a250565b67ffffffffffffffff8216600090815260046020526040812054610f6657600067ffffffffffffffff831615610f0a57600654610f0590849068010000000000000000900467ffffffffffffffff166113db565b610f23565b600654610f239060019067ffffffffffffffff16611365565b60065490915067ffffffffffffffff808316911611610f46575060009050610879565b67ffffffffffffffff166000908152600760205260409020549050610879565b505067ffffffffffffffff1660009081526004602052604090205490565b73ffffffffffffffffffffffffffffffffffffffff8216610fd1576040517fd92e233d00000000000000000000000000000000000000000000000000000000815260040160405180910390fd5b7fffffffffffffffffffffffff111111111111111111111111111111111111111273ffffffffffffffffffffffffffffffffffffffff84160161101d5761101882826110fc565b505050565b8273ffffffffffffffffffffffffffffffffffffffff163b60000361106e576040517f1eb00b0600000000000000000000000000000000000000000000000000000000815260040160405180910390fd5b611018838383611171565b600082815260026020908152604080832073ffffffffffffffffffffffffffffffffffffffff8516808552925280832080547fffffffffffffffffffffffffffffffffffffffffffffffffffffffffffffff0016905551909184917f155aaafb6329a2098580462df33ec4b7441b19729b9601c5fc17ae1cf99a8a529190a35050565b600080600080600085875af1905080611018576040517f08c379a000000000000000000000000000000000000000000000000000000000815260206004820152601360248201527f4554485f5452414e534645525f4641494c4544000000000000000000000000006044820152606401610828565b60006040517fa9059cbb00000000000000000000000000000000000000000000000000000000815273ffffffffffffffffffffffffffffffffffffffff84166004820152826024820152602060006044836000895af13d15601f3d116001600051141617169150508061083c576040517f08c379a000000000000000000000000000000000000000000000000000000000815260206004820152600f60248201527f5452414e534645525f4641494c454400000000000000000000000000000000006044820152606401610828565b60006020828403121561125257600080fd5b813567ffffffffffffffff8116811461126a57600080fd5b9392505050565b803573ffffffffffffffffffffffffffffffffffffffff8116811461129557600080fd5b919050565b600080604083850312156112ad57600080fd5b823591506112bd60208401611271565b90509250929050565b6000602082840312156112d857600080fd5b5035919050565b6000602082840312156112f157600080fd5b61087682611271565b60008060006060848603121561130f57600080fd5b61131884611271565b925061132660208501611271565b9150604084013590509250925092565b7f4e487b7100000000000000000000000000000000000000000000000000000000600052601160045260246000fd5b67ffffffffffffffff82811682821603908082111561138657611386611336565b5092915050565b600067ffffffffffffffff808416806113cf577f4e487b7100000000000000000000000000000000000000000000000000000000600052601260045260246000fd5b92169190910692915050565b67ffffffffffffffff81811683821601908082111561138657611386611336565b600067ffffffffffffffff80831681810361141957611419611336565b600101939250505056fea2646970667358221220923ad00a864d815d31ff0b6d38642a0c0c6dff576f6a418cd8878bf7557074fc64736f6c63430008130033",
  "linkReferences": {},
  "deployedLinkReferences": {}
}