{
  "_format": "hh-sol-artifact-1",
  "contractName": "SocketBatcher",
  "sourceName": "contracts/socket/SocketBatcher.sol",
  "abi": [
    {
      "inputs": [
        {
          "internalType": "address",
          "name": "owner_",
          "type": "address"
        }
      ],
      "stateMutability": "nonpayable",
      "type": "constructor"
    },
    {
      "inputs": [],
      "name": "InvalidTokenAddress",
      "type": "error"
    },
    {
      "inputs": [
        {
          "internalType": "bytes32",
          "name": "role",
          "type": "bytes32"
        }
      ],
      "name": "NoPermit",
      "type": "error"
    },
    {
      "inputs": [],
      "name": "OnlyNominee",
      "type": "error"
    },
    {
      "inputs": [],
      "name": "OnlyOwner",
      "type": "error"
    },
    {
      "inputs": [],
      "name": "ZeroAddress",
      "type": "error"
    },
    {
      "anonymous": false,
      "inputs": [
        {
          "indexed": false,
          "internalType": "string",
          "name": "reason",
          "type": "string"
        }
      ],
      "name": "FailedLog",
      "type": "event"
    },
    {
      "anonymous": false,
      "inputs": [
        {
          "indexed": false,
          "internalType": "bytes",
          "name": "reason",
          "type": "bytes"
        }
      ],
      "name": "FailedLogBytes",
      "type": "event"
    },
    {
      "anonymous": false,
      "inputs": [
        {
          "indexed": true,
          "internalType": "address",
          "name": "claimer",
          "type": "address"
        }
      ],
      "name": "OwnerClaimed",
      "type": "event"
    },
    {
      "anonymous": false,
      "inputs": [
        {
          "indexed": true,
          "internalType": "address",
          "name": "nominee",
          "type": "address"
        }
      ],
      "name": "OwnerNominated",
      "type": "event"
    },
    {
      "anonymous": false,
      "inputs": [
        {
          "indexed": true,
          "internalType": "bytes32",
          "name": "role",
          "type": "bytes32"
        },
        {
          "indexed": true,
          "internalType": "address",
          "name": "grantee",
          "type": "address"
        }
      ],
      "name": "RoleGranted",
      "type": "event"
    },
    {
      "anonymous": false,
      "inputs": [
        {
          "indexed": true,
          "internalType": "bytes32",
          "name": "role",
          "type": "bytes32"
        },
        {
          "indexed": true,
          "internalType": "address",
          "name": "revokee",
          "type": "address"
        }
      ],
      "name": "RoleRevoked",
      "type": "event"
    },
    {
      "inputs": [
        {
          "components": [
            {
              "internalType": "address",
              "name": "switchboard",
              "type": "address"
            },
            {
              "internalType": "bytes32",
              "name": "packetId",
              "type": "bytes32"
            },
            {
              "internalType": "uint256",
              "name": "proposalCount",
              "type": "uint256"
            },
            {
              "internalType": "bytes32",
              "name": "root",
              "type": "bytes32"
            },
            {
              "internalType": "bytes",
              "name": "signature",
              "type": "bytes"
            }
          ],
          "internalType": "struct SocketBatcher.AttestRequest[]",
          "name": "attestRequests_",
          "type": "tuple[]"
        }
      ],
      "name": "attestBatch",
      "outputs": [],
      "stateMutability": "nonpayable",
      "type": "function"
    },
    {
      "inputs": [
        {
          "internalType": "address",
          "name": "user",
          "type": "address"
        },
        {
          "internalType": "address",
          "name": "token",
          "type": "address"
        }
      ],
      "name": "balanceOf",
      "outputs": [
        {
          "internalType": "uint256",
          "name": "",
          "type": "uint256"
        }
      ],
      "stateMutability": "view",
      "type": "function"
    },
    {
      "inputs": [
        {
          "internalType": "address[]",
          "name": "users",
          "type": "address[]"
        },
        {
          "internalType": "address[]",
          "name": "tokens",
          "type": "address[]"
        }
      ],
      "name": "batchBalanceOf",
      "outputs": [
        {
          "internalType": "uint256[]",
          "name": "",
          "type": "uint256[]"
        }
      ],
      "stateMutability": "view",
      "type": "function"
    },
    {
      "inputs": [],
      "name": "claimOwner",
      "outputs": [],
      "stateMutability": "nonpayable",
      "type": "function"
    },
    {
      "inputs": [
        {
          "internalType": "address",
          "name": "socketAddress_",
          "type": "address"
        },
        {
          "components": [
            {
              "components": [
                {
                  "internalType": "bytes32",
                  "name": "packetId",
                  "type": "bytes32"
                },
                {
                  "internalType": "uint256",
                  "name": "proposalCount",
                  "type": "uint256"
                },
                {
                  "internalType": "uint256",
                  "name": "executionGasLimit",
                  "type": "uint256"
                },
                {
                  "internalType": "bytes",
                  "name": "decapacitorProof",
                  "type": "bytes"
                },
                {
                  "internalType": "bytes",
                  "name": "signature",
                  "type": "bytes"
                }
              ],
              "internalType": "struct ISocket.ExecutionDetails",
              "name": "executionDetails",
              "type": "tuple"
            },
            {
              "components": [
                {
                  "internalType": "bytes32",
                  "name": "msgId",
                  "type": "bytes32"
                },
                {
                  "internalType": "uint256",
                  "name": "executionFee",
                  "type": "uint256"
                },
                {
                  "internalType": "uint256",
                  "name": "minMsgGasLimit",
                  "type": "uint256"
                },
                {
                  "internalType": "bytes32",
                  "name": "executionParams",
                  "type": "bytes32"
                },
                {
                  "internalType": "bytes",
                  "name": "payload",
                  "type": "bytes"
                }
              ],
              "internalType": "struct ISocket.MessageDetails",
              "name": "messageDetails",
              "type": "tuple"
            }
          ],
          "internalType": "struct SocketBatcher.ExecuteRequest[]",
          "name": "executeRequests_",
          "type": "tuple[]"
        }
      ],
      "name": "executeBatch",
      "outputs": [],
      "stateMutability": "payable",
      "type": "function"
    },
    {
      "inputs": [
        {
          "internalType": "address[]",
          "name": "capacitorAddresses_",
          "type": "address[]"
        },
        {
          "internalType": "uint64[]",
          "name": "packetCounts_",
          "type": "uint64[]"
        }
      ],
      "name": "getPacketRootBatch",
      "outputs": [
        {
          "internalType": "bytes32[]",
          "name": "",
          "type": "bytes32[]"
        }
      ],
      "stateMutability": "view",
      "type": "function"
    },
    {
      "inputs": [
        {
          "internalType": "address",
          "name": "socketAddress_",
          "type": "address"
        },
        {
          "internalType": "bytes32[]",
          "name": "packetIds_",
          "type": "bytes32[]"
        }
      ],
      "name": "getProposalCountBatch",
      "outputs": [
        {
          "internalType": "uint256[]",
          "name": "",
          "type": "uint256[]"
        }
      ],
      "stateMutability": "view",
      "type": "function"
    },
    {
      "inputs": [
        {
          "internalType": "bytes32",
          "name": "role_",
          "type": "bytes32"
        },
        {
          "internalType": "address",
          "name": "grantee_",
          "type": "address"
        }
      ],
      "name": "grantRole",
      "outputs": [],
      "stateMutability": "nonpayable",
      "type": "function"
    },
    {
      "inputs": [
        {
          "internalType": "bytes32",
          "name": "role_",
          "type": "bytes32"
        },
        {
          "internalType": "address",
          "name": "address_",
          "type": "address"
        }
      ],
      "name": "hasRole",
      "outputs": [
        {
          "internalType": "bool",
          "name": "",
          "type": "bool"
        }
      ],
      "stateMutability": "view",
      "type": "function"
    },
    {
      "inputs": [
        {
          "internalType": "address",
          "name": "switchboardAddress_",
          "type": "address"
        },
        {
          "internalType": "address",
          "name": "callValueRefundAddress_",
          "type": "address"
        },
        {
          "internalType": "address",
          "name": "remoteRefundAddress_",
          "type": "address"
        },
        {
          "components": [
            {
              "internalType": "bytes32",
              "name": "packetId",
              "type": "bytes32"
            },
            {
              "internalType": "uint256",
              "name": "maxSubmissionCost",
              "type": "uint256"
            },
            {
              "internalType": "uint256",
              "name": "maxGas",
              "type": "uint256"
            },
            {
              "internalType": "uint256",
              "name": "gasPriceBid",
              "type": "uint256"
            },
            {
              "internalType": "uint256",
              "name": "callValue",
              "type": "uint256"
            }
          ],
          "internalType": "struct SocketBatcher.ArbitrumNativeInitiatorRequest[]",
          "name": "arbitrumNativeInitiatorRequests_",
          "type": "tuple[]"
        }
      ],
      "name": "initiateArbitrumNativeBatch",
      "outputs": [],
      "stateMutability": "payable",
      "type": "function"
    },
    {
      "inputs": [
        {
          "internalType": "address",
          "name": "switchboardAddress_",
          "type": "address"
        },
        {
          "internalType": "bytes32[]",
          "name": "nativePacketIds_",
          "type": "bytes32[]"
        }
      ],
      "name": "initiateNativeBatch",
      "outputs": [],
      "stateMutability": "nonpayable",
      "type": "function"
    },
    {
      "inputs": [
        {
          "internalType": "address",
          "name": "nominee_",
          "type": "address"
        }
      ],
      "name": "nominateOwner",
      "outputs": [],
      "stateMutability": "nonpayable",
      "type": "function"
    },
    {
      "inputs": [],
      "name": "nominee",
      "outputs": [
        {
          "internalType": "address",
          "name": "",
          "type": "address"
        }
      ],
      "stateMutability": "view",
      "type": "function"
    },
    {
      "inputs": [],
      "name": "owner",
      "outputs": [
        {
          "internalType": "address",
          "name": "",
          "type": "address"
        }
      ],
      "stateMutability": "view",
      "type": "function"
    },
    {
      "inputs": [
        {
          "components": [
            {
              "internalType": "address",
              "name": "switchboard",
              "type": "address"
            },
            {
              "internalType": "uint256",
              "name": "nonce",
              "type": "uint256"
            },
            {
              "internalType": "bytes32",
              "name": "packetId",
              "type": "bytes32"
            },
            {
              "internalType": "uint256",
              "name": "proposalCount",
              "type": "uint256"
            },
            {
              "internalType": "bytes",
              "name": "signature",
              "type": "bytes"
            }
          ],
          "internalType": "struct SocketBatcher.ProposalTripRequest[]",
          "name": "proposalTripRequests_",
          "type": "tuple[]"
        }
      ],
      "name": "proposalTripBatch",
      "outputs": [],
      "stateMutability": "nonpayable",
      "type": "function"
    },
    {
      "inputs": [
        {
          "internalType": "address",
          "name": "socketAddress_",
          "type": "address"
        },
        {
          "components": [
            {
              "internalType": "bytes32",
              "name": "packetId",
              "type": "bytes32"
            },
            {
              "internalType": "bytes32",
              "name": "root",
              "type": "bytes32"
            },
            {
              "internalType": "address",
              "name": "switchboard",
              "type": "address"
            },
            {
              "internalType": "bytes",
              "name": "signature",
              "type": "bytes"
            }
          ],
          "internalType": "struct SocketBatcher.ProposeRequest[]",
          "name": "proposeRequests_",
          "type": "tuple[]"
        }
      ],
      "name": "proposeBatch",
      "outputs": [],
      "stateMutability": "nonpayable",
      "type": "function"
    },
    {
      "inputs": [
        {
          "internalType": "address",
          "name": "polygonRootReceiverAddress_",
          "type": "address"
        },
        {
          "components": [
            {
              "internalType": "bytes",
              "name": "proof",
              "type": "bytes"
            }
          ],
          "internalType": "struct SocketBatcher.ReceivePacketProofRequest[]",
          "name": "receivePacketProofs_",
          "type": "tuple[]"
        }
      ],
      "name": "receiveMessageBatch",
      "outputs": [],
      "stateMutability": "nonpayable",
      "type": "function"
    },
    {
      "inputs": [
        {
          "internalType": "address",
          "name": "token_",
          "type": "address"
        },
        {
          "internalType": "address",
          "name": "rescueTo_",
          "type": "address"
        },
        {
          "internalType": "uint256",
          "name": "amount_",
          "type": "uint256"
        }
      ],
      "name": "rescueFunds",
      "outputs": [],
      "stateMutability": "nonpayable",
      "type": "function"
    },
    {
      "inputs": [
        {
          "internalType": "bytes32",
          "name": "role_",
          "type": "bytes32"
        },
        {
          "internalType": "address",
          "name": "revokee_",
          "type": "address"
        }
      ],
      "name": "revokeRole",
      "outputs": [],
      "stateMutability": "nonpayable",
      "type": "function"
    },
    {
      "inputs": [
        {
          "internalType": "address",
          "name": "socketAddress_",
          "type": "address"
        },
        {
          "components": [
            {
              "internalType": "uint256",
              "name": "batchSize",
              "type": "uint256"
            },
            {
              "internalType": "address",
              "name": "capacitorAddress",
              "type": "address"
            },
            {
              "internalType": "bytes",
              "name": "signature",
              "type": "bytes"
            }
          ],
          "internalType": "struct SocketBatcher.SealRequest[]",
          "name": "sealRequests_",
          "type": "tuple[]"
        }
      ],
      "name": "sealBatch",
      "outputs": [],
      "stateMutability": "nonpayable",
      "type": "function"
    },
    {
      "inputs": [
        {
          "internalType": "address",
          "name": "socketAddress_",
          "type": "address"
        },
        {
          "components": [
            {
              "internalType": "uint256",
              "name": "batchSize",
              "type": "uint256"
            },
            {
              "internalType": "address",
              "name": "capacitorAddress",
              "type": "address"
            },
            {
              "internalType": "bytes",
              "name": "signature",
              "type": "bytes"
            }
          ],
          "internalType": "struct SocketBatcher.SealRequest[]",
          "name": "sealRequests_",
          "type": "tuple[]"
        },
        {
          "components": [
            {
              "internalType": "bytes32",
              "name": "packetId",
              "type": "bytes32"
            },
            {
              "internalType": "bytes32",
              "name": "root",
              "type": "bytes32"
            },
            {
              "internalType": "address",
              "name": "switchboard",
              "type": "address"
            },
            {
              "internalType": "bytes",
              "name": "signature",
              "type": "bytes"
            }
          ],
          "internalType": "struct SocketBatcher.ProposeRequest[]",
          "name": "proposeRequests_",
          "type": "tuple[]"
        },
        {
          "components": [
            {
              "internalType": "address",
              "name": "switchboard",
              "type": "address"
            },
            {
              "internalType": "bytes32",
              "name": "packetId",
              "type": "bytes32"
            },
            {
              "internalType": "uint256",
              "name": "proposalCount",
              "type": "uint256"
            },
            {
              "internalType": "bytes32",
              "name": "root",
              "type": "bytes32"
            },
            {
              "internalType": "bytes",
              "name": "signature",
              "type": "bytes"
            }
          ],
          "internalType": "struct SocketBatcher.AttestRequest[]",
          "name": "attestRequests_",
          "type": "tuple[]"
        },
        {
          "components": [
            {
              "components": [
                {
                  "internalType": "bytes32",
                  "name": "packetId",
                  "type": "bytes32"
                },
                {
                  "internalType": "uint256",
                  "name": "proposalCount",
                  "type": "uint256"
                },
                {
                  "internalType": "uint256",
                  "name": "executionGasLimit",
                  "type": "uint256"
                },
                {
                  "internalType": "bytes",
                  "name": "decapacitorProof",
                  "type": "bytes"
                },
                {
                  "internalType": "bytes",
                  "name": "signature",
                  "type": "bytes"
                }
              ],
              "internalType": "struct ISocket.ExecutionDetails",
              "name": "executionDetails",
              "type": "tuple"
            },
            {
              "components": [
                {
                  "internalType": "bytes32",
                  "name": "msgId",
                  "type": "bytes32"
                },
                {
                  "internalType": "uint256",
                  "name": "executionFee",
                  "type": "uint256"
                },
                {
                  "internalType": "uint256",
                  "name": "minMsgGasLimit",
                  "type": "uint256"
                },
                {
                  "internalType": "bytes32",
                  "name": "executionParams",
                  "type": "bytes32"
                },
                {
                  "internalType": "bytes",
                  "name": "payload",
                  "type": "bytes"
                }
              ],
              "internalType": "struct ISocket.MessageDetails",
              "name": "messageDetails",
              "type": "tuple"
            }
          ],
          "internalType": "struct SocketBatcher.ExecuteRequest[]",
          "name": "executeRequests_",
          "type": "tuple[]"
        }
      ],
      "name": "sendBatch",
      "outputs": [],
      "stateMutability": "payable",
      "type": "function"
    },
    {
      "inputs": [
        {
          "internalType": "address",
          "name": "contractAddress_",
          "type": "address"
        },
        {
          "components": [
            {
              "internalType": "uint256",
              "name": "nonce",
              "type": "uint256"
            },
            {
              "internalType": "uint32",
              "name": "dstChainSlug",
              "type": "uint32"
            },
            {
              "internalType": "uint128",
              "name": "fees",
              "type": "uint128"
            },
            {
              "internalType": "bytes",
              "name": "signature",
              "type": "bytes"
            },
            {
              "internalType": "bytes4",
              "name": "functionSelector",
              "type": "bytes4"
            }
          ],
          "internalType": "struct SocketBatcher.SetFeesRequest[]",
          "name": "setFeesRequests_",
          "type": "tuple[]"
        }
      ],
      "name": "setExecutionFeesBatch",
      "outputs": [],
      "stateMutability": "nonpayable",
      "type": "function"
    },
    {
      "inputs": [
        {
          "internalType": "address",
          "name": "contractAddress_",
          "type": "address"
        },
        {
          "components": [
            {
              "internalType": "uint256",
              "name": "nonce",
              "type": "uint256"
            },
            {
              "internalType": "uint32",
              "name": "dstChainSlug",
              "type": "uint32"
            },
            {
              "internalType": "uint128",
              "name": "switchboardFees",
              "type": "uint128"
            },
            {
              "internalType": "uint128",
              "name": "verificationOverheadFees",
              "type": "uint128"
            },
            {
              "internalType": "bytes",
              "name": "signature",
              "type": "bytes"
            }
          ],
          "internalType": "struct SocketBatcher.SwitchboardSetFeesRequest[]",
          "name": "switchboardSetFeesRequest_",
          "type": "tuple[]"
        }
      ],
      "name": "setFeesBatch",
      "outputs": [],
      "stateMutability": "nonpayable",
      "type": "function"
    },
    {
      "inputs": [
        {
          "internalType": "address",
          "name": "contractAddress_",
          "type": "address"
        },
        {
          "components": [
            {
              "internalType": "uint256",
              "name": "nonce",
              "type": "uint256"
            },
            {
              "internalType": "uint32",
              "name": "dstChainSlug",
              "type": "uint32"
            },
            {
              "internalType": "uint128",
              "name": "fees",
              "type": "uint128"
            },
            {
              "internalType": "bytes",
              "name": "signature",
              "type": "bytes"
            },
            {
              "internalType": "bytes4",
              "name": "functionSelector",
              "type": "bytes4"
            }
          ],
          "internalType": "struct SocketBatcher.SetFeesRequest[]",
          "name": "setFeesRequests_",
          "type": "tuple[]"
        }
      ],
      "name": "setTransmissionFeesBatch",
      "outputs": [],
      "stateMutability": "nonpayable",
      "type": "function"
    },
    {
      "inputs": [
        {
          "internalType": "address payable[]",
          "name": "addresses",
          "type": "address[]"
        },
        {
          "internalType": "uint256[]",
          "name": "amounts",
          "type": "uint256[]"
        }
      ],
      "name": "withdrawals",
      "outputs": [],
      "stateMutability": "payable",
      "type": "function"
    }
  ],
  "bytecode": "0x60806040523480156200001157600080fd5b506040516200349338038062003493833981016040819052620000349162000125565b8080620000418162000077565b506200007090507fc4c453d647953c0fd35db5a34ee76e60fb4abc3a8fb891a25936b70b38f2925382620000ca565b5062000157565b600080546001600160a01b0383166001600160a01b0319918216811783556001805490921690915560405190917ffbe19c9b601f5ee90b44c7390f3fa2319eba01762d34ee372aeafd59b25c7f8791a250565b60008281526002602090815260408083206001600160a01b0385168085529252808320805460ff1916600117905551909184917f2ae6a113c0ed5b78a53413ffbb7679881f11145ccfba4fb92e863dfcd5a1d2f39190a35050565b6000602082840312156200013857600080fd5b81516001600160a01b03811681146200015057600080fd5b9392505050565b61332c80620001676000396000f3fe6080604052600436106101955760003560e01c80636e9e1ab9116100e1578063a5c003f71161008a578063d6c19d4b11610064578063d6c19d4b14610470578063f15af7aa14610483578063f7888aec146104a3578063fa98a33f146104d157600080fd5b8063a5c003f714610410578063b59b28ef14610430578063d547741f1461045057600080fd5b80638da5cb5b116100bb5780638da5cb5b1461039557806391d14854146103c0578063a52b55eb146103f057600080fd5b80636e9e1ab914610335578063861a371714610362578063896014451461037557600080fd5b80632f2ff15d116101435780635b94db271161011d5780635b94db27146102d557806363437956146102f55780636ccae0541461031557600080fd5b80632f2ff15d146102805780633bd1adec146102a05780633cfa1bb0146102b557600080fd5b806312337d0f1161017457806312337d0f146101ef5780631d86d44b1461020f57806320f99c0a1461022f57600080fd5b806293ac861461019a57806309e3b0ea146101af57806311478a79146101cf575b600080fd5b6101ad6101a836600461265a565b6104e4565b005b3480156101bb57600080fd5b506101ad6101ca36600461265a565b6104f4565b3480156101db57600080fd5b506101ad6101ea36600461265a565b610641565b3480156101fb57600080fd5b506101ad61020a36600461265a565b610d09565b34801561021b57600080fd5b506101ad61022a36600461265a565b610db9565b34801561023b57600080fd5b5060015473ffffffffffffffffffffffffffffffffffffffff165b60405173ffffffffffffffffffffffffffffffffffffffff90911681526020015b60405180910390f35b34801561028c57600080fd5b506101ad61029b3660046126af565b610dc4565b3480156102ac57600080fd5b506101ad610e23565b3480156102c157600080fd5b506101ad6102d036600461265a565b610e7f565b3480156102e157600080fd5b506101ad6102f03660046126df565b610ffb565b34801561030157600080fd5b506101ad61031036600461265a565b6110bb565b34801561032157600080fd5b506101ad610330366004612703565b6110c6565b34801561034157600080fd5b5061035561035036600461265a565b611169565b6040516102779190612744565b6101ad610370366004612788565b611287565b34801561038157600080fd5b506101ad61039036600461265a565b61147a565b3480156103a157600080fd5b5060005473ffffffffffffffffffffffffffffffffffffffff16610256565b3480156103cc57600080fd5b506103e06103db3660046126af565b611516565b6040519015158152602001610277565b3480156103fc57600080fd5b506101ad61040b366004612833565b611553565b34801561041c57600080fd5b5061035561042b366004612875565b611772565b34801561043c57600080fd5b5061035561044b366004612875565b6118e1565b34801561045c57600080fd5b506101ad61046b3660046126af565b6119f0565b6101ad61047e3660046129e5565b611a4b565b34801561048f57600080fd5b506101ad61049e366004612833565b611b74565b3480156104af57600080fd5b506104c36104be366004612ab2565b611b7e565b604051908152602001610277565b6101ad6104df366004612ae0565b611cde565b6104ef838383611d14565b505050565b8060005b8181101561063a578473ffffffffffffffffffffffffffffffffffffffff16637348746b85858481811061052e5761052e612bb9565b90506020028101906105409190612be8565b3586868581811061055357610553612bb9565b90506020028101906105659190612be8565b610576906040810190602001612c26565b87878681811061058857610588612bb9565b905060200281019061059a9190612be8565b6105ab906060810190604001612c4c565b8888878181106105bd576105bd612bb9565b90506020028101906105cf9190612be8565b6105dd906060810190612c7e565b6040518663ffffffff1660e01b81526004016105fd959493929190612d2c565b600060405180830381600087803b15801561061757600080fd5b505af115801561062b573d6000803e3d6000fd5b505050508060010190506104f8565b5050505050565b8060005b8181101561063a577f9f4ad32e0000000000000000000000000000000000000000000000000000000084848381811061068057610680612bb9565b90506020028101906106929190612be8565b6106a39060a0810190608001612d75565b7fffffffff0000000000000000000000000000000000000000000000000000000016036107fa578473ffffffffffffffffffffffffffffffffffffffff16639f4ad32e8585848181106106f8576106f8612bb9565b905060200281019061070a9190612be8565b3586868581811061071d5761071d612bb9565b905060200281019061072f9190612be8565b610740906040810190602001612c26565b87878681811061075257610752612bb9565b90506020028101906107649190612be8565b610775906060810190604001612c4c565b88888781811061078757610787612bb9565b90506020028101906107999190612be8565b6107a7906060810190612c7e565b6040518663ffffffff1660e01b81526004016107c7959493929190612d2c565b600060405180830381600087803b1580156107e157600080fd5b505af11580156107f5573d6000803e3d6000fd5b505050505b7f9f1028550000000000000000000000000000000000000000000000000000000084848381811061082d5761082d612bb9565b905060200281019061083f9190612be8565b6108509060a0810190608001612d75565b7fffffffff0000000000000000000000000000000000000000000000000000000016036109a7578473ffffffffffffffffffffffffffffffffffffffff16639f1028558585848181106108a5576108a5612bb9565b90506020028101906108b79190612be8565b358686858181106108ca576108ca612bb9565b90506020028101906108dc9190612be8565b6108ed906040810190602001612c26565b8787868181106108ff576108ff612bb9565b90506020028101906109119190612be8565b610922906060810190604001612c4c565b88888781811061093457610934612bb9565b90506020028101906109469190612be8565b610954906060810190612c7e565b6040518663ffffffff1660e01b8152600401610974959493929190612d2c565b600060405180830381600087803b15801561098e57600080fd5b505af11580156109a2573d6000803e3d6000fd5b505050505b7fa1885700000000000000000000000000000000000000000000000000000000008484838181106109da576109da612bb9565b90506020028101906109ec9190612be8565b6109fd9060a0810190608001612d75565b7fffffffff000000000000000000000000000000000000000000000000000000001603610b54578473ffffffffffffffffffffffffffffffffffffffff1663a1885700858584818110610a5257610a52612bb9565b9050602002810190610a649190612be8565b35868685818110610a7757610a77612bb9565b9050602002810190610a899190612be8565b610a9a906040810190602001612c26565b878786818110610aac57610aac612bb9565b9050602002810190610abe9190612be8565b610acf906060810190604001612c4c565b888887818110610ae157610ae1612bb9565b9050602002810190610af39190612be8565b610b01906060810190612c7e565b6040518663ffffffff1660e01b8152600401610b21959493929190612d2c565b600060405180830381600087803b158015610b3b57600080fd5b505af1158015610b4f573d6000803e3d6000fd5b505050505b7f308795b200000000000000000000000000000000000000000000000000000000848483818110610b8757610b87612bb9565b9050602002810190610b999190612be8565b610baa9060a0810190608001612d75565b7fffffffff000000000000000000000000000000000000000000000000000000001603610d01578473ffffffffffffffffffffffffffffffffffffffff1663308795b2858584818110610bff57610bff612bb9565b9050602002810190610c119190612be8565b35868685818110610c2457610c24612bb9565b9050602002810190610c369190612be8565b610c47906040810190602001612c26565b878786818110610c5957610c59612bb9565b9050602002810190610c6b9190612be8565b610c7c906060810190604001612c4c565b888887818110610c8e57610c8e612bb9565b9050602002810190610ca09190612be8565b610cae906060810190612c7e565b6040518663ffffffff1660e01b8152600401610cce959493929190612d2c565b600060405180830381600087803b158015610ce857600080fd5b505af1158015610cfc573d6000803e3d6000fd5b505050505b600101610645565b8060005b8181101561063a578473ffffffffffffffffffffffffffffffffffffffff1663f953cec7858584818110610d4357610d43612bb9565b9050602002810190610d559190612db7565b610d5f9080612c7e565b6040518363ffffffff1660e01b8152600401610d7c929190612deb565b600060405180830381600087803b158015610d9657600080fd5b505af1158015610daa573d6000803e3d6000fd5b50505050806001019050610d0d565b6104ef838383611e8b565b60005473ffffffffffffffffffffffffffffffffffffffff163314610e15576040517f5fc483c500000000000000000000000000000000000000000000000000000000815260040160405180910390fd5b610e1f8282611f9b565b5050565b60015473ffffffffffffffffffffffffffffffffffffffff163314610e74576040517f7c91ccdd00000000000000000000000000000000000000000000000000000000815260040160405180910390fd5b610e7d33612021565b565b8060005b8181101561063a578473ffffffffffffffffffffffffffffffffffffffff1663f22b460e858584818110610eb957610eb9612bb9565b9050602002810190610ecb9190612be8565b35868685818110610ede57610ede612bb9565b9050602002810190610ef09190612be8565b610f01906040810190602001612c26565b878786818110610f1357610f13612bb9565b9050602002810190610f259190612be8565b610f36906060810190604001612c4c565b888887818110610f4857610f48612bb9565b9050602002810190610f5a9190612be8565b610f6b906080810190606001612c4c565b898988818110610f7d57610f7d612bb9565b9050602002810190610f8f9190612be8565b610f9d906080810190612c7e565b6040518763ffffffff1660e01b8152600401610fbe96959493929190612e07565b600060405180830381600087803b158015610fd857600080fd5b505af1158015610fec573d6000803e3d6000fd5b50505050806001019050610e83565b60005473ffffffffffffffffffffffffffffffffffffffff16331461104c576040517f5fc483c500000000000000000000000000000000000000000000000000000000815260040160405180910390fd5b600180547fffffffffffffffffffffffff00000000000000000000000000000000000000001673ffffffffffffffffffffffffffffffffffffffff83169081179091556040517f906a1c6bd7e3091ea86693dd029a831c19049ce77f1dce2ce0bab1cacbabce2290600090a250565b6104ef838383612099565b3360009081527f4933f7bec34ee32db93e9f5cd7e0519781b395282211f4f6857489046ea38f7660205260409020547fc4c453d647953c0fd35db5a34ee76e60fb4abc3a8fb891a25936b70b38f292539060ff16611158576040517f962f6333000000000000000000000000000000000000000000000000000000008152600481018290526024015b60405180910390fd5b6111638484846121d2565b50505050565b60608160008167ffffffffffffffff811115611187576111876128e1565b6040519080825280602002602001820160405280156111b0578160200160208202803683370190505b50905060005b8281101561127d5760008773ffffffffffffffffffffffffffffffffffffffff166379cfc0068888858181106111ee576111ee612bb9565b905060200201356040518263ffffffff1660e01b815260040161121391815260200190565b602060405180830381865afa158015611230573d6000803e3d6000fd5b505050506040513d601f19601f820116820180604052508101906112549190612e5b565b90508083838151811061126957611269612bb9565b6020908102919091010152506001016111b6565b5095945050505050565b803460005b82811015611413578484828181106112a6576112a6612bb9565b905060a0020160800135826112bb9190612ea3565b91508773ffffffffffffffffffffffffffffffffffffffff1663190d5e4d8686848181106112eb576112eb612bb9565b905060a002016080013587878581811061130757611307612bb9565b905060a002016000013588888681811061132357611323612bb9565b905060a002016020013589898781811061133f5761133f612bb9565b905060a00201604001358a8a8881811061135b5761135b612bb9565b6040517fffffffff0000000000000000000000000000000000000000000000000000000060e08a901b16815260048101969096526024860194909452506044840191909152606060a0909202010135606482015273ffffffffffffffffffffffffffffffffffffffff808c1660848301528a1660a482015260c4016000604051808303818588803b1580156113ef57600080fd5b505af1158015611403573d6000803e3d6000fd5b505050505080600101905061128c565b5080156114715773ffffffffffffffffffffffffffffffffffffffff8616611467576040517fd92e233d00000000000000000000000000000000000000000000000000000000815260040160405180910390fd5b61147186826122c2565b50505050505050565b8060005b8181101561063a578473ffffffffffffffffffffffffffffffffffffffff1663a9a599e08585848181106114b4576114b4612bb9565b905060200201356040518263ffffffff1660e01b81526004016114d991815260200190565b600060405180830381600087803b1580156114f357600080fd5b505af1158015611507573d6000803e3d6000fd5b5050505080600101905061147e565b600082815260026020908152604080832073ffffffffffffffffffffffffffffffffffffffff8516845290915281205460ff165b90505b92915050565b8060005b818110156111635783838281811061157157611571612bb9565b90506020028101906115839190612be8565b6115919060208101906126df565b73ffffffffffffffffffffffffffffffffffffffff166389ee87558585848181106115be576115be612bb9565b90506020028101906115d09190612be8565b602001358686858181106115e6576115e6612bb9565b90506020028101906115f89190612be8565b6040013587878681811061160e5761160e612bb9565b90506020028101906116209190612be8565b6060013588888781811061163657611636612bb9565b90506020028101906116489190612be8565b611656906080810190612c7e565b6040518663ffffffff1660e01b8152600401611676959493929190612eb6565b600060405180830381600087803b15801561169057600080fd5b505af19250505080156116a1575060015b61176a576116ad612edc565b806308c379a00361170957506116c1612ef8565b806116cc575061170b565b7f3f3d95f05f600551a08f68e59143bde093cf93527273b87a2d85d88cc684bea0816040516116fb9190613004565b60405180910390a15061176a565b505b3d808015611735576040519150601f19603f3d011682016040523d82523d6000602084013e61173a565b606091505b507fbda109f4d5e5950ba8c4893817cda7a795c8ba5442b23e81f382f76f8d3a1ac3816040516116fb9190613004565b600101611557565b60608360008167ffffffffffffffff811115611790576117906128e1565b6040519080825280602002602001820160405280156117b9578160200160208202803683370190505b50905060005b828110156118d6578787828181106117d9576117d9612bb9565b90506020020160208101906117ee91906126df565b73ffffffffffffffffffffffffffffffffffffffff1663d1af313c87878481811061181b5761181b612bb9565b90506020020160208101906118309190613017565b6040517fffffffff0000000000000000000000000000000000000000000000000000000060e084901b16815267ffffffffffffffff9091166004820152602401602060405180830381865afa15801561188d573d6000803e3d6000fd5b505050506040513d601f19601f820116820180604052508101906118b19190612e5b565b8282815181106118c3576118c3612bb9565b60209081029190910101526001016117bf565b509695505050505050565b606060006118ef8386613041565b67ffffffffffffffff811115611907576119076128e1565b604051908082528060200260200182016040528015611930578160200160208202803683370190505b50905060005b8581101561127d5760005b848110156119dd5761199a88888481811061195e5761195e612bb9565b905060200201602081019061197391906126df565b87878481811061198557611985612bb9565b90506020020160208101906104be91906126df565b83826119a68886613041565b6119b09190613058565b815181106119c0576119c0612bb9565b6020908102919091010152806119d58161306b565b915050611941565b50806119e88161306b565b915050611936565b60005473ffffffffffffffffffffffffffffffffffffffff163314611a41576040517f5fc483c500000000000000000000000000000000000000000000000000000000815260040160405180910390fd5b610e1f8282612337565b6000805b8351811015611b0a57828181518110611a6a57611a6a612bb9565b602002602001015182611a7d9190613058565b9150838181518110611a9157611a91612bb9565b602002602001015173ffffffffffffffffffffffffffffffffffffffff166108fc848381518110611ac457611ac4612bb9565b60200260200101519081150290604051600060405180830381858888f19350505050158015611af7573d6000803e3d6000fd5b5080611b028161306b565b915050611a4f565b503481146104ef576040517f08c379a000000000000000000000000000000000000000000000000000000000815260206004820152600d60248201527f4c4f575f4d53475f56414c554500000000000000000000000000000000000000604482015260640161114f565b610e1f82826123ba565b60007fffffffffffffffffffffffff111111111111111111111111111111111111111273ffffffffffffffffffffffffffffffffffffffff831601611bdb575073ffffffffffffffffffffffffffffffffffffffff82163161154d565b813b8015611c7b576040517f70a0823100000000000000000000000000000000000000000000000000000000815273ffffffffffffffffffffffffffffffffffffffff85811660048301528416906370a0823190602401602060405180830381865afa158015611c4f573d6000803e3d6000fd5b505050506040513d601f19601f82011682018060405250810190611c739190612e5b565b91505061154d565b506040517f08c379a000000000000000000000000000000000000000000000000000000000815260206004820152600d60248201527f494e56414c49445f544f4b454e00000000000000000000000000000000000000604482015260640161114f565b611ce9898989611e8b565b611cf4898787612099565b611cfe84846123ba565b611d09898383611d14565b505050505050505050565b803460005b82811015611e7a576000858583818110611d3557611d35612bb9565b9050602002810190611d4791906130a3565b611d55906020810190612be8565b60600135905060f881901c7effffffffffffffffffffffffffffffffffffffffffffffffffffffffffffff82166000829003611d9357506000611da0565b611d9d8186612ea3565b94505b8873ffffffffffffffffffffffffffffffffffffffff1663275c41c9828a8a88818110611dcf57611dcf612bb9565b9050602002810190611de191906130a3565b611deb9080612be8565b8b8b89818110611dfd57611dfd612bb9565b9050602002810190611e0f91906130a3565b611e1d906020810190612be8565b6040518463ffffffff1660e01b8152600401611e3a92919061313b565b6000604051808303818588803b158015611e5357600080fd5b505af1158015611e67573d6000803e3d6000fd5b5050505050836001019350505050611d19565b50801561063a5761063a33826122c2565b8060005b8181101561063a578473ffffffffffffffffffffffffffffffffffffffff1663c85ce325858584818110611ec557611ec5612bb9565b9050602002810190611ed79190613212565b35868685818110611eea57611eea612bb9565b9050602002810190611efc9190613212565b611f0d9060408101906020016126df565b878786818110611f1f57611f1f612bb9565b9050602002810190611f319190613212565b611f3f906040810190612c7e565b6040518563ffffffff1660e01b8152600401611f5e9493929190613246565b600060405180830381600087803b158015611f7857600080fd5b505af1158015611f8c573d6000803e3d6000fd5b50505050806001019050611e8f565b600082815260026020908152604080832073ffffffffffffffffffffffffffffffffffffffff8516808552925280832080547fffffffffffffffffffffffffffffffffffffffffffffffffffffffffffffff0016600117905551909184917f2ae6a113c0ed5b78a53413ffbb7679881f11145ccfba4fb92e863dfcd5a1d2f39190a35050565b6000805473ffffffffffffffffffffffffffffffffffffffff83167fffffffffffffffffffffffff0000000000000000000000000000000000000000918216811783556001805490921690915560405190917ffbe19c9b601f5ee90b44c7390f3fa2319eba01762d34ee372aeafd59b25c7f8791a250565b8060005b8181101561063a578473ffffffffffffffffffffffffffffffffffffffff1663dc3098638585848181106120d3576120d3612bb9565b90506020028101906120e59190613286565b358686858181106120f8576120f8612bb9565b905060200281019061210a9190613286565b6020013587878681811061212057612120612bb9565b90506020028101906121329190613286565b6121439060608101906040016126df565b88888781811061215557612155612bb9565b90506020028101906121679190613286565b612175906060810190612c7e565b6040518663ffffffff1660e01b81526004016121959594939291906132ba565b600060405180830381600087803b1580156121af57600080fd5b505af11580156121c3573d6000803e3d6000fd5b5050505080600101905061209d565b73ffffffffffffffffffffffffffffffffffffffff821661221f576040517fd92e233d00000000000000000000000000000000000000000000000000000000815260040160405180910390fd5b7fffffffffffffffffffffffff111111111111111111111111111111111111111273ffffffffffffffffffffffffffffffffffffffff841601612266576104ef82826122c2565b8273ffffffffffffffffffffffffffffffffffffffff163b6000036122b7576040517f1eb00b0600000000000000000000000000000000000000000000000000000000815260040160405180910390fd5b6104ef83838361251a565b600080600080600085875af19050806104ef576040517f08c379a000000000000000000000000000000000000000000000000000000000815260206004820152601360248201527f4554485f5452414e534645525f4641494c454400000000000000000000000000604482015260640161114f565b600082815260026020908152604080832073ffffffffffffffffffffffffffffffffffffffff8516808552925280832080547fffffffffffffffffffffffffffffffffffffffffffffffffffffffffffffff0016905551909184917f155aaafb6329a2098580462df33ec4b7441b19729b9601c5fc17ae1cf99a8a529190a35050565b8060005b81811015611163578383828181106123d8576123d8612bb9565b90506020028101906123ea9190612be8565b6123f89060208101906126df565b73ffffffffffffffffffffffffffffffffffffffff1663d2883fbe85858481811061242557612425612bb9565b90506020028101906124379190612be8565b6020013586868581811061244d5761244d612bb9565b905060200281019061245f9190612be8565b6040013587878681811061247557612475612bb9565b90506020028101906124879190612be8565b6060013588888781811061249d5761249d612bb9565b90506020028101906124af9190612be8565b6124bd906080810190612c7e565b6040518663ffffffff1660e01b81526004016124dd959493929190612eb6565b600060405180830381600087803b1580156124f757600080fd5b505af115801561250b573d6000803e3d6000fd5b505050508060010190506123be565b60006040517fa9059cbb00000000000000000000000000000000000000000000000000000000815273ffffffffffffffffffffffffffffffffffffffff84166004820152826024820152602060006044836000895af13d15601f3d1160016000511416171691505080611163576040517f08c379a000000000000000000000000000000000000000000000000000000000815260206004820152600f60248201527f5452414e534645525f4641494c45440000000000000000000000000000000000604482015260640161114f565b73ffffffffffffffffffffffffffffffffffffffff8116811461260b57600080fd5b50565b60008083601f84011261262057600080fd5b50813567ffffffffffffffff81111561263857600080fd5b6020830191508360208260051b850101111561265357600080fd5b9250929050565b60008060006040848603121561266f57600080fd5b833561267a816125e9565b9250602084013567ffffffffffffffff81111561269657600080fd5b6126a28682870161260e565b9497909650939450505050565b600080604083850312156126c257600080fd5b8235915060208301356126d4816125e9565b809150509250929050565b6000602082840312156126f157600080fd5b81356126fc816125e9565b9392505050565b60008060006060848603121561271857600080fd5b8335612723816125e9565b92506020840135612733816125e9565b929592945050506040919091013590565b6020808252825182820181905260009190848201906040850190845b8181101561277c57835183529284019291840191600101612760565b50909695505050505050565b6000806000806000608086880312156127a057600080fd5b85356127ab816125e9565b945060208601356127bb816125e9565b935060408601356127cb816125e9565b9250606086013567ffffffffffffffff808211156127e857600080fd5b818801915088601f8301126127fc57600080fd5b81358181111561280b57600080fd5b89602060a08302850101111561282057600080fd5b9699959850939650602001949392505050565b6000806020838503121561284657600080fd5b823567ffffffffffffffff81111561285d57600080fd5b6128698582860161260e565b90969095509350505050565b6000806000806040858703121561288b57600080fd5b843567ffffffffffffffff808211156128a357600080fd5b6128af8883890161260e565b909650945060208701359150808211156128c857600080fd5b506128d58782880161260e565b95989497509550505050565b7f4e487b7100000000000000000000000000000000000000000000000000000000600052604160045260246000fd5b7fffffffffffffffffffffffffffffffffffffffffffffffffffffffffffffffe0601f830116810181811067ffffffffffffffff82111715612954576129546128e1565b6040525050565b600067ffffffffffffffff821115612975576129756128e1565b5060051b60200190565b600082601f83011261299057600080fd5b8135602061299d8261295b565b6040516129aa8282612910565b83815260059390931b85018201928281019150868411156129ca57600080fd5b8286015b848110156118d657803583529183019183016129ce565b600080604083850312156129f857600080fd5b823567ffffffffffffffff80821115612a1057600080fd5b818501915085601f830112612a2457600080fd5b81356020612a318261295b565b604051612a3e8282612910565b83815260059390931b8501820192828101915089841115612a5e57600080fd5b948201945b83861015612a85578535612a76816125e9565b82529482019490820190612a63565b96505086013592505080821115612a9b57600080fd5b50612aa88582860161297f565b9150509250929050565b60008060408385031215612ac557600080fd5b8235612ad0816125e9565b915060208301356126d4816125e9565b600080600080600080600080600060a08a8c031215612afe57600080fd5b8935612b09816125e9565b985060208a013567ffffffffffffffff80821115612b2657600080fd5b612b328d838e0161260e565b909a50985060408c0135915080821115612b4b57600080fd5b612b578d838e0161260e565b909850965060608c0135915080821115612b7057600080fd5b612b7c8d838e0161260e565b909650945060808c0135915080821115612b9557600080fd5b50612ba28c828d0161260e565b915080935050809150509295985092959850929598565b7f4e487b7100000000000000000000000000000000000000000000000000000000600052603260045260246000fd5b600082357fffffffffffffffffffffffffffffffffffffffffffffffffffffffffffffff61833603018112612c1c57600080fd5b9190910192915050565b600060208284031215612c3857600080fd5b813563ffffffff811681146126fc57600080fd5b600060208284031215612c5e57600080fd5b81356fffffffffffffffffffffffffffffffff811681146126fc57600080fd5b60008083357fffffffffffffffffffffffffffffffffffffffffffffffffffffffffffffffe1843603018112612cb357600080fd5b83018035915067ffffffffffffffff821115612cce57600080fd5b60200191503681900382131561265357600080fd5b8183528181602085013750600060208284010152600060207fffffffffffffffffffffffffffffffffffffffffffffffffffffffffffffffe0601f840116840101905092915050565b85815263ffffffff851660208201526fffffffffffffffffffffffffffffffff84166040820152608060608201526000612d6a608083018486612ce3565b979650505050505050565b600060208284031215612d8757600080fd5b81357fffffffff00000000000000000000000000000000000000000000000000000000811681146126fc57600080fd5b600082357fffffffffffffffffffffffffffffffffffffffffffffffffffffffffffffffe1833603018112612c1c57600080fd5b602081526000612dff602083018486612ce3565b949350505050565b86815263ffffffff8616602082015260006fffffffffffffffffffffffffffffffff808716604084015280861660608401525060a06080830152612e4f60a083018486612ce3565b98975050505050505050565b600060208284031215612e6d57600080fd5b5051919050565b7f4e487b7100000000000000000000000000000000000000000000000000000000600052601160045260246000fd5b8181038181111561154d5761154d612e74565b858152846020820152836040820152608060608201526000612d6a608083018486612ce3565b600060033d1115612ef55760046000803e5060005160e01c5b90565b600060443d1015612f065790565b6040517ffffffffffffffffffffffffffffffffffffffffffffffffffffffffffffffffc803d016004833e81513d67ffffffffffffffff8160248401118184111715612f5457505050505090565b8285019150815181811115612f6c5750505050505090565b843d8701016020828501011115612f865750505050505090565b612f9560208286010187612910565b509095945050505050565b6000815180845260005b81811015612fc657602081850181015186830182015201612faa565b5060006020828601015260207fffffffffffffffffffffffffffffffffffffffffffffffffffffffffffffffe0601f83011685010191505092915050565b60208152600061154a6020830184612fa0565b60006020828403121561302957600080fd5b813567ffffffffffffffff811681146126fc57600080fd5b808202811582820484141761154d5761154d612e74565b8082018082111561154d5761154d612e74565b60007fffffffffffffffffffffffffffffffffffffffffffffffffffffffffffffffff820361309c5761309c612e74565b5060010190565b600082357fffffffffffffffffffffffffffffffffffffffffffffffffffffffffffffffc1833603018112612c1c57600080fd5b60008083357fffffffffffffffffffffffffffffffffffffffffffffffffffffffffffffffe184360301811261310c57600080fd5b830160208101925035905067ffffffffffffffff81111561312c57600080fd5b80360382131561265357600080fd5b60408152823560408201526020830135606082015260408301356080820152600061316960608501856130d7565b60a08085015261317d60e085018284612ce3565b91505061318d60808601866130d7565b7fffffffffffffffffffffffffffffffffffffffffffffffffffffffffffffffc08584030160c08601526131c2838284612ce3565b925050508281036020840152833581526020840135602082015260408401356040820152606084013560608201526131fd60808501856130d7565b60a06080840152612d6a60a084018284612ce3565b600082357fffffffffffffffffffffffffffffffffffffffffffffffffffffffffffffffa1833603018112612c1c57600080fd5b84815273ffffffffffffffffffffffffffffffffffffffff8416602082015260606040820152600061327c606083018486612ce3565b9695505050505050565b600082357fffffffffffffffffffffffffffffffffffffffffffffffffffffffffffffff81833603018112612c1c57600080fd5b85815284602082015273ffffffffffffffffffffffffffffffffffffffff84166040820152608060608201526000612d6a608083018486612ce356fea2646970667358221220e3ff9a085e2cb512c7f28b3acfaeaa045c71af812acf9070c4b1fd57b97841d364736f6c63430008130033",
  "linkReferences": {},
  "deployedLinkReferences": {}
}