{
  "_format": "hh-sol-artifact-1",
  "contractName": "ArbitrumL2Switchboard",
  "sourceName": "contracts/switchboard/native/ArbitrumL2Switchboard.sol",
  "abi": [
    {
      "inputs": [
        {
          "internalType": "uint32",
          "name": "chainSlug_",
          "type": "uint32"
        },
        {
          "internalType": "address",
          "name": "owner_",
          "type": "address"
        },
        {
          "internalType": "address",
          "name": "socket_",
          "type": "address"
        },
        {
          "internalType": "contract ISignatureVerifier",
          "name": "signatureVerifier_",
          "type": "address"
        }
      ],
      "stateMutability": "nonpayable",
      "type": "constructor"
    },
    {
      "inputs": [],
      "name": "AlreadyInitialized",
      "type": "error"
    },
    {
      "inputs": [],
      "name": "FeesNotEnough",
      "type": "error"
    },
    {
      "inputs": [],
      "name": "InvalidNonce",
      "type": "error"
    },
    {
      "inputs": [],
      "name": "InvalidSender",
      "type": "error"
    },
    {
      "inputs": [],
      "name": "InvalidTokenAddress",
      "type": "error"
    },
    {
      "inputs": [
        {
          "internalType": "bytes32",
          "name": "role",
          "type": "bytes32"
        }
      ],
      "name": "NoPermit",
      "type": "error"
    },
    {
      "inputs": [],
      "name": "NoRootFound",
      "type": "error"
    },
    {
      "inputs": [],
      "name": "OnlyExecutionManager",
      "type": "error"
    },
    {
      "inputs": [],
      "name": "OnlyNominee",
      "type": "error"
    },
    {
      "inputs": [],
      "name": "OnlyOwner",
      "type": "error"
    },
    {
      "inputs": [],
      "name": "UnequalArrayLengths",
      "type": "error"
    },
    {
      "inputs": [],
      "name": "ZeroAddress",
      "type": "error"
    },
    {
      "anonymous": false,
      "inputs": [
        {
          "indexed": false,
          "internalType": "bool",
          "name": "isGlobalTipped",
          "type": "bool"
        }
      ],
      "name": "GlobalTripChanged",
      "type": "event"
    },
    {
      "anonymous": false,
      "inputs": [
        {
          "indexed": false,
          "internalType": "bytes32",
          "name": "packetId",
          "type": "bytes32"
        }
      ],
      "name": "InitiatedNativeConfirmation",
      "type": "event"
    },
    {
      "anonymous": false,
      "inputs": [
        {
          "indexed": true,
          "internalType": "address",
          "name": "claimer",
          "type": "address"
        }
      ],
      "name": "OwnerClaimed",
      "type": "event"
    },
    {
      "anonymous": false,
      "inputs": [
        {
          "indexed": true,
          "internalType": "address",
          "name": "nominee",
          "type": "address"
        }
      ],
      "name": "OwnerNominated",
      "type": "event"
    },
    {
      "anonymous": false,
      "inputs": [
        {
          "indexed": true,
          "internalType": "bytes32",
          "name": "role",
          "type": "bytes32"
        },
        {
          "indexed": true,
          "internalType": "address",
          "name": "grantee",
          "type": "address"
        }
      ],
      "name": "RoleGranted",
      "type": "event"
    },
    {
      "anonymous": false,
      "inputs": [
        {
          "indexed": true,
          "internalType": "bytes32",
          "name": "role",
          "type": "bytes32"
        },
        {
          "indexed": true,
          "internalType": "address",
          "name": "revokee",
          "type": "address"
        }
      ],
      "name": "RoleRevoked",
      "type": "event"
    },
    {
      "anonymous": false,
      "inputs": [
        {
          "indexed": false,
          "internalType": "bytes32",
          "name": "packetId",
          "type": "bytes32"
        },
        {
          "indexed": false,
          "internalType": "bytes32",
          "name": "root",
          "type": "bytes32"
        }
      ],
      "name": "RootReceived",
      "type": "event"
    },
    {
      "anonymous": false,
      "inputs": [
        {
          "indexed": false,
          "internalType": "uint256",
          "name": "switchboardFees",
          "type": "uint256"
        },
        {
          "indexed": false,
          "internalType": "uint256",
          "name": "verificationOverheadFees",
          "type": "uint256"
        }
      ],
      "name": "SwitchboardFeesSet",
      "type": "event"
    },
    {
      "anonymous": false,
      "inputs": [
        {
          "indexed": false,
          "internalType": "address",
          "name": "remoteNativeSwitchboard",
          "type": "address"
        }
      ],
      "name": "UpdatedRemoteNativeSwitchboard",
      "type": "event"
    },
    {
      "inputs": [
        {
          "internalType": "bytes32",
          "name": "root_",
          "type": "bytes32"
        },
        {
          "internalType": "bytes32",
          "name": "packetId_",
          "type": "bytes32"
        },
        {
          "internalType": "uint256",
          "name": "",
          "type": "uint256"
        },
        {
          "internalType": "uint32",
          "name": "",
          "type": "uint32"
        },
        {
          "internalType": "uint256",
          "name": "",
          "type": "uint256"
        }
      ],
      "name": "allowPacket",
      "outputs": [
        {
          "internalType": "bool",
          "name": "",
          "type": "bool"
        }
      ],
      "stateMutability": "view",
      "type": "function"
    },
    {
      "inputs": [],
      "name": "arbsys__",
      "outputs": [
        {
          "internalType": "contract IArbSys",
          "name": "",
          "type": "address"
        }
      ],
      "stateMutability": "view",
      "type": "function"
    },
    {
      "inputs": [],
      "name": "capacitor__",
      "outputs": [
        {
          "internalType": "contract ICapacitor",
          "name": "",
          "type": "address"
        }
      ],
      "stateMutability": "view",
      "type": "function"
    },
    {
      "inputs": [],
      "name": "chainSlug",
      "outputs": [
        {
          "internalType": "uint32",
          "name": "",
          "type": "uint32"
        }
      ],
      "stateMutability": "view",
      "type": "function"
    },
    {
      "inputs": [],
      "name": "claimOwner",
      "outputs": [],
      "stateMutability": "nonpayable",
      "type": "function"
    },
    {
      "inputs": [
        {
          "internalType": "uint32",
          "name": "",
          "type": "uint32"
        }
      ],
      "name": "getMinFees",
      "outputs": [
        {
          "internalType": "uint128",
          "name": "switchboardFee_",
          "type": "uint128"
        },
        {
          "internalType": "uint128",
          "name": "verificationFee_",
          "type": "uint128"
        }
      ],
      "stateMutability": "view",
      "type": "function"
    },
    {
      "inputs": [
        {
          "internalType": "bytes32[]",
          "name": "roleNames_",
          "type": "bytes32[]"
        },
        {
          "internalType": "uint32[]",
          "name": "slugs_",
          "type": "uint32[]"
        },
        {
          "internalType": "address[]",
          "name": "grantees_",
          "type": "address[]"
        }
      ],
      "name": "grantBatchRole",
      "outputs": [],
      "stateMutability": "nonpayable",
      "type": "function"
    },
    {
      "inputs": [
        {
          "internalType": "bytes32",
          "name": "role_",
          "type": "bytes32"
        },
        {
          "internalType": "address",
          "name": "grantee_",
          "type": "address"
        }
      ],
      "name": "grantRole",
      "outputs": [],
      "stateMutability": "nonpayable",
      "type": "function"
    },
    {
      "inputs": [
        {
          "internalType": "bytes32",
          "name": "roleName_",
          "type": "bytes32"
        },
        {
          "internalType": "uint32",
          "name": "chainSlug_",
          "type": "uint32"
        },
        {
          "internalType": "address",
          "name": "grantee_",
          "type": "address"
        }
      ],
      "name": "grantRoleWithSlug",
      "outputs": [],
      "stateMutability": "nonpayable",
      "type": "function"
    },
    {
      "inputs": [
        {
          "internalType": "bytes32",
          "name": "role_",
          "type": "bytes32"
        },
        {
          "internalType": "address",
          "name": "address_",
          "type": "address"
        }
      ],
      "name": "hasRole",
      "outputs": [
        {
          "internalType": "bool",
          "name": "",
          "type": "bool"
        }
      ],
      "stateMutability": "view",
      "type": "function"
    },
    {
      "inputs": [
        {
          "internalType": "bytes32",
          "name": "roleName_",
          "type": "bytes32"
        },
        {
          "internalType": "uint32",
          "name": "chainSlug_",
          "type": "uint32"
        },
        {
          "internalType": "address",
          "name": "address_",
          "type": "address"
        }
      ],
      "name": "hasRoleWithSlug",
      "outputs": [
        {
          "internalType": "bool",
          "name": "",
          "type": "bool"
        }
      ],
      "stateMutability": "view",
      "type": "function"
    },
    {
      "inputs": [
        {
          "internalType": "bytes32",
          "name": "packetId_",
          "type": "bytes32"
        }
      ],
      "name": "initiateNativeConfirmation",
      "outputs": [],
      "stateMutability": "nonpayable",
      "type": "function"
    },
    {
      "inputs": [],
      "name": "isGlobalTipped",
      "outputs": [
        {
          "internalType": "bool",
          "name": "",
          "type": "bool"
        }
      ],
      "stateMutability": "view",
      "type": "function"
    },
    {
      "inputs": [],
      "name": "isInitialized",
      "outputs": [
        {
          "internalType": "bool",
          "name": "",
          "type": "bool"
        }
      ],
      "stateMutability": "view",
      "type": "function"
    },
    {
      "inputs": [
        {
          "internalType": "address",
          "name": "",
          "type": "address"
        }
      ],
      "name": "nextNonce",
      "outputs": [
        {
          "internalType": "uint256",
          "name": "",
          "type": "uint256"
        }
      ],
      "stateMutability": "view",
      "type": "function"
    },
    {
      "inputs": [
        {
          "internalType": "address",
          "name": "nominee_",
          "type": "address"
        }
      ],
      "name": "nominateOwner",
      "outputs": [],
      "stateMutability": "nonpayable",
      "type": "function"
    },
    {
      "inputs": [],
      "name": "nominee",
      "outputs": [
        {
          "internalType": "address",
          "name": "",
          "type": "address"
        }
      ],
      "stateMutability": "view",
      "type": "function"
    },
    {
      "inputs": [],
      "name": "owner",
      "outputs": [
        {
          "internalType": "address",
          "name": "",
          "type": "address"
        }
      ],
      "stateMutability": "view",
      "type": "function"
    },
    {
      "inputs": [
        {
          "internalType": "bytes32",
          "name": "",
          "type": "bytes32"
        }
      ],
      "name": "packetIdToRoot",
      "outputs": [
        {
          "internalType": "bytes32",
          "name": "",
          "type": "bytes32"
        }
      ],
      "stateMutability": "view",
      "type": "function"
    },
    {
      "inputs": [
        {
          "internalType": "uint32",
          "name": "",
          "type": "uint32"
        }
      ],
      "name": "receiveFees",
      "outputs": [],
      "stateMutability": "payable",
      "type": "function"
    },
    {
      "inputs": [
        {
          "internalType": "bytes32",
          "name": "packetId_",
          "type": "bytes32"
        },
        {
          "internalType": "bytes32",
          "name": "root_",
          "type": "bytes32"
        }
      ],
      "name": "receivePacket",
      "outputs": [],
      "stateMutability": "nonpayable",
      "type": "function"
    },
    {
      "inputs": [
        {
          "internalType": "uint32",
          "name": "siblingChainSlug_",
          "type": "uint32"
        },
        {
          "internalType": "uint256",
          "name": "maxPacketLength_",
          "type": "uint256"
        },
        {
          "internalType": "uint256",
          "name": "capacitorType_",
          "type": "uint256"
        },
        {
          "internalType": "uint256",
          "name": "initialPacketCount_",
          "type": "uint256"
        },
        {
          "internalType": "address",
          "name": "remoteNativeSwitchboard_",
          "type": "address"
        }
      ],
      "name": "registerSiblingSlug",
      "outputs": [],
      "stateMutability": "nonpayable",
      "type": "function"
    },
    {
      "inputs": [],
      "name": "remoteNativeSwitchboard",
      "outputs": [
        {
          "internalType": "address",
          "name": "",
          "type": "address"
        }
      ],
      "stateMutability": "view",
      "type": "function"
    },
    {
      "inputs": [
        {
          "internalType": "address",
          "name": "token_",
          "type": "address"
        },
        {
          "internalType": "address",
          "name": "rescueTo_",
          "type": "address"
        },
        {
          "internalType": "uint256",
          "name": "amount_",
          "type": "uint256"
        }
      ],
      "name": "rescueFunds",
      "outputs": [],
      "stateMutability": "nonpayable",
      "type": "function"
    },
    {
      "inputs": [
        {
          "internalType": "bytes32[]",
          "name": "roleNames_",
          "type": "bytes32[]"
        },
        {
          "internalType": "uint32[]",
          "name": "slugs_",
          "type": "uint32[]"
        },
        {
          "internalType": "address[]",
          "name": "grantees_",
          "type": "address[]"
        }
      ],
      "name": "revokeBatchRole",
      "outputs": [],
      "stateMutability": "nonpayable",
      "type": "function"
    },
    {
      "inputs": [
        {
          "internalType": "bytes32",
          "name": "role_",
          "type": "bytes32"
        },
        {
          "internalType": "address",
          "name": "revokee_",
          "type": "address"
        }
      ],
      "name": "revokeRole",
      "outputs": [],
      "stateMutability": "nonpayable",
      "type": "function"
    },
    {
      "inputs": [
        {
          "internalType": "bytes32",
          "name": "roleName_",
          "type": "bytes32"
        },
        {
          "internalType": "uint32",
          "name": "chainSlug_",
          "type": "uint32"
        },
        {
          "internalType": "address",
          "name": "grantee_",
          "type": "address"
        }
      ],
      "name": "revokeRoleWithSlug",
      "outputs": [],
      "stateMutability": "nonpayable",
      "type": "function"
    },
    {
      "inputs": [
        {
          "internalType": "uint256",
          "name": "nonce_",
          "type": "uint256"
        },
        {
          "internalType": "uint32",
          "name": "",
          "type": "uint32"
        },
        {
          "internalType": "uint128",
          "name": "switchboardFees_",
          "type": "uint128"
        },
        {
          "internalType": "uint128",
          "name": "verificationOverheadFees_",
          "type": "uint128"
        },
        {
          "internalType": "bytes",
          "name": "signature_",
          "type": "bytes"
        }
      ],
      "name": "setFees",
      "outputs": [],
      "stateMutability": "nonpayable",
      "type": "function"
    },
    {
      "inputs": [],
      "name": "signatureVerifier__",
      "outputs": [
        {
          "internalType": "contract ISignatureVerifier",
          "name": "",
          "type": "address"
        }
      ],
      "stateMutability": "view",
      "type": "function"
    },
    {
      "inputs": [],
      "name": "socket__",
      "outputs": [
        {
          "internalType": "contract ISocket",
          "name": "",
          "type": "address"
        }
      ],
      "stateMutability": "view",
      "type": "function"
    },
    {
      "inputs": [],
      "name": "switchboardFees",
      "outputs": [
        {
          "internalType": "uint128",
          "name": "",
          "type": "uint128"
        }
      ],
      "stateMutability": "view",
      "type": "function"
    },
    {
      "inputs": [
        {
          "internalType": "uint256",
          "name": "nonce_",
          "type": "uint256"
        },
        {
          "internalType": "bytes",
          "name": "signature_",
          "type": "bytes"
        }
      ],
      "name": "tripGlobal",
      "outputs": [],
      "stateMutability": "nonpayable",
      "type": "function"
    },
    {
      "inputs": [
        {
          "internalType": "uint256",
          "name": "nonce_",
          "type": "uint256"
        },
        {
          "internalType": "bytes",
          "name": "signature_",
          "type": "bytes"
        }
      ],
      "name": "unTrip",
      "outputs": [],
      "stateMutability": "nonpayable",
      "type": "function"
    },
    {
      "inputs": [
        {
          "internalType": "uint32",
          "name": "siblingChainSlug_",
          "type": "uint32"
        },
        {
          "internalType": "address",
          "name": "remoteNativeSwitchboard_",
          "type": "address"
        }
      ],
      "name": "updateSibling",
      "outputs": [],
      "stateMutability": "nonpayable",
      "type": "function"
    },
    {
      "inputs": [],
      "name": "verificationOverheadFees",
      "outputs": [
        {
          "internalType": "uint128",
          "name": "",
          "type": "uint128"
        }
      ],
      "stateMutability": "view",
      "type": "function"
    },
    {
      "inputs": [
        {
          "internalType": "address",
          "name": "withdrawTo_",
          "type": "address"
        }
      ],
      "name": "withdrawFees",
      "outputs": [],
      "stateMutability": "nonpayable",
      "type": "function"
    }
  ],
  "bytecode": "0x610100604052606460e0523480156200001757600080fd5b5060405162002d4d38038062002d4d8339810160408190526200003a91620000e2565b8184828580806200004b8162000076565b5050506001600160a01b0392831660a05263ffffffff90911660c05216608052506200015292505050565b600080546001600160a01b0383166001600160a01b0319918216811783556001805490921690915560405190917ffbe19c9b601f5ee90b44c7390f3fa2319eba01762d34ee372aeafd59b25c7f8791a250565b6001600160a01b0381168114620000df57600080fd5b50565b60008060008060808587031215620000f957600080fd5b845163ffffffff811681146200010e57600080fd5b60208601519094506200012181620000c9565b60408601519093506200013481620000c9565b60608601519092506200014781620000c9565b939692955090935050565b60805160a05160c05160e051612b7b620001d26000396000818161077d01526117860152600081816106ce01528181610ba0015281816118730152611bec015260008181610717015281816113920152818161157301526116450152600081816107f101528181610bed015281816118c00152611c520152612b7b6000f3fe60806040526004361061024f5760003560e01c8063771e14b911610138578063c6a261d2116100b0578063d547741f1161007f578063da5b9f7611610064578063da5b9f7614610813578063ecb9748414610833578063f22b460e1461085357600080fd5b8063d547741f146107bf578063d5b8da73146107df57600080fd5b8063c6a261d214610705578063c877930814610739578063c954483d1461076b578063d39a38c11461079f57600080fd5b80639aefe4e011610107578063a9a541b2116100ec578063a9a541b214610689578063a9a599e01461069c578063b349ba65146106bc57600080fd5b80639aefe4e014610649578063a08518631461066957600080fd5b8063771e14b9146105a85780638da5cb5b146105d157806391d14854146105fc5780639242863b1461061c57600080fd5b80632e7eb258116101cb5780633bd1adec1161019a5780634c4081801161017f5780634c408180146105485780635b94db27146105685780636ccae0541461058857600080fd5b80633bd1adec1461051357806343fa97ca1461052857600080fd5b80632e7eb258146104635780632f2ff15d14610483578063357a6c63146104a3578063392e53cd146104d057600080fd5b80631dd935841161022257806320f99c0a1161020757806320f99c0a146103ca57806324677dfc1461041657806325750e371461044357600080fd5b80631dd935841461034c5780631e867311146103aa57600080fd5b806306da42e0146102545780630cd55abf146102cf578063164e68de1461030a5780631ba8e4841461032c575b600080fd5b34801561026057600080fd5b506102a161026f3660046124e9565b506006546fffffffffffffffffffffffffffffffff808216927001000000000000000000000000000000009092041690565b604080516fffffffffffffffffffffffffffffffff9384168152929091166020830152015b60405180910390f35b3480156102db57600080fd5b506102fc6102ea366004612526565b60086020526000908152604090205481565b6040519081526020016102c6565b34801561031657600080fd5b5061032a610325366004612526565b610873565b005b34801561033857600080fd5b5061032a610347366004612543565b610960565b34801561035857600080fd5b506006546103899070010000000000000000000000000000000090046fffffffffffffffffffffffffffffffff1681565b6040516fffffffffffffffffffffffffffffffff90911681526020016102c6565b3480156103b657600080fd5b5061032a6103c53660046125cf565b6109c1565b3480156103d657600080fd5b5060015473ffffffffffffffffffffffffffffffffffffffff165b60405173ffffffffffffffffffffffffffffffffffffffff90911681526020016102c6565b34801561042257600080fd5b506003546103f19073ffffffffffffffffffffffffffffffffffffffff1681565b34801561044f57600080fd5b5061032a61045e366004612698565b610b67565b34801561046f57600080fd5b5061032a61047e366004612543565b610d80565b34801561048f57600080fd5b5061032a61049e366004612771565b610ddc565b3480156104af57600080fd5b506005546103f19073ffffffffffffffffffffffffffffffffffffffff1681565b3480156104dc57600080fd5b50600354610503907501000000000000000000000000000000000000000000900460ff1681565b60405190151581526020016102c6565b34801561051f57600080fd5b5061032a610e37565b34801561053457600080fd5b5061032a6105433660046125cf565b610e93565b34801561055457600080fd5b506105036105633660046127a1565b61102f565b34801561057457600080fd5b5061032a610583366004612526565b6110ad565b34801561059457600080fd5b5061032a6105a33660046127e8565b61116d565b3480156105b457600080fd5b50600654610389906fffffffffffffffffffffffffffffffff1681565b3480156105dd57600080fd5b5060005473ffffffffffffffffffffffffffffffffffffffff166103f1565b34801561060857600080fd5b50610503610617366004612771565b61120b565b34801561062857600080fd5b506102fc610637366004612829565b60076020526000908152604090205481565b34801561065557600080fd5b5061032a610664366004612842565b611246565b34801561067557600080fd5b5061032a610684366004612896565b611495565b61032a6106973660046124e9565b611643565b3480156106a857600080fd5b5061032a6106b7366004612829565b611738565b3480156106c857600080fd5b506106f07f000000000000000000000000000000000000000000000000000000000000000081565b60405163ffffffff90911681526020016102c6565b34801561071157600080fd5b506103f17f000000000000000000000000000000000000000000000000000000000000000081565b34801561074557600080fd5b506003546105039074010000000000000000000000000000000000000000900460ff1681565b34801561077757600080fd5b506103f17f000000000000000000000000000000000000000000000000000000000000000081565b3480156107ab57600080fd5b5061032a6107ba366004612698565b61183a565b3480156107cb57600080fd5b5061032a6107da366004612771565b611a61565b3480156107eb57600080fd5b506103f17f000000000000000000000000000000000000000000000000000000000000000081565b34801561081f57600080fd5b5061032a61082e3660046128c2565b611abc565b34801561083f57600080fd5b5061050361084e366004612543565b611b9e565b34801561085f57600080fd5b5061032a61086e366004612904565b611bb3565b3360009081527f9b7ec560033b826bc253a5f1a8b5e6a61c8d2a6e8731a9872b68296f6024c5ac60205260409020547f5d8e12c39142ff96d79d04d15d1ba1269e4fe57bb9d26f43523628b34ba108ec9060ff16610905576040517f962f6333000000000000000000000000000000000000000000000000000000008152600481018290526024015b60405180910390fd5b73ffffffffffffffffffffffffffffffffffffffff8216610952576040517fd92e233d00000000000000000000000000000000000000000000000000000000815260040160405180910390fd5b61095c8247611e04565b5050565b60005473ffffffffffffffffffffffffffffffffffffffff1633146109b1576040517f5fc483c500000000000000000000000000000000000000000000000000000000815260040160405180910390fd5b6109bc838383611e79565b505050565b60005473ffffffffffffffffffffffffffffffffffffffff163314610a12576040517f5fc483c500000000000000000000000000000000000000000000000000000000815260040160405180910390fd5b8481141580610a215750848314155b15610a58576040517f11e86f7300000000000000000000000000000000000000000000000000000000815260040160405180910390fd5b8460005b81811015610b5d576000868683818110610a7857610a786129b1565b9050602002016020810190610a8d91906124e9565b63ffffffff161115610b0d57610b08888883818110610aae57610aae6129b1565b90506020020135878784818110610ac757610ac76129b1565b9050602002016020810190610adc91906124e9565b868685818110610aee57610aee6129b1565b9050602002016020810190610b039190612526565b611e79565b610b55565b610b55888883818110610b2257610b226129b1565b90506020020135858584818110610b3b57610b3b6129b1565b9050602002016020810190610b509190612526565b611eb6565b600101610a5c565b5050505050505050565b604080517f634a973a0f5cd4600a56e0f9a2f08c30188ba14ccde33b0d70b56e34e192d5596020820152309181019190915263ffffffff7f000000000000000000000000000000000000000000000000000000000000000016606082015260808101839052600060a082018190529073ffffffffffffffffffffffffffffffffffffffff7f000000000000000000000000000000000000000000000000000000000000000016906397aba7f99060c00160405160208183030381529060405280519060200120846040518363ffffffff1660e01b8152600401610c4b929190612a44565b602060405180830381865afa158015610c68573d6000803e3d6000fd5b505050506040513d601f19601f82011682018060405250810190610c8c9190612a5d565b9050610cb87fb0a81253fa41a5cd7c5885c220c30d519a0d552984e0d69edda03449f69fa6db82611f39565b73ffffffffffffffffffffffffffffffffffffffff811660009081526008602052604090208054600181019091558314610d1e576040517f756688fe00000000000000000000000000000000000000000000000000000000815260040160405180910390fd5b600380547fffffffffffffffffffffff00ffffffffffffffffffffffffffffffffffffffff169055604051600081527f42a60e0dc12250ea896a8f5156f1f3aa4567cd2bd87a72bc097210dc02ec2e05906020015b60405180910390a1505050565b60005473ffffffffffffffffffffffffffffffffffffffff163314610dd1576040517f5fc483c500000000000000000000000000000000000000000000000000000000815260040160405180910390fd5b6109bc838383611fa5565b60005473ffffffffffffffffffffffffffffffffffffffff163314610e2d576040517f5fc483c500000000000000000000000000000000000000000000000000000000815260040160405180910390fd5b61095c8282611fe2565b60015473ffffffffffffffffffffffffffffffffffffffff163314610e88576040517f7c91ccdd00000000000000000000000000000000000000000000000000000000815260040160405180910390fd5b610e9133612068565b565b60005473ffffffffffffffffffffffffffffffffffffffff163314610ee4576040517f5fc483c500000000000000000000000000000000000000000000000000000000815260040160405180910390fd5b8481141580610ef35750848314155b15610f2a576040517f11e86f7300000000000000000000000000000000000000000000000000000000815260040160405180910390fd5b8460005b81811015610b5d576000868683818110610f4a57610f4a6129b1565b9050602002016020810190610f5f91906124e9565b63ffffffff161115610fdf57610fda888883818110610f8057610f806129b1565b90506020020135878784818110610f9957610f996129b1565b9050602002016020810190610fae91906124e9565b868685818110610fc057610fc06129b1565b9050602002016020810190610fd59190612526565b611fa5565b611027565b611027888883818110610ff457610ff46129b1565b9050602002013585858481811061100d5761100d6129b1565b90506020020160208101906110229190612526565b611fe2565b600101610f2e565b600354600090859074010000000000000000000000000000000000000000900460ff16156110615760009150506110a4565b6004548167ffffffffffffffff16101561107f5760009150506110a4565b600086815260076020526040902054871461109e5760009150506110a4565b60019150505b95945050505050565b60005473ffffffffffffffffffffffffffffffffffffffff1633146110fe576040517f5fc483c500000000000000000000000000000000000000000000000000000000815260040160405180910390fd5b600180547fffffffffffffffffffffffff00000000000000000000000000000000000000001673ffffffffffffffffffffffffffffffffffffffff83169081179091556040517f906a1c6bd7e3091ea86693dd029a831c19049ce77f1dce2ce0bab1cacbabce2290600090a250565b3360009081527f4933f7bec34ee32db93e9f5cd7e0519781b395282211f4f6857489046ea38f7660205260409020547fc4c453d647953c0fd35db5a34ee76e60fb4abc3a8fb891a25936b70b38f292539060ff166111fa576040517f962f6333000000000000000000000000000000000000000000000000000000008152600481018290526024016108fc565b6112058484846120e0565b50505050565b600082815260026020908152604080832073ffffffffffffffffffffffffffffffffffffffff8516845290915281205460ff165b9392505050565b3360009081527f0f4a237b7f9e071a612ddea08a06576f25cc7dffe13a46307ee64fe2318b3c3e60205260409020547f71840dc4906352362b0cdaf79870196c8e42acafade72d5d5a6d59291253ceb19060ff166112d3576040517f962f6333000000000000000000000000000000000000000000000000000000008152600481018290526024016108fc565b6003547501000000000000000000000000000000000000000000900460ff1615611329576040517f0dc149f000000000000000000000000000000000000000000000000000000000815260040160405180910390fd5b60048381556040517f0b04bb4100000000000000000000000000000000000000000000000000000000815263ffffffff881691810191909152602481018690526044810185905273ffffffffffffffffffffffffffffffffffffffff83811660648301526000917f000000000000000000000000000000000000000000000000000000000000000090911690630b04bb419060840160408051808303816000875af11580156113dc573d6000803e3d6000fd5b505050506040513d601f19601f820116820180604052508101906114009190612a7a565b506003805475010000000000000000000000000000000000000000007fffffffffffffffffffff00ff000000000000000000000000000000000000000090911673ffffffffffffffffffffffffffffffffffffffff93841617179055600580547fffffffffffffffffffffffff0000000000000000000000000000000000000000169490911693909317909255505050505050565b3360009081527f0f4a237b7f9e071a612ddea08a06576f25cc7dffe13a46307ee64fe2318b3c3e60205260409020547f71840dc4906352362b0cdaf79870196c8e42acafade72d5d5a6d59291253ceb19060ff16611522576040517f962f6333000000000000000000000000000000000000000000000000000000008152600481018290526024016108fc565b6040517f81403a0200000000000000000000000000000000000000000000000000000000815263ffffffff8416600482015273ffffffffffffffffffffffffffffffffffffffff83811660248301527f000000000000000000000000000000000000000000000000000000000000000016906381403a0290604401600060405180830381600087803b1580156115b757600080fd5b505af11580156115cb573d6000803e3d6000fd5b5050600580547fffffffffffffffffffffffff00000000000000000000000000000000000000001673ffffffffffffffffffffffffffffffffffffffff86169081179091556040519081527f8d7fa3c81f6134b31f8d89d4a3adeb890d8f0db2a30cbccc23a9c8435f03ad3992506020019050610d73565b7f000000000000000000000000000000000000000000000000000000000000000073ffffffffffffffffffffffffffffffffffffffff16626186f76040518163ffffffff1660e01b8152600401602060405180830381865afa1580156116ad573d6000803e3d6000fd5b505050506040513d601f19601f820116820180604052508101906116d19190612a5d565b73ffffffffffffffffffffffffffffffffffffffff163373ffffffffffffffffffffffffffffffffffffffff1614611735576040517f03c377c500000000000000000000000000000000000000000000000000000000815260040160405180910390fd5b50565b6000611743826121d0565b6005546040517f928c169a00000000000000000000000000000000000000000000000000000000815291925073ffffffffffffffffffffffffffffffffffffffff7f000000000000000000000000000000000000000000000000000000000000000081169263928c169a926117be9216908590600401612aa9565b6020604051808303816000875af11580156117dd573d6000803e3d6000fd5b505050506040513d601f19601f820116820180604052508101906118019190612ad8565b506040518281527f118f46da596dcf5757e155f254ae6f1c47c18382c3bddcf0570141bd65630442906020015b60405180910390a15050565b604080517f052968298b6036970c558bc24c756e7e868d9e6b79756deb4bce3a2d0b1f7ea06020820152309181019190915263ffffffff7f000000000000000000000000000000000000000000000000000000000000000016606082015260808101839052600160a082015260009073ffffffffffffffffffffffffffffffffffffffff7f000000000000000000000000000000000000000000000000000000000000000016906397aba7f99060c00160405160208183030381529060405280519060200120846040518363ffffffff1660e01b815260040161191e929190612a44565b602060405180830381865afa15801561193b573d6000803e3d6000fd5b505050506040513d601f19601f8201168201806040525081019061195f9190612a5d565b905061198b7fd66a896d5b3e8cd31bfd557e6ebdb5bba4561c7ce6573d5c6716876cbc83dbdd82611f39565b73ffffffffffffffffffffffffffffffffffffffff8116600090815260086020526040902080546001810190915583146119f1576040517f756688fe00000000000000000000000000000000000000000000000000000000815260040160405180910390fd5b600380547fffffffffffffffffffffff00ffffffffffffffffffffffffffffffffffffffff1674010000000000000000000000000000000000000000179055604051600181527f42a60e0dc12250ea896a8f5156f1f3aa4567cd2bd87a72bc097210dc02ec2e0590602001610d73565b60005473ffffffffffffffffffffffffffffffffffffffff163314611ab2576040517f5fc483c500000000000000000000000000000000000000000000000000000000815260040160405180910390fd5b61095c8282611eb6565b600554611af29073ffffffffffffffffffffffffffffffffffffffff167311110000000000000000000000000000000011110190565b73ffffffffffffffffffffffffffffffffffffffff163373ffffffffffffffffffffffffffffffffffffffff1614611b56576040517fddb5de5e00000000000000000000000000000000000000000000000000000000815260040160405180910390fd5b60008281526007602090815260409182902083905581518481529081018390527f2deb1178e3fb26e6028dd1e65f4b256ad4d081b5378f772dc39abffae644dff8910161182e565b6000611bab848484612293565b949350505050565b604080517ff2deac1744cfd52ddfce21c5ff26abf413f6418dc4a35916e26daefd87e04ab66020820152309181019190915263ffffffff7f0000000000000000000000000000000000000000000000000000000000000000166060820152608081018790526fffffffffffffffffffffffffffffffff80861660a0830152841660c082015260009073ffffffffffffffffffffffffffffffffffffffff7f000000000000000000000000000000000000000000000000000000000000000016906397aba7f99060e0016040516020818303038152906040528051906020012085856040518463ffffffff1660e01b8152600401611cb293929190612af1565b602060405180830381865afa158015611ccf573d6000803e3d6000fd5b505050506040513d601f19601f82011682018060405250810190611cf39190612a5d565b9050611d1f7f429672025b2dcb8754ca4b57943f34ac66900598787cb1f1e857291dedbf34d382611f39565b73ffffffffffffffffffffffffffffffffffffffff811660009081526008602052604090208054600181019091558714611d85576040517f756688fe00000000000000000000000000000000000000000000000000000000815260040160405180910390fd5b6fffffffffffffffffffffffffffffffff858116700100000000000000000000000000000000868316810282811760068190556040805192861690941782529190910490921660208301527f89c4b3602e1b8a85a33f0479f41d1ea82a498a69064feebc9c43b28fc42fc9d6910160405180910390a150505050505050565b600080600080600085875af19050806109bc576040517f08c379a000000000000000000000000000000000000000000000000000000000815260206004820152601360248201527f4554485f5452414e534645525f4641494c45440000000000000000000000000060448201526064016108fc565b6109bc8383604051602001611e9e92919091825263ffffffff16602082015260400190565b60405160208183030381529060405280519060200120825b600082815260026020908152604080832073ffffffffffffffffffffffffffffffffffffffff8516808552925280832080547fffffffffffffffffffffffffffffffffffffffffffffffffffffffffffffff0016905551909184917f155aaafb6329a2098580462df33ec4b7441b19729b9601c5fc17ae1cf99a8a529190a35050565b600082815260026020908152604080832073ffffffffffffffffffffffffffffffffffffffff8516845290915290205460ff1661095c576040517f962f6333000000000000000000000000000000000000000000000000000000008152600481018390526024016108fc565b6109bc8383604051602001611fca92919091825263ffffffff16602082015260400190565b60405160208183030381529060405280519060200120825b600082815260026020908152604080832073ffffffffffffffffffffffffffffffffffffffff8516808552925280832080547fffffffffffffffffffffffffffffffffffffffffffffffffffffffffffffff0016600117905551909184917f2ae6a113c0ed5b78a53413ffbb7679881f11145ccfba4fb92e863dfcd5a1d2f39190a35050565b6000805473ffffffffffffffffffffffffffffffffffffffff83167fffffffffffffffffffffffff0000000000000000000000000000000000000000918216811783556001805490921690915560405190917ffbe19c9b601f5ee90b44c7390f3fa2319eba01762d34ee372aeafd59b25c7f8791a250565b73ffffffffffffffffffffffffffffffffffffffff821661212d576040517fd92e233d00000000000000000000000000000000000000000000000000000000815260040160405180910390fd5b7fffffffffffffffffffffffff111111111111111111111111111111111111111273ffffffffffffffffffffffffffffffffffffffff841601612174576109bc8282611e04565b8273ffffffffffffffffffffffffffffffffffffffff163b6000036121c5576040517f1eb00b0600000000000000000000000000000000000000000000000000000000815260040160405180910390fd5b6109bc838383612321565b60607fda5b9f7600000000000000000000000000000000000000000000000000000000826121fd816123f0565b60405160248101929092526044820152606401604080517fffffffffffffffffffffffffffffffffffffffffffffffffffffffffffffffe08184030181529190526020810180517bffffffffffffffffffffffffffffffffffffffffffffffffffffffff167fffffffff000000000000000000000000000000000000000000000000000000009093169290921790915292915050565b6000611bab84846040516020016122ba92919091825263ffffffff16602082015260400190565b604080517fffffffffffffffffffffffffffffffffffffffffffffffffffffffffffffffe0818403018152918152815160209283012060009081526002835281812073ffffffffffffffffffffffffffffffffffffffff8716825290925290205460ff1690565b60006040517fa9059cbb00000000000000000000000000000000000000000000000000000000815273ffffffffffffffffffffffffffffffffffffffff84166004820152826024820152602060006044836000895af13d15601f3d1160016000511416171691505080611205576040517f08c379a000000000000000000000000000000000000000000000000000000000815260206004820152600f60248201527f5452414e534645525f4641494c4544000000000000000000000000000000000060448201526064016108fc565b6003546040517fd1af313c00000000000000000000000000000000000000000000000000000000815267ffffffffffffffff83166004820152600091839173ffffffffffffffffffffffffffffffffffffffff9091169063d1af313c90602401602060405180830381865afa15801561246d573d6000803e3d6000fd5b505050506040513d601f19601f820116820180604052508101906124919190612ad8565b9150816124ca576040517f849713b000000000000000000000000000000000000000000000000000000000815260040160405180910390fd5b50919050565b803563ffffffff811681146124e457600080fd5b919050565b6000602082840312156124fb57600080fd5b61123f826124d0565b73ffffffffffffffffffffffffffffffffffffffff8116811461173557600080fd5b60006020828403121561253857600080fd5b813561123f81612504565b60008060006060848603121561255857600080fd5b83359250612568602085016124d0565b9150604084013561257881612504565b809150509250925092565b60008083601f84011261259557600080fd5b50813567ffffffffffffffff8111156125ad57600080fd5b6020830191508360208260051b85010111156125c857600080fd5b9250929050565b600080600080600080606087890312156125e857600080fd5b863567ffffffffffffffff8082111561260057600080fd5b61260c8a838b01612583565b9098509650602089013591508082111561262557600080fd5b6126318a838b01612583565b9096509450604089013591508082111561264a57600080fd5b5061265789828a01612583565b979a9699509497509295939492505050565b7f4e487b7100000000000000000000000000000000000000000000000000000000600052604160045260246000fd5b600080604083850312156126ab57600080fd5b82359150602083013567ffffffffffffffff808211156126ca57600080fd5b818501915085601f8301126126de57600080fd5b8135818111156126f0576126f0612669565b604051601f82017fffffffffffffffffffffffffffffffffffffffffffffffffffffffffffffffe0908116603f0116810190838211818310171561273657612736612669565b8160405282815288602084870101111561274f57600080fd5b8260208601602083013760006020848301015280955050505050509250929050565b6000806040838503121561278457600080fd5b82359150602083013561279681612504565b809150509250929050565b600080600080600060a086880312156127b957600080fd5b8535945060208601359350604086013592506127d7606087016124d0565b949793965091946080013592915050565b6000806000606084860312156127fd57600080fd5b833561280881612504565b9250602084013561281881612504565b929592945050506040919091013590565b60006020828403121561283b57600080fd5b5035919050565b600080600080600060a0868803121561285a57600080fd5b612863866124d0565b9450602086013593506040860135925060608601359150608086013561288881612504565b809150509295509295909350565b600080604083850312156128a957600080fd5b6128b2836124d0565b9150602083013561279681612504565b600080604083850312156128d557600080fd5b50508035926020909101359150565b80356fffffffffffffffffffffffffffffffff811681146124e457600080fd5b60008060008060008060a0878903121561291d57600080fd5b8635955061292d602088016124d0565b945061293b604088016128e4565b9350612949606088016128e4565b9250608087013567ffffffffffffffff8082111561296657600080fd5b818901915089601f83011261297a57600080fd5b81358181111561298957600080fd5b8a602082850101111561299b57600080fd5b6020830194508093505050509295509295509295565b7f4e487b7100000000000000000000000000000000000000000000000000000000600052603260045260246000fd5b6000815180845260005b81811015612a06576020818501810151868301820152016129ea565b5060006020828601015260207fffffffffffffffffffffffffffffffffffffffffffffffffffffffffffffffe0601f83011685010191505092915050565b828152604060208201526000611bab60408301846129e0565b600060208284031215612a6f57600080fd5b815161123f81612504565b60008060408385031215612a8d57600080fd5b8251612a9881612504565b602084015190925061279681612504565b73ffffffffffffffffffffffffffffffffffffffff83168152604060208201526000611bab60408301846129e0565b600060208284031215612aea57600080fd5b5051919050565b83815260406020820152816040820152818360608301376000818301606090810191909152601f9092017fffffffffffffffffffffffffffffffffffffffffffffffffffffffffffffffe01601019291505056fea26469706673582212204343459ee95cd617125df3a63c4f310524f49a0cfc361b06ba676da67fe648d164736f6c63430008130033",
  "linkReferences": {},
  "deployedLinkReferences": {}
}