{
  "_format": "hh-sol-artifact-1",
  "contractName": "ArbitrumL1Switchboard",
  "sourceName": "contracts/switchboard/native/ArbitrumL1Switchboard.sol",
  "abi": [
    {
      "inputs": [
        {
          "internalType": "uint32",
          "name": "chainSlug_",
          "type": "uint32"
        },
        {
          "internalType": "address",
          "name": "inbox_",
          "type": "address"
        },
        {
          "internalType": "address",
          "name": "owner_",
          "type": "address"
        },
        {
          "internalType": "address",
          "name": "socket_",
          "type": "address"
        },
        {
          "internalType": "address",
          "name": "bridge_",
          "type": "address"
        },
        {
          "internalType": "address",
          "name": "outbox_",
          "type": "address"
        },
        {
          "internalType": "contract ISignatureVerifier",
          "name": "signatureVerifier_",
          "type": "address"
        }
      ],
      "stateMutability": "nonpayable",
      "type": "constructor"
    },
    {
      "inputs": [],
      "name": "AlreadyInitialized",
      "type": "error"
    },
    {
      "inputs": [],
      "name": "FeesNotEnough",
      "type": "error"
    },
    {
      "inputs": [],
      "name": "InvalidNonce",
      "type": "error"
    },
    {
      "inputs": [],
      "name": "InvalidSender",
      "type": "error"
    },
    {
      "inputs": [],
      "name": "InvalidTokenAddress",
      "type": "error"
    },
    {
      "inputs": [
        {
          "internalType": "bytes32",
          "name": "role",
          "type": "bytes32"
        }
      ],
      "name": "NoPermit",
      "type": "error"
    },
    {
      "inputs": [],
      "name": "NoRootFound",
      "type": "error"
    },
    {
      "inputs": [],
      "name": "OnlyExecutionManager",
      "type": "error"
    },
    {
      "inputs": [],
      "name": "OnlyNominee",
      "type": "error"
    },
    {
      "inputs": [],
      "name": "OnlyOwner",
      "type": "error"
    },
    {
      "inputs": [],
      "name": "UnequalArrayLengths",
      "type": "error"
    },
    {
      "inputs": [],
      "name": "ZeroAddress",
      "type": "error"
    },
    {
      "anonymous": false,
      "inputs": [
        {
          "indexed": false,
          "internalType": "bool",
          "name": "isGlobalTipped",
          "type": "bool"
        }
      ],
      "name": "GlobalTripChanged",
      "type": "event"
    },
    {
      "anonymous": false,
      "inputs": [
        {
          "indexed": false,
          "internalType": "bytes32",
          "name": "packetId",
          "type": "bytes32"
        }
      ],
      "name": "InitiatedNativeConfirmation",
      "type": "event"
    },
    {
      "anonymous": false,
      "inputs": [
        {
          "indexed": true,
          "internalType": "address",
          "name": "claimer",
          "type": "address"
        }
      ],
      "name": "OwnerClaimed",
      "type": "event"
    },
    {
      "anonymous": false,
      "inputs": [
        {
          "indexed": true,
          "internalType": "address",
          "name": "nominee",
          "type": "address"
        }
      ],
      "name": "OwnerNominated",
      "type": "event"
    },
    {
      "anonymous": false,
      "inputs": [
        {
          "indexed": true,
          "internalType": "bytes32",
          "name": "role",
          "type": "bytes32"
        },
        {
          "indexed": true,
          "internalType": "address",
          "name": "grantee",
          "type": "address"
        }
      ],
      "name": "RoleGranted",
      "type": "event"
    },
    {
      "anonymous": false,
      "inputs": [
        {
          "indexed": true,
          "internalType": "bytes32",
          "name": "role",
          "type": "bytes32"
        },
        {
          "indexed": true,
          "internalType": "address",
          "name": "revokee",
          "type": "address"
        }
      ],
      "name": "RoleRevoked",
      "type": "event"
    },
    {
      "anonymous": false,
      "inputs": [
        {
          "indexed": false,
          "internalType": "bytes32",
          "name": "packetId",
          "type": "bytes32"
        },
        {
          "indexed": false,
          "internalType": "bytes32",
          "name": "root",
          "type": "bytes32"
        }
      ],
      "name": "RootReceived",
      "type": "event"
    },
    {
      "anonymous": false,
      "inputs": [
        {
          "indexed": false,
          "internalType": "uint256",
          "name": "switchboardFees",
          "type": "uint256"
        },
        {
          "indexed": false,
          "internalType": "uint256",
          "name": "verificationOverheadFees",
          "type": "uint256"
        }
      ],
      "name": "SwitchboardFeesSet",
      "type": "event"
    },
    {
      "anonymous": false,
      "inputs": [
        {
          "indexed": false,
          "internalType": "address",
          "name": "bridgeAddress",
          "type": "address"
        }
      ],
      "name": "UpdatedBridge",
      "type": "event"
    },
    {
      "anonymous": false,
      "inputs": [
        {
          "indexed": false,
          "internalType": "address",
          "name": "inbox",
          "type": "address"
        }
      ],
      "name": "UpdatedInboxAddress",
      "type": "event"
    },
    {
      "anonymous": false,
      "inputs": [
        {
          "indexed": false,
          "internalType": "address",
          "name": "outboxAddress",
          "type": "address"
        }
      ],
      "name": "UpdatedOutbox",
      "type": "event"
    },
    {
      "anonymous": false,
      "inputs": [
        {
          "indexed": false,
          "internalType": "address",
          "name": "remoteNativeSwitchboard",
          "type": "address"
        }
      ],
      "name": "UpdatedRemoteNativeSwitchboard",
      "type": "event"
    },
    {
      "inputs": [
        {
          "internalType": "bytes32",
          "name": "root_",
          "type": "bytes32"
        },
        {
          "internalType": "bytes32",
          "name": "packetId_",
          "type": "bytes32"
        },
        {
          "internalType": "uint256",
          "name": "",
          "type": "uint256"
        },
        {
          "internalType": "uint32",
          "name": "",
          "type": "uint32"
        },
        {
          "internalType": "uint256",
          "name": "",
          "type": "uint256"
        }
      ],
      "name": "allowPacket",
      "outputs": [
        {
          "internalType": "bool",
          "name": "",
          "type": "bool"
        }
      ],
      "stateMutability": "view",
      "type": "function"
    },
    {
      "inputs": [],
      "name": "bridge__",
      "outputs": [
        {
          "internalType": "contract IBridge",
          "name": "",
          "type": "address"
        }
      ],
      "stateMutability": "view",
      "type": "function"
    },
    {
      "inputs": [],
      "name": "capacitor__",
      "outputs": [
        {
          "internalType": "contract ICapacitor",
          "name": "",
          "type": "address"
        }
      ],
      "stateMutability": "view",
      "type": "function"
    },
    {
      "inputs": [],
      "name": "chainSlug",
      "outputs": [
        {
          "internalType": "uint32",
          "name": "",
          "type": "uint32"
        }
      ],
      "stateMutability": "view",
      "type": "function"
    },
    {
      "inputs": [],
      "name": "claimOwner",
      "outputs": [],
      "stateMutability": "nonpayable",
      "type": "function"
    },
    {
      "inputs": [
        {
          "internalType": "uint32",
          "name": "",
          "type": "uint32"
        }
      ],
      "name": "getMinFees",
      "outputs": [
        {
          "internalType": "uint128",
          "name": "switchboardFee_",
          "type": "uint128"
        },
        {
          "internalType": "uint128",
          "name": "verificationFee_",
          "type": "uint128"
        }
      ],
      "stateMutability": "view",
      "type": "function"
    },
    {
      "inputs": [
        {
          "internalType": "bytes32[]",
          "name": "roleNames_",
          "type": "bytes32[]"
        },
        {
          "internalType": "uint32[]",
          "name": "slugs_",
          "type": "uint32[]"
        },
        {
          "internalType": "address[]",
          "name": "grantees_",
          "type": "address[]"
        }
      ],
      "name": "grantBatchRole",
      "outputs": [],
      "stateMutability": "nonpayable",
      "type": "function"
    },
    {
      "inputs": [
        {
          "internalType": "bytes32",
          "name": "role_",
          "type": "bytes32"
        },
        {
          "internalType": "address",
          "name": "grantee_",
          "type": "address"
        }
      ],
      "name": "grantRole",
      "outputs": [],
      "stateMutability": "nonpayable",
      "type": "function"
    },
    {
      "inputs": [
        {
          "internalType": "bytes32",
          "name": "roleName_",
          "type": "bytes32"
        },
        {
          "internalType": "uint32",
          "name": "chainSlug_",
          "type": "uint32"
        },
        {
          "internalType": "address",
          "name": "grantee_",
          "type": "address"
        }
      ],
      "name": "grantRoleWithSlug",
      "outputs": [],
      "stateMutability": "nonpayable",
      "type": "function"
    },
    {
      "inputs": [
        {
          "internalType": "bytes32",
          "name": "role_",
          "type": "bytes32"
        },
        {
          "internalType": "address",
          "name": "address_",
          "type": "address"
        }
      ],
      "name": "hasRole",
      "outputs": [
        {
          "internalType": "bool",
          "name": "",
          "type": "bool"
        }
      ],
      "stateMutability": "view",
      "type": "function"
    },
    {
      "inputs": [
        {
          "internalType": "bytes32",
          "name": "roleName_",
          "type": "bytes32"
        },
        {
          "internalType": "uint32",
          "name": "chainSlug_",
          "type": "uint32"
        },
        {
          "internalType": "address",
          "name": "address_",
          "type": "address"
        }
      ],
      "name": "hasRoleWithSlug",
      "outputs": [
        {
          "internalType": "bool",
          "name": "",
          "type": "bool"
        }
      ],
      "stateMutability": "view",
      "type": "function"
    },
    {
      "inputs": [],
      "name": "inbox__",
      "outputs": [
        {
          "internalType": "contract IInbox",
          "name": "",
          "type": "address"
        }
      ],
      "stateMutability": "view",
      "type": "function"
    },
    {
      "inputs": [
        {
          "internalType": "bytes32",
          "name": "packetId_",
          "type": "bytes32"
        },
        {
          "internalType": "uint256",
          "name": "maxSubmissionCost_",
          "type": "uint256"
        },
        {
          "internalType": "uint256",
          "name": "maxGas_",
          "type": "uint256"
        },
        {
          "internalType": "uint256",
          "name": "gasPriceBid_",
          "type": "uint256"
        },
        {
          "internalType": "address",
          "name": "callValueRefundAddress_",
          "type": "address"
        },
        {
          "internalType": "address",
          "name": "remoteRefundAddress_",
          "type": "address"
        }
      ],
      "name": "initiateNativeConfirmation",
      "outputs": [],
      "stateMutability": "payable",
      "type": "function"
    },
    {
      "inputs": [],
      "name": "isGlobalTipped",
      "outputs": [
        {
          "internalType": "bool",
          "name": "",
          "type": "bool"
        }
      ],
      "stateMutability": "view",
      "type": "function"
    },
    {
      "inputs": [],
      "name": "isInitialized",
      "outputs": [
        {
          "internalType": "bool",
          "name": "",
          "type": "bool"
        }
      ],
      "stateMutability": "view",
      "type": "function"
    },
    {
      "inputs": [
        {
          "internalType": "address",
          "name": "",
          "type": "address"
        }
      ],
      "name": "nextNonce",
      "outputs": [
        {
          "internalType": "uint256",
          "name": "",
          "type": "uint256"
        }
      ],
      "stateMutability": "view",
      "type": "function"
    },
    {
      "inputs": [
        {
          "internalType": "address",
          "name": "nominee_",
          "type": "address"
        }
      ],
      "name": "nominateOwner",
      "outputs": [],
      "stateMutability": "nonpayable",
      "type": "function"
    },
    {
      "inputs": [],
      "name": "nominee",
      "outputs": [
        {
          "internalType": "address",
          "name": "",
          "type": "address"
        }
      ],
      "stateMutability": "view",
      "type": "function"
    },
    {
      "inputs": [],
      "name": "outbox__",
      "outputs": [
        {
          "internalType": "contract IOutbox",
          "name": "",
          "type": "address"
        }
      ],
      "stateMutability": "view",
      "type": "function"
    },
    {
      "inputs": [],
      "name": "owner",
      "outputs": [
        {
          "internalType": "address",
          "name": "",
          "type": "address"
        }
      ],
      "stateMutability": "view",
      "type": "function"
    },
    {
      "inputs": [
        {
          "internalType": "bytes32",
          "name": "",
          "type": "bytes32"
        }
      ],
      "name": "packetIdToRoot",
      "outputs": [
        {
          "internalType": "bytes32",
          "name": "",
          "type": "bytes32"
        }
      ],
      "stateMutability": "view",
      "type": "function"
    },
    {
      "inputs": [
        {
          "internalType": "uint32",
          "name": "",
          "type": "uint32"
        }
      ],
      "name": "receiveFees",
      "outputs": [],
      "stateMutability": "payable",
      "type": "function"
    },
    {
      "inputs": [
        {
          "internalType": "bytes32",
          "name": "packetId_",
          "type": "bytes32"
        },
        {
          "internalType": "bytes32",
          "name": "root_",
          "type": "bytes32"
        }
      ],
      "name": "receivePacket",
      "outputs": [],
      "stateMutability": "nonpayable",
      "type": "function"
    },
    {
      "inputs": [
        {
          "internalType": "uint32",
          "name": "siblingChainSlug_",
          "type": "uint32"
        },
        {
          "internalType": "uint256",
          "name": "maxPacketLength_",
          "type": "uint256"
        },
        {
          "internalType": "uint256",
          "name": "capacitorType_",
          "type": "uint256"
        },
        {
          "internalType": "uint256",
          "name": "initialPacketCount_",
          "type": "uint256"
        },
        {
          "internalType": "address",
          "name": "remoteNativeSwitchboard_",
          "type": "address"
        }
      ],
      "name": "registerSiblingSlug",
      "outputs": [],
      "stateMutability": "nonpayable",
      "type": "function"
    },
    {
      "inputs": [],
      "name": "remoteNativeSwitchboard",
      "outputs": [
        {
          "internalType": "address",
          "name": "",
          "type": "address"
        }
      ],
      "stateMutability": "view",
      "type": "function"
    },
    {
      "inputs": [
        {
          "internalType": "address",
          "name": "token_",
          "type": "address"
        },
        {
          "internalType": "address",
          "name": "rescueTo_",
          "type": "address"
        },
        {
          "internalType": "uint256",
          "name": "amount_",
          "type": "uint256"
        }
      ],
      "name": "rescueFunds",
      "outputs": [],
      "stateMutability": "nonpayable",
      "type": "function"
    },
    {
      "inputs": [
        {
          "internalType": "bytes32[]",
          "name": "roleNames_",
          "type": "bytes32[]"
        },
        {
          "internalType": "uint32[]",
          "name": "slugs_",
          "type": "uint32[]"
        },
        {
          "internalType": "address[]",
          "name": "grantees_",
          "type": "address[]"
        }
      ],
      "name": "revokeBatchRole",
      "outputs": [],
      "stateMutability": "nonpayable",
      "type": "function"
    },
    {
      "inputs": [
        {
          "internalType": "bytes32",
          "name": "role_",
          "type": "bytes32"
        },
        {
          "internalType": "address",
          "name": "revokee_",
          "type": "address"
        }
      ],
      "name": "revokeRole",
      "outputs": [],
      "stateMutability": "nonpayable",
      "type": "function"
    },
    {
      "inputs": [
        {
          "internalType": "bytes32",
          "name": "roleName_",
          "type": "bytes32"
        },
        {
          "internalType": "uint32",
          "name": "chainSlug_",
          "type": "uint32"
        },
        {
          "internalType": "address",
          "name": "grantee_",
          "type": "address"
        }
      ],
      "name": "revokeRoleWithSlug",
      "outputs": [],
      "stateMutability": "nonpayable",
      "type": "function"
    },
    {
      "inputs": [
        {
          "internalType": "uint256",
          "name": "nonce_",
          "type": "uint256"
        },
        {
          "internalType": "uint32",
          "name": "",
          "type": "uint32"
        },
        {
          "internalType": "uint128",
          "name": "switchboardFees_",
          "type": "uint128"
        },
        {
          "internalType": "uint128",
          "name": "verificationOverheadFees_",
          "type": "uint128"
        },
        {
          "internalType": "bytes",
          "name": "signature_",
          "type": "bytes"
        }
      ],
      "name": "setFees",
      "outputs": [],
      "stateMutability": "nonpayable",
      "type": "function"
    },
    {
      "inputs": [],
      "name": "signatureVerifier__",
      "outputs": [
        {
          "internalType": "contract ISignatureVerifier",
          "name": "",
          "type": "address"
        }
      ],
      "stateMutability": "view",
      "type": "function"
    },
    {
      "inputs": [],
      "name": "socket__",
      "outputs": [
        {
          "internalType": "contract ISocket",
          "name": "",
          "type": "address"
        }
      ],
      "stateMutability": "view",
      "type": "function"
    },
    {
      "inputs": [],
      "name": "switchboardFees",
      "outputs": [
        {
          "internalType": "uint128",
          "name": "",
          "type": "uint128"
        }
      ],
      "stateMutability": "view",
      "type": "function"
    },
    {
      "inputs": [
        {
          "internalType": "uint256",
          "name": "nonce_",
          "type": "uint256"
        },
        {
          "internalType": "bytes",
          "name": "signature_",
          "type": "bytes"
        }
      ],
      "name": "tripGlobal",
      "outputs": [],
      "stateMutability": "nonpayable",
      "type": "function"
    },
    {
      "inputs": [
        {
          "internalType": "uint256",
          "name": "nonce_",
          "type": "uint256"
        },
        {
          "internalType": "bytes",
          "name": "signature_",
          "type": "bytes"
        }
      ],
      "name": "unTrip",
      "outputs": [],
      "stateMutability": "nonpayable",
      "type": "function"
    },
    {
      "inputs": [
        {
          "internalType": "address",
          "name": "bridgeAddress_",
          "type": "address"
        }
      ],
      "name": "updateBridge",
      "outputs": [],
      "stateMutability": "nonpayable",
      "type": "function"
    },
    {
      "inputs": [
        {
          "internalType": "address",
          "name": "inbox_",
          "type": "address"
        }
      ],
      "name": "updateInboxAddresses",
      "outputs": [],
      "stateMutability": "nonpayable",
      "type": "function"
    },
    {
      "inputs": [
        {
          "internalType": "address",
          "name": "outboxAddress_",
          "type": "address"
        }
      ],
      "name": "updateOutbox",
      "outputs": [],
      "stateMutability": "nonpayable",
      "type": "function"
    },
    {
      "inputs": [
        {
          "internalType": "uint32",
          "name": "siblingChainSlug_",
          "type": "uint32"
        },
        {
          "internalType": "address",
          "name": "remoteNativeSwitchboard_",
          "type": "address"
        }
      ],
      "name": "updateSibling",
      "outputs": [],
      "stateMutability": "nonpayable",
      "type": "function"
    },
    {
      "inputs": [],
      "name": "verificationOverheadFees",
      "outputs": [
        {
          "internalType": "uint128",
          "name": "",
          "type": "uint128"
        }
      ],
      "stateMutability": "view",
      "type": "function"
    },
    {
      "inputs": [
        {
          "internalType": "address",
          "name": "withdrawTo_",
          "type": "address"
        }
      ],
      "name": "withdrawFees",
      "outputs": [],
      "stateMutability": "nonpayable",
      "type": "function"
    }
  ],
  "bytecode": "0x60e06040523480156200001157600080fd5b50604051620032fc380380620032fc833981016040819052620000349162000114565b8387828780806200004581620000a8565b5050506001600160a01b0392831660a05263ffffffff9190911660c0528116608052600980546001600160a01b0319908116988316989098179055600a805488169482169490941790935550600b805490951691161790925550620001c7915050565b600080546001600160a01b0383166001600160a01b0319918216811783556001805490921690915560405190917ffbe19c9b601f5ee90b44c7390f3fa2319eba01762d34ee372aeafd59b25c7f8791a250565b6001600160a01b03811681146200011157600080fd5b50565b600080600080600080600060e0888a0312156200013057600080fd5b875163ffffffff811681146200014557600080fd5b60208901519097506200015881620000fb565b60408901519096506200016b81620000fb565b60608901519095506200017e81620000fb565b60808901519094506200019181620000fb565b60a0890151909350620001a481620000fb565b60c0890151909250620001b781620000fb565b8091505092959891949750929550565b60805160a05160c0516130c662000236600039600081816107c501528181610ebf01528181611c9001526120ab01526000818161080e015281816118b101528181611a920152611b640152600081816108b401528181610f0c01528181611cdd015261211101526130c66000f3fe6080604052600436106102c65760003560e01c80636ccae05411610179578063b349ba65116100d6578063d5b8da731161008a578063ecb9748411610064578063ecb9748414610923578063f22b460e14610943578063f5cc65dd1461096357600080fd5b8063d5b8da73146108a2578063da5b9f76146108d6578063e87f3e80146108f657600080fd5b8063c8779308116100bb578063c877930814610830578063d39a38c114610862578063d547741f1461088257600080fd5b8063b349ba65146107b3578063c6a261d2146107fc57600080fd5b80639242863b1161012d578063a085186311610112578063a085186314610753578063a9a541b214610773578063aa128e8f1461078657600080fd5b80639242863b146107065780639aefe4e01461073357600080fd5b8063771e14b91161015e578063771e14b9146106925780638da5cb5b146106bb57806391d14854146106e657600080fd5b80636ccae054146106525780636eb382121461067257600080fd5b806325750e37116102275780633bd1adec116101db5780634c408180116101c05780634c408180146105f25780634c505c2a146106125780635b94db271461063257600080fd5b80633bd1adec146105bd57806343fa97ca146105d257600080fd5b80632f2ff15d1161020c5780632f2ff15d1461052d578063357a6c631461054d578063392e53cd1461057a57600080fd5b806325750e37146104ed5780632e7eb2581461050d57600080fd5b80631ba8e4841161027e5780631e867311116102635780631e8673111461045457806320f99c0a1461047457806324677dfc146104c057600080fd5b80631ba8e484146103d65780631dd93584146103f657600080fd5b8063164e68de116102af578063164e68de14610381578063190d5e4d146103a357806319bd97dc146103b657600080fd5b806306da42e0146102cb5780630cd55abf14610346575b600080fd5b3480156102d757600080fd5b506103186102e636600461299c565b506006546fffffffffffffffffffffffffffffffff808216927001000000000000000000000000000000009092041690565b604080516fffffffffffffffffffffffffffffffff9384168152929091166020830152015b60405180910390f35b34801561035257600080fd5b506103736103613660046129d9565b60086020526000908152604090205481565b60405190815260200161033d565b34801561038d57600080fd5b506103a161039c3660046129d9565b610990565b005b6103a16103b13660046129f6565b610a7d565b3480156103c257600080fd5b506103a16103d13660046129d9565b610b77565b3480156103e257600080fd5b506103a16103f1366004612a54565b610c7f565b34801561040257600080fd5b506006546104339070010000000000000000000000000000000090046fffffffffffffffffffffffffffffffff1681565b6040516fffffffffffffffffffffffffffffffff909116815260200161033d565b34801561046057600080fd5b506103a161046f366004612ae0565b610ce0565b34801561048057600080fd5b5060015473ffffffffffffffffffffffffffffffffffffffff165b60405173ffffffffffffffffffffffffffffffffffffffff909116815260200161033d565b3480156104cc57600080fd5b5060035461049b9073ffffffffffffffffffffffffffffffffffffffff1681565b3480156104f957600080fd5b506103a1610508366004612ba9565b610e86565b34801561051957600080fd5b506103a1610528366004612a54565b61109f565b34801561053957600080fd5b506103a1610548366004612c82565b6110fb565b34801561055957600080fd5b5060055461049b9073ffffffffffffffffffffffffffffffffffffffff1681565b34801561058657600080fd5b506003546105ad907501000000000000000000000000000000000000000000900460ff1681565b604051901515815260200161033d565b3480156105c957600080fd5b506103a1611156565b3480156105de57600080fd5b506103a16105ed366004612ae0565b6111b2565b3480156105fe57600080fd5b506105ad61060d366004612cb2565b61134e565b34801561061e57600080fd5b506103a161062d3660046129d9565b6113cc565b34801561063e57600080fd5b506103a161064d3660046129d9565b6114cc565b34801561065e57600080fd5b506103a161066d366004612cf9565b61158c565b34801561067e57600080fd5b506103a161068d3660046129d9565b61162a565b34801561069e57600080fd5b50600654610433906fffffffffffffffffffffffffffffffff1681565b3480156106c757600080fd5b5060005473ffffffffffffffffffffffffffffffffffffffff1661049b565b3480156106f257600080fd5b506105ad610701366004612c82565b61172a565b34801561071257600080fd5b50610373610721366004612d3a565b60076020526000908152604090205481565b34801561073f57600080fd5b506103a161074e366004612d53565b611765565b34801561075f57600080fd5b506103a161076e366004612da7565b6119b4565b6103a161078136600461299c565b611b62565b34801561079257600080fd5b50600a5461049b9073ffffffffffffffffffffffffffffffffffffffff1681565b3480156107bf57600080fd5b506107e77f000000000000000000000000000000000000000000000000000000000000000081565b60405163ffffffff909116815260200161033d565b34801561080857600080fd5b5061049b7f000000000000000000000000000000000000000000000000000000000000000081565b34801561083c57600080fd5b506003546105ad9074010000000000000000000000000000000000000000900460ff1681565b34801561086e57600080fd5b506103a161087d366004612ba9565b611c57565b34801561088e57600080fd5b506103a161089d366004612c82565b611e7e565b3480156108ae57600080fd5b5061049b7f000000000000000000000000000000000000000000000000000000000000000081565b3480156108e257600080fd5b506103a16108f1366004612dd3565b611ed9565b34801561090257600080fd5b50600b5461049b9073ffffffffffffffffffffffffffffffffffffffff1681565b34801561092f57600080fd5b506105ad61093e366004612a54565b61205d565b34801561094f57600080fd5b506103a161095e366004612e15565b612072565b34801561096f57600080fd5b5060095461049b9073ffffffffffffffffffffffffffffffffffffffff1681565b3360009081527f9b7ec560033b826bc253a5f1a8b5e6a61c8d2a6e8731a9872b68296f6024c5ac60205260409020547f5d8e12c39142ff96d79d04d15d1ba1269e4fe57bb9d26f43523628b34ba108ec9060ff16610a22576040517f962f6333000000000000000000000000000000000000000000000000000000008152600481018290526024015b60405180910390fd5b73ffffffffffffffffffffffffffffffffffffffff8216610a6f576040517fd92e233d00000000000000000000000000000000000000000000000000000000815260040160405180910390fd5b610a7982476122b7565b5050565b6000610a888761232c565b6009546005546040517f679b6ded00000000000000000000000000000000000000000000000000000000815292935073ffffffffffffffffffffffffffffffffffffffff9182169263679b6ded923492610af6929116906000908c9089908b908e908e908c90600401612f26565b60206040518083038185885af1158015610b14573d6000803e3d6000fd5b50505050506040513d601f19601f82011682018060405250810190610b399190612f8f565b506040518781527f118f46da596dcf5757e155f254ae6f1c47c18382c3bddcf0570141bd65630442906020015b60405180910390a150505050505050565b3360009081527f0f4a237b7f9e071a612ddea08a06576f25cc7dffe13a46307ee64fe2318b3c3e60205260409020547f71840dc4906352362b0cdaf79870196c8e42acafade72d5d5a6d59291253ceb19060ff16610c04576040517f962f633300000000000000000000000000000000000000000000000000000000815260048101829052602401610a19565b600980547fffffffffffffffffffffffff00000000000000000000000000000000000000001673ffffffffffffffffffffffffffffffffffffffff84169081179091556040519081527f168d779184d93e1548b5e335b8ee0621991f54fe60724f8fbab2064506252bb4906020015b60405180910390a15050565b60005473ffffffffffffffffffffffffffffffffffffffff163314610cd0576040517f5fc483c500000000000000000000000000000000000000000000000000000000815260040160405180910390fd5b610cdb8383836123ef565b505050565b60005473ffffffffffffffffffffffffffffffffffffffff163314610d31576040517f5fc483c500000000000000000000000000000000000000000000000000000000815260040160405180910390fd5b8481141580610d405750848314155b15610d77576040517f11e86f7300000000000000000000000000000000000000000000000000000000815260040160405180910390fd5b8460005b81811015610e7c576000868683818110610d9757610d97612fa8565b9050602002016020810190610dac919061299c565b63ffffffff161115610e2c57610e27888883818110610dcd57610dcd612fa8565b90506020020135878784818110610de657610de6612fa8565b9050602002016020810190610dfb919061299c565b868685818110610e0d57610e0d612fa8565b9050602002016020810190610e2291906129d9565b6123ef565b610e74565b610e74888883818110610e4157610e41612fa8565b90506020020135858584818110610e5a57610e5a612fa8565b9050602002016020810190610e6f91906129d9565b61242c565b600101610d7b565b5050505050505050565b604080517f634a973a0f5cd4600a56e0f9a2f08c30188ba14ccde33b0d70b56e34e192d5596020820152309181019190915263ffffffff7f000000000000000000000000000000000000000000000000000000000000000016606082015260808101839052600060a082018190529073ffffffffffffffffffffffffffffffffffffffff7f000000000000000000000000000000000000000000000000000000000000000016906397aba7f99060c00160405160208183030381529060405280519060200120846040518363ffffffff1660e01b8152600401610f6a929190612fd7565b602060405180830381865afa158015610f87573d6000803e3d6000fd5b505050506040513d601f19601f82011682018060405250810190610fab9190612ff0565b9050610fd77fb0a81253fa41a5cd7c5885c220c30d519a0d552984e0d69edda03449f69fa6db826124af565b73ffffffffffffffffffffffffffffffffffffffff81166000908152600860205260409020805460018101909155831461103d576040517f756688fe00000000000000000000000000000000000000000000000000000000815260040160405180910390fd5b600380547fffffffffffffffffffffff00ffffffffffffffffffffffffffffffffffffffff169055604051600081527f42a60e0dc12250ea896a8f5156f1f3aa4567cd2bd87a72bc097210dc02ec2e05906020015b60405180910390a1505050565b60005473ffffffffffffffffffffffffffffffffffffffff1633146110f0576040517f5fc483c500000000000000000000000000000000000000000000000000000000815260040160405180910390fd5b610cdb83838361251b565b60005473ffffffffffffffffffffffffffffffffffffffff16331461114c576040517f5fc483c500000000000000000000000000000000000000000000000000000000815260040160405180910390fd5b610a798282612558565b60015473ffffffffffffffffffffffffffffffffffffffff1633146111a7576040517f7c91ccdd00000000000000000000000000000000000000000000000000000000815260040160405180910390fd5b6111b0336125de565b565b60005473ffffffffffffffffffffffffffffffffffffffff163314611203576040517f5fc483c500000000000000000000000000000000000000000000000000000000815260040160405180910390fd5b84811415806112125750848314155b15611249576040517f11e86f7300000000000000000000000000000000000000000000000000000000815260040160405180910390fd5b8460005b81811015610e7c57600086868381811061126957611269612fa8565b905060200201602081019061127e919061299c565b63ffffffff1611156112fe576112f988888381811061129f5761129f612fa8565b905060200201358787848181106112b8576112b8612fa8565b90506020020160208101906112cd919061299c565b8686858181106112df576112df612fa8565b90506020020160208101906112f491906129d9565b61251b565b611346565b61134688888381811061131357611313612fa8565b9050602002013585858481811061132c5761132c612fa8565b905060200201602081019061134191906129d9565b612558565b60010161124d565b600354600090859074010000000000000000000000000000000000000000900460ff16156113805760009150506113c3565b6004548167ffffffffffffffff16101561139e5760009150506113c3565b60008681526007602052604090205487146113bd5760009150506113c3565b60019150505b95945050505050565b3360009081527f0f4a237b7f9e071a612ddea08a06576f25cc7dffe13a46307ee64fe2318b3c3e60205260409020547f71840dc4906352362b0cdaf79870196c8e42acafade72d5d5a6d59291253ceb19060ff16611459576040517f962f633300000000000000000000000000000000000000000000000000000000815260048101829052602401610a19565b600b80547fffffffffffffffffffffffff00000000000000000000000000000000000000001673ffffffffffffffffffffffffffffffffffffffff84169081179091556040519081527f62a9574acdd04eff19c4643442fe375b2308aba0f30a547b3eb8d045df997e2590602001610c73565b60005473ffffffffffffffffffffffffffffffffffffffff16331461151d576040517f5fc483c500000000000000000000000000000000000000000000000000000000815260040160405180910390fd5b600180547fffffffffffffffffffffffff00000000000000000000000000000000000000001673ffffffffffffffffffffffffffffffffffffffff83169081179091556040517f906a1c6bd7e3091ea86693dd029a831c19049ce77f1dce2ce0bab1cacbabce2290600090a250565b3360009081527f4933f7bec34ee32db93e9f5cd7e0519781b395282211f4f6857489046ea38f7660205260409020547fc4c453d647953c0fd35db5a34ee76e60fb4abc3a8fb891a25936b70b38f292539060ff16611619576040517f962f633300000000000000000000000000000000000000000000000000000000815260048101829052602401610a19565b611624848484612656565b50505050565b3360009081527f0f4a237b7f9e071a612ddea08a06576f25cc7dffe13a46307ee64fe2318b3c3e60205260409020547f71840dc4906352362b0cdaf79870196c8e42acafade72d5d5a6d59291253ceb19060ff166116b7576040517f962f633300000000000000000000000000000000000000000000000000000000815260048101829052602401610a19565b600a80547fffffffffffffffffffffffff00000000000000000000000000000000000000001673ffffffffffffffffffffffffffffffffffffffff84169081179091556040519081527fe453d5c5d45e6cfe9f94c238fe4db5c90de0224e987ea7a7d22490e808fad56590602001610c73565b600082815260026020908152604080832073ffffffffffffffffffffffffffffffffffffffff8516845290915281205460ff165b9392505050565b3360009081527f0f4a237b7f9e071a612ddea08a06576f25cc7dffe13a46307ee64fe2318b3c3e60205260409020547f71840dc4906352362b0cdaf79870196c8e42acafade72d5d5a6d59291253ceb19060ff166117f2576040517f962f633300000000000000000000000000000000000000000000000000000000815260048101829052602401610a19565b6003547501000000000000000000000000000000000000000000900460ff1615611848576040517f0dc149f000000000000000000000000000000000000000000000000000000000815260040160405180910390fd5b60048381556040517f0b04bb4100000000000000000000000000000000000000000000000000000000815263ffffffff881691810191909152602481018690526044810185905273ffffffffffffffffffffffffffffffffffffffff83811660648301526000917f000000000000000000000000000000000000000000000000000000000000000090911690630b04bb419060840160408051808303816000875af11580156118fb573d6000803e3d6000fd5b505050506040513d601f19601f8201168201806040525081019061191f919061300d565b506003805475010000000000000000000000000000000000000000007fffffffffffffffffffff00ff000000000000000000000000000000000000000090911673ffffffffffffffffffffffffffffffffffffffff93841617179055600580547fffffffffffffffffffffffff0000000000000000000000000000000000000000169490911693909317909255505050505050565b3360009081527f0f4a237b7f9e071a612ddea08a06576f25cc7dffe13a46307ee64fe2318b3c3e60205260409020547f71840dc4906352362b0cdaf79870196c8e42acafade72d5d5a6d59291253ceb19060ff16611a41576040517f962f633300000000000000000000000000000000000000000000000000000000815260048101829052602401610a19565b6040517f81403a0200000000000000000000000000000000000000000000000000000000815263ffffffff8416600482015273ffffffffffffffffffffffffffffffffffffffff83811660248301527f000000000000000000000000000000000000000000000000000000000000000016906381403a0290604401600060405180830381600087803b158015611ad657600080fd5b505af1158015611aea573d6000803e3d6000fd5b5050600580547fffffffffffffffffffffffff00000000000000000000000000000000000000001673ffffffffffffffffffffffffffffffffffffffff86169081179091556040519081527f8d7fa3c81f6134b31f8d89d4a3adeb890d8f0db2a30cbccc23a9c8435f03ad3992506020019050611092565b7f000000000000000000000000000000000000000000000000000000000000000073ffffffffffffffffffffffffffffffffffffffff16626186f76040518163ffffffff1660e01b8152600401602060405180830381865afa158015611bcc573d6000803e3d6000fd5b505050506040513d601f19601f82011682018060405250810190611bf09190612ff0565b73ffffffffffffffffffffffffffffffffffffffff163373ffffffffffffffffffffffffffffffffffffffff1614611c54576040517f03c377c500000000000000000000000000000000000000000000000000000000815260040160405180910390fd5b50565b604080517f052968298b6036970c558bc24c756e7e868d9e6b79756deb4bce3a2d0b1f7ea06020820152309181019190915263ffffffff7f000000000000000000000000000000000000000000000000000000000000000016606082015260808101839052600160a082015260009073ffffffffffffffffffffffffffffffffffffffff7f000000000000000000000000000000000000000000000000000000000000000016906397aba7f99060c00160405160208183030381529060405280519060200120846040518363ffffffff1660e01b8152600401611d3b929190612fd7565b602060405180830381865afa158015611d58573d6000803e3d6000fd5b505050506040513d601f19601f82011682018060405250810190611d7c9190612ff0565b9050611da87fd66a896d5b3e8cd31bfd557e6ebdb5bba4561c7ce6573d5c6716876cbc83dbdd826124af565b73ffffffffffffffffffffffffffffffffffffffff811660009081526008602052604090208054600181019091558314611e0e576040517f756688fe00000000000000000000000000000000000000000000000000000000815260040160405180910390fd5b600380547fffffffffffffffffffffff00ffffffffffffffffffffffffffffffffffffffff1674010000000000000000000000000000000000000000179055604051600181527f42a60e0dc12250ea896a8f5156f1f3aa4567cd2bd87a72bc097210dc02ec2e0590602001611092565b60005473ffffffffffffffffffffffffffffffffffffffff163314611ecf576040517f5fc483c500000000000000000000000000000000000000000000000000000000815260040160405180910390fd5b610a79828261242c565b600a5473ffffffffffffffffffffffffffffffffffffffff163314611f2a576040517fddb5de5e00000000000000000000000000000000000000000000000000000000815260040160405180910390fd5b600b54604080517f80648b02000000000000000000000000000000000000000000000000000000008152905160009273ffffffffffffffffffffffffffffffffffffffff16916380648b029160048083019260209291908290030181865afa158015611f9a573d6000803e3d6000fd5b505050506040513d601f19601f82011682018060405250810190611fbe9190612ff0565b60055490915073ffffffffffffffffffffffffffffffffffffffff808316911614612015576040517fddb5de5e00000000000000000000000000000000000000000000000000000000815260040160405180910390fd5b60008381526007602090815260409182902084905581518581529081018490527f2deb1178e3fb26e6028dd1e65f4b256ad4d081b5378f772dc39abffae644dff89101611092565b600061206a848484612746565b949350505050565b604080517ff2deac1744cfd52ddfce21c5ff26abf413f6418dc4a35916e26daefd87e04ab66020820152309181019190915263ffffffff7f0000000000000000000000000000000000000000000000000000000000000000166060820152608081018790526fffffffffffffffffffffffffffffffff80861660a0830152841660c082015260009073ffffffffffffffffffffffffffffffffffffffff7f000000000000000000000000000000000000000000000000000000000000000016906397aba7f99060e0016040516020818303038152906040528051906020012085856040518463ffffffff1660e01b81526004016121719392919061303c565b602060405180830381865afa15801561218e573d6000803e3d6000fd5b505050506040513d601f19601f820116820180604052508101906121b29190612ff0565b90506121de7f429672025b2dcb8754ca4b57943f34ac66900598787cb1f1e857291dedbf34d3826124af565b73ffffffffffffffffffffffffffffffffffffffff811660009081526008602052604090208054600181019091558714612244576040517f756688fe00000000000000000000000000000000000000000000000000000000815260040160405180910390fd5b6fffffffffffffffffffffffffffffffff858116700100000000000000000000000000000000868316810282811760068190556040805192861690941782529190910490921660208301527f89c4b3602e1b8a85a33f0479f41d1ea82a498a69064feebc9c43b28fc42fc9d69101610b66565b600080600080600085875af1905080610cdb576040517f08c379a000000000000000000000000000000000000000000000000000000000815260206004820152601360248201527f4554485f5452414e534645525f4641494c4544000000000000000000000000006044820152606401610a19565b60607fda5b9f760000000000000000000000000000000000000000000000000000000082612359816127d4565b60405160248101929092526044820152606401604080517fffffffffffffffffffffffffffffffffffffffffffffffffffffffffffffffe08184030181529190526020810180517bffffffffffffffffffffffffffffffffffffffffffffffffffffffff167fffffffff000000000000000000000000000000000000000000000000000000009093169290921790915292915050565b610cdb838360405160200161241492919091825263ffffffff16602082015260400190565b60405160208183030381529060405280519060200120825b600082815260026020908152604080832073ffffffffffffffffffffffffffffffffffffffff8516808552925280832080547fffffffffffffffffffffffffffffffffffffffffffffffffffffffffffffff0016905551909184917f155aaafb6329a2098580462df33ec4b7441b19729b9601c5fc17ae1cf99a8a529190a35050565b600082815260026020908152604080832073ffffffffffffffffffffffffffffffffffffffff8516845290915290205460ff16610a79576040517f962f633300000000000000000000000000000000000000000000000000000000815260048101839052602401610a19565b610cdb838360405160200161254092919091825263ffffffff16602082015260400190565b60405160208183030381529060405280519060200120825b600082815260026020908152604080832073ffffffffffffffffffffffffffffffffffffffff8516808552925280832080547fffffffffffffffffffffffffffffffffffffffffffffffffffffffffffffff0016600117905551909184917f2ae6a113c0ed5b78a53413ffbb7679881f11145ccfba4fb92e863dfcd5a1d2f39190a35050565b6000805473ffffffffffffffffffffffffffffffffffffffff83167fffffffffffffffffffffffff0000000000000000000000000000000000000000918216811783556001805490921690915560405190917ffbe19c9b601f5ee90b44c7390f3fa2319eba01762d34ee372aeafd59b25c7f8791a250565b73ffffffffffffffffffffffffffffffffffffffff82166126a3576040517fd92e233d00000000000000000000000000000000000000000000000000000000815260040160405180910390fd5b7fffffffffffffffffffffffff111111111111111111111111111111111111111273ffffffffffffffffffffffffffffffffffffffff8416016126ea57610cdb82826122b7565b8273ffffffffffffffffffffffffffffffffffffffff163b60000361273b576040517f1eb00b0600000000000000000000000000000000000000000000000000000000815260040160405180910390fd5b610cdb8383836128b4565b600061206a848460405160200161276d92919091825263ffffffff16602082015260400190565b604080517fffffffffffffffffffffffffffffffffffffffffffffffffffffffffffffffe0818403018152918152815160209283012060009081526002835281812073ffffffffffffffffffffffffffffffffffffffff8716825290925290205460ff1690565b6003546040517fd1af313c00000000000000000000000000000000000000000000000000000000815267ffffffffffffffff83166004820152600091839173ffffffffffffffffffffffffffffffffffffffff9091169063d1af313c90602401602060405180830381865afa158015612851573d6000803e3d6000fd5b505050506040513d601f19601f820116820180604052508101906128759190612f8f565b9150816128ae576040517f849713b000000000000000000000000000000000000000000000000000000000815260040160405180910390fd5b50919050565b60006040517fa9059cbb00000000000000000000000000000000000000000000000000000000815273ffffffffffffffffffffffffffffffffffffffff84166004820152826024820152602060006044836000895af13d15601f3d1160016000511416171691505080611624576040517f08c379a000000000000000000000000000000000000000000000000000000000815260206004820152600f60248201527f5452414e534645525f4641494c454400000000000000000000000000000000006044820152606401610a19565b803563ffffffff8116811461299757600080fd5b919050565b6000602082840312156129ae57600080fd5b61175e82612983565b73ffffffffffffffffffffffffffffffffffffffff81168114611c5457600080fd5b6000602082840312156129eb57600080fd5b813561175e816129b7565b60008060008060008060c08789031215612a0f57600080fd5b863595506020870135945060408701359350606087013592506080870135612a36816129b7565b915060a0870135612a46816129b7565b809150509295509295509295565b600080600060608486031215612a6957600080fd5b83359250612a7960208501612983565b91506040840135612a89816129b7565b809150509250925092565b60008083601f840112612aa657600080fd5b50813567ffffffffffffffff811115612abe57600080fd5b6020830191508360208260051b8501011115612ad957600080fd5b9250929050565b60008060008060008060608789031215612af957600080fd5b863567ffffffffffffffff80821115612b1157600080fd5b612b1d8a838b01612a94565b90985096506020890135915080821115612b3657600080fd5b612b428a838b01612a94565b90965094506040890135915080821115612b5b57600080fd5b50612b6889828a01612a94565b979a9699509497509295939492505050565b7f4e487b7100000000000000000000000000000000000000000000000000000000600052604160045260246000fd5b60008060408385031215612bbc57600080fd5b82359150602083013567ffffffffffffffff80821115612bdb57600080fd5b818501915085601f830112612bef57600080fd5b813581811115612c0157612c01612b7a565b604051601f82017fffffffffffffffffffffffffffffffffffffffffffffffffffffffffffffffe0908116603f01168101908382118183101715612c4757612c47612b7a565b81604052828152886020848701011115612c6057600080fd5b8260208601602083013760006020848301015280955050505050509250929050565b60008060408385031215612c9557600080fd5b823591506020830135612ca7816129b7565b809150509250929050565b600080600080600060a08688031215612cca57600080fd5b853594506020860135935060408601359250612ce860608701612983565b949793965091946080013592915050565b600080600060608486031215612d0e57600080fd5b8335612d19816129b7565b92506020840135612d29816129b7565b929592945050506040919091013590565b600060208284031215612d4c57600080fd5b5035919050565b600080600080600060a08688031215612d6b57600080fd5b612d7486612983565b94506020860135935060408601359250606086013591506080860135612d99816129b7565b809150509295509295909350565b60008060408385031215612dba57600080fd5b612dc383612983565b91506020830135612ca7816129b7565b60008060408385031215612de657600080fd5b50508035926020909101359150565b80356fffffffffffffffffffffffffffffffff8116811461299757600080fd5b60008060008060008060a08789031215612e2e57600080fd5b86359550612e3e60208801612983565b9450612e4c60408801612df5565b9350612e5a60608801612df5565b9250608087013567ffffffffffffffff80821115612e7757600080fd5b818901915089601f830112612e8b57600080fd5b813581811115612e9a57600080fd5b8a6020828501011115612eac57600080fd5b6020830194508093505050509295509295509295565b6000815180845260005b81811015612ee857602081850181015186830182015201612ecc565b5060006020828601015260207fffffffffffffffffffffffffffffffffffffffffffffffffffffffffffffffe0601f83011685010191505092915050565b600061010073ffffffffffffffffffffffffffffffffffffffff808c1684528a602085015289604085015280891660608501528088166080850152508560a08401528460c08401528060e0840152612f8081840185612ec2565b9b9a5050505050505050505050565b600060208284031215612fa157600080fd5b5051919050565b7f4e487b7100000000000000000000000000000000000000000000000000000000600052603260045260246000fd5b82815260406020820152600061206a6040830184612ec2565b60006020828403121561300257600080fd5b815161175e816129b7565b6000806040838503121561302057600080fd5b825161302b816129b7565b6020840151909250612ca7816129b7565b83815260406020820152816040820152818360608301376000818301606090810191909152601f9092017fffffffffffffffffffffffffffffffffffffffffffffffffffffffffffffffe01601019291505056fea2646970667358221220376aa9800634072969e7dbb7f495a01070fd3ea2cd1c523ead1c406f4ab9ffbf64736f6c63430008130033",
  "linkReferences": {},
  "deployedLinkReferences": {}
}