{
  "_format": "hh-sol-artifact-1",
  "contractName": "CapacitorFactory",
  "sourceName": "contracts/CapacitorFactory.sol",
  "abi": [
    {
      "inputs": [
        {
          "internalType": "address",
          "name": "owner_",
          "type": "address"
        },
        {
          "internalType": "uint256",
          "name": "maxAllowedPacketLength_",
          "type": "uint256"
        }
      ],
      "stateMutability": "nonpayable",
      "type": "constructor"
    },
    {
      "inputs": [],
      "name": "InvalidCapacitorType",
      "type": "error"
    },
    {
      "inputs": [],
      "name": "InvalidTokenAddress",
      "type": "error"
    },
    {
      "inputs": [
        {
          "internalType": "bytes32",
          "name": "role",
          "type": "bytes32"
        }
      ],
      "name": "NoPermit",
      "type": "error"
    },
    {
      "inputs": [],
      "name": "OnlyNominee",
      "type": "error"
    },
    {
      "inputs": [],
      "name": "OnlyOwner",
      "type": "error"
    },
    {
      "inputs": [],
      "name": "PacketLengthNotAllowed",
      "type": "error"
    },
    {
      "inputs": [],
      "name": "ZeroAddress",
      "type": "error"
    },
    {
      "anonymous": false,
      "inputs": [
        {
          "indexed": true,
          "internalType": "address",
          "name": "claimer",
          "type": "address"
        }
      ],
      "name": "OwnerClaimed",
      "type": "event"
    },
    {
      "anonymous": false,
      "inputs": [
        {
          "indexed": true,
          "internalType": "address",
          "name": "nominee",
          "type": "address"
        }
      ],
      "name": "OwnerNominated",
      "type": "event"
    },
    {
      "anonymous": false,
      "inputs": [
        {
          "indexed": true,
          "internalType": "bytes32",
          "name": "role",
          "type": "bytes32"
        },
        {
          "indexed": true,
          "internalType": "address",
          "name": "grantee",
          "type": "address"
        }
      ],
      "name": "RoleGranted",
      "type": "event"
    },
    {
      "anonymous": false,
      "inputs": [
        {
          "indexed": true,
          "internalType": "bytes32",
          "name": "role",
          "type": "bytes32"
        },
        {
          "indexed": true,
          "internalType": "address",
          "name": "revokee",
          "type": "address"
        }
      ],
      "name": "RoleRevoked",
      "type": "event"
    },
    {
      "inputs": [],
      "name": "claimOwner",
      "outputs": [],
      "stateMutability": "nonpayable",
      "type": "function"
    },
    {
      "inputs": [
        {
          "internalType": "uint256",
          "name": "capacitorType_",
          "type": "uint256"
        },
        {
          "internalType": "uint32",
          "name": "",
          "type": "uint32"
        },
        {
          "internalType": "uint256",
          "name": "maxPacketLength_",
          "type": "uint256"
        }
      ],
      "name": "deploy",
      "outputs": [
        {
          "internalType": "contract ICapacitor",
          "name": "",
          "type": "address"
        },
        {
          "internalType": "contract IDecapacitor",
          "name": "",
          "type": "address"
        }
      ],
      "stateMutability": "nonpayable",
      "type": "function"
    },
    {
      "inputs": [
        {
          "internalType": "bytes32",
          "name": "role_",
          "type": "bytes32"
        },
        {
          "internalType": "address",
          "name": "grantee_",
          "type": "address"
        }
      ],
      "name": "grantRole",
      "outputs": [],
      "stateMutability": "nonpayable",
      "type": "function"
    },
    {
      "inputs": [
        {
          "internalType": "bytes32",
          "name": "role_",
          "type": "bytes32"
        },
        {
          "internalType": "address",
          "name": "address_",
          "type": "address"
        }
      ],
      "name": "hasRole",
      "outputs": [
        {
          "internalType": "bool",
          "name": "",
          "type": "bool"
        }
      ],
      "stateMutability": "view",
      "type": "function"
    },
    {
      "inputs": [],
      "name": "maxAllowedPacketLength",
      "outputs": [
        {
          "internalType": "uint256",
          "name": "",
          "type": "uint256"
        }
      ],
      "stateMutability": "view",
      "type": "function"
    },
    {
      "inputs": [],
      "name": "minAllowedPacketLength",
      "outputs": [
        {
          "internalType": "uint256",
          "name": "",
          "type": "uint256"
        }
      ],
      "stateMutability": "view",
      "type": "function"
    },
    {
      "inputs": [
        {
          "internalType": "address",
          "name": "nominee_",
          "type": "address"
        }
      ],
      "name": "nominateOwner",
      "outputs": [],
      "stateMutability": "nonpayable",
      "type": "function"
    },
    {
      "inputs": [],
      "name": "nominee",
      "outputs": [
        {
          "internalType": "address",
          "name": "",
          "type": "address"
        }
      ],
      "stateMutability": "view",
      "type": "function"
    },
    {
      "inputs": [],
      "name": "owner",
      "outputs": [
        {
          "internalType": "address",
          "name": "",
          "type": "address"
        }
      ],
      "stateMutability": "view",
      "type": "function"
    },
    {
      "inputs": [
        {
          "internalType": "address",
          "name": "token_",
          "type": "address"
        },
        {
          "internalType": "address",
          "name": "rescueTo_",
          "type": "address"
        },
        {
          "internalType": "uint256",
          "name": "amount_",
          "type": "uint256"
        }
      ],
      "name": "rescueFunds",
      "outputs": [],
      "stateMutability": "nonpayable",
      "type": "function"
    },
    {
      "inputs": [
        {
          "internalType": "bytes32",
          "name": "role_",
          "type": "bytes32"
        },
        {
          "internalType": "address",
          "name": "revokee_",
          "type": "address"
        }
      ],
      "name": "revokeRole",
      "outputs": [],
      "stateMutability": "nonpayable",
      "type": "function"
    }
  ],
  "bytecode": "0x60a060405234801561001057600080fd5b506040516126b73803806126b783398101604081905261002f9161011e565b818061003a81610070565b5061006790507fc4c453d647953c0fd35db5a34ee76e60fb4abc3a8fb891a25936b70b38f29253836100c3565b60805250610158565b600080546001600160a01b0383166001600160a01b0319918216811783556001805490921690915560405190917ffbe19c9b601f5ee90b44c7390f3fa2319eba01762d34ee372aeafd59b25c7f8791a250565b60008281526002602090815260408083206001600160a01b0385168085529252808320805460ff1916600117905551909184917f2ae6a113c0ed5b78a53413ffbb7679881f11145ccfba4fb92e863dfcd5a1d2f39190a35050565b6000806040838503121561013157600080fd5b82516001600160a01b038116811461014857600080fd5b6020939093015192949293505050565b60805161253d61017a600039600081816102040152610235015261253d6000f3fe608060405234801561001057600080fd5b50600436106100c95760003560e01c80636ccae05411610081578063d547741f1161005b578063d547741f146101d6578063d6a47312146101e9578063f4ca9b24146101ff57600080fd5b80636ccae054146101825780638da5cb5b1461019557806391d14854146101b357600080fd5b80632f2ff15d116100b25780632f2ff15d146101525780633bd1adec146101675780635b94db271461016f57600080fd5b806320f99c0a146100ce578063284fb36314610112575b600080fd5b60015473ffffffffffffffffffffffffffffffffffffffff165b60405173ffffffffffffffffffffffffffffffffffffffff90911681526020015b60405180910390f35b610125610120366004610a6b565b610226565b6040805173ffffffffffffffffffffffffffffffffffffffff938416815292909116602083015201610109565b610165610160366004610ad1565b6103e3565b005b610165610442565b61016561017d366004610b01565b61049e565b610165610190366004610b1e565b61055e565b60005473ffffffffffffffffffffffffffffffffffffffff166100e8565b6101c66101c1366004610ad1565b610601565b6040519015158152602001610109565b6101656101e4366004610ad1565b61063c565b6101f1600181565b604051908152602001610109565b6101f17f000000000000000000000000000000000000000000000000000000000000000081565b600080600183108061025757507f000000000000000000000000000000000000000000000000000000000000000083115b1561028e576040517f83d360ad00000000000000000000000000000000000000000000000000000000815260040160405180910390fd5b60003073ffffffffffffffffffffffffffffffffffffffff16638da5cb5b6040518163ffffffff1660e01b8152600401602060405180830381865afa1580156102db573d6000803e3d6000fd5b505050506040513d601f19601f820116820180604052508101906102ff9190610b4e565b9050600186036103a957338160405161031790610a51565b73ffffffffffffffffffffffffffffffffffffffff928316815291166020820152604001604051809103906000f080158015610357573d6000803e3d6000fd5b508160405161036590610a5e565b73ffffffffffffffffffffffffffffffffffffffff9091168152602001604051809103906000f08015801561039e573d6000803e3d6000fd5b5092509250506103db565b6040517f3935408900000000000000000000000000000000000000000000000000000000815260040160405180910390fd5b935093915050565b60005473ffffffffffffffffffffffffffffffffffffffff163314610434576040517f5fc483c500000000000000000000000000000000000000000000000000000000815260040160405180910390fd5b61043e8282610697565b5050565b60015473ffffffffffffffffffffffffffffffffffffffff163314610493576040517f7c91ccdd00000000000000000000000000000000000000000000000000000000815260040160405180910390fd5b61049c3361071d565b565b60005473ffffffffffffffffffffffffffffffffffffffff1633146104ef576040517f5fc483c500000000000000000000000000000000000000000000000000000000815260040160405180910390fd5b600180547fffffffffffffffffffffffff00000000000000000000000000000000000000001673ffffffffffffffffffffffffffffffffffffffff83169081179091556040517f906a1c6bd7e3091ea86693dd029a831c19049ce77f1dce2ce0bab1cacbabce2290600090a250565b3360009081527f4933f7bec34ee32db93e9f5cd7e0519781b395282211f4f6857489046ea38f7660205260409020547fc4c453d647953c0fd35db5a34ee76e60fb4abc3a8fb891a25936b70b38f292539060ff166105f0576040517f962f6333000000000000000000000000000000000000000000000000000000008152600481018290526024015b60405180910390fd5b6105fb848484610795565b50505050565b600082815260026020908152604080832073ffffffffffffffffffffffffffffffffffffffff8516845290915281205460ff165b9392505050565b60005473ffffffffffffffffffffffffffffffffffffffff16331461068d576040517f5fc483c500000000000000000000000000000000000000000000000000000000815260040160405180910390fd5b61043e828261088a565b600082815260026020908152604080832073ffffffffffffffffffffffffffffffffffffffff8516808552925280832080547fffffffffffffffffffffffffffffffffffffffffffffffffffffffffffffff0016600117905551909184917f2ae6a113c0ed5b78a53413ffbb7679881f11145ccfba4fb92e863dfcd5a1d2f39190a35050565b6000805473ffffffffffffffffffffffffffffffffffffffff83167fffffffffffffffffffffffff0000000000000000000000000000000000000000918216811783556001805490921690915560405190917ffbe19c9b601f5ee90b44c7390f3fa2319eba01762d34ee372aeafd59b25c7f8791a250565b73ffffffffffffffffffffffffffffffffffffffff82166107e2576040517fd92e233d00000000000000000000000000000000000000000000000000000000815260040160405180910390fd5b7fffffffffffffffffffffffff111111111111111111111111111111111111111273ffffffffffffffffffffffffffffffffffffffff84160161082e57610829828261090d565b505050565b8273ffffffffffffffffffffffffffffffffffffffff163b60000361087f576040517f1eb00b0600000000000000000000000000000000000000000000000000000000815260040160405180910390fd5b610829838383610982565b600082815260026020908152604080832073ffffffffffffffffffffffffffffffffffffffff8516808552925280832080547fffffffffffffffffffffffffffffffffffffffffffffffffffffffffffffff0016905551909184917f155aaafb6329a2098580462df33ec4b7441b19729b9601c5fc17ae1cf99a8a529190a35050565b600080600080600085875af1905080610829576040517f08c379a000000000000000000000000000000000000000000000000000000000815260206004820152601360248201527f4554485f5452414e534645525f4641494c45440000000000000000000000000060448201526064016105e7565b60006040517fa9059cbb00000000000000000000000000000000000000000000000000000000815273ffffffffffffffffffffffffffffffffffffffff84166004820152826024820152602060006044836000895af13d15601f3d11600160005114161716915050806105fb576040517f08c379a000000000000000000000000000000000000000000000000000000000815260206004820152600f60248201527f5452414e534645525f4641494c4544000000000000000000000000000000000060448201526064016105e7565b610edb80610b6c83390190565b610ac180611a4783390190565b600080600060608486031215610a8057600080fd5b83359250602084013563ffffffff81168114610a9b57600080fd5b929592945050506040919091013590565b73ffffffffffffffffffffffffffffffffffffffff81168114610ace57600080fd5b50565b60008060408385031215610ae457600080fd5b823591506020830135610af681610aac565b809150509250929050565b600060208284031215610b1357600080fd5b813561063581610aac565b600080600060608486031215610b3357600080fd5b8335610b3e81610aac565b92506020840135610a9b81610aac565b600060208284031215610b6057600080fd5b815161063581610aac56fe60a060405234801561001057600080fd5b50604051610edb380380610edb83398101604081905261002f91610148565b8181808061003c8161007e565b50506001600160a01b0382166080526100757fc4c453d647953c0fd35db5a34ee76e60fb4abc3a8fb891a25936b70b38f29253826100d1565b5050505061017b565b600080546001600160a01b0383166001600160a01b0319918216811783556001805490921690915560405190917ffbe19c9b601f5ee90b44c7390f3fa2319eba01762d34ee372aeafd59b25c7f8791a250565b60008281526002602090815260408083206001600160a01b0385168085529252808320805460ff1916600117905551909184917f2ae6a113c0ed5b78a53413ffbb7679881f11145ccfba4fb92e863dfcd5a1d2f39190a35050565b80516001600160a01b038116811461014357600080fd5b919050565b6000806040838503121561015b57600080fd5b6101648361012c565b91506101726020840161012c565b90509250929050565b608051610d376101a4600039600081816101430152818161056301526106cb0152610d376000f3fe608060405234801561001057600080fd5b50600436106100f55760003560e01c80636ccae054116100975780639471651e116100665780639471651e14610215578063d1af313c1461025d578063d547741f14610287578063d7c9eaac1461029a57600080fd5b80636ccae054146101ae5780638da5cb5b146101c157806391d14854146101df578063920ee8a81461020257600080fd5b80632ff9f2c9116100d35780632ff9f2c91461017a5780633bd1adec1461018b5780635b94db27146101935780636afc0f38146101a657600080fd5b806320f99c0a146100fa57806322c8f6cd1461013e5780632f2ff15d14610165575b600080fd5b60015473ffffffffffffffffffffffffffffffffffffffff165b60405173ffffffffffffffffffffffffffffffffffffffff90911681526020015b60405180910390f35b6101147f000000000000000000000000000000000000000000000000000000000000000081565b610178610173366004610bbd565b6102ad565b005b60015b604051908152602001610135565b61017861030c565b6101786101a1366004610be9565b610368565b61017d610428565b6101786101bc366004610c04565b61046d565b60005473ffffffffffffffffffffffffffffffffffffffff16610114565b6101f26101ed366004610bbd565b610510565b6040519015158152602001610135565b610178610210366004610c40565b61054b565b60035468010000000000000000900467ffffffffffffffff16600081815260046020526040902054905b6040805192835267ffffffffffffffff909116602083015201610135565b61017d61026b366004610c59565b67ffffffffffffffff1660009081526004602052604090205490565b610178610295366004610bbd565b610655565b61023f6102a8366004610c40565b6106b0565b60005473ffffffffffffffffffffffffffffffffffffffff1633146102fe576040517f5fc483c500000000000000000000000000000000000000000000000000000000815260040160405180910390fd5b61030882826107da565b5050565b60015473ffffffffffffffffffffffffffffffffffffffff16331461035d576040517f7c91ccdd00000000000000000000000000000000000000000000000000000000815260040160405180910390fd5b61036633610860565b565b60005473ffffffffffffffffffffffffffffffffffffffff1633146103b9576040517f5fc483c500000000000000000000000000000000000000000000000000000000815260040160405180910390fd5b600180547fffffffffffffffffffffffff00000000000000000000000000000000000000001673ffffffffffffffffffffffffffffffffffffffff83169081179091556040517f906a1c6bd7e3091ea86693dd029a831c19049ce77f1dce2ce0bab1cacbabce2290600090a250565b60035460009067ffffffffffffffff161561045b576003546104569060019067ffffffffffffffff16610cb2565b61045e565b60005b67ffffffffffffffff16905090565b3360009081527f4933f7bec34ee32db93e9f5cd7e0519781b395282211f4f6857489046ea38f7660205260409020547fc4c453d647953c0fd35db5a34ee76e60fb4abc3a8fb891a25936b70b38f292539060ff166104ff576040517f962f6333000000000000000000000000000000000000000000000000000000008152600481018290526024015b60405180910390fd5b61050a8484846108d8565b50505050565b600082815260026020908152604080832073ffffffffffffffffffffffffffffffffffffffff8516845290915281205460ff165b9392505050565b3373ffffffffffffffffffffffffffffffffffffffff7f000000000000000000000000000000000000000000000000000000000000000016146105ba576040517f503284dc00000000000000000000000000000000000000000000000000000000815260040160405180910390fd5b6003805460009167ffffffffffffffff90911690826105d883610cda565b82546101009290920a67ffffffffffffffff818102199093169183160217909155811660008181526004602090815260409182902086905581518681529081019290925281018490529091507f9ed9683bfff0f737f91f20945e98c912976d94e76860b05b48b15bc0d589be1f9060600160405180910390a15050565b60005473ffffffffffffffffffffffffffffffffffffffff1633146106a6576040517f5fc483c500000000000000000000000000000000000000000000000000000000815260040160405180910390fd5b61030882826109cd565b6000803373ffffffffffffffffffffffffffffffffffffffff7f00000000000000000000000000000000000000000000000000000000000000001614610722576040517f503284dc00000000000000000000000000000000000000000000000000000000815260040160405180910390fd5b600380546000916801000000000000000090910467ffffffffffffffff1690600861074c83610cda565b82546101009290920a67ffffffffffffffff81810219909316918316021790915581166000908152600460205260409020549091506107b7576040517fa902392300000000000000000000000000000000000000000000000000000000815260040160405180910390fd5b67ffffffffffffffff811660009081526004602052604090205492509050915091565b600082815260026020908152604080832073ffffffffffffffffffffffffffffffffffffffff8516808552925280832080547fffffffffffffffffffffffffffffffffffffffffffffffffffffffffffffff0016600117905551909184917f2ae6a113c0ed5b78a53413ffbb7679881f11145ccfba4fb92e863dfcd5a1d2f39190a35050565b6000805473ffffffffffffffffffffffffffffffffffffffff83167fffffffffffffffffffffffff0000000000000000000000000000000000000000918216811783556001805490921690915560405190917ffbe19c9b601f5ee90b44c7390f3fa2319eba01762d34ee372aeafd59b25c7f8791a250565b73ffffffffffffffffffffffffffffffffffffffff8216610925576040517fd92e233d00000000000000000000000000000000000000000000000000000000815260040160405180910390fd5b7fffffffffffffffffffffffff111111111111111111111111111111111111111273ffffffffffffffffffffffffffffffffffffffff8416016109715761096c8282610a50565b505050565b8273ffffffffffffffffffffffffffffffffffffffff163b6000036109c2576040517f1eb00b0600000000000000000000000000000000000000000000000000000000815260040160405180910390fd5b61096c838383610ac5565b600082815260026020908152604080832073ffffffffffffffffffffffffffffffffffffffff8516808552925280832080547fffffffffffffffffffffffffffffffffffffffffffffffffffffffffffffff0016905551909184917f155aaafb6329a2098580462df33ec4b7441b19729b9601c5fc17ae1cf99a8a529190a35050565b600080600080600085875af190508061096c576040517f08c379a000000000000000000000000000000000000000000000000000000000815260206004820152601360248201527f4554485f5452414e534645525f4641494c45440000000000000000000000000060448201526064016104f6565b60006040517fa9059cbb00000000000000000000000000000000000000000000000000000000815273ffffffffffffffffffffffffffffffffffffffff84166004820152826024820152602060006044836000895af13d15601f3d116001600051141617169150508061050a576040517f08c379a000000000000000000000000000000000000000000000000000000000815260206004820152600f60248201527f5452414e534645525f4641494c4544000000000000000000000000000000000060448201526064016104f6565b803573ffffffffffffffffffffffffffffffffffffffff81168114610bb857600080fd5b919050565b60008060408385031215610bd057600080fd5b82359150610be060208401610b94565b90509250929050565b600060208284031215610bfb57600080fd5b61054482610b94565b600080600060608486031215610c1957600080fd5b610c2284610b94565b9250610c3060208501610b94565b9150604084013590509250925092565b600060208284031215610c5257600080fd5b5035919050565b600060208284031215610c6b57600080fd5b813567ffffffffffffffff8116811461054457600080fd5b7f4e487b7100000000000000000000000000000000000000000000000000000000600052601160045260246000fd5b67ffffffffffffffff828116828216039080821115610cd357610cd3610c83565b5092915050565b600067ffffffffffffffff808316818103610cf757610cf7610c83565b600101939250505056fea264697066735822122090fec61b249f4f07c1121f9b8e70af5a6f1f97bdd815c6d06c6978c1a664fd6264736f6c63430008130033608060405234801561001057600080fd5b50604051610ac1380380610ac183398101604081905261002f9161011b565b808061003a8161006d565b5061006790507fc4c453d647953c0fd35db5a34ee76e60fb4abc3a8fb891a25936b70b38f29253826100c0565b5061014b565b600080546001600160a01b0383166001600160a01b0319918216811783556001805490921690915560405190917ffbe19c9b601f5ee90b44c7390f3fa2319eba01762d34ee372aeafd59b25c7f8791a250565b60008281526002602090815260408083206001600160a01b0385168085529252808320805460ff1916600117905551909184917f2ae6a113c0ed5b78a53413ffbb7679881f11145ccfba4fb92e863dfcd5a1d2f39190a35050565b60006020828403121561012d57600080fd5b81516001600160a01b038116811461014457600080fd5b9392505050565b6109678061015a6000396000f3fe608060405234801561001057600080fd5b50600436106100a35760003560e01c80635b94db27116100765780638da5cb5b1161005b5780638da5cb5b1461015357806391d1485414610171578063d547741f1461018457600080fd5b80635b94db271461012d5780636ccae0541461014057600080fd5b806320f99c0a146100a85780632d095c43146100ec5780632f2ff15d146101105780633bd1adec14610125575b600080fd5b60015473ffffffffffffffffffffffffffffffffffffffff165b60405173ffffffffffffffffffffffffffffffffffffffff90911681526020015b60405180910390f35b6101006100fa366004610805565b50501490565b60405190151581526020016100e3565b61012361011e3660046108ae565b610197565b005b6101236101f6565b61012361013b3660046108da565b610252565b61012361014e3660046108f5565b610312565b60005473ffffffffffffffffffffffffffffffffffffffff166100c2565b61010061017f3660046108ae565b6103b5565b6101236101923660046108ae565b6103f0565b60005473ffffffffffffffffffffffffffffffffffffffff1633146101e8576040517f5fc483c500000000000000000000000000000000000000000000000000000000815260040160405180910390fd5b6101f2828261044b565b5050565b60015473ffffffffffffffffffffffffffffffffffffffff163314610247576040517f7c91ccdd00000000000000000000000000000000000000000000000000000000815260040160405180910390fd5b610250336104d1565b565b60005473ffffffffffffffffffffffffffffffffffffffff1633146102a3576040517f5fc483c500000000000000000000000000000000000000000000000000000000815260040160405180910390fd5b600180547fffffffffffffffffffffffff00000000000000000000000000000000000000001673ffffffffffffffffffffffffffffffffffffffff83169081179091556040517f906a1c6bd7e3091ea86693dd029a831c19049ce77f1dce2ce0bab1cacbabce2290600090a250565b3360009081527f4933f7bec34ee32db93e9f5cd7e0519781b395282211f4f6857489046ea38f7660205260409020547fc4c453d647953c0fd35db5a34ee76e60fb4abc3a8fb891a25936b70b38f292539060ff166103a4576040517f962f6333000000000000000000000000000000000000000000000000000000008152600481018290526024015b60405180910390fd5b6103af848484610549565b50505050565b600082815260026020908152604080832073ffffffffffffffffffffffffffffffffffffffff8516845290915281205460ff165b9392505050565b60005473ffffffffffffffffffffffffffffffffffffffff163314610441576040517f5fc483c500000000000000000000000000000000000000000000000000000000815260040160405180910390fd5b6101f2828261063e565b600082815260026020908152604080832073ffffffffffffffffffffffffffffffffffffffff8516808552925280832080547fffffffffffffffffffffffffffffffffffffffffffffffffffffffffffffff0016600117905551909184917f2ae6a113c0ed5b78a53413ffbb7679881f11145ccfba4fb92e863dfcd5a1d2f39190a35050565b6000805473ffffffffffffffffffffffffffffffffffffffff83167fffffffffffffffffffffffff0000000000000000000000000000000000000000918216811783556001805490921690915560405190917ffbe19c9b601f5ee90b44c7390f3fa2319eba01762d34ee372aeafd59b25c7f8791a250565b73ffffffffffffffffffffffffffffffffffffffff8216610596576040517fd92e233d00000000000000000000000000000000000000000000000000000000815260040160405180910390fd5b7fffffffffffffffffffffffff111111111111111111111111111111111111111273ffffffffffffffffffffffffffffffffffffffff8416016105e2576105dd82826106c1565b505050565b8273ffffffffffffffffffffffffffffffffffffffff163b600003610633576040517f1eb00b0600000000000000000000000000000000000000000000000000000000815260040160405180910390fd5b6105dd838383610736565b600082815260026020908152604080832073ffffffffffffffffffffffffffffffffffffffff8516808552925280832080547fffffffffffffffffffffffffffffffffffffffffffffffffffffffffffffff0016905551909184917f155aaafb6329a2098580462df33ec4b7441b19729b9601c5fc17ae1cf99a8a529190a35050565b600080600080600085875af19050806105dd576040517f08c379a000000000000000000000000000000000000000000000000000000000815260206004820152601360248201527f4554485f5452414e534645525f4641494c454400000000000000000000000000604482015260640161039b565b60006040517fa9059cbb00000000000000000000000000000000000000000000000000000000815273ffffffffffffffffffffffffffffffffffffffff84166004820152826024820152602060006044836000895af13d15601f3d11600160005114161716915050806103af576040517f08c379a000000000000000000000000000000000000000000000000000000000815260206004820152600f60248201527f5452414e534645525f4641494c45440000000000000000000000000000000000604482015260640161039b565b6000806000806060858703121561081b57600080fd5b8435935060208501359250604085013567ffffffffffffffff8082111561084157600080fd5b818701915087601f83011261085557600080fd5b81358181111561086457600080fd5b88602082850101111561087657600080fd5b95989497505060200194505050565b803573ffffffffffffffffffffffffffffffffffffffff811681146108a957600080fd5b919050565b600080604083850312156108c157600080fd5b823591506108d160208401610885565b90509250929050565b6000602082840312156108ec57600080fd5b6103e982610885565b60008060006060848603121561090a57600080fd5b61091384610885565b925061092160208501610885565b915060408401359050925092509256fea2646970667358221220b34e0047ad30fc8f6dd6273fc6565f127a8ee6f3040aba3fa51851313b62618764736f6c63430008130033a2646970667358221220aed718f4d91ff6e255272acace5483d83a394ccb21a889457596fe6849123fec64736f6c63430008130033",
  "linkReferences": {},
  "deployedLinkReferences": {}
}