{
  "_format": "hh-sol-artifact-1",
  "contractName": "SocketSimulator",
  "sourceName": "contracts/mocks/fee-updater/SocketSimulator.sol",
  "abi": [
    {
      "inputs": [
        {
          "internalType": "uint32",
          "name": "chainSlug_",
          "type": "uint32"
        },
        {
          "internalType": "uint32",
          "name": "siblingChainSlug_",
          "type": "uint32"
        },
        {
          "internalType": "address",
          "name": "hasher_",
          "type": "address"
        },
        {
          "internalType": "address",
          "name": "signatureVerifier_",
          "type": "address"
        },
        {
          "internalType": "string",
          "name": "version_",
          "type": "string"
        }
      ],
      "stateMutability": "nonpayable",
      "type": "constructor"
    },
    {
      "inputs": [],
      "name": "ErrInSourceValidation",
      "type": "error"
    },
    {
      "inputs": [],
      "name": "InvalidCapacitorAddress",
      "type": "error"
    },
    {
      "inputs": [],
      "name": "InvalidPacketId",
      "type": "error"
    },
    {
      "inputs": [],
      "name": "InvalidProof",
      "type": "error"
    },
    {
      "inputs": [],
      "name": "LowGasLimit",
      "type": "error"
    },
    {
      "inputs": [],
      "name": "MessageAlreadyExecuted",
      "type": "error"
    },
    {
      "inputs": [
        {
          "internalType": "bytes32",
          "name": "role",
          "type": "bytes32"
        }
      ],
      "name": "NoPermit",
      "type": "error"
    },
    {
      "inputs": [],
      "name": "NotExecutor",
      "type": "error"
    },
    {
      "inputs": [],
      "name": "OnlyNominee",
      "type": "error"
    },
    {
      "inputs": [],
      "name": "OnlyOwner",
      "type": "error"
    },
    {
      "inputs": [],
      "name": "PacketNotProposed",
      "type": "error"
    },
    {
      "inputs": [],
      "name": "VerificationFailed",
      "type": "error"
    },
    {
      "anonymous": false,
      "inputs": [
        {
          "indexed": false,
          "internalType": "bytes32",
          "name": "msgId",
          "type": "bytes32"
        }
      ],
      "name": "ExecutionSuccess",
      "type": "event"
    },
    {
      "anonymous": false,
      "inputs": [
        {
          "indexed": true,
          "internalType": "address",
          "name": "claimer",
          "type": "address"
        }
      ],
      "name": "OwnerClaimed",
      "type": "event"
    },
    {
      "anonymous": false,
      "inputs": [
        {
          "indexed": true,
          "internalType": "address",
          "name": "nominee",
          "type": "address"
        }
      ],
      "name": "OwnerNominated",
      "type": "event"
    },
    {
      "anonymous": false,
      "inputs": [
        {
          "indexed": true,
          "internalType": "address",
          "name": "transmitter",
          "type": "address"
        },
        {
          "indexed": true,
          "internalType": "bytes32",
          "name": "packetId",
          "type": "bytes32"
        },
        {
          "indexed": false,
          "internalType": "uint256",
          "name": "proposalCount",
          "type": "uint256"
        },
        {
          "indexed": false,
          "internalType": "bytes32",
          "name": "root",
          "type": "bytes32"
        },
        {
          "indexed": false,
          "internalType": "address",
          "name": "switchboard",
          "type": "address"
        }
      ],
      "name": "PacketProposed",
      "type": "event"
    },
    {
      "anonymous": false,
      "inputs": [
        {
          "indexed": true,
          "internalType": "bytes32",
          "name": "role",
          "type": "bytes32"
        },
        {
          "indexed": true,
          "internalType": "address",
          "name": "grantee",
          "type": "address"
        }
      ],
      "name": "RoleGranted",
      "type": "event"
    },
    {
      "anonymous": false,
      "inputs": [
        {
          "indexed": true,
          "internalType": "bytes32",
          "name": "role",
          "type": "bytes32"
        },
        {
          "indexed": true,
          "internalType": "address",
          "name": "revokee",
          "type": "address"
        }
      ],
      "name": "RoleRevoked",
      "type": "event"
    },
    {
      "anonymous": false,
      "inputs": [
        {
          "indexed": true,
          "internalType": "address",
          "name": "transmitter",
          "type": "address"
        },
        {
          "indexed": true,
          "internalType": "bytes32",
          "name": "packetId",
          "type": "bytes32"
        },
        {
          "indexed": false,
          "internalType": "uint256",
          "name": "batchSize",
          "type": "uint256"
        },
        {
          "indexed": false,
          "internalType": "bytes32",
          "name": "root",
          "type": "bytes32"
        },
        {
          "indexed": false,
          "internalType": "bytes",
          "name": "signature",
          "type": "bytes"
        }
      ],
      "name": "Sealed",
      "type": "event"
    },
    {
      "inputs": [],
      "name": "capacitor",
      "outputs": [
        {
          "internalType": "contract SingleCapacitor",
          "name": "",
          "type": "address"
        }
      ],
      "stateMutability": "view",
      "type": "function"
    },
    {
      "inputs": [
        {
          "internalType": "address",
          "name": "",
          "type": "address"
        }
      ],
      "name": "capacitorToSlug",
      "outputs": [
        {
          "internalType": "uint32",
          "name": "",
          "type": "uint32"
        }
      ],
      "stateMutability": "view",
      "type": "function"
    },
    {
      "inputs": [],
      "name": "chainSlug",
      "outputs": [
        {
          "internalType": "uint32",
          "name": "",
          "type": "uint32"
        }
      ],
      "stateMutability": "view",
      "type": "function"
    },
    {
      "inputs": [],
      "name": "claimOwner",
      "outputs": [],
      "stateMutability": "nonpayable",
      "type": "function"
    },
    {
      "inputs": [
        {
          "components": [
            {
              "internalType": "bytes32",
              "name": "packetId",
              "type": "bytes32"
            },
            {
              "internalType": "uint256",
              "name": "proposalCount",
              "type": "uint256"
            },
            {
              "internalType": "uint256",
              "name": "executionGasLimit",
              "type": "uint256"
            },
            {
              "internalType": "bytes",
              "name": "decapacitorProof",
              "type": "bytes"
            },
            {
              "internalType": "bytes",
              "name": "signature",
              "type": "bytes"
            }
          ],
          "internalType": "struct ISocket.ExecutionDetails",
          "name": "executionDetails_",
          "type": "tuple"
        },
        {
          "components": [
            {
              "internalType": "bytes32",
              "name": "msgId",
              "type": "bytes32"
            },
            {
              "internalType": "uint256",
              "name": "executionFee",
              "type": "uint256"
            },
            {
              "internalType": "uint256",
              "name": "minMsgGasLimit",
              "type": "uint256"
            },
            {
              "internalType": "bytes32",
              "name": "executionParams",
              "type": "bytes32"
            },
            {
              "internalType": "bytes",
              "name": "payload",
              "type": "bytes"
            }
          ],
          "internalType": "struct ISocket.MessageDetails",
          "name": "messageDetails_",
          "type": "tuple"
        }
      ],
      "name": "execute",
      "outputs": [],
      "stateMutability": "payable",
      "type": "function"
    },
    {
      "inputs": [
        {
          "internalType": "bytes32",
          "name": "role_",
          "type": "bytes32"
        },
        {
          "internalType": "address",
          "name": "grantee_",
          "type": "address"
        }
      ],
      "name": "grantRole",
      "outputs": [],
      "stateMutability": "nonpayable",
      "type": "function"
    },
    {
      "inputs": [
        {
          "internalType": "bytes32",
          "name": "role_",
          "type": "bytes32"
        },
        {
          "internalType": "address",
          "name": "address_",
          "type": "address"
        }
      ],
      "name": "hasRole",
      "outputs": [
        {
          "internalType": "bool",
          "name": "",
          "type": "bool"
        }
      ],
      "stateMutability": "view",
      "type": "function"
    },
    {
      "inputs": [],
      "name": "hasher__",
      "outputs": [
        {
          "internalType": "contract IHasher",
          "name": "",
          "type": "address"
        }
      ],
      "stateMutability": "view",
      "type": "function"
    },
    {
      "inputs": [
        {
          "internalType": "bytes32",
          "name": "",
          "type": "bytes32"
        }
      ],
      "name": "messageExecuted",
      "outputs": [
        {
          "internalType": "bool",
          "name": "",
          "type": "bool"
        }
      ],
      "stateMutability": "view",
      "type": "function"
    },
    {
      "inputs": [
        {
          "internalType": "address",
          "name": "nominee_",
          "type": "address"
        }
      ],
      "name": "nominateOwner",
      "outputs": [],
      "stateMutability": "nonpayable",
      "type": "function"
    },
    {
      "inputs": [],
      "name": "nominee",
      "outputs": [
        {
          "internalType": "address",
          "name": "",
          "type": "address"
        }
      ],
      "stateMutability": "view",
      "type": "function"
    },
    {
      "inputs": [],
      "name": "owner",
      "outputs": [
        {
          "internalType": "address",
          "name": "",
          "type": "address"
        }
      ],
      "stateMutability": "view",
      "type": "function"
    },
    {
      "inputs": [
        {
          "internalType": "bytes32",
          "name": "",
          "type": "bytes32"
        },
        {
          "internalType": "uint256",
          "name": "",
          "type": "uint256"
        },
        {
          "internalType": "address",
          "name": "",
          "type": "address"
        }
      ],
      "name": "packetIdRoots",
      "outputs": [
        {
          "internalType": "bytes32",
          "name": "",
          "type": "bytes32"
        }
      ],
      "stateMutability": "view",
      "type": "function"
    },
    {
      "inputs": [
        {
          "internalType": "bytes32",
          "name": "",
          "type": "bytes32"
        }
      ],
      "name": "proposalCount",
      "outputs": [
        {
          "internalType": "uint256",
          "name": "",
          "type": "uint256"
        }
      ],
      "stateMutability": "view",
      "type": "function"
    },
    {
      "inputs": [
        {
          "internalType": "bytes32",
          "name": "packetId_",
          "type": "bytes32"
        },
        {
          "internalType": "bytes32",
          "name": "root_",
          "type": "bytes32"
        },
        {
          "internalType": "address",
          "name": "switchboard_",
          "type": "address"
        },
        {
          "internalType": "bytes",
          "name": "signature_",
          "type": "bytes"
        }
      ],
      "name": "proposeForSwitchboard",
      "outputs": [],
      "stateMutability": "payable",
      "type": "function"
    },
    {
      "inputs": [
        {
          "internalType": "bytes32",
          "name": "role_",
          "type": "bytes32"
        },
        {
          "internalType": "address",
          "name": "revokee_",
          "type": "address"
        }
      ],
      "name": "revokeRole",
      "outputs": [],
      "stateMutability": "nonpayable",
      "type": "function"
    },
    {
      "inputs": [
        {
          "internalType": "bytes32",
          "name": "",
          "type": "bytes32"
        },
        {
          "internalType": "uint256",
          "name": "",
          "type": "uint256"
        },
        {
          "internalType": "address",
          "name": "",
          "type": "address"
        }
      ],
      "name": "rootProposedAt",
      "outputs": [
        {
          "internalType": "uint256",
          "name": "",
          "type": "uint256"
        }
      ],
      "stateMutability": "view",
      "type": "function"
    },
    {
      "inputs": [
        {
          "internalType": "uint256",
          "name": "batchSize_",
          "type": "uint256"
        },
        {
          "internalType": "address",
          "name": "capacitorAddress_",
          "type": "address"
        },
        {
          "internalType": "bytes",
          "name": "signature_",
          "type": "bytes"
        }
      ],
      "name": "seal",
      "outputs": [],
      "stateMutability": "payable",
      "type": "function"
    },
    {
      "inputs": [
        {
          "internalType": "address",
          "name": "plug_",
          "type": "address"
        },
        {
          "internalType": "address",
          "name": "switchboard_",
          "type": "address"
        },
        {
          "internalType": "address",
          "name": "utils_",
          "type": "address"
        }
      ],
      "name": "setup",
      "outputs": [],
      "stateMutability": "nonpayable",
      "type": "function"
    },
    {
      "inputs": [],
      "name": "siblingChain",
      "outputs": [
        {
          "internalType": "uint32",
          "name": "",
          "type": "uint32"
        }
      ],
      "stateMutability": "view",
      "type": "function"
    },
    {
      "inputs": [],
      "name": "signatureVerifier__",
      "outputs": [
        {
          "internalType": "contract ISignatureVerifier",
          "name": "",
          "type": "address"
        }
      ],
      "stateMutability": "view",
      "type": "function"
    },
    {
      "inputs": [],
      "name": "utils__",
      "outputs": [
        {
          "internalType": "contract ISimulatorUtils",
          "name": "",
          "type": "address"
        }
      ],
      "stateMutability": "view",
      "type": "function"
    },
    {
      "inputs": [],
      "name": "version",
      "outputs": [
        {
          "internalType": "bytes32",
          "name": "",
          "type": "bytes32"
        }
      ],
      "stateMutability": "view",
      "type": "function"
    }
  ],
  "bytecode": "0x60e06040523480156200001157600080fd5b50604051620042d5380380620042d5833981016040819052620000349162000130565b3380620000418162000095565b505063ffffffff94851660a0529290931660c0528151602090920191909120608052600580546001600160a01b039283166001600160a01b0319918216179091556004805492909316911617905562000250565b600080546001600160a01b0383166001600160a01b0319918216811783556001805490921690915560405190917ffbe19c9b601f5ee90b44c7390f3fa2319eba01762d34ee372aeafd59b25c7f8791a250565b805163ffffffff81168114620000fd57600080fd5b919050565b80516001600160a01b0381168114620000fd57600080fd5b634e487b7160e01b600052604160045260246000fd5b600080600080600060a086880312156200014957600080fd5b6200015486620000e8565b9450602062000165818801620000e8565b9450620001756040880162000102565b9350620001856060880162000102565b60808801519093506001600160401b0380821115620001a357600080fd5b818901915089601f830112620001b857600080fd5b815181811115620001cd57620001cd6200011a565b604051601f8201601f19908116603f01168101908382118183101715620001f857620001f86200011a565b816040528281528c868487010111156200021157600080fd5b600093505b8284101562000235578484018601518185018701529285019262000216565b60008684830101528096505050505050509295509295909350565b60805160a05160c051614001620002d46000396000818161042001528181610db501528181610ed901528181611202015281816113a101526114860152600081816104b90152818161086201528181610d07015281816110990152818161131f015261168f01526000818161032d0152818161137b015261166401526140016000f3fe6080604052600436106200019f5760003560e01c806379cfc00611620000e7578063c85ce3251162000089578063dc3098631162000060578063dc3098631462000575578063ea93a509146200058c578063fbe346b914620005c057600080fd5b8063c85ce325146200050a578063d547741f1462000521578063d5b8da73146200054657600080fd5b806391d1485411620000be57806391d14854146200046f578063b349ba6514620004a5578063b396910614620004db57600080fd5b806379cfc00614620003db5780638c576140146200040c5780638da5cb5b146200044257600080fd5b80633c45c0a211620001515780635b94db2711620001285780635b94db27146200034f5780635febe7e7146200037457806377b8b1c714620003b657600080fd5b80633c45c0a214620002995780634ad701bc14620002c857806354fd4d50146200031957600080fd5b80632f2ff15d11620001865780632f2ff15d146200020f57806335dd066814620002345780633bd1adec146200028157600080fd5b806320f99c0a14620001a4578063275c41c914620001f6575b600080fd5b348015620001b157600080fd5b5060015473ffffffffffffffffffffffffffffffffffffffff165b60405173ffffffffffffffffffffffffffffffffffffffff90911681526020015b60405180910390f35b6200020d6200020736600462001d7d565b620005ef565b005b3480156200021c57600080fd5b506200020d6200022e36600462001e0e565b62000abe565b3480156200024157600080fd5b506200026b6200025336600462001e41565b60076020526000908152604090205463ffffffff1681565b60405163ffffffff9091168152602001620001ed565b3480156200028e57600080fd5b506200020d62000b20565b348015620002a657600080fd5b50600354620001cc9073ffffffffffffffffffffffffffffffffffffffff1681565b348015620002d557600080fd5b506200030a620002e736600462001e61565b600960209081526000938452604080852082529284528284209052825290205481565b604051908152602001620001ed565b3480156200032657600080fd5b506200030a7f000000000000000000000000000000000000000000000000000000000000000081565b3480156200035c57600080fd5b506200020d6200036e36600462001e41565b62000b7f565b3480156200038157600080fd5b506200030a6200039336600462001e61565b600a60209081526000938452604080852082529284528284209052825290205481565b348015620003c357600080fd5b506200020d620003d536600462001e9d565b62000c40565b348015620003e857600080fd5b506200030a620003fa36600462001ee4565b60086020526000908152604090205481565b3480156200041957600080fd5b506200026b7f000000000000000000000000000000000000000000000000000000000000000081565b3480156200044f57600080fd5b5060005473ffffffffffffffffffffffffffffffffffffffff16620001cc565b3480156200047c57600080fd5b50620004946200048e36600462001e0e565b62001144565b6040519015158152602001620001ed565b348015620004b257600080fd5b506200026b7f000000000000000000000000000000000000000000000000000000000000000081565b348015620004e857600080fd5b50600554620001cc9073ffffffffffffffffffffffffffffffffffffffff1681565b6200020d6200051b36600462001f4a565b6200117f565b3480156200052e57600080fd5b506200020d6200054036600462001e0e565b62001548565b3480156200055357600080fd5b50600454620001cc9073ffffffffffffffffffffffffffffffffffffffff1681565b6200020d6200058636600462001fac565b620015a6565b3480156200059957600080fd5b5062000494620005ab36600462001ee4565b600b6020526000908152604090205460ff1681565b348015620005cd57600080fd5b50600654620001cc9073ffffffffffffffffffffffffffffffffffffffff1681565b60005473ffffffffffffffffffffffffffffffffffffffff16331462000641576040517f5fc483c500000000000000000000000000000000000000000000000000000000815260040160405180910390fd5b80356000908152600b602052604090205460ff16156200068d576040517f7448c64c00000000000000000000000000000000000000000000000000000000815260040160405180910390fd5b80356000908152600b60205260409081902080547fffffffffffffffffffffffffffffffffffffffffffffffffffffffffffffff001660011790558082013590830135101562000709576040517fd38edae000000000000000000000000000000000000000000000000000000000815260040160405180910390fd5b813562000742576040517fb21147c100000000000000000000000000000000000000000000000000000000815260040160405180910390fd5b803560e090811c908335901c811462000787576040517fb39fb5d500000000000000000000000000000000000000000000000000000000815260040160405180910390fd5b6040805160a08101825260008082526020808301829052828401828152606084018381526080850184905273ffffffffffffffffffffffffffffffffffffffff8835871c8181168652600c855287862063ffffffff8a1687528552878620600281015483169094528354821687526003909301548116825289358552600984528685208a85013586528452868520915181168552925284832054600554855196517f02ea1431000000000000000000000000000000000000000000000000000000008152929691949316916302ea1431916200088f918991907f0000000000000000000000000000000000000000000000000000000000000000908a908d9060040162002065565b6020604051808303816000875af1158015620008af573d6000803e3d6000fd5b505050506040513d601f19601f82011682018060405250810190620008d5919062002157565b600354909150600090819073ffffffffffffffffffffffffffffffffffffffff1663954d09c9846200090b60808d018d62002171565b6040518463ffffffff1660e01b81526004016200092b93929190620021d9565b6040805180830381865afa15801562000948573d6000803e3d6000fd5b505050506040513d601f19601f820116820180604052508101906200096e919062002214565b9150915080620009aa576040517fc32d1d7600000000000000000000000000000000000000000000000000000000815260040160405180910390fd5b6003546040517fa56d92ce00000000000000000000000000000000000000000000000000000000815260608a0135600482015234602482015273ffffffffffffffffffffffffffffffffffffffff9091169063a56d92ce9060440160006040518083038186803b15801562000a1e57600080fd5b505afa15801562000a33573d6000803e3d6000fd5b5050505062000a9689600001358a602001358986888a8f806060019062000a5b919062002171565b8080601f0160208091040260200160405190810160405280939291908181526020018383808284376000920191909152506200186292505050565b62000ab382878960408d013562000aad8d620022fb565b62001a44565b505050505050505050565b60005473ffffffffffffffffffffffffffffffffffffffff16331462000b10576040517f5fc483c500000000000000000000000000000000000000000000000000000000815260040160405180910390fd5b62000b1c828262001bc7565b5050565b60015473ffffffffffffffffffffffffffffffffffffffff16331462000b72576040517f7c91ccdd00000000000000000000000000000000000000000000000000000000815260040160405180910390fd5b62000b7d3362001c4d565b565b60005473ffffffffffffffffffffffffffffffffffffffff16331462000bd1576040517f5fc483c500000000000000000000000000000000000000000000000000000000815260040160405180910390fd5b600180547fffffffffffffffffffffffff00000000000000000000000000000000000000001673ffffffffffffffffffffffffffffffffffffffff83169081179091556040517f906a1c6bd7e3091ea86693dd029a831c19049ce77f1dce2ce0bab1cacbabce2290600090a250565b60005473ffffffffffffffffffffffffffffffffffffffff16331462000c92576040517f5fc483c500000000000000000000000000000000000000000000000000000000815260040160405180910390fd5b600380547fffffffffffffffffffffffff00000000000000000000000000000000000000001673ffffffffffffffffffffffffffffffffffffffff838116919091179091556005546040805160a08101825286821b7bffffffffffffffffffffffffffffffffffffffff0000000000000000167f000000000000000000000000000000000000000000000000000000000000000060e081901b7fffffffff000000000000000000000000000000000000000000000000000000001691909117825260006020808401829052612ee0848601526060840182905284519081018552818152608084015292517f02ea1431000000000000000000000000000000000000000000000000000000008152929493909316926302ea14319262000de09289917f00000000000000000000000000000000000000000000000000000000000000009183916004016200244e565b6020604051808303816000875af115801562000e00573d6000803e3d6000fd5b505050506040513d601f19601f8201168201806040525081019062000e26919062002157565b9050303360405162000e389062001d48565b73ffffffffffffffffffffffffffffffffffffffff928316815291166020820152604001604051809103906000f08015801562000e79573d6000803e3d6000fd5b506006805473ffffffffffffffffffffffffffffffffffffffff9283167fffffffffffffffffffffffff0000000000000000000000000000000000000000918216811783558784166000818152600c6020908152604080832063ffffffff7f00000000000000000000000000000000000000000000000000000000000000001680855290835281842095845260079092529182902080547fffffffffffffffffffffffffffffffffffffffffffffffffffffffff000000001690911790558254841690911782559254600182018054909316941693909317905551339062000f619062001d56565b73ffffffffffffffffffffffffffffffffffffffff9091168152602001604051809103906000f08015801562000f9b573d6000803e3d6000fd5b506002820180547fffffffffffffffffffffffff000000000000000000000000000000000000000090811673ffffffffffffffffffffffffffffffffffffffff9384161790915560038301805482168784169081179091556004808501805490931690911790915560018301546040517f920ee8a80000000000000000000000000000000000000000000000000000000081529182018590529091169063920ee8a890602401600060405180830381600087803b1580156200105c57600080fd5b505af115801562001071573d6000803e3d6000fd5b50506006547fffffffff000000000000000000000000000000000000000000000000000000007f000000000000000000000000000000000000000000000000000000000000000060e01b167bffffffffffffffffffffffffffffffffffffffff0000000000000000604092831b1617600090815260096020908152828220828052815282822073ffffffffffffffffffffffffffffffffffffffff999099168252979097529095207f72616e646f6d00000000000000000000000000000000000000000000000000009055505050505050565b600082815260026020908152604080832073ffffffffffffffffffffffffffffffffffffffff8516845290915281205460ff165b9392505050565b60005473ffffffffffffffffffffffffffffffffffffffff163314620011d1576040517f5fc483c500000000000000000000000000000000000000000000000000000000815260040160405180910390fd5b73ffffffffffffffffffffffffffffffffffffffff831660009081526007602052604081205463ffffffff908116917f000000000000000000000000000000000000000000000000000000000000000090911690036200125d576040517f73d817fb00000000000000000000000000000000000000000000000000000000815260040160405180910390fd5b6040517fd7c9eaac00000000000000000000000000000000000000000000000000000000815260048101869052600090819073ffffffffffffffffffffffffffffffffffffffff87169063d7c9eaac9060240160408051808303816000875af1158015620012cf573d6000803e3d6000fd5b505050506040513d601f19601f82011682018060405250810190620012f59190620024df565b909250905060007fffffffff000000000000000000000000000000000000000000000000000000007f000000000000000000000000000000000000000000000000000000000000000060e01b167bffffffffffffffffffffffffffffffffffffffff0000000000000000604089901b161767ffffffffffffffff831617600354604080517f000000000000000000000000000000000000000000000000000000000000000060208201527f000000000000000000000000000000000000000000000000000000000000000063ffffffff8116928201929092526060810184905260808101879052929350600092839273ffffffffffffffffffffffffffffffffffffffff169163b7ee4eb99160a001604051602081830303815290604052805190602001208b8b6040518563ffffffff1660e01b81526004016200143d949392919062002513565b6040805180830381865afa1580156200145a573d6000803e3d6000fd5b505050506040513d601f19601f8201168201806040525081019062001480919062002214565b915091507f000000000000000000000000000000000000000000000000000000000000000063ffffffff16600003620014e5576040517f73d817fb00000000000000000000000000000000000000000000000000000000815260040160405180910390fd5b828273ffffffffffffffffffffffffffffffffffffffff167f4bf575a0e4ff12a13816954b1ce8b1e53f30e121ea4f107ac086ec29da524abe8c888c8c60405162001534949392919062002545565b60405180910390a350505050505050505050565b60005473ffffffffffffffffffffffffffffffffffffffff1633146200159a576040517f5fc483c500000000000000000000000000000000000000000000000000000000815260040160405180910390fd5b62000b1c828262001cc5565b60005473ffffffffffffffffffffffffffffffffffffffff163314620015f8576040517f5fc483c500000000000000000000000000000000000000000000000000000000815260040160405180910390fd5b8462001630576040517fb21147c100000000000000000000000000000000000000000000000000000000815260040160405180910390fd5b600354600090819073ffffffffffffffffffffffffffffffffffffffff1663b7ee4eb96200165e8960e01c90565b604080517f0000000000000000000000000000000000000000000000000000000000000000602082015263ffffffff7f00000000000000000000000000000000000000000000000000000000000000001691810191909152606081018b9052608081018a905260a0016040516020818303038152906040528051906020012087876040518563ffffffff1660e01b815260040162001700949392919062002513565b6040805180830381865afa1580156200171d573d6000803e3d6000fd5b505050506040513d601f19601f8201168201806040525081019062001743919062002214565b90925090508662001780576040517fb21147c100000000000000000000000000000000000000000000000000000000815260040160405180910390fd5b600087815260096020908152604080832060088084528285208054865291845282852073ffffffffffffffffffffffffffffffffffffffff808c168088529186528487208d90558d8752600a86528487208454885286528487209187529085529285204290558b855290925281548a93918616927f4b8e305abfc214d75df6e3d0b37dc1b2e6e93726d472df847f312d190dcf870492620018218362002567565b9091555060408051918252602082018b905273ffffffffffffffffffffffffffffffffffffffff8a169082015260600160405180910390a350505050505050565b6060820180516000898152600a602090815260408083208b84528252808320945173ffffffffffffffffffffffffffffffffffffffff908116845294909152908190205490517f4c40818000000000000000000000000000000000000000000000000000000000815260048101879052602481018b9052604481018a905263ffffffff891660648201526084810191909152911690634c4081809060a401602060405180830381865afa1580156200191e573d6000803e3d6000fd5b505050506040513d601f19601f82011682018060405250810190620019449190620025c7565b6200197b576040517f439cc0cd00000000000000000000000000000000000000000000000000000000815260040160405180910390fd5b816040015173ffffffffffffffffffffffffffffffffffffffff16632d095c438485846040518463ffffffff1660e01b8152600401620019be93929190620025e5565b6020604051808303816000875af1158015620019de573d6000803e3d6000fd5b505050506040513d601f19601f8201168201806040525081019062001a049190620025c7565b62001a3b576040517f09bde33900000000000000000000000000000000000000000000000000000000815260040160405180910390fd5b50505050505050565b60808101516040517fc41f1f6c00000000000000000000000000000000000000000000000000000000815273ffffffffffffffffffffffffffffffffffffffff86169163c41f1f6c918591349162001aa191899160040162002606565b6000604051808303818589803b15801562001abb57600080fd5b5088f115801562001ad0573d6000803e3d6000fd5b5050600354602086015186516040517ff1f069d600000000000000000000000000000000000000000000000000000000815273ffffffffffffffffffffffffffffffffffffffff8d811660048301526fffffffffffffffffffffffffffffffff909316602482015260448101919091529116945063f1f069d69350606401915062001b589050565b60006040518083038186803b15801562001b7157600080fd5b505afa15801562001b86573d6000803e3d6000fd5b505082516040519081527fdc29884a71d2bb98d3c53dc09718be05c7bfd142b7773a5c5cf2517629290ac09250602001905060405180910390a15050505050565b600082815260026020908152604080832073ffffffffffffffffffffffffffffffffffffffff8516808552925280832080547fffffffffffffffffffffffffffffffffffffffffffffffffffffffffffffff0016600117905551909184917f2ae6a113c0ed5b78a53413ffbb7679881f11145ccfba4fb92e863dfcd5a1d2f39190a35050565b6000805473ffffffffffffffffffffffffffffffffffffffff83167fffffffffffffffffffffffff0000000000000000000000000000000000000000918216811783556001805490921690915560405190917ffbe19c9b601f5ee90b44c7390f3fa2319eba01762d34ee372aeafd59b25c7f8791a250565b600082815260026020908152604080832073ffffffffffffffffffffffffffffffffffffffff8516808552925280832080547fffffffffffffffffffffffffffffffffffffffffffffffffffffffffffffff0016905551909184917f155aaafb6329a2098580462df33ec4b7441b19729b9601c5fc17ae1cf99a8a529190a35050565b610edb806200263083390190565b610ac1806200350b83390190565b600060a0828403121562001d7757600080fd5b50919050565b6000806040838503121562001d9157600080fd5b823567ffffffffffffffff8082111562001daa57600080fd5b62001db88683870162001d64565b9350602085013591508082111562001dcf57600080fd5b5062001dde8582860162001d64565b9150509250929050565b73ffffffffffffffffffffffffffffffffffffffff8116811462001e0b57600080fd5b50565b6000806040838503121562001e2257600080fd5b82359150602083013562001e368162001de8565b809150509250929050565b60006020828403121562001e5457600080fd5b8135620011788162001de8565b60008060006060848603121562001e7757600080fd5b8335925060208401359150604084013562001e928162001de8565b809150509250925092565b60008060006060848603121562001eb357600080fd5b833562001ec08162001de8565b9250602084013562001ed28162001de8565b9150604084013562001e928162001de8565b60006020828403121562001ef757600080fd5b5035919050565b60008083601f84011262001f1157600080fd5b50813567ffffffffffffffff81111562001f2a57600080fd5b60208301915083602082850101111562001f4357600080fd5b9250929050565b6000806000806060858703121562001f6157600080fd5b84359350602085013562001f758162001de8565b9250604085013567ffffffffffffffff81111562001f9257600080fd5b62001fa08782880162001efe565b95989497509550505050565b60008060008060006080868803121562001fc557600080fd5b8535945060208601359350604086013562001fe08162001de8565b9250606086013567ffffffffffffffff81111562001ffd57600080fd5b6200200b8882890162001efe565b969995985093965092949392505050565b8183528181602085013750600060208284010152600060207fffffffffffffffffffffffffffffffffffffffffffffffffffffffffffffffe0601f840116840101905092915050565b600063ffffffff808816835273ffffffffffffffffffffffffffffffffffffffff808816602085015281871660408501528086166060850152505060a06080830152823560a0830152602083013560c0830152604083013560e0830152606083013561010083015260808301357fffffffffffffffffffffffffffffffffffffffffffffffffffffffffffffffe18436030181126200210357600080fd5b830160208101903567ffffffffffffffff8111156200212157600080fd5b8036038213156200213157600080fd5b60a06101208501526200214a610140850182846200201c565b9998505050505050505050565b6000602082840312156200216a57600080fd5b5051919050565b60008083357fffffffffffffffffffffffffffffffffffffffffffffffffffffffffffffffe1843603018112620021a757600080fd5b83018035915067ffffffffffffffff821115620021c357600080fd5b60200191503681900382131562001f4357600080fd5b838152604060208201526000620021f56040830184866200201c565b95945050505050565b805180151581146200220f57600080fd5b919050565b600080604083850312156200222857600080fd5b8251620022358162001de8565b91506200224560208401620021fe565b90509250929050565b7f4e487b7100000000000000000000000000000000000000000000000000000000600052604160045260246000fd5b60405160a0810167ffffffffffffffff81118282101715620022a357620022a36200224e565b60405290565b604051601f82017fffffffffffffffffffffffffffffffffffffffffffffffffffffffffffffffe016810167ffffffffffffffff81118282101715620022f357620022f36200224e565b604052919050565b600060a082360312156200230e57600080fd5b620023186200227d565b82358152602080840135818301526040840135604083015260608401356060830152608084013567ffffffffffffffff808211156200235657600080fd5b9085019036601f8301126200236a57600080fd5b8135818111156200237f576200237f6200224e565b620023b1847fffffffffffffffffffffffffffffffffffffffffffffffffffffffffffffffe0601f84011601620022a9565b91508082523684828501011115620023c857600080fd5b808484018584013760009082019093019290925250608082015292915050565b6000815180845260005b818110156200241057602081850181015186830182015201620023f2565b5060006020828601015260207fffffffffffffffffffffffffffffffffffffffffffffffffffffffffffffffe0601f83011685010191505092915050565b600063ffffffff808816835273ffffffffffffffffffffffffffffffffffffffff808816602085015281871660408501528086166060850152505060a06080830152825160a0830152602083015160c0830152604083015160e08301526060830151610100830152608083015160a0610120840152620024d3610140840182620023e8565b98975050505050505050565b60008060408385031215620024f357600080fd5b82519150602083015167ffffffffffffffff8116811462001e3657600080fd5b63ffffffff851681528360208201526060604082015260006200253b6060830184866200201c565b9695505050505050565b8481528360208201526060604082015260006200253b6060830184866200201c565b60007fffffffffffffffffffffffffffffffffffffffffffffffffffffffffffffffff8203620025c0577f4e487b7100000000000000000000000000000000000000000000000000000000600052601160045260246000fd5b5060010190565b600060208284031215620025da57600080fd5b6200117882620021fe565b838152826020820152606060408201526000620021f56060830184620023e8565b63ffffffff83168152604060208201526000620026276040830184620023e8565b94935050505056fe60a060405234801561001057600080fd5b50604051610edb380380610edb83398101604081905261002f91610148565b8181808061003c8161007e565b50506001600160a01b0382166080526100757fc4c453d647953c0fd35db5a34ee76e60fb4abc3a8fb891a25936b70b38f29253826100d1565b5050505061017b565b600080546001600160a01b0383166001600160a01b0319918216811783556001805490921690915560405190917ffbe19c9b601f5ee90b44c7390f3fa2319eba01762d34ee372aeafd59b25c7f8791a250565b60008281526002602090815260408083206001600160a01b0385168085529252808320805460ff1916600117905551909184917f2ae6a113c0ed5b78a53413ffbb7679881f11145ccfba4fb92e863dfcd5a1d2f39190a35050565b80516001600160a01b038116811461014357600080fd5b919050565b6000806040838503121561015b57600080fd5b6101648361012c565b91506101726020840161012c565b90509250929050565b608051610d376101a4600039600081816101430152818161056301526106cb0152610d376000f3fe608060405234801561001057600080fd5b50600436106100f55760003560e01c80636ccae054116100975780639471651e116100665780639471651e14610215578063d1af313c1461025d578063d547741f14610287578063d7c9eaac1461029a57600080fd5b80636ccae054146101ae5780638da5cb5b146101c157806391d14854146101df578063920ee8a81461020257600080fd5b80632ff9f2c9116100d35780632ff9f2c91461017a5780633bd1adec1461018b5780635b94db27146101935780636afc0f38146101a657600080fd5b806320f99c0a146100fa57806322c8f6cd1461013e5780632f2ff15d14610165575b600080fd5b60015473ffffffffffffffffffffffffffffffffffffffff165b60405173ffffffffffffffffffffffffffffffffffffffff90911681526020015b60405180910390f35b6101147f000000000000000000000000000000000000000000000000000000000000000081565b610178610173366004610bbd565b6102ad565b005b60015b604051908152602001610135565b61017861030c565b6101786101a1366004610be9565b610368565b61017d610428565b6101786101bc366004610c04565b61046d565b60005473ffffffffffffffffffffffffffffffffffffffff16610114565b6101f26101ed366004610bbd565b610510565b6040519015158152602001610135565b610178610210366004610c40565b61054b565b60035468010000000000000000900467ffffffffffffffff16600081815260046020526040902054905b6040805192835267ffffffffffffffff909116602083015201610135565b61017d61026b366004610c59565b67ffffffffffffffff1660009081526004602052604090205490565b610178610295366004610bbd565b610655565b61023f6102a8366004610c40565b6106b0565b60005473ffffffffffffffffffffffffffffffffffffffff1633146102fe576040517f5fc483c500000000000000000000000000000000000000000000000000000000815260040160405180910390fd5b61030882826107da565b5050565b60015473ffffffffffffffffffffffffffffffffffffffff16331461035d576040517f7c91ccdd00000000000000000000000000000000000000000000000000000000815260040160405180910390fd5b61036633610860565b565b60005473ffffffffffffffffffffffffffffffffffffffff1633146103b9576040517f5fc483c500000000000000000000000000000000000000000000000000000000815260040160405180910390fd5b600180547fffffffffffffffffffffffff00000000000000000000000000000000000000001673ffffffffffffffffffffffffffffffffffffffff83169081179091556040517f906a1c6bd7e3091ea86693dd029a831c19049ce77f1dce2ce0bab1cacbabce2290600090a250565b60035460009067ffffffffffffffff161561045b576003546104569060019067ffffffffffffffff16610cb2565b61045e565b60005b67ffffffffffffffff16905090565b3360009081527f4933f7bec34ee32db93e9f5cd7e0519781b395282211f4f6857489046ea38f7660205260409020547fc4c453d647953c0fd35db5a34ee76e60fb4abc3a8fb891a25936b70b38f292539060ff166104ff576040517f962f6333000000000000000000000000000000000000000000000000000000008152600481018290526024015b60405180910390fd5b61050a8484846108d8565b50505050565b600082815260026020908152604080832073ffffffffffffffffffffffffffffffffffffffff8516845290915281205460ff165b9392505050565b3373ffffffffffffffffffffffffffffffffffffffff7f000000000000000000000000000000000000000000000000000000000000000016146105ba576040517f503284dc00000000000000000000000000000000000000000000000000000000815260040160405180910390fd5b6003805460009167ffffffffffffffff90911690826105d883610cda565b82546101009290920a67ffffffffffffffff818102199093169183160217909155811660008181526004602090815260409182902086905581518681529081019290925281018490529091507f9ed9683bfff0f737f91f20945e98c912976d94e76860b05b48b15bc0d589be1f9060600160405180910390a15050565b60005473ffffffffffffffffffffffffffffffffffffffff1633146106a6576040517f5fc483c500000000000000000000000000000000000000000000000000000000815260040160405180910390fd5b61030882826109cd565b6000803373ffffffffffffffffffffffffffffffffffffffff7f00000000000000000000000000000000000000000000000000000000000000001614610722576040517f503284dc00000000000000000000000000000000000000000000000000000000815260040160405180910390fd5b600380546000916801000000000000000090910467ffffffffffffffff1690600861074c83610cda565b82546101009290920a67ffffffffffffffff81810219909316918316021790915581166000908152600460205260409020549091506107b7576040517fa902392300000000000000000000000000000000000000000000000000000000815260040160405180910390fd5b67ffffffffffffffff811660009081526004602052604090205492509050915091565b600082815260026020908152604080832073ffffffffffffffffffffffffffffffffffffffff8516808552925280832080547fffffffffffffffffffffffffffffffffffffffffffffffffffffffffffffff0016600117905551909184917f2ae6a113c0ed5b78a53413ffbb7679881f11145ccfba4fb92e863dfcd5a1d2f39190a35050565b6000805473ffffffffffffffffffffffffffffffffffffffff83167fffffffffffffffffffffffff0000000000000000000000000000000000000000918216811783556001805490921690915560405190917ffbe19c9b601f5ee90b44c7390f3fa2319eba01762d34ee372aeafd59b25c7f8791a250565b73ffffffffffffffffffffffffffffffffffffffff8216610925576040517fd92e233d00000000000000000000000000000000000000000000000000000000815260040160405180910390fd5b7fffffffffffffffffffffffff111111111111111111111111111111111111111273ffffffffffffffffffffffffffffffffffffffff8416016109715761096c8282610a50565b505050565b8273ffffffffffffffffffffffffffffffffffffffff163b6000036109c2576040517f1eb00b0600000000000000000000000000000000000000000000000000000000815260040160405180910390fd5b61096c838383610ac5565b600082815260026020908152604080832073ffffffffffffffffffffffffffffffffffffffff8516808552925280832080547fffffffffffffffffffffffffffffffffffffffffffffffffffffffffffffff0016905551909184917f155aaafb6329a2098580462df33ec4b7441b19729b9601c5fc17ae1cf99a8a529190a35050565b600080600080600085875af190508061096c576040517f08c379a000000000000000000000000000000000000000000000000000000000815260206004820152601360248201527f4554485f5452414e534645525f4641494c45440000000000000000000000000060448201526064016104f6565b60006040517fa9059cbb00000000000000000000000000000000000000000000000000000000815273ffffffffffffffffffffffffffffffffffffffff84166004820152826024820152602060006044836000895af13d15601f3d116001600051141617169150508061050a576040517f08c379a000000000000000000000000000000000000000000000000000000000815260206004820152600f60248201527f5452414e534645525f4641494c4544000000000000000000000000000000000060448201526064016104f6565b803573ffffffffffffffffffffffffffffffffffffffff81168114610bb857600080fd5b919050565b60008060408385031215610bd057600080fd5b82359150610be060208401610b94565b90509250929050565b600060208284031215610bfb57600080fd5b61054482610b94565b600080600060608486031215610c1957600080fd5b610c2284610b94565b9250610c3060208501610b94565b9150604084013590509250925092565b600060208284031215610c5257600080fd5b5035919050565b600060208284031215610c6b57600080fd5b813567ffffffffffffffff8116811461054457600080fd5b7f4e487b7100000000000000000000000000000000000000000000000000000000600052601160045260246000fd5b67ffffffffffffffff828116828216039080821115610cd357610cd3610c83565b5092915050565b600067ffffffffffffffff808316818103610cf757610cf7610c83565b600101939250505056fea264697066735822122090fec61b249f4f07c1121f9b8e70af5a6f1f97bdd815c6d06c6978c1a664fd6264736f6c63430008130033608060405234801561001057600080fd5b50604051610ac1380380610ac183398101604081905261002f9161011b565b808061003a8161006d565b5061006790507fc4c453d647953c0fd35db5a34ee76e60fb4abc3a8fb891a25936b70b38f29253826100c0565b5061014b565b600080546001600160a01b0383166001600160a01b0319918216811783556001805490921690915560405190917ffbe19c9b601f5ee90b44c7390f3fa2319eba01762d34ee372aeafd59b25c7f8791a250565b60008281526002602090815260408083206001600160a01b0385168085529252808320805460ff1916600117905551909184917f2ae6a113c0ed5b78a53413ffbb7679881f11145ccfba4fb92e863dfcd5a1d2f39190a35050565b60006020828403121561012d57600080fd5b81516001600160a01b038116811461014457600080fd5b9392505050565b6109678061015a6000396000f3fe608060405234801561001057600080fd5b50600436106100a35760003560e01c80635b94db27116100765780638da5cb5b1161005b5780638da5cb5b1461015357806391d1485414610171578063d547741f1461018457600080fd5b80635b94db271461012d5780636ccae0541461014057600080fd5b806320f99c0a146100a85780632d095c43146100ec5780632f2ff15d146101105780633bd1adec14610125575b600080fd5b60015473ffffffffffffffffffffffffffffffffffffffff165b60405173ffffffffffffffffffffffffffffffffffffffff90911681526020015b60405180910390f35b6101006100fa366004610805565b50501490565b60405190151581526020016100e3565b61012361011e3660046108ae565b610197565b005b6101236101f6565b61012361013b3660046108da565b610252565b61012361014e3660046108f5565b610312565b60005473ffffffffffffffffffffffffffffffffffffffff166100c2565b61010061017f3660046108ae565b6103b5565b6101236101923660046108ae565b6103f0565b60005473ffffffffffffffffffffffffffffffffffffffff1633146101e8576040517f5fc483c500000000000000000000000000000000000000000000000000000000815260040160405180910390fd5b6101f2828261044b565b5050565b60015473ffffffffffffffffffffffffffffffffffffffff163314610247576040517f7c91ccdd00000000000000000000000000000000000000000000000000000000815260040160405180910390fd5b610250336104d1565b565b60005473ffffffffffffffffffffffffffffffffffffffff1633146102a3576040517f5fc483c500000000000000000000000000000000000000000000000000000000815260040160405180910390fd5b600180547fffffffffffffffffffffffff00000000000000000000000000000000000000001673ffffffffffffffffffffffffffffffffffffffff83169081179091556040517f906a1c6bd7e3091ea86693dd029a831c19049ce77f1dce2ce0bab1cacbabce2290600090a250565b3360009081527f4933f7bec34ee32db93e9f5cd7e0519781b395282211f4f6857489046ea38f7660205260409020547fc4c453d647953c0fd35db5a34ee76e60fb4abc3a8fb891a25936b70b38f292539060ff166103a4576040517f962f6333000000000000000000000000000000000000000000000000000000008152600481018290526024015b60405180910390fd5b6103af848484610549565b50505050565b600082815260026020908152604080832073ffffffffffffffffffffffffffffffffffffffff8516845290915281205460ff165b9392505050565b60005473ffffffffffffffffffffffffffffffffffffffff163314610441576040517f5fc483c500000000000000000000000000000000000000000000000000000000815260040160405180910390fd5b6101f2828261063e565b600082815260026020908152604080832073ffffffffffffffffffffffffffffffffffffffff8516808552925280832080547fffffffffffffffffffffffffffffffffffffffffffffffffffffffffffffff0016600117905551909184917f2ae6a113c0ed5b78a53413ffbb7679881f11145ccfba4fb92e863dfcd5a1d2f39190a35050565b6000805473ffffffffffffffffffffffffffffffffffffffff83167fffffffffffffffffffffffff0000000000000000000000000000000000000000918216811783556001805490921690915560405190917ffbe19c9b601f5ee90b44c7390f3fa2319eba01762d34ee372aeafd59b25c7f8791a250565b73ffffffffffffffffffffffffffffffffffffffff8216610596576040517fd92e233d00000000000000000000000000000000000000000000000000000000815260040160405180910390fd5b7fffffffffffffffffffffffff111111111111111111111111111111111111111273ffffffffffffffffffffffffffffffffffffffff8416016105e2576105dd82826106c1565b505050565b8273ffffffffffffffffffffffffffffffffffffffff163b600003610633576040517f1eb00b0600000000000000000000000000000000000000000000000000000000815260040160405180910390fd5b6105dd838383610736565b600082815260026020908152604080832073ffffffffffffffffffffffffffffffffffffffff8516808552925280832080547fffffffffffffffffffffffffffffffffffffffffffffffffffffffffffffff0016905551909184917f155aaafb6329a2098580462df33ec4b7441b19729b9601c5fc17ae1cf99a8a529190a35050565b600080600080600085875af19050806105dd576040517f08c379a000000000000000000000000000000000000000000000000000000000815260206004820152601360248201527f4554485f5452414e534645525f4641494c454400000000000000000000000000604482015260640161039b565b60006040517fa9059cbb00000000000000000000000000000000000000000000000000000000815273ffffffffffffffffffffffffffffffffffffffff84166004820152826024820152602060006044836000895af13d15601f3d11600160005114161716915050806103af576040517f08c379a000000000000000000000000000000000000000000000000000000000815260206004820152600f60248201527f5452414e534645525f4641494c45440000000000000000000000000000000000604482015260640161039b565b6000806000806060858703121561081b57600080fd5b8435935060208501359250604085013567ffffffffffffffff8082111561084157600080fd5b818701915087601f83011261085557600080fd5b81358181111561086457600080fd5b88602082850101111561087657600080fd5b95989497505060200194505050565b803573ffffffffffffffffffffffffffffffffffffffff811681146108a957600080fd5b919050565b600080604083850312156108c157600080fd5b823591506108d160208401610885565b90509250929050565b6000602082840312156108ec57600080fd5b6103e982610885565b60008060006060848603121561090a57600080fd5b61091384610885565b925061092160208501610885565b915060408401359050925092509256fea2646970667358221220b34e0047ad30fc8f6dd6273fc6565f127a8ee6f3040aba3fa51851313b62618764736f6c63430008130033a2646970667358221220b1ff568f390251897134bc9d929dcdcd7faec896fe5fce5811d10e11684cc89064736f6c63430008130033",
  "linkReferences": {},
  "deployedLinkReferences": {}
}