{
  "_format": "hh-sol-artifact-1",
  "contractName": "OptimisticSwitchboard",
  "sourceName": "contracts/switchboard/default-switchboards/OptimisticSwitchboard.sol",
  "abi": [
    {
      "inputs": [
        {
          "internalType": "address",
          "name": "owner_",
          "type": "address"
        },
        {
          "internalType": "address",
          "name": "socket_",
          "type": "address"
        },
        {
          "internalType": "uint32",
          "name": "chainSlug_",
          "type": "uint32"
        },
        {
          "internalType": "uint256",
          "name": "timeoutInSeconds_",
          "type": "uint256"
        },
        {
          "internalType": "contract ISignatureVerifier",
          "name": "signatureVerifier_",
          "type": "address"
        }
      ],
      "stateMutability": "nonpayable",
      "type": "constructor"
    },
    {
      "inputs": [],
      "name": "InvalidNonce",
      "type": "error"
    },
    {
      "inputs": [],
      "name": "InvalidTokenAddress",
      "type": "error"
    },
    {
      "inputs": [
        {
          "internalType": "bytes32",
          "name": "role",
          "type": "bytes32"
        }
      ],
      "name": "NoPermit",
      "type": "error"
    },
    {
      "inputs": [],
      "name": "OnlyExecutionManager",
      "type": "error"
    },
    {
      "inputs": [],
      "name": "OnlyNominee",
      "type": "error"
    },
    {
      "inputs": [],
      "name": "OnlyOwner",
      "type": "error"
    },
    {
      "inputs": [],
      "name": "UnequalArrayLengths",
      "type": "error"
    },
    {
      "inputs": [],
      "name": "ZeroAddress",
      "type": "error"
    },
    {
      "anonymous": false,
      "inputs": [
        {
          "indexed": false,
          "internalType": "bool",
          "name": "isGlobalTipped",
          "type": "bool"
        }
      ],
      "name": "GlobalTripChanged",
      "type": "event"
    },
    {
      "anonymous": false,
      "inputs": [
        {
          "indexed": true,
          "internalType": "address",
          "name": "claimer",
          "type": "address"
        }
      ],
      "name": "OwnerClaimed",
      "type": "event"
    },
    {
      "anonymous": false,
      "inputs": [
        {
          "indexed": true,
          "internalType": "address",
          "name": "nominee",
          "type": "address"
        }
      ],
      "name": "OwnerNominated",
      "type": "event"
    },
    {
      "anonymous": false,
      "inputs": [
        {
          "indexed": false,
          "internalType": "uint32",
          "name": "srcChainSlug",
          "type": "uint32"
        },
        {
          "indexed": false,
          "internalType": "bool",
          "name": "isPathTripped",
          "type": "bool"
        }
      ],
      "name": "PathTripChanged",
      "type": "event"
    },
    {
      "anonymous": false,
      "inputs": [
        {
          "indexed": false,
          "internalType": "bytes32",
          "name": "packetId",
          "type": "bytes32"
        },
        {
          "indexed": false,
          "internalType": "uint256",
          "name": "proposalCount",
          "type": "uint256"
        }
      ],
      "name": "ProposalTripped",
      "type": "event"
    },
    {
      "anonymous": false,
      "inputs": [
        {
          "indexed": true,
          "internalType": "bytes32",
          "name": "role",
          "type": "bytes32"
        },
        {
          "indexed": true,
          "internalType": "address",
          "name": "grantee",
          "type": "address"
        }
      ],
      "name": "RoleGranted",
      "type": "event"
    },
    {
      "anonymous": false,
      "inputs": [
        {
          "indexed": true,
          "internalType": "bytes32",
          "name": "role",
          "type": "bytes32"
        },
        {
          "indexed": true,
          "internalType": "address",
          "name": "revokee",
          "type": "address"
        }
      ],
      "name": "RoleRevoked",
      "type": "event"
    },
    {
      "anonymous": false,
      "inputs": [
        {
          "indexed": false,
          "internalType": "uint32",
          "name": "siblingChainSlug",
          "type": "uint32"
        },
        {
          "components": [
            {
              "internalType": "uint128",
              "name": "switchboardFees",
              "type": "uint128"
            },
            {
              "internalType": "uint128",
              "name": "verificationOverheadFees",
              "type": "uint128"
            }
          ],
          "indexed": false,
          "internalType": "struct SwitchboardBase.Fees",
          "name": "fees",
          "type": "tuple"
        }
      ],
      "name": "SwitchboardFeesSet",
      "type": "event"
    },
    {
      "inputs": [
        {
          "internalType": "bytes32",
          "name": "",
          "type": "bytes32"
        },
        {
          "internalType": "bytes32",
          "name": "packetId_",
          "type": "bytes32"
        },
        {
          "internalType": "uint256",
          "name": "proposalCount_",
          "type": "uint256"
        },
        {
          "internalType": "uint32",
          "name": "srcChainSlug_",
          "type": "uint32"
        },
        {
          "internalType": "uint256",
          "name": "proposeTime_",
          "type": "uint256"
        }
      ],
      "name": "allowPacket",
      "outputs": [
        {
          "internalType": "bool",
          "name": "",
          "type": "bool"
        }
      ],
      "stateMutability": "view",
      "type": "function"
    },
    {
      "inputs": [],
      "name": "chainSlug",
      "outputs": [
        {
          "internalType": "uint32",
          "name": "",
          "type": "uint32"
        }
      ],
      "stateMutability": "view",
      "type": "function"
    },
    {
      "inputs": [],
      "name": "claimOwner",
      "outputs": [],
      "stateMutability": "nonpayable",
      "type": "function"
    },
    {
      "inputs": [
        {
          "internalType": "uint32",
          "name": "",
          "type": "uint32"
        }
      ],
      "name": "fees",
      "outputs": [
        {
          "internalType": "uint128",
          "name": "switchboardFees",
          "type": "uint128"
        },
        {
          "internalType": "uint128",
          "name": "verificationOverheadFees",
          "type": "uint128"
        }
      ],
      "stateMutability": "view",
      "type": "function"
    },
    {
      "inputs": [
        {
          "internalType": "uint32",
          "name": "dstChainSlug_",
          "type": "uint32"
        }
      ],
      "name": "getMinFees",
      "outputs": [
        {
          "internalType": "uint128",
          "name": "",
          "type": "uint128"
        },
        {
          "internalType": "uint128",
          "name": "",
          "type": "uint128"
        }
      ],
      "stateMutability": "view",
      "type": "function"
    },
    {
      "inputs": [
        {
          "internalType": "bytes32[]",
          "name": "roleNames_",
          "type": "bytes32[]"
        },
        {
          "internalType": "uint32[]",
          "name": "slugs_",
          "type": "uint32[]"
        },
        {
          "internalType": "address[]",
          "name": "grantees_",
          "type": "address[]"
        }
      ],
      "name": "grantBatchRole",
      "outputs": [],
      "stateMutability": "nonpayable",
      "type": "function"
    },
    {
      "inputs": [
        {
          "internalType": "bytes32",
          "name": "role_",
          "type": "bytes32"
        },
        {
          "internalType": "address",
          "name": "grantee_",
          "type": "address"
        }
      ],
      "name": "grantRole",
      "outputs": [],
      "stateMutability": "nonpayable",
      "type": "function"
    },
    {
      "inputs": [
        {
          "internalType": "bytes32",
          "name": "roleName_",
          "type": "bytes32"
        },
        {
          "internalType": "uint32",
          "name": "chainSlug_",
          "type": "uint32"
        },
        {
          "internalType": "address",
          "name": "grantee_",
          "type": "address"
        }
      ],
      "name": "grantRoleWithSlug",
      "outputs": [],
      "stateMutability": "nonpayable",
      "type": "function"
    },
    {
      "inputs": [
        {
          "internalType": "bytes32",
          "name": "role_",
          "type": "bytes32"
        },
        {
          "internalType": "address",
          "name": "address_",
          "type": "address"
        }
      ],
      "name": "hasRole",
      "outputs": [
        {
          "internalType": "bool",
          "name": "",
          "type": "bool"
        }
      ],
      "stateMutability": "view",
      "type": "function"
    },
    {
      "inputs": [
        {
          "internalType": "bytes32",
          "name": "roleName_",
          "type": "bytes32"
        },
        {
          "internalType": "uint32",
          "name": "chainSlug_",
          "type": "uint32"
        },
        {
          "internalType": "address",
          "name": "address_",
          "type": "address"
        }
      ],
      "name": "hasRoleWithSlug",
      "outputs": [
        {
          "internalType": "bool",
          "name": "",
          "type": "bool"
        }
      ],
      "stateMutability": "view",
      "type": "function"
    },
    {
      "inputs": [
        {
          "internalType": "uint32",
          "name": "",
          "type": "uint32"
        }
      ],
      "name": "initialPacketCount",
      "outputs": [
        {
          "internalType": "uint256",
          "name": "",
          "type": "uint256"
        }
      ],
      "stateMutability": "view",
      "type": "function"
    },
    {
      "inputs": [],
      "name": "isGlobalTipped",
      "outputs": [
        {
          "internalType": "bool",
          "name": "",
          "type": "bool"
        }
      ],
      "stateMutability": "view",
      "type": "function"
    },
    {
      "inputs": [
        {
          "internalType": "uint32",
          "name": "",
          "type": "uint32"
        }
      ],
      "name": "isPathTripped",
      "outputs": [
        {
          "internalType": "bool",
          "name": "",
          "type": "bool"
        }
      ],
      "stateMutability": "view",
      "type": "function"
    },
    {
      "inputs": [
        {
          "internalType": "bytes32",
          "name": "",
          "type": "bytes32"
        },
        {
          "internalType": "uint256",
          "name": "",
          "type": "uint256"
        }
      ],
      "name": "isProposalTripped",
      "outputs": [
        {
          "internalType": "bool",
          "name": "",
          "type": "bool"
        }
      ],
      "stateMutability": "view",
      "type": "function"
    },
    {
      "inputs": [
        {
          "internalType": "address",
          "name": "",
          "type": "address"
        }
      ],
      "name": "nextNonce",
      "outputs": [
        {
          "internalType": "uint256",
          "name": "",
          "type": "uint256"
        }
      ],
      "stateMutability": "view",
      "type": "function"
    },
    {
      "inputs": [
        {
          "internalType": "address",
          "name": "nominee_",
          "type": "address"
        }
      ],
      "name": "nominateOwner",
      "outputs": [],
      "stateMutability": "nonpayable",
      "type": "function"
    },
    {
      "inputs": [],
      "name": "nominee",
      "outputs": [
        {
          "internalType": "address",
          "name": "",
          "type": "address"
        }
      ],
      "stateMutability": "view",
      "type": "function"
    },
    {
      "inputs": [],
      "name": "owner",
      "outputs": [
        {
          "internalType": "address",
          "name": "",
          "type": "address"
        }
      ],
      "stateMutability": "view",
      "type": "function"
    },
    {
      "inputs": [
        {
          "internalType": "uint32",
          "name": "",
          "type": "uint32"
        }
      ],
      "name": "receiveFees",
      "outputs": [],
      "stateMutability": "payable",
      "type": "function"
    },
    {
      "inputs": [
        {
          "internalType": "uint32",
          "name": "siblingChainSlug_",
          "type": "uint32"
        },
        {
          "internalType": "uint256",
          "name": "maxPacketLength_",
          "type": "uint256"
        },
        {
          "internalType": "uint256",
          "name": "capacitorType_",
          "type": "uint256"
        },
        {
          "internalType": "uint256",
          "name": "initialPacketCount_",
          "type": "uint256"
        },
        {
          "internalType": "address",
          "name": "siblingSwitchboard_",
          "type": "address"
        }
      ],
      "name": "registerSiblingSlug",
      "outputs": [],
      "stateMutability": "nonpayable",
      "type": "function"
    },
    {
      "inputs": [
        {
          "internalType": "address",
          "name": "token_",
          "type": "address"
        },
        {
          "internalType": "address",
          "name": "rescueTo_",
          "type": "address"
        },
        {
          "internalType": "uint256",
          "name": "amount_",
          "type": "uint256"
        }
      ],
      "name": "rescueFunds",
      "outputs": [],
      "stateMutability": "nonpayable",
      "type": "function"
    },
    {
      "inputs": [
        {
          "internalType": "bytes32[]",
          "name": "roleNames_",
          "type": "bytes32[]"
        },
        {
          "internalType": "uint32[]",
          "name": "slugs_",
          "type": "uint32[]"
        },
        {
          "internalType": "address[]",
          "name": "grantees_",
          "type": "address[]"
        }
      ],
      "name": "revokeBatchRole",
      "outputs": [],
      "stateMutability": "nonpayable",
      "type": "function"
    },
    {
      "inputs": [
        {
          "internalType": "bytes32",
          "name": "role_",
          "type": "bytes32"
        },
        {
          "internalType": "address",
          "name": "revokee_",
          "type": "address"
        }
      ],
      "name": "revokeRole",
      "outputs": [],
      "stateMutability": "nonpayable",
      "type": "function"
    },
    {
      "inputs": [
        {
          "internalType": "bytes32",
          "name": "roleName_",
          "type": "bytes32"
        },
        {
          "internalType": "uint32",
          "name": "chainSlug_",
          "type": "uint32"
        },
        {
          "internalType": "address",
          "name": "grantee_",
          "type": "address"
        }
      ],
      "name": "revokeRoleWithSlug",
      "outputs": [],
      "stateMutability": "nonpayable",
      "type": "function"
    },
    {
      "inputs": [
        {
          "internalType": "uint256",
          "name": "nonce_",
          "type": "uint256"
        },
        {
          "internalType": "uint32",
          "name": "dstChainSlug_",
          "type": "uint32"
        },
        {
          "internalType": "uint128",
          "name": "switchboardFees_",
          "type": "uint128"
        },
        {
          "internalType": "uint128",
          "name": "verificationOverheadFees_",
          "type": "uint128"
        },
        {
          "internalType": "bytes",
          "name": "signature_",
          "type": "bytes"
        }
      ],
      "name": "setFees",
      "outputs": [],
      "stateMutability": "nonpayable",
      "type": "function"
    },
    {
      "inputs": [],
      "name": "signatureVerifier__",
      "outputs": [
        {
          "internalType": "contract ISignatureVerifier",
          "name": "",
          "type": "address"
        }
      ],
      "stateMutability": "view",
      "type": "function"
    },
    {
      "inputs": [],
      "name": "socket__",
      "outputs": [
        {
          "internalType": "contract ISocket",
          "name": "",
          "type": "address"
        }
      ],
      "stateMutability": "view",
      "type": "function"
    },
    {
      "inputs": [],
      "name": "timeoutInSeconds",
      "outputs": [
        {
          "internalType": "uint256",
          "name": "",
          "type": "uint256"
        }
      ],
      "stateMutability": "view",
      "type": "function"
    },
    {
      "inputs": [
        {
          "internalType": "uint256",
          "name": "nonce_",
          "type": "uint256"
        },
        {
          "internalType": "bytes",
          "name": "signature_",
          "type": "bytes"
        }
      ],
      "name": "tripGlobal",
      "outputs": [],
      "stateMutability": "nonpayable",
      "type": "function"
    },
    {
      "inputs": [
        {
          "internalType": "uint256",
          "name": "nonce_",
          "type": "uint256"
        },
        {
          "internalType": "uint32",
          "name": "srcChainSlug_",
          "type": "uint32"
        },
        {
          "internalType": "bytes",
          "name": "signature_",
          "type": "bytes"
        }
      ],
      "name": "tripPath",
      "outputs": [],
      "stateMutability": "nonpayable",
      "type": "function"
    },
    {
      "inputs": [
        {
          "internalType": "uint256",
          "name": "nonce_",
          "type": "uint256"
        },
        {
          "internalType": "bytes32",
          "name": "packetId_",
          "type": "bytes32"
        },
        {
          "internalType": "uint256",
          "name": "proposalCount_",
          "type": "uint256"
        },
        {
          "internalType": "bytes",
          "name": "signature_",
          "type": "bytes"
        }
      ],
      "name": "tripProposal",
      "outputs": [],
      "stateMutability": "nonpayable",
      "type": "function"
    },
    {
      "inputs": [
        {
          "internalType": "uint256",
          "name": "nonce_",
          "type": "uint256"
        },
        {
          "internalType": "bytes",
          "name": "signature_",
          "type": "bytes"
        }
      ],
      "name": "unTrip",
      "outputs": [],
      "stateMutability": "nonpayable",
      "type": "function"
    },
    {
      "inputs": [
        {
          "internalType": "uint256",
          "name": "nonce_",
          "type": "uint256"
        },
        {
          "internalType": "uint32",
          "name": "srcChainSlug_",
          "type": "uint32"
        },
        {
          "internalType": "bytes",
          "name": "signature_",
          "type": "bytes"
        }
      ],
      "name": "unTripPath",
      "outputs": [],
      "stateMutability": "nonpayable",
      "type": "function"
    },
    {
      "inputs": [
        {
          "internalType": "uint32",
          "name": "siblingChainSlug_",
          "type": "uint32"
        },
        {
          "internalType": "address",
          "name": "siblingSwitchboard_",
          "type": "address"
        }
      ],
      "name": "updateSibling",
      "outputs": [],
      "stateMutability": "nonpayable",
      "type": "function"
    },
    {
      "inputs": [
        {
          "internalType": "address",
          "name": "withdrawTo_",
          "type": "address"
        }
      ],
      "name": "withdrawFees",
      "outputs": [],
      "stateMutability": "nonpayable",
      "type": "function"
    }
  ],
  "bytecode": "0x6101006040523480156200001257600080fd5b5060405162003113380380620031138339810160408190526200003591620000e2565b83838383888080620000478162000076565b5050506001600160a01b0393841660a05263ffffffff90921660c05260e05216608052506200015e9350505050565b600080546001600160a01b0383166001600160a01b0319918216811783556001805490921690915560405190917ffbe19c9b601f5ee90b44c7390f3fa2319eba01762d34ee372aeafd59b25c7f8791a250565b6001600160a01b0381168114620000df57600080fd5b50565b600080600080600060a08688031215620000fb57600080fd5b85516200010881620000c9565b60208701519095506200011b81620000c9565b604087015190945063ffffffff811681146200013657600080fd5b6060870151608088015191945092506200015081620000c9565b809150509295509295909350565b60805160a05160c05160e051612f0b62000208600039600081816107f2015261107901526000818161062001528181610b61015281816112600152818161149f01528181611acb01528181611cff0152611f840152600081816106b9015281816117ea01528181611934015261199701526000818161074701528181610bae015281816112ad015281816114de01528181611b1801528181611d4c0152611ff20152612f0b6000f3fe6080604052600436106102345760003560e01c80638da5cb5b11610138578063c6a261d2116100b0578063d5b8da731161007f578063ef7b769011610064578063ef7b769014610789578063efec6cd4146107e0578063f22b460e1461081457600080fd5b8063d5b8da7314610735578063ecb974841461076957600080fd5b8063c6a261d2146106a7578063c8779308146106db578063d39a38c1146106f5578063d547741f1461071557600080fd5b8063a9a541b211610107578063b349ba65116100ec578063b349ba651461060e578063b947aac614610657578063be94a4761461068757600080fd5b8063a9a541b2146105c0578063aac96557146105d357600080fd5b80638da5cb5b1461053557806391d14854146105605780639aefe4e014610580578063a0851863146105a057600080fd5b80632f2ff15d116101cb5780635b94db271161019a5780637c1388141161017f5780637c138814146104c857806382987d30146104f557806389ee87551461051557600080fd5b80635b94db27146104885780636ccae054146104a857600080fd5b80632f2ff15d146104035780633bd1adec1461042357806343fa97ca146104385780634c4081801461045857600080fd5b80631e867311116102075780631e8673111461035757806320f99c0a1461037757806325750e37146103c35780632e7eb258146103e357600080fd5b806306da42e0146102395780630cd55abf146102da578063164e68de146103155780631ba8e48414610337575b600080fd5b34801561024557600080fd5b506102ac6102543660046127d8565b63ffffffff166000908152600760209081526040918290208251808401909352546fffffffffffffffffffffffffffffffff808216808552700100000000000000000000000000000000909204169290910182905291565b604080516fffffffffffffffffffffffffffffffff9384168152929091166020830152015b60405180910390f35b3480156102e657600080fd5b506103076102f5366004612815565b60066020526000908152604090205481565b6040519081526020016102d1565b34801561032157600080fd5b50610335610330366004612815565b610834565b005b34801561034357600080fd5b50610335610352366004612839565b610921565b34801561036357600080fd5b506103356103723660046128c5565b610982565b34801561038357600080fd5b5060015473ffffffffffffffffffffffffffffffffffffffff165b60405173ffffffffffffffffffffffffffffffffffffffff90911681526020016102d1565b3480156103cf57600080fd5b506103356103de366004612a39565b610b28565b3480156103ef57600080fd5b506103356103fe366004612839565b610d41565b34801561040f57600080fd5b5061033561041e366004612a80565b610d9d565b34801561042f57600080fd5b50610335610df8565b34801561044457600080fd5b506103356104533660046128c5565b610e54565b34801561046457600080fd5b50610478610473366004612ab0565b610ff0565b60405190151581526020016102d1565b34801561049457600080fd5b506103356104a3366004612815565b6110c1565b3480156104b457600080fd5b506103356104c3366004612af7565b611181565b3480156104d457600080fd5b506103076104e33660046127d8565b60086020526000908152604090205481565b34801561050157600080fd5b50610335610510366004612b38565b61121f565b34801561052157600080fd5b50610335610530366004612b8f565b61145a565b34801561054157600080fd5b5060005473ffffffffffffffffffffffffffffffffffffffff1661039e565b34801561056c57600080fd5b5061047861057b366004612a80565b6116ad565b34801561058c57600080fd5b5061033561059b366004612be9565b6116ea565b3480156105ac57600080fd5b506103356105bb366004612c3d565b611856565b6103356105ce3660046127d8565b611995565b3480156105df57600080fd5b506104786105ee366004612c69565b600560209081526000928352604080842090915290825290205460ff1681565b34801561061a57600080fd5b506106427f000000000000000000000000000000000000000000000000000000000000000081565b60405163ffffffff90911681526020016102d1565b34801561066357600080fd5b506104786106723660046127d8565b60046020526000908152604090205460ff1681565b34801561069357600080fd5b506103356106a2366004612b38565b611a8a565b3480156106b357600080fd5b5061039e7f000000000000000000000000000000000000000000000000000000000000000081565b3480156106e757600080fd5b506003546104789060ff1681565b34801561070157600080fd5b50610335610710366004612a39565b611cc6565b34801561072157600080fd5b50610335610730366004612a80565b611edb565b34801561074157600080fd5b5061039e7f000000000000000000000000000000000000000000000000000000000000000081565b34801561077557600080fd5b50610478610784366004612839565b611f36565b34801561079557600080fd5b506102ac6107a43660046127d8565b6007602052600090815260409020546fffffffffffffffffffffffffffffffff8082169170010000000000000000000000000000000090041682565b3480156107ec57600080fd5b506103077f000000000000000000000000000000000000000000000000000000000000000081565b34801561082057600080fd5b5061033561082f366004612cab565b611f4b565b3360009081527f9b7ec560033b826bc253a5f1a8b5e6a61c8d2a6e8731a9872b68296f6024c5ac60205260409020547f5d8e12c39142ff96d79d04d15d1ba1269e4fe57bb9d26f43523628b34ba108ec9060ff166108c6576040517f962f6333000000000000000000000000000000000000000000000000000000008152600481018290526024015b60405180910390fd5b73ffffffffffffffffffffffffffffffffffffffff8216610913576040517fd92e233d00000000000000000000000000000000000000000000000000000000815260040160405180910390fd5b61091d8247612203565b5050565b60005473ffffffffffffffffffffffffffffffffffffffff163314610972576040517f5fc483c500000000000000000000000000000000000000000000000000000000815260040160405180910390fd5b61097d838383612278565b505050565b60005473ffffffffffffffffffffffffffffffffffffffff1633146109d3576040517f5fc483c500000000000000000000000000000000000000000000000000000000815260040160405180910390fd5b84811415806109e25750848314155b15610a19576040517f11e86f7300000000000000000000000000000000000000000000000000000000815260040160405180910390fd5b8460005b81811015610b1e576000868683818110610a3957610a39612d58565b9050602002016020810190610a4e91906127d8565b63ffffffff161115610ace57610ac9888883818110610a6f57610a6f612d58565b90506020020135878784818110610a8857610a88612d58565b9050602002016020810190610a9d91906127d8565b868685818110610aaf57610aaf612d58565b9050602002016020810190610ac49190612815565b612278565b610b16565b610b16888883818110610ae357610ae3612d58565b90506020020135858584818110610afc57610afc612d58565b9050602002016020810190610b119190612815565b6122b5565b600101610a1d565b5050505050505050565b604080517fa7d456f2444d46f78a51def7ecdf108d72f72da2e10ce355caa5e99a17bed2de6020820152309181019190915263ffffffff7f000000000000000000000000000000000000000000000000000000000000000016606082015260808101839052600060a082018190529073ffffffffffffffffffffffffffffffffffffffff7f000000000000000000000000000000000000000000000000000000000000000016906397aba7f99060c00160405160208183030381529060405280519060200120846040518363ffffffff1660e01b8152600401610c0c929190612d87565b602060405180830381865afa158015610c29573d6000803e3d6000fd5b505050506040513d601f19601f82011682018060405250810190610c4d9190612dfb565b9050610c797fb0a81253fa41a5cd7c5885c220c30d519a0d552984e0d69edda03449f69fa6db82612338565b73ffffffffffffffffffffffffffffffffffffffff811660009081526006602052604090208054600181019091558314610cdf576040517f756688fe00000000000000000000000000000000000000000000000000000000815260040160405180910390fd5b600380547fffffffffffffffffffffffffffffffffffffffffffffffffffffffffffffff00169055604051600081527f42a60e0dc12250ea896a8f5156f1f3aa4567cd2bd87a72bc097210dc02ec2e05906020015b60405180910390a1505050565b60005473ffffffffffffffffffffffffffffffffffffffff163314610d92576040517f5fc483c500000000000000000000000000000000000000000000000000000000815260040160405180910390fd5b61097d8383836123a4565b60005473ffffffffffffffffffffffffffffffffffffffff163314610dee576040517f5fc483c500000000000000000000000000000000000000000000000000000000815260040160405180910390fd5b61091d82826123e1565b60015473ffffffffffffffffffffffffffffffffffffffff163314610e49576040517f7c91ccdd00000000000000000000000000000000000000000000000000000000815260040160405180910390fd5b610e5233612467565b565b60005473ffffffffffffffffffffffffffffffffffffffff163314610ea5576040517f5fc483c500000000000000000000000000000000000000000000000000000000815260040160405180910390fd5b8481141580610eb45750848314155b15610eeb576040517f11e86f7300000000000000000000000000000000000000000000000000000000815260040160405180910390fd5b8460005b81811015610b1e576000868683818110610f0b57610f0b612d58565b9050602002016020810190610f2091906127d8565b63ffffffff161115610fa057610f9b888883818110610f4157610f41612d58565b90506020020135878784818110610f5a57610f5a612d58565b9050602002016020810190610f6f91906127d8565b868685818110610f8157610f81612d58565b9050602002016020810190610f969190612815565b6123a4565b610fe8565b610fe8888883818110610fb557610fb5612d58565b90506020020135858584818110610fce57610fce612d58565b9050602002016020810190610fe39190612815565b6123e1565b600101610eef565b600354600090859060ff168061101b575063ffffffff841660009081526004602052604090205460ff165b8061103f5750600086815260056020908152604080832088845290915290205460ff165b80611068575063ffffffff841660009081526008602052604090205467ffffffffffffffff8216105b156110775760009150506110b8565b7f00000000000000000000000000000000000000000000000000000000000000006110a28442612e18565b10156110b25760009150506110b8565b60019150505b95945050505050565b60005473ffffffffffffffffffffffffffffffffffffffff163314611112576040517f5fc483c500000000000000000000000000000000000000000000000000000000815260040160405180910390fd5b600180547fffffffffffffffffffffffff00000000000000000000000000000000000000001673ffffffffffffffffffffffffffffffffffffffff83169081179091556040517f906a1c6bd7e3091ea86693dd029a831c19049ce77f1dce2ce0bab1cacbabce2290600090a250565b3360009081527f4933f7bec34ee32db93e9f5cd7e0519781b395282211f4f6857489046ea38f7660205260409020547fc4c453d647953c0fd35db5a34ee76e60fb4abc3a8fb891a25936b70b38f292539060ff1661120e576040517f962f6333000000000000000000000000000000000000000000000000000000008152600481018290526024016108bd565b6112198484846124df565b50505050565b604080517fc9c6c9004cdd87e14f6d7be800064bea944fdafc4e66c833d9da91c10d4ced356020820152309181019190915263ffffffff80841660608301527f000000000000000000000000000000000000000000000000000000000000000016608082015260a08101849052600060c082018190529073ffffffffffffffffffffffffffffffffffffffff7f000000000000000000000000000000000000000000000000000000000000000016906397aba7f99060e00160405160208183030381529060405280519060200120846040518363ffffffff1660e01b815260040161130b929190612d87565b602060405180830381865afa158015611328573d6000803e3d6000fd5b505050506040513d601f19601f8201168201806040525081019061134c9190612dfb565b90506113787fb0a81253fa41a5cd7c5885c220c30d519a0d552984e0d69edda03449f69fa6db82612338565b73ffffffffffffffffffffffffffffffffffffffff8116600090815260066020526040902080546001810190915584146113de576040517f756688fe00000000000000000000000000000000000000000000000000000000815260040160405180910390fd5b63ffffffff8316600081815260046020908152604080832080547fffffffffffffffffffffffffffffffffffffffffffffffffffffffffffffff001690558051938452908301919091527f43b1a9ba48bea5f72f92aaaf96b18ec134518690384df35d04b1316ca68147e191015b60405180910390a150505050565b604080517f119101cda5c91f869cec4313411657e772bec4c5a184dd6ab7a60859e3d347836020820152309181019190915260e084811c6060830181905263ffffffff7f000000000000000000000000000000000000000000000000000000000000000016608084015260a0830187905260c08301869052908201849052906000907f000000000000000000000000000000000000000000000000000000000000000073ffffffffffffffffffffffffffffffffffffffff16906397aba7f9906101000160405160208183030381529060405280519060200120856040518363ffffffff1660e01b8152600401611552929190612d87565b602060405180830381865afa15801561156f573d6000803e3d6000fd5b505050506040513d601f19601f820116820180604052508101906115939190612dfb565b90506115c67f2125d1e225cadc5c8296e2cc1f96ee607770bf4a4a16131e62f6819937437c898363ffffffff16836125cf565b73ffffffffffffffffffffffffffffffffffffffff81166000908152600660205260409020805460018101909155861461162c576040517f756688fe00000000000000000000000000000000000000000000000000000000815260040160405180910390fd5b600085815260056020908152604080832087845282529182902080547fffffffffffffffffffffffffffffffffffffffffffffffffffffffffffffff0016600117905581518781529081018690527f876c775784dd569d1ecd6e1a52c87169c22c4e906a138c91a59f451fa0f431b5910160405180910390a1505050505050565b600082815260026020908152604080832073ffffffffffffffffffffffffffffffffffffffff8516845290915281205460ff165b90505b92915050565b3360009081527f0f4a237b7f9e071a612ddea08a06576f25cc7dffe13a46307ee64fe2318b3c3e60205260409020547f71840dc4906352362b0cdaf79870196c8e42acafade72d5d5a6d59291253ceb19060ff16611777576040517f962f6333000000000000000000000000000000000000000000000000000000008152600481018290526024016108bd565b63ffffffff861660008181526008602052604090819020859055517f0b04bb410000000000000000000000000000000000000000000000000000000081526004810191909152602481018690526044810185905273ffffffffffffffffffffffffffffffffffffffff83811660648301527f00000000000000000000000000000000000000000000000000000000000000001690630b04bb419060840160408051808303816000875af1158015611832573d6000803e3d6000fd5b505050506040513d601f19601f82011682018060405250810190610b1e9190612e52565b3360009081527f0f4a237b7f9e071a612ddea08a06576f25cc7dffe13a46307ee64fe2318b3c3e60205260409020547f71840dc4906352362b0cdaf79870196c8e42acafade72d5d5a6d59291253ceb19060ff166118e3576040517f962f6333000000000000000000000000000000000000000000000000000000008152600481018290526024016108bd565b6040517f81403a0200000000000000000000000000000000000000000000000000000000815263ffffffff8416600482015273ffffffffffffffffffffffffffffffffffffffff83811660248301527f000000000000000000000000000000000000000000000000000000000000000016906381403a0290604401600060405180830381600087803b15801561197857600080fd5b505af115801561198c573d6000803e3d6000fd5b50505050505050565b7f000000000000000000000000000000000000000000000000000000000000000073ffffffffffffffffffffffffffffffffffffffff16626186f76040518163ffffffff1660e01b8152600401602060405180830381865afa1580156119ff573d6000803e3d6000fd5b505050506040513d601f19601f82011682018060405250810190611a239190612dfb565b73ffffffffffffffffffffffffffffffffffffffff163373ffffffffffffffffffffffffffffffffffffffff1614611a87576040517f03c377c500000000000000000000000000000000000000000000000000000000815260040160405180910390fd5b50565b604080517f4623a5d5b82ed238c8ba6e51cffa4ddaf241150d9af32813faab00132f55a4566020820152309181019190915263ffffffff80841660608301527f000000000000000000000000000000000000000000000000000000000000000016608082015260a08101849052600160c082015260009073ffffffffffffffffffffffffffffffffffffffff7f000000000000000000000000000000000000000000000000000000000000000016906397aba7f99060e00160405160208183030381529060405280519060200120846040518363ffffffff1660e01b8152600401611b76929190612d87565b602060405180830381865afa158015611b93573d6000803e3d6000fd5b505050506040513d601f19601f82011682018060405250810190611bb79190612dfb565b9050611bea7f2125d1e225cadc5c8296e2cc1f96ee607770bf4a4a16131e62f6819937437c898463ffffffff16836125cf565b73ffffffffffffffffffffffffffffffffffffffff811660009081526006602052604090208054600181019091558414611c50576040517f756688fe00000000000000000000000000000000000000000000000000000000815260040160405180910390fd5b63ffffffff831660008181526004602090815260409182902080547fffffffffffffffffffffffffffffffffffffffffffffffffffffffffffffff001660019081179091558251938452908301527f43b1a9ba48bea5f72f92aaaf96b18ec134518690384df35d04b1316ca68147e1910161144c565b604080517fbdfa1b22b053b80e8209cb4421ce6b25b45bb164e02718501cb19a46c4df987c6020820152309181019190915263ffffffff7f000000000000000000000000000000000000000000000000000000000000000016606082015260808101839052600160a082015260009073ffffffffffffffffffffffffffffffffffffffff7f000000000000000000000000000000000000000000000000000000000000000016906397aba7f99060c00160405160208183030381529060405280519060200120846040518363ffffffff1660e01b8152600401611daa929190612d87565b602060405180830381865afa158015611dc7573d6000803e3d6000fd5b505050506040513d601f19601f82011682018060405250810190611deb9190612dfb565b9050611e177fd66a896d5b3e8cd31bfd557e6ebdb5bba4561c7ce6573d5c6716876cbc83dbdd82612338565b73ffffffffffffffffffffffffffffffffffffffff811660009081526006602052604090208054600181019091558314611e7d576040517f756688fe00000000000000000000000000000000000000000000000000000000815260040160405180910390fd5b600380547fffffffffffffffffffffffffffffffffffffffffffffffffffffffffffffff001660019081179091556040519081527f42a60e0dc12250ea896a8f5156f1f3aa4567cd2bd87a72bc097210dc02ec2e0590602001610d34565b60005473ffffffffffffffffffffffffffffffffffffffff163314611f2c576040517f5fc483c500000000000000000000000000000000000000000000000000000000815260040160405180910390fd5b61091d82826122b5565b6000611f43848484612662565b949350505050565b604080517ff2deac1744cfd52ddfce21c5ff26abf413f6418dc4a35916e26daefd87e04ab66020820152309181019190915263ffffffff7f0000000000000000000000000000000000000000000000000000000000000000811660608301528616608082015260a081018790526fffffffffffffffffffffffffffffffff80861660c0830152841660e082015260009073ffffffffffffffffffffffffffffffffffffffff7f000000000000000000000000000000000000000000000000000000000000000016906397aba7f990610100016040516020818303038152906040528051906020012085856040518463ffffffff1660e01b815260040161205393929190612e81565b602060405180830381865afa158015612070573d6000803e3d6000fd5b505050506040513d601f19601f820116820180604052508101906120949190612dfb565b90506120c77f429672025b2dcb8754ca4b57943f34ac66900598787cb1f1e857291dedbf34d38763ffffffff16836125cf565b73ffffffffffffffffffffffffffffffffffffffff81166000908152600660205260409020805460018101909155871461212d576040517f756688fe00000000000000000000000000000000000000000000000000000000815260040160405180910390fd5b63ffffffff8616600090815260076020526040908190206fffffffffffffffffffffffffffffffff878116908716700100000000000000000000000000000000027fffffffffffffffffffffffffffffffff000000000000000000000000000000001617815590517faebc3dd035ce00dd026bd60872bea44979224507aa49434f67ec5f9ae924aaa3906121f1908990849063ffffffff929092168252546fffffffffffffffffffffffffffffffff8116602083015260801c604082015260600190565b60405180910390a15050505050505050565b600080600080600085875af190508061097d576040517f08c379a000000000000000000000000000000000000000000000000000000000815260206004820152601360248201527f4554485f5452414e534645525f4641494c45440000000000000000000000000060448201526064016108bd565b61097d838360405160200161229d92919091825263ffffffff16602082015260400190565b60405160208183030381529060405280519060200120825b600082815260026020908152604080832073ffffffffffffffffffffffffffffffffffffffff8516808552925280832080547fffffffffffffffffffffffffffffffffffffffffffffffffffffffffffffff0016905551909184917f155aaafb6329a2098580462df33ec4b7441b19729b9601c5fc17ae1cf99a8a529190a35050565b600082815260026020908152604080832073ffffffffffffffffffffffffffffffffffffffff8516845290915290205460ff1661091d576040517f962f6333000000000000000000000000000000000000000000000000000000008152600481018390526024016108bd565b61097d83836040516020016123c992919091825263ffffffff16602082015260400190565b60405160208183030381529060405280519060200120825b600082815260026020908152604080832073ffffffffffffffffffffffffffffffffffffffff8516808552925280832080547fffffffffffffffffffffffffffffffffffffffffffffffffffffffffffffff0016600117905551909184917f2ae6a113c0ed5b78a53413ffbb7679881f11145ccfba4fb92e863dfcd5a1d2f39190a35050565b6000805473ffffffffffffffffffffffffffffffffffffffff83167fffffffffffffffffffffffff0000000000000000000000000000000000000000918216811783556001805490921690915560405190917ffbe19c9b601f5ee90b44c7390f3fa2319eba01762d34ee372aeafd59b25c7f8791a250565b73ffffffffffffffffffffffffffffffffffffffff821661252c576040517fd92e233d00000000000000000000000000000000000000000000000000000000815260040160405180910390fd5b7fffffffffffffffffffffffff111111111111111111111111111111111111111273ffffffffffffffffffffffffffffffffffffffff8416016125735761097d8282612203565b8273ffffffffffffffffffffffffffffffffffffffff163b6000036125c4576040517f1eb00b0600000000000000000000000000000000000000000000000000000000815260040160405180910390fd5b61097d8383836126f0565b6040805160208082018690528183018590528251808303840181526060909201835281519181019190912060008181526002835283812073ffffffffffffffffffffffffffffffffffffffff861682529092529190205460ff16611219576040517f962f6333000000000000000000000000000000000000000000000000000000008152600481018290526024016108bd565b6000611f43848460405160200161268992919091825263ffffffff16602082015260400190565b604080517fffffffffffffffffffffffffffffffffffffffffffffffffffffffffffffffe0818403018152918152815160209283012060009081526002835281812073ffffffffffffffffffffffffffffffffffffffff8716825290925290205460ff1690565b60006040517fa9059cbb00000000000000000000000000000000000000000000000000000000815273ffffffffffffffffffffffffffffffffffffffff84166004820152826024820152602060006044836000895af13d15601f3d1160016000511416171691505080611219576040517f08c379a000000000000000000000000000000000000000000000000000000000815260206004820152600f60248201527f5452414e534645525f4641494c4544000000000000000000000000000000000060448201526064016108bd565b803563ffffffff811681146127d357600080fd5b919050565b6000602082840312156127ea57600080fd5b6116e1826127bf565b73ffffffffffffffffffffffffffffffffffffffff81168114611a8757600080fd5b60006020828403121561282757600080fd5b8135612832816127f3565b9392505050565b60008060006060848603121561284e57600080fd5b8335925061285e602085016127bf565b9150604084013561286e816127f3565b809150509250925092565b60008083601f84011261288b57600080fd5b50813567ffffffffffffffff8111156128a357600080fd5b6020830191508360208260051b85010111156128be57600080fd5b9250929050565b600080600080600080606087890312156128de57600080fd5b863567ffffffffffffffff808211156128f657600080fd5b6129028a838b01612879565b9098509650602089013591508082111561291b57600080fd5b6129278a838b01612879565b9096509450604089013591508082111561294057600080fd5b5061294d89828a01612879565b979a9699509497509295939492505050565b7f4e487b7100000000000000000000000000000000000000000000000000000000600052604160045260246000fd5b600082601f83011261299f57600080fd5b813567ffffffffffffffff808211156129ba576129ba61295f565b604051601f83017fffffffffffffffffffffffffffffffffffffffffffffffffffffffffffffffe0908116603f01168101908282118183101715612a0057612a0061295f565b81604052838152866020858801011115612a1957600080fd5b836020870160208301376000602085830101528094505050505092915050565b60008060408385031215612a4c57600080fd5b82359150602083013567ffffffffffffffff811115612a6a57600080fd5b612a768582860161298e565b9150509250929050565b60008060408385031215612a9357600080fd5b823591506020830135612aa5816127f3565b809150509250929050565b600080600080600060a08688031215612ac857600080fd5b853594506020860135935060408601359250612ae6606087016127bf565b949793965091946080013592915050565b600080600060608486031215612b0c57600080fd5b8335612b17816127f3565b92506020840135612b27816127f3565b929592945050506040919091013590565b600080600060608486031215612b4d57600080fd5b83359250612b5d602085016127bf565b9150604084013567ffffffffffffffff811115612b7957600080fd5b612b858682870161298e565b9150509250925092565b60008060008060808587031215612ba557600080fd5b843593506020850135925060408501359150606085013567ffffffffffffffff811115612bd157600080fd5b612bdd8782880161298e565b91505092959194509250565b600080600080600060a08688031215612c0157600080fd5b612c0a866127bf565b94506020860135935060408601359250606086013591506080860135612c2f816127f3565b809150509295509295909350565b60008060408385031215612c5057600080fd5b612c59836127bf565b91506020830135612aa5816127f3565b60008060408385031215612c7c57600080fd5b50508035926020909101359150565b80356fffffffffffffffffffffffffffffffff811681146127d357600080fd5b60008060008060008060a08789031215612cc457600080fd5b86359550612cd4602088016127bf565b9450612ce260408801612c8b565b9350612cf060608801612c8b565b9250608087013567ffffffffffffffff80821115612d0d57600080fd5b818901915089601f830112612d2157600080fd5b813581811115612d3057600080fd5b8a6020828501011115612d4257600080fd5b6020830194508093505050509295509295509295565b7f4e487b7100000000000000000000000000000000000000000000000000000000600052603260045260246000fd5b82815260006020604081840152835180604085015260005b81811015612dbb57858101830151858201606001528201612d9f565b5060006060828601015260607fffffffffffffffffffffffffffffffffffffffffffffffffffffffffffffffe0601f830116850101925050509392505050565b600060208284031215612e0d57600080fd5b8151612832816127f3565b818103818111156116e4577f4e487b7100000000000000000000000000000000000000000000000000000000600052601160045260246000fd5b60008060408385031215612e6557600080fd5b8251612e70816127f3565b6020840151909250612aa5816127f3565b83815260406020820152816040820152818360608301376000818301606090810191909152601f9092017fffffffffffffffffffffffffffffffffffffffffffffffffffffffffffffffe01601019291505056fea2646970667358221220b487f114ed754695c0fbd39b7c167ced080c2810a8d4969c334f3d044c3bead364736f6c63430008130033",
  "linkReferences": {},
  "deployedLinkReferences": {}
}