{
  "_format": "hh-sol-artifact-1",
  "contractName": "SwitchboardSimulator",
  "sourceName": "contracts/mocks/fee-updater/SwitchboardSimulator.sol",
  "abi": [
    {
      "inputs": [
        {
          "internalType": "address",
          "name": "owner_",
          "type": "address"
        },
        {
          "internalType": "address",
          "name": "socket_",
          "type": "address"
        },
        {
          "internalType": "uint32",
          "name": "chainSlug_",
          "type": "uint32"
        },
        {
          "internalType": "uint256",
          "name": "timeoutInSeconds_",
          "type": "uint256"
        },
        {
          "internalType": "contract ISignatureVerifier",
          "name": "signatureVerifier_",
          "type": "address"
        }
      ],
      "stateMutability": "nonpayable",
      "type": "constructor"
    },
    {
      "inputs": [],
      "name": "AlreadyAttested",
      "type": "error"
    },
    {
      "inputs": [],
      "name": "InvalidRoot",
      "type": "error"
    },
    {
      "inputs": [
        {
          "internalType": "bytes32",
          "name": "role",
          "type": "bytes32"
        }
      ],
      "name": "NoPermit",
      "type": "error"
    },
    {
      "inputs": [],
      "name": "OnlyNominee",
      "type": "error"
    },
    {
      "inputs": [],
      "name": "OnlyOwner",
      "type": "error"
    },
    {
      "inputs": [],
      "name": "UnequalArrayLengths",
      "type": "error"
    },
    {
      "inputs": [],
      "name": "WatcherNotFound",
      "type": "error"
    },
    {
      "anonymous": false,
      "inputs": [
        {
          "indexed": true,
          "internalType": "address",
          "name": "claimer",
          "type": "address"
        }
      ],
      "name": "OwnerClaimed",
      "type": "event"
    },
    {
      "anonymous": false,
      "inputs": [
        {
          "indexed": true,
          "internalType": "address",
          "name": "nominee",
          "type": "address"
        }
      ],
      "name": "OwnerNominated",
      "type": "event"
    },
    {
      "anonymous": false,
      "inputs": [
        {
          "indexed": false,
          "internalType": "bytes32",
          "name": "packetId",
          "type": "bytes32"
        },
        {
          "indexed": false,
          "internalType": "uint256",
          "name": "proposalCount",
          "type": "uint256"
        },
        {
          "indexed": false,
          "internalType": "bytes32",
          "name": "root",
          "type": "bytes32"
        },
        {
          "indexed": false,
          "internalType": "address",
          "name": "watcher",
          "type": "address"
        },
        {
          "indexed": false,
          "internalType": "uint256",
          "name": "attestationsCount",
          "type": "uint256"
        }
      ],
      "name": "ProposalAttested",
      "type": "event"
    },
    {
      "anonymous": false,
      "inputs": [
        {
          "indexed": true,
          "internalType": "bytes32",
          "name": "role",
          "type": "bytes32"
        },
        {
          "indexed": true,
          "internalType": "address",
          "name": "grantee",
          "type": "address"
        }
      ],
      "name": "RoleGranted",
      "type": "event"
    },
    {
      "anonymous": false,
      "inputs": [
        {
          "indexed": true,
          "internalType": "bytes32",
          "name": "role",
          "type": "bytes32"
        },
        {
          "indexed": true,
          "internalType": "address",
          "name": "revokee",
          "type": "address"
        }
      ],
      "name": "RoleRevoked",
      "type": "event"
    },
    {
      "inputs": [
        {
          "internalType": "bytes32",
          "name": "packetId_",
          "type": "bytes32"
        },
        {
          "internalType": "uint256",
          "name": "proposalCount_",
          "type": "uint256"
        },
        {
          "internalType": "bytes32",
          "name": "root_",
          "type": "bytes32"
        },
        {
          "internalType": "bytes",
          "name": "signature_",
          "type": "bytes"
        }
      ],
      "name": "attest",
      "outputs": [],
      "stateMutability": "nonpayable",
      "type": "function"
    },
    {
      "inputs": [
        {
          "internalType": "bytes32",
          "name": "",
          "type": "bytes32"
        }
      ],
      "name": "attestations",
      "outputs": [
        {
          "internalType": "uint256",
          "name": "",
          "type": "uint256"
        }
      ],
      "stateMutability": "view",
      "type": "function"
    },
    {
      "inputs": [],
      "name": "chainSlug",
      "outputs": [
        {
          "internalType": "uint32",
          "name": "",
          "type": "uint32"
        }
      ],
      "stateMutability": "view",
      "type": "function"
    },
    {
      "inputs": [],
      "name": "claimOwner",
      "outputs": [],
      "stateMutability": "nonpayable",
      "type": "function"
    },
    {
      "inputs": [
        {
          "internalType": "bytes32[]",
          "name": "roleNames_",
          "type": "bytes32[]"
        },
        {
          "internalType": "uint32[]",
          "name": "slugs_",
          "type": "uint32[]"
        },
        {
          "internalType": "address[]",
          "name": "grantees_",
          "type": "address[]"
        }
      ],
      "name": "grantBatchRole",
      "outputs": [],
      "stateMutability": "nonpayable",
      "type": "function"
    },
    {
      "inputs": [
        {
          "internalType": "bytes32",
          "name": "role_",
          "type": "bytes32"
        },
        {
          "internalType": "address",
          "name": "grantee_",
          "type": "address"
        }
      ],
      "name": "grantRole",
      "outputs": [],
      "stateMutability": "nonpayable",
      "type": "function"
    },
    {
      "inputs": [
        {
          "internalType": "bytes32",
          "name": "roleName_",
          "type": "bytes32"
        },
        {
          "internalType": "uint32",
          "name": "chainSlug_",
          "type": "uint32"
        },
        {
          "internalType": "address",
          "name": "grantee_",
          "type": "address"
        }
      ],
      "name": "grantRoleWithSlug",
      "outputs": [],
      "stateMutability": "nonpayable",
      "type": "function"
    },
    {
      "inputs": [
        {
          "internalType": "bytes32",
          "name": "role_",
          "type": "bytes32"
        },
        {
          "internalType": "address",
          "name": "address_",
          "type": "address"
        }
      ],
      "name": "hasRole",
      "outputs": [
        {
          "internalType": "bool",
          "name": "",
          "type": "bool"
        }
      ],
      "stateMutability": "view",
      "type": "function"
    },
    {
      "inputs": [
        {
          "internalType": "bytes32",
          "name": "roleName_",
          "type": "bytes32"
        },
        {
          "internalType": "uint32",
          "name": "chainSlug_",
          "type": "uint32"
        },
        {
          "internalType": "address",
          "name": "address_",
          "type": "address"
        }
      ],
      "name": "hasRoleWithSlug",
      "outputs": [
        {
          "internalType": "bool",
          "name": "",
          "type": "bool"
        }
      ],
      "stateMutability": "view",
      "type": "function"
    },
    {
      "inputs": [
        {
          "internalType": "uint32",
          "name": "",
          "type": "uint32"
        }
      ],
      "name": "initialPacketCount",
      "outputs": [
        {
          "internalType": "uint256",
          "name": "",
          "type": "uint256"
        }
      ],
      "stateMutability": "view",
      "type": "function"
    },
    {
      "inputs": [
        {
          "internalType": "address",
          "name": "",
          "type": "address"
        },
        {
          "internalType": "bytes32",
          "name": "",
          "type": "bytes32"
        }
      ],
      "name": "isAttested",
      "outputs": [
        {
          "internalType": "bool",
          "name": "",
          "type": "bool"
        }
      ],
      "stateMutability": "view",
      "type": "function"
    },
    {
      "inputs": [],
      "name": "isGlobalTipped",
      "outputs": [
        {
          "internalType": "bool",
          "name": "",
          "type": "bool"
        }
      ],
      "stateMutability": "view",
      "type": "function"
    },
    {
      "inputs": [
        {
          "internalType": "uint32",
          "name": "",
          "type": "uint32"
        }
      ],
      "name": "isPathTripped",
      "outputs": [
        {
          "internalType": "bool",
          "name": "",
          "type": "bool"
        }
      ],
      "stateMutability": "view",
      "type": "function"
    },
    {
      "inputs": [
        {
          "internalType": "bytes32",
          "name": "",
          "type": "bytes32"
        },
        {
          "internalType": "uint256",
          "name": "",
          "type": "uint256"
        }
      ],
      "name": "isProposalTripped",
      "outputs": [
        {
          "internalType": "bool",
          "name": "",
          "type": "bool"
        }
      ],
      "stateMutability": "view",
      "type": "function"
    },
    {
      "inputs": [
        {
          "internalType": "bytes32",
          "name": "",
          "type": "bytes32"
        }
      ],
      "name": "isRootValid",
      "outputs": [
        {
          "internalType": "bool",
          "name": "",
          "type": "bool"
        }
      ],
      "stateMutability": "view",
      "type": "function"
    },
    {
      "inputs": [
        {
          "internalType": "address",
          "name": "",
          "type": "address"
        }
      ],
      "name": "nextNonce",
      "outputs": [
        {
          "internalType": "uint256",
          "name": "",
          "type": "uint256"
        }
      ],
      "stateMutability": "view",
      "type": "function"
    },
    {
      "inputs": [
        {
          "internalType": "address",
          "name": "nominee_",
          "type": "address"
        }
      ],
      "name": "nominateOwner",
      "outputs": [],
      "stateMutability": "nonpayable",
      "type": "function"
    },
    {
      "inputs": [],
      "name": "nominee",
      "outputs": [
        {
          "internalType": "address",
          "name": "",
          "type": "address"
        }
      ],
      "stateMutability": "view",
      "type": "function"
    },
    {
      "inputs": [],
      "name": "owner",
      "outputs": [
        {
          "internalType": "address",
          "name": "",
          "type": "address"
        }
      ],
      "stateMutability": "view",
      "type": "function"
    },
    {
      "inputs": [
        {
          "internalType": "bytes32[]",
          "name": "roleNames_",
          "type": "bytes32[]"
        },
        {
          "internalType": "uint32[]",
          "name": "slugs_",
          "type": "uint32[]"
        },
        {
          "internalType": "address[]",
          "name": "grantees_",
          "type": "address[]"
        }
      ],
      "name": "revokeBatchRole",
      "outputs": [],
      "stateMutability": "nonpayable",
      "type": "function"
    },
    {
      "inputs": [
        {
          "internalType": "bytes32",
          "name": "role_",
          "type": "bytes32"
        },
        {
          "internalType": "address",
          "name": "revokee_",
          "type": "address"
        }
      ],
      "name": "revokeRole",
      "outputs": [],
      "stateMutability": "nonpayable",
      "type": "function"
    },
    {
      "inputs": [
        {
          "internalType": "bytes32",
          "name": "roleName_",
          "type": "bytes32"
        },
        {
          "internalType": "uint32",
          "name": "chainSlug_",
          "type": "uint32"
        },
        {
          "internalType": "address",
          "name": "grantee_",
          "type": "address"
        }
      ],
      "name": "revokeRoleWithSlug",
      "outputs": [],
      "stateMutability": "nonpayable",
      "type": "function"
    },
    {
      "inputs": [],
      "name": "signatureVerifier__",
      "outputs": [
        {
          "internalType": "contract ISignatureVerifier",
          "name": "",
          "type": "address"
        }
      ],
      "stateMutability": "view",
      "type": "function"
    },
    {
      "inputs": [],
      "name": "socket__",
      "outputs": [
        {
          "internalType": "contract ISocket",
          "name": "",
          "type": "address"
        }
      ],
      "stateMutability": "view",
      "type": "function"
    },
    {
      "inputs": [],
      "name": "timeoutInSeconds",
      "outputs": [
        {
          "internalType": "uint256",
          "name": "",
          "type": "uint256"
        }
      ],
      "stateMutability": "view",
      "type": "function"
    },
    {
      "inputs": [
        {
          "internalType": "uint32",
          "name": "",
          "type": "uint32"
        }
      ],
      "name": "totalWatchers",
      "outputs": [
        {
          "internalType": "uint256",
          "name": "",
          "type": "uint256"
        }
      ],
      "stateMutability": "view",
      "type": "function"
    }
  ],
  "bytecode": "0x6101006040523480156200001257600080fd5b50604051620017fd380380620017fd8339810160408190526200003591620000da565b84808062000043816200006e565b5050506001600160a01b039081166080529290921660a05263ffffffff1660c05260e0525062000156565b600080546001600160a01b0383166001600160a01b0319918216811783556001805490921690915560405190917ffbe19c9b601f5ee90b44c7390f3fa2319eba01762d34ee372aeafd59b25c7f8791a250565b6001600160a01b0381168114620000d757600080fd5b50565b600080600080600060a08688031215620000f357600080fd5b85516200010081620000c1565b60208701519095506200011381620000c1565b604087015190945063ffffffff811681146200012e57600080fd5b6060870151608088015191945092506200014881620000c1565b809150509295509295909350565b60805160a05160c05160e051611658620001a560003960006104990152600081816103a60152610c260152600081816104050152610b2601526000818161045f0152610ca501526116586000f3fe608060405234801561001057600080fd5b50600436106101ae5760003560e01c806391d14854116100ee578063c877930811610097578063d5b8da7311610071578063d5b8da731461045a578063ecb9748414610481578063efec6cd414610494578063f37f3e37146104bb57600080fd5b8063c877930814610427578063d2883fbe14610434578063d547741f1461044757600080fd5b8063b349ba65116100c8578063b349ba65146103a1578063b947aac6146103dd578063c6a261d21461040057600080fd5b806391d1485414610340578063940992a314610353578063aac965571461037357600080fd5b806330ef41b41161015b57806343fa97ca1161013557806343fa97ca146102dc5780635b94db27146102ef5780637c138814146103025780638da5cb5b1461032257600080fd5b806330ef41b41461027357806331d1e063146102a65780633bd1adec146102d457600080fd5b806320f99c0a1161018c57806320f99c0a1461020e5780632e7eb2581461024d5780632f2ff15d1461026057600080fd5b80630cd55abf146101b35780631ba8e484146101e65780631e867311146101fb575b600080fd5b6101d36101c136600461126f565b600b6020526000908152604090205481565b6040519081526020015b60405180910390f35b6101f96101f43660046112a5565b6104db565b005b6101f9610209366004611331565b61053c565b60015473ffffffffffffffffffffffffffffffffffffffff165b60405173ffffffffffffffffffffffffffffffffffffffff90911681526020016101dd565b6101f961025b3660046112a5565b6106e2565b6101f961026e3660046113cb565b61073e565b6102966102813660046113fb565b60066020526000908152604090205460ff1681565b60405190151581526020016101dd565b6102966102b4366004611414565b600460209081526000928352604080842090915290825290205460ff1681565b6101f961079d565b6101f96102ea366004611331565b6107f9565b6101f96102fd36600461126f565b610995565b6101d3610310366004611440565b600a6020526000908152604090205481565b60005473ffffffffffffffffffffffffffffffffffffffff16610228565b61029661034e3660046113cb565b610a55565b6101d36103613660046113fb565b60056020526000908152604090205481565b61029661038136600461145b565b600960209081526000928352604080842090915290825290205460ff1681565b6103c87f000000000000000000000000000000000000000000000000000000000000000081565b60405163ffffffff90911681526020016101dd565b6102966103eb366004611440565b60086020526000908152604090205460ff1681565b6102287f000000000000000000000000000000000000000000000000000000000000000081565b6007546102969060ff1681565b6101f961044236600461147d565b610a90565b6101f96104553660046113cb565b610f51565b6102287f000000000000000000000000000000000000000000000000000000000000000081565b61029661048f3660046112a5565b610fac565b6101d37f000000000000000000000000000000000000000000000000000000000000000081565b6101d36104c9366004611440565b60036020526000908152604090205481565b60005473ffffffffffffffffffffffffffffffffffffffff16331461052c576040517f5fc483c500000000000000000000000000000000000000000000000000000000815260040160405180910390fd5b610537838383610fc1565b505050565b60005473ffffffffffffffffffffffffffffffffffffffff16331461058d576040517f5fc483c500000000000000000000000000000000000000000000000000000000815260040160405180910390fd5b848114158061059c5750848314155b156105d3576040517f11e86f7300000000000000000000000000000000000000000000000000000000815260040160405180910390fd5b8460005b818110156106d85760008686838181106105f3576105f361150a565b90506020020160208101906106089190611440565b63ffffffff161115610688576106838888838181106106295761062961150a565b905060200201358787848181106106425761064261150a565b90506020020160208101906106579190611440565b8686858181106106695761066961150a565b905060200201602081019061067e919061126f565b610fc1565b6106d0565b6106d088888381811061069d5761069d61150a565b905060200201358585848181106106b6576106b661150a565b90506020020160208101906106cb919061126f565b610ffe565b6001016105d7565b5050505050505050565b60005473ffffffffffffffffffffffffffffffffffffffff163314610733576040517f5fc483c500000000000000000000000000000000000000000000000000000000815260040160405180910390fd5b610537838383611081565b60005473ffffffffffffffffffffffffffffffffffffffff16331461078f576040517f5fc483c500000000000000000000000000000000000000000000000000000000815260040160405180910390fd5b61079982826110be565b5050565b60015473ffffffffffffffffffffffffffffffffffffffff1633146107ee576040517f7c91ccdd00000000000000000000000000000000000000000000000000000000815260040160405180910390fd5b6107f733611144565b565b60005473ffffffffffffffffffffffffffffffffffffffff16331461084a576040517f5fc483c500000000000000000000000000000000000000000000000000000000815260040160405180910390fd5b84811415806108595750848314155b15610890576040517f11e86f7300000000000000000000000000000000000000000000000000000000815260040160405180910390fd5b8460005b818110156106d85760008686838181106108b0576108b061150a565b90506020020160208101906108c59190611440565b63ffffffff161115610945576109408888838181106108e6576108e661150a565b905060200201358787848181106108ff576108ff61150a565b90506020020160208101906109149190611440565b8686858181106109265761092661150a565b905060200201602081019061093b919061126f565b611081565b61098d565b61098d88888381811061095a5761095a61150a565b905060200201358585848181106109735761097361150a565b9050602002016020810190610988919061126f565b6110be565b600101610894565b60005473ffffffffffffffffffffffffffffffffffffffff1633146109e6576040517f5fc483c500000000000000000000000000000000000000000000000000000000815260040160405180910390fd5b600180547fffffffffffffffffffffffff00000000000000000000000000000000000000001673ffffffffffffffffffffffffffffffffffffffff83169081179091556040517f906a1c6bd7e3091ea86693dd029a831c19049ce77f1dce2ce0bab1cacbabce2290600090a250565b600082815260026020908152604080832073ffffffffffffffffffffffffffffffffffffffff8516845290915281205460ff165b9392505050565b60005473ffffffffffffffffffffffffffffffffffffffff163314610ae1576040517f5fc483c500000000000000000000000000000000000000000000000000000000815260040160405180910390fd5b6040517f4ad701bc000000000000000000000000000000000000000000000000000000008152600481018690526024810185905230604482015260e086901c906000907f000000000000000000000000000000000000000000000000000000000000000073ffffffffffffffffffffffffffffffffffffffff1690634ad701bc90606401602060405180830381865afa158015610b82573d6000803e3d6000fd5b505050506040513d601f19601f82011682018060405250810190610ba69190611539565b905084610bdf576040517f504570e300000000000000000000000000000000000000000000000000000000815260040160405180910390fd5b84610c16576040517f504570e300000000000000000000000000000000000000000000000000000000815260040160405180910390fd5b60408051306020808301919091527f000000000000000000000000000000000000000000000000000000000000000063ffffffff1682840152606082018a90526080820189905260a08083018990528351808403909101815260c083019384905280519101207f97aba7f9000000000000000000000000000000000000000000000000000000009092526000917f000000000000000000000000000000000000000000000000000000000000000073ffffffffffffffffffffffffffffffffffffffff16916397aba7f991610cf1918990899060c401611552565b602060405180830381865afa158015610d0e573d6000803e3d6000fd5b505050506040513d601f19601f82011682018060405250810190610d3291906115a6565b73ffffffffffffffffffffffffffffffffffffffff8116600090815260046020908152604080832086845290915290205490915060ff1615610da0576040517f35d9080500000000000000000000000000000000000000000000000000000000815260040160405180910390fd5b610dcb7f2125d1e225cadc5c8296e2cc1f96ee607770bf4a4a16131e62f6819937437c8984836111bc565b15610e02576040517fa278e4ad00000000000000000000000000000000000000000000000000000000815260040160405180910390fd5b73ffffffffffffffffffffffffffffffffffffffff81166000908152600460209081526040808320858452825280832080547fffffffffffffffffffffffffffffffffffffffffffffffffffffffffffffff00166001179055600590915281208054909190610e70906115c3565b9091555063ffffffff831660009081526003602090815260408083205485845260059092529091205410610ed657600082815260066020526040902080547fffffffffffffffffffffffffffffffffffffffffffffffffffffffffffffff001660011790555b6000828152600560209081526040918290205482518b81529182018a905281830185905273ffffffffffffffffffffffffffffffffffffffff84166060830152608082015290517f8cfaedaacfb148cee9ec5ed036100285c6f3ede20c1637a618733cbd631e92079181900360a00190a15050505050505050565b60005473ffffffffffffffffffffffffffffffffffffffff163314610fa2576040517f5fc483c500000000000000000000000000000000000000000000000000000000815260040160405180910390fd5b6107998282610ffe565b6000610fb98484846111bc565b949350505050565b6105378383604051602001610fe692919091825263ffffffff16602082015260400190565b60405160208183030381529060405280519060200120825b600082815260026020908152604080832073ffffffffffffffffffffffffffffffffffffffff8516808552925280832080547fffffffffffffffffffffffffffffffffffffffffffffffffffffffffffffff0016905551909184917f155aaafb6329a2098580462df33ec4b7441b19729b9601c5fc17ae1cf99a8a529190a35050565b61053783836040516020016110a692919091825263ffffffff16602082015260400190565b60405160208183030381529060405280519060200120825b600082815260026020908152604080832073ffffffffffffffffffffffffffffffffffffffff8516808552925280832080547fffffffffffffffffffffffffffffffffffffffffffffffffffffffffffffff0016600117905551909184917f2ae6a113c0ed5b78a53413ffbb7679881f11145ccfba4fb92e863dfcd5a1d2f39190a35050565b6000805473ffffffffffffffffffffffffffffffffffffffff83167fffffffffffffffffffffffff0000000000000000000000000000000000000000918216811783556001805490921690915560405190917ffbe19c9b601f5ee90b44c7390f3fa2319eba01762d34ee372aeafd59b25c7f8791a250565b6000610fb984846040516020016111e392919091825263ffffffff16602082015260400190565b604080517fffffffffffffffffffffffffffffffffffffffffffffffffffffffffffffffe0818403018152918152815160209283012060009081526002835281812073ffffffffffffffffffffffffffffffffffffffff8716825290925290205460ff1690565b73ffffffffffffffffffffffffffffffffffffffff8116811461126c57600080fd5b50565b60006020828403121561128157600080fd5b8135610a898161124a565b803563ffffffff811681146112a057600080fd5b919050565b6000806000606084860312156112ba57600080fd5b833592506112ca6020850161128c565b915060408401356112da8161124a565b809150509250925092565b60008083601f8401126112f757600080fd5b50813567ffffffffffffffff81111561130f57600080fd5b6020830191508360208260051b850101111561132a57600080fd5b9250929050565b6000806000806000806060878903121561134a57600080fd5b863567ffffffffffffffff8082111561136257600080fd5b61136e8a838b016112e5565b9098509650602089013591508082111561138757600080fd5b6113938a838b016112e5565b909650945060408901359150808211156113ac57600080fd5b506113b989828a016112e5565b979a9699509497509295939492505050565b600080604083850312156113de57600080fd5b8235915060208301356113f08161124a565b809150509250929050565b60006020828403121561140d57600080fd5b5035919050565b6000806040838503121561142757600080fd5b82356114328161124a565b946020939093013593505050565b60006020828403121561145257600080fd5b610a898261128c565b6000806040838503121561146e57600080fd5b50508035926020909101359150565b60008060008060006080868803121561149557600080fd5b853594506020860135935060408601359250606086013567ffffffffffffffff808211156114c257600080fd5b818801915088601f8301126114d657600080fd5b8135818111156114e557600080fd5b8960208285010111156114f757600080fd5b9699959850939650602001949392505050565b7f4e487b7100000000000000000000000000000000000000000000000000000000600052603260045260246000fd5b60006020828403121561154b57600080fd5b5051919050565b83815260406020820152816040820152818360608301376000818301606090810191909152601f9092017fffffffffffffffffffffffffffffffffffffffffffffffffffffffffffffffe016010192915050565b6000602082840312156115b857600080fd5b8151610a898161124a565b60007fffffffffffffffffffffffffffffffffffffffffffffffffffffffffffffffff820361161b577f4e487b7100000000000000000000000000000000000000000000000000000000600052601160045260246000fd5b506001019056fea26469706673582212204fb27467f6a83ab462c2e6fb7ca3d9443e22094074f52e8e4076abf2b90ec92464736f6c63430008130033",
  "linkReferences": {},
  "deployedLinkReferences": {}
}