{
  "_format": "hh-sol-artifact-1",
  "contractName": "Messenger",
  "sourceName": "contracts/examples/Messenger.sol",
  "abi": [
    {
      "inputs": [
        {
          "internalType": "address",
          "name": "socket_",
          "type": "address"
        },
        {
          "internalType": "uint256",
          "name": "chainSlug_",
          "type": "uint256"
        },
        {
          "internalType": "uint256",
          "name": "minMsgGasLimit_",
          "type": "uint256"
        }
      ],
      "stateMutability": "nonpayable",
      "type": "constructor"
    },
    {
      "inputs": [],
      "name": "NoSocketFee",
      "type": "error"
    },
    {
      "inputs": [],
      "name": "NotSocket",
      "type": "error"
    },
    {
      "inputs": [],
      "name": "OnlyNominee",
      "type": "error"
    },
    {
      "inputs": [],
      "name": "OnlyOwner",
      "type": "error"
    },
    {
      "anonymous": false,
      "inputs": [
        {
          "indexed": true,
          "internalType": "address",
          "name": "claimer",
          "type": "address"
        }
      ],
      "name": "OwnerClaimed",
      "type": "event"
    },
    {
      "anonymous": false,
      "inputs": [
        {
          "indexed": true,
          "internalType": "address",
          "name": "nominee",
          "type": "address"
        }
      ],
      "name": "OwnerNominated",
      "type": "event"
    },
    {
      "inputs": [],
      "name": "_PING",
      "outputs": [
        {
          "internalType": "bytes32",
          "name": "",
          "type": "bytes32"
        }
      ],
      "stateMutability": "view",
      "type": "function"
    },
    {
      "inputs": [],
      "name": "_PONG",
      "outputs": [
        {
          "internalType": "bytes32",
          "name": "",
          "type": "bytes32"
        }
      ],
      "stateMutability": "view",
      "type": "function"
    },
    {
      "inputs": [],
      "name": "_localChainSlug",
      "outputs": [
        {
          "internalType": "uint256",
          "name": "",
          "type": "uint256"
        }
      ],
      "stateMutability": "view",
      "type": "function"
    },
    {
      "inputs": [],
      "name": "_message",
      "outputs": [
        {
          "internalType": "bytes32",
          "name": "",
          "type": "bytes32"
        }
      ],
      "stateMutability": "view",
      "type": "function"
    },
    {
      "inputs": [],
      "name": "_minMsgGasLimit",
      "outputs": [
        {
          "internalType": "uint256",
          "name": "",
          "type": "uint256"
        }
      ],
      "stateMutability": "view",
      "type": "function"
    },
    {
      "inputs": [],
      "name": "_socket__",
      "outputs": [
        {
          "internalType": "contract ISocket",
          "name": "",
          "type": "address"
        }
      ],
      "stateMutability": "view",
      "type": "function"
    },
    {
      "inputs": [],
      "name": "claimOwner",
      "outputs": [],
      "stateMutability": "nonpayable",
      "type": "function"
    },
    {
      "inputs": [
        {
          "internalType": "uint32",
          "name": "",
          "type": "uint32"
        },
        {
          "internalType": "bytes",
          "name": "payload_",
          "type": "bytes"
        }
      ],
      "name": "inbound",
      "outputs": [],
      "stateMutability": "payable",
      "type": "function"
    },
    {
      "inputs": [],
      "name": "message",
      "outputs": [
        {
          "internalType": "bytes32",
          "name": "",
          "type": "bytes32"
        }
      ],
      "stateMutability": "view",
      "type": "function"
    },
    {
      "inputs": [
        {
          "internalType": "address",
          "name": "nominee_",
          "type": "address"
        }
      ],
      "name": "nominateOwner",
      "outputs": [],
      "stateMutability": "nonpayable",
      "type": "function"
    },
    {
      "inputs": [],
      "name": "nominee",
      "outputs": [
        {
          "internalType": "address",
          "name": "",
          "type": "address"
        }
      ],
      "stateMutability": "view",
      "type": "function"
    },
    {
      "inputs": [],
      "name": "owner",
      "outputs": [
        {
          "internalType": "address",
          "name": "",
          "type": "address"
        }
      ],
      "stateMutability": "view",
      "type": "function"
    },
    {
      "inputs": [
        {
          "internalType": "address payable",
          "name": "receiver_",
          "type": "address"
        }
      ],
      "name": "removeGas",
      "outputs": [],
      "stateMutability": "nonpayable",
      "type": "function"
    },
    {
      "inputs": [
        {
          "internalType": "bytes32",
          "name": "message_",
          "type": "bytes32"
        }
      ],
      "name": "sendLocalMessage",
      "outputs": [],
      "stateMutability": "nonpayable",
      "type": "function"
    },
    {
      "inputs": [
        {
          "internalType": "uint32",
          "name": "remoteChainSlug_",
          "type": "uint32"
        },
        {
          "internalType": "bytes32",
          "name": "executionParams_",
          "type": "bytes32"
        },
        {
          "internalType": "bytes32",
          "name": "transmissionParams_",
          "type": "bytes32"
        },
        {
          "internalType": "bytes32",
          "name": "message_",
          "type": "bytes32"
        }
      ],
      "name": "sendRemoteMessage",
      "outputs": [],
      "stateMutability": "payable",
      "type": "function"
    },
    {
      "inputs": [
        {
          "internalType": "uint32",
          "name": "remoteChainSlug_",
          "type": "uint32"
        },
        {
          "internalType": "address",
          "name": "remotePlug_",
          "type": "address"
        },
        {
          "internalType": "address",
          "name": "switchboard_",
          "type": "address"
        }
      ],
      "name": "setSocketConfig",
      "outputs": [],
      "stateMutability": "nonpayable",
      "type": "function"
    },
    {
      "inputs": [
        {
          "internalType": "uint256",
          "name": "minMsgGasLimit_",
          "type": "uint256"
        }
      ],
      "name": "updateMsgGasLimit",
      "outputs": [],
      "stateMutability": "nonpayable",
      "type": "function"
    },
    {
      "stateMutability": "payable",
      "type": "receive"
    }
  ],
  "bytecode": "0x60c060405234801561001057600080fd5b50604051610e93380380610e9383398101604081905261002f916100a6565b3361003981610053565b506001600160a01b0390921660805260a0526003556100e9565b600080546001600160a01b0383166001600160a01b0319918216811783556001805490921690915560405190917ffbe19c9b601f5ee90b44c7390f3fa2319eba01762d34ee372aeafd59b25c7f8791a250565b6000806000606084860312156100bb57600080fd5b83516001600160a01b03811681146100d257600080fd5b602085015160409095015190969495509392505050565b60805160a051610d5b6101386000396000818161030c015281816103f8015261068201526000818161028d0152818161060b015281816108180152818161095a0152610a550152610d5b6000f3fe6080604052600436106101125760003560e01c80635f55c0b7116100a5578063b5b2d2c411610074578063e21f37ce11610059578063e21f37ce14610341578063fcb3271214610356578063ff886a151461037657600080fd5b8063b5b2d2c4146102fa578063c41f1f6c1461032e57600080fd5b80635f55c0b7146102475780637c91ebb71461027b5780638ad86609146102af5780638da5cb5b146102cf57600080fd5b80633bd1adec116100e15780633bd1adec146101dd57806345246804146101f45780634ae24451146102075780635b94db271461022757600080fd5b80630adde0eb1461011e5780631d74eaf21461014757806320f99c0a1461017b578063334d5a74146101c757600080fd5b3661011957005b600080fd5b34801561012a57600080fd5b5061013460025481565b6040519081526020015b60405180910390f35b34801561015357600080fd5b506101347f4bef96f3c8e80456e62720c82be84a51069d1352d866ebdc054fa3f9278214fc81565b34801561018757600080fd5b5060015473ffffffffffffffffffffffffffffffffffffffff165b60405173ffffffffffffffffffffffffffffffffffffffff909116815260200161013e565b3480156101d357600080fd5b5061013460035481565b3480156101e957600080fd5b506101f2610396565b005b6101f2610202366004610aef565b6103f2565b34801561021357600080fd5b506101f2610222366004610b28565b610446565b34801561023357600080fd5b506101f2610242366004610b63565b61049c565b34801561025357600080fd5b506101347fd86ef61480efb680bdb5d79e85a3e0b7fd67c9dc78af84cb32931aae0c3c991281565b34801561028757600080fd5b506101a27f000000000000000000000000000000000000000000000000000000000000000081565b3480156102bb57600080fd5b506101f26102ca366004610b63565b61055c565b3480156102db57600080fd5b5060005473ffffffffffffffffffffffffffffffffffffffff166101a2565b34801561030657600080fd5b506101347f000000000000000000000000000000000000000000000000000000000000000081565b6101f261033c366004610b87565b6105f3565b34801561034d57600080fd5b50600254610134565b34801561036257600080fd5b506101f2610371366004610c0a565b610767565b34801561038257600080fd5b506101f2610391366004610b28565b610879565b60015473ffffffffffffffffffffffffffffffffffffffff1633146103e7576040517f7c91ccdd00000000000000000000000000000000000000000000000000000000815260040160405180910390fd5b6103f033610885565b565b604080517f00000000000000000000000000000000000000000000000000000000000000006020820152808201839052815180820383018152606090910190915261043f858585846108fd565b5050505050565b60005473ffffffffffffffffffffffffffffffffffffffff163314610497576040517f5fc483c500000000000000000000000000000000000000000000000000000000815260040160405180910390fd5b600355565b60005473ffffffffffffffffffffffffffffffffffffffff1633146104ed576040517f5fc483c500000000000000000000000000000000000000000000000000000000815260040160405180910390fd5b600180547fffffffffffffffffffffffff00000000000000000000000000000000000000001673ffffffffffffffffffffffffffffffffffffffff83169081179091556040517f906a1c6bd7e3091ea86693dd029a831c19049ce77f1dce2ce0bab1cacbabce2290600090a250565b60005473ffffffffffffffffffffffffffffffffffffffff1633146105ad576040517f5fc483c500000000000000000000000000000000000000000000000000000000815260040160405180910390fd5b60405173ffffffffffffffffffffffffffffffffffffffff8216904780156108fc02916000818181858888f193505050501580156105ef573d6000803e3d6000fd5b5050565b3373ffffffffffffffffffffffffffffffffffffffff7f00000000000000000000000000000000000000000000000000000000000000001614610662576040517fc59f8f7c00000000000000000000000000000000000000000000000000000000815260040160405180910390fd5b60008061067183850185610c53565b9150915061067e81600255565b60007f00000000000000000000000000000000000000000000000000000000000000007fd86ef61480efb680bdb5d79e85a3e0b7fd67c9dc78af84cb32931aae0c3c991283146106ee577fd86ef61480efb680bdb5d79e85a3e0b7fd67c9dc78af84cb32931aae0c3c9912610710565b7f4bef96f3c8e80456e62720c82be84a51069d1352d866ebdc054fa3f9278214fc5b604080516020810193909352820152606001604080517fffffffffffffffffffffffffffffffffffffffffffffffffffffffffffffffe0818403018152919052905061075f83600080846108fd565b505050505050565b60005473ffffffffffffffffffffffffffffffffffffffff1633146107b8576040517f5fc483c500000000000000000000000000000000000000000000000000000000815260040160405180910390fd5b6040517f3b1be67800000000000000000000000000000000000000000000000000000000815263ffffffff8416600482015273ffffffffffffffffffffffffffffffffffffffff83811660248301528281166044830181905260648301527f00000000000000000000000000000000000000000000000000000000000000001690633b1be67890608401600060405180830381600087803b15801561085c57600080fd5b505af1158015610870573d6000803e3d6000fd5b50505050505050565b61088281600255565b50565b6000805473ffffffffffffffffffffffffffffffffffffffff83167fffffffffffffffffffffffff0000000000000000000000000000000000000000918216811783556001805490921690915560405190917ffbe19c9b601f5ee90b44c7390f3fa2319eba01762d34ee372aeafd59b25c7f8791a250565b60035481516040517f9ae3f05a00000000000000000000000000000000000000000000000000000000815260048101929092526024820152604481018490526064810183905263ffffffff851660848201523060a48201526000907f000000000000000000000000000000000000000000000000000000000000000073ffffffffffffffffffffffffffffffffffffffff1690639ae3f05a9060c401602060405180830381865afa1580156109b6573d6000803e3d6000fd5b505050506040513d601f19601f820116820180604052508101906109da9190610c7d565b905080471015610a15576040517e2949b400000000000000000000000000000000000000000000000000000000815260040160405180910390fd5b6003546040517f3386774f00000000000000000000000000000000000000000000000000000000815273ffffffffffffffffffffffffffffffffffffffff7f00000000000000000000000000000000000000000000000000000000000000001691633386774f918491610a93918a91908a908a908a90600401610c96565b60206040518083038185885af1158015610ab1573d6000803e3d6000fd5b50505050506040513d601f19601f8201168201806040525081019061075f9190610c7d565b803563ffffffff81168114610aea57600080fd5b919050565b60008060008060808587031215610b0557600080fd5b610b0e85610ad6565b966020860135965060408601359560600135945092505050565b600060208284031215610b3a57600080fd5b5035919050565b73ffffffffffffffffffffffffffffffffffffffff8116811461088257600080fd5b600060208284031215610b7557600080fd5b8135610b8081610b41565b9392505050565b600080600060408486031215610b9c57600080fd5b610ba584610ad6565b9250602084013567ffffffffffffffff80821115610bc257600080fd5b818601915086601f830112610bd657600080fd5b813581811115610be557600080fd5b876020828501011115610bf757600080fd5b6020830194508093505050509250925092565b600080600060608486031215610c1f57600080fd5b610c2884610ad6565b92506020840135610c3881610b41565b91506040840135610c4881610b41565b809150509250925092565b60008060408385031215610c6657600080fd5b610c6f83610ad6565b946020939093013593505050565b600060208284031215610c8f57600080fd5b5051919050565b63ffffffff8616815260006020868184015285604084015284606084015260a0608084015283518060a085015260005b81811015610ce25785810183015185820160c001528201610cc6565b50600060c0828601015260c07fffffffffffffffffffffffffffffffffffffffffffffffffffffffffffffffe0601f83011685010192505050969550505050505056fea26469706673582212202d1385a83d9438336bf223a45b2a6f2ed6d8e094e6abec0e31c69bf5ba4eda3864736f6c63430008130033",
  "linkReferences": {},
  "deployedLinkReferences": {}
}