{
  "_format": "hh-sol-artifact-1",
  "contractName": "SingleCapacitor",
  "sourceName": "contracts/capacitors/SingleCapacitor.sol",
  "abi": [
    {
      "inputs": [
        {
          "internalType": "address",
          "name": "socket_",
          "type": "address"
        },
        {
          "internalType": "address",
          "name": "owner_",
          "type": "address"
        }
      ],
      "stateMutability": "nonpayable",
      "type": "constructor"
    },
    {
      "inputs": [],
      "name": "InvalidTokenAddress",
      "type": "error"
    },
    {
      "inputs": [],
      "name": "NoPendingPacket",
      "type": "error"
    },
    {
      "inputs": [
        {
          "internalType": "bytes32",
          "name": "role",
          "type": "bytes32"
        }
      ],
      "name": "NoPermit",
      "type": "error"
    },
    {
      "inputs": [],
      "name": "OnlyNominee",
      "type": "error"
    },
    {
      "inputs": [],
      "name": "OnlyOwner",
      "type": "error"
    },
    {
      "inputs": [],
      "name": "OnlySocket",
      "type": "error"
    },
    {
      "inputs": [],
      "name": "ZeroAddress",
      "type": "error"
    },
    {
      "anonymous": false,
      "inputs": [
        {
          "indexed": false,
          "internalType": "bytes32",
          "name": "packedMessage",
          "type": "bytes32"
        },
        {
          "indexed": false,
          "internalType": "uint64",
          "name": "packetCount",
          "type": "uint64"
        },
        {
          "indexed": false,
          "internalType": "bytes32",
          "name": "newRootHash",
          "type": "bytes32"
        }
      ],
      "name": "MessageAdded",
      "type": "event"
    },
    {
      "anonymous": false,
      "inputs": [
        {
          "indexed": true,
          "internalType": "address",
          "name": "claimer",
          "type": "address"
        }
      ],
      "name": "OwnerClaimed",
      "type": "event"
    },
    {
      "anonymous": false,
      "inputs": [
        {
          "indexed": true,
          "internalType": "address",
          "name": "nominee",
          "type": "address"
        }
      ],
      "name": "OwnerNominated",
      "type": "event"
    },
    {
      "anonymous": false,
      "inputs": [
        {
          "indexed": true,
          "internalType": "bytes32",
          "name": "role",
          "type": "bytes32"
        },
        {
          "indexed": true,
          "internalType": "address",
          "name": "grantee",
          "type": "address"
        }
      ],
      "name": "RoleGranted",
      "type": "event"
    },
    {
      "anonymous": false,
      "inputs": [
        {
          "indexed": true,
          "internalType": "bytes32",
          "name": "role",
          "type": "bytes32"
        },
        {
          "indexed": true,
          "internalType": "address",
          "name": "revokee",
          "type": "address"
        }
      ],
      "name": "RoleRevoked",
      "type": "event"
    },
    {
      "inputs": [
        {
          "internalType": "bytes32",
          "name": "packedMessage_",
          "type": "bytes32"
        }
      ],
      "name": "addPackedMessage",
      "outputs": [],
      "stateMutability": "nonpayable",
      "type": "function"
    },
    {
      "inputs": [],
      "name": "claimOwner",
      "outputs": [],
      "stateMutability": "nonpayable",
      "type": "function"
    },
    {
      "inputs": [],
      "name": "getLastFilledPacket",
      "outputs": [
        {
          "internalType": "uint256",
          "name": "lastFilledPacket",
          "type": "uint256"
        }
      ],
      "stateMutability": "view",
      "type": "function"
    },
    {
      "inputs": [],
      "name": "getMaxPacketLength",
      "outputs": [
        {
          "internalType": "uint256",
          "name": "",
          "type": "uint256"
        }
      ],
      "stateMutability": "pure",
      "type": "function"
    },
    {
      "inputs": [],
      "name": "getNextPacketToBeSealed",
      "outputs": [
        {
          "internalType": "bytes32",
          "name": "",
          "type": "bytes32"
        },
        {
          "internalType": "uint64",
          "name": "",
          "type": "uint64"
        }
      ],
      "stateMutability": "view",
      "type": "function"
    },
    {
      "inputs": [
        {
          "internalType": "uint64",
          "name": "count_",
          "type": "uint64"
        }
      ],
      "name": "getRootByCount",
      "outputs": [
        {
          "internalType": "bytes32",
          "name": "",
          "type": "bytes32"
        }
      ],
      "stateMutability": "view",
      "type": "function"
    },
    {
      "inputs": [
        {
          "internalType": "bytes32",
          "name": "role_",
          "type": "bytes32"
        },
        {
          "internalType": "address",
          "name": "grantee_",
          "type": "address"
        }
      ],
      "name": "grantRole",
      "outputs": [],
      "stateMutability": "nonpayable",
      "type": "function"
    },
    {
      "inputs": [
        {
          "internalType": "bytes32",
          "name": "role_",
          "type": "bytes32"
        },
        {
          "internalType": "address",
          "name": "address_",
          "type": "address"
        }
      ],
      "name": "hasRole",
      "outputs": [
        {
          "internalType": "bool",
          "name": "",
          "type": "bool"
        }
      ],
      "stateMutability": "view",
      "type": "function"
    },
    {
      "inputs": [
        {
          "internalType": "address",
          "name": "nominee_",
          "type": "address"
        }
      ],
      "name": "nominateOwner",
      "outputs": [],
      "stateMutability": "nonpayable",
      "type": "function"
    },
    {
      "inputs": [],
      "name": "nominee",
      "outputs": [
        {
          "internalType": "address",
          "name": "",
          "type": "address"
        }
      ],
      "stateMutability": "view",
      "type": "function"
    },
    {
      "inputs": [],
      "name": "owner",
      "outputs": [
        {
          "internalType": "address",
          "name": "",
          "type": "address"
        }
      ],
      "stateMutability": "view",
      "type": "function"
    },
    {
      "inputs": [
        {
          "internalType": "address",
          "name": "token_",
          "type": "address"
        },
        {
          "internalType": "address",
          "name": "rescueTo_",
          "type": "address"
        },
        {
          "internalType": "uint256",
          "name": "amount_",
          "type": "uint256"
        }
      ],
      "name": "rescueFunds",
      "outputs": [],
      "stateMutability": "nonpayable",
      "type": "function"
    },
    {
      "inputs": [
        {
          "internalType": "bytes32",
          "name": "role_",
          "type": "bytes32"
        },
        {
          "internalType": "address",
          "name": "revokee_",
          "type": "address"
        }
      ],
      "name": "revokeRole",
      "outputs": [],
      "stateMutability": "nonpayable",
      "type": "function"
    },
    {
      "inputs": [
        {
          "internalType": "uint256",
          "name": "",
          "type": "uint256"
        }
      ],
      "name": "sealPacket",
      "outputs": [
        {
          "internalType": "bytes32",
          "name": "",
          "type": "bytes32"
        },
        {
          "internalType": "uint64",
          "name": "",
          "type": "uint64"
        }
      ],
      "stateMutability": "nonpayable",
      "type": "function"
    },
    {
      "inputs": [],
      "name": "socket",
      "outputs": [
        {
          "internalType": "address",
          "name": "",
          "type": "address"
        }
      ],
      "stateMutability": "view",
      "type": "function"
    }
  ],
  "bytecode": "0x60a060405234801561001057600080fd5b50604051610edb380380610edb83398101604081905261002f91610148565b8181808061003c8161007e565b50506001600160a01b0382166080526100757fc4c453d647953c0fd35db5a34ee76e60fb4abc3a8fb891a25936b70b38f29253826100d1565b5050505061017b565b600080546001600160a01b0383166001600160a01b0319918216811783556001805490921690915560405190917ffbe19c9b601f5ee90b44c7390f3fa2319eba01762d34ee372aeafd59b25c7f8791a250565b60008281526002602090815260408083206001600160a01b0385168085529252808320805460ff1916600117905551909184917f2ae6a113c0ed5b78a53413ffbb7679881f11145ccfba4fb92e863dfcd5a1d2f39190a35050565b80516001600160a01b038116811461014357600080fd5b919050565b6000806040838503121561015b57600080fd5b6101648361012c565b91506101726020840161012c565b90509250929050565b608051610d376101a4600039600081816101430152818161056301526106cb0152610d376000f3fe608060405234801561001057600080fd5b50600436106100f55760003560e01c80636ccae054116100975780639471651e116100665780639471651e14610215578063d1af313c1461025d578063d547741f14610287578063d7c9eaac1461029a57600080fd5b80636ccae054146101ae5780638da5cb5b146101c157806391d14854146101df578063920ee8a81461020257600080fd5b80632ff9f2c9116100d35780632ff9f2c91461017a5780633bd1adec1461018b5780635b94db27146101935780636afc0f38146101a657600080fd5b806320f99c0a146100fa57806322c8f6cd1461013e5780632f2ff15d14610165575b600080fd5b60015473ffffffffffffffffffffffffffffffffffffffff165b60405173ffffffffffffffffffffffffffffffffffffffff90911681526020015b60405180910390f35b6101147f000000000000000000000000000000000000000000000000000000000000000081565b610178610173366004610bbd565b6102ad565b005b60015b604051908152602001610135565b61017861030c565b6101786101a1366004610be9565b610368565b61017d610428565b6101786101bc366004610c04565b61046d565b60005473ffffffffffffffffffffffffffffffffffffffff16610114565b6101f26101ed366004610bbd565b610510565b6040519015158152602001610135565b610178610210366004610c40565b61054b565b60035468010000000000000000900467ffffffffffffffff16600081815260046020526040902054905b6040805192835267ffffffffffffffff909116602083015201610135565b61017d61026b366004610c59565b67ffffffffffffffff1660009081526004602052604090205490565b610178610295366004610bbd565b610655565b61023f6102a8366004610c40565b6106b0565b60005473ffffffffffffffffffffffffffffffffffffffff1633146102fe576040517f5fc483c500000000000000000000000000000000000000000000000000000000815260040160405180910390fd5b61030882826107da565b5050565b60015473ffffffffffffffffffffffffffffffffffffffff16331461035d576040517f7c91ccdd00000000000000000000000000000000000000000000000000000000815260040160405180910390fd5b61036633610860565b565b60005473ffffffffffffffffffffffffffffffffffffffff1633146103b9576040517f5fc483c500000000000000000000000000000000000000000000000000000000815260040160405180910390fd5b600180547fffffffffffffffffffffffff00000000000000000000000000000000000000001673ffffffffffffffffffffffffffffffffffffffff83169081179091556040517f906a1c6bd7e3091ea86693dd029a831c19049ce77f1dce2ce0bab1cacbabce2290600090a250565b60035460009067ffffffffffffffff161561045b576003546104569060019067ffffffffffffffff16610cb2565b61045e565b60005b67ffffffffffffffff16905090565b3360009081527f4933f7bec34ee32db93e9f5cd7e0519781b395282211f4f6857489046ea38f7660205260409020547fc4c453d647953c0fd35db5a34ee76e60fb4abc3a8fb891a25936b70b38f292539060ff166104ff576040517f962f6333000000000000000000000000000000000000000000000000000000008152600481018290526024015b60405180910390fd5b61050a8484846108d8565b50505050565b600082815260026020908152604080832073ffffffffffffffffffffffffffffffffffffffff8516845290915281205460ff165b9392505050565b3373ffffffffffffffffffffffffffffffffffffffff7f000000000000000000000000000000000000000000000000000000000000000016146105ba576040517f503284dc00000000000000000000000000000000000000000000000000000000815260040160405180910390fd5b6003805460009167ffffffffffffffff90911690826105d883610cda565b82546101009290920a67ffffffffffffffff818102199093169183160217909155811660008181526004602090815260409182902086905581518681529081019290925281018490529091507f9ed9683bfff0f737f91f20945e98c912976d94e76860b05b48b15bc0d589be1f9060600160405180910390a15050565b60005473ffffffffffffffffffffffffffffffffffffffff1633146106a6576040517f5fc483c500000000000000000000000000000000000000000000000000000000815260040160405180910390fd5b61030882826109cd565b6000803373ffffffffffffffffffffffffffffffffffffffff7f00000000000000000000000000000000000000000000000000000000000000001614610722576040517f503284dc00000000000000000000000000000000000000000000000000000000815260040160405180910390fd5b600380546000916801000000000000000090910467ffffffffffffffff1690600861074c83610cda565b82546101009290920a67ffffffffffffffff81810219909316918316021790915581166000908152600460205260409020549091506107b7576040517fa902392300000000000000000000000000000000000000000000000000000000815260040160405180910390fd5b67ffffffffffffffff811660009081526004602052604090205492509050915091565b600082815260026020908152604080832073ffffffffffffffffffffffffffffffffffffffff8516808552925280832080547fffffffffffffffffffffffffffffffffffffffffffffffffffffffffffffff0016600117905551909184917f2ae6a113c0ed5b78a53413ffbb7679881f11145ccfba4fb92e863dfcd5a1d2f39190a35050565b6000805473ffffffffffffffffffffffffffffffffffffffff83167fffffffffffffffffffffffff0000000000000000000000000000000000000000918216811783556001805490921690915560405190917ffbe19c9b601f5ee90b44c7390f3fa2319eba01762d34ee372aeafd59b25c7f8791a250565b73ffffffffffffffffffffffffffffffffffffffff8216610925576040517fd92e233d00000000000000000000000000000000000000000000000000000000815260040160405180910390fd5b7fffffffffffffffffffffffff111111111111111111111111111111111111111273ffffffffffffffffffffffffffffffffffffffff8416016109715761096c8282610a50565b505050565b8273ffffffffffffffffffffffffffffffffffffffff163b6000036109c2576040517f1eb00b0600000000000000000000000000000000000000000000000000000000815260040160405180910390fd5b61096c838383610ac5565b600082815260026020908152604080832073ffffffffffffffffffffffffffffffffffffffff8516808552925280832080547fffffffffffffffffffffffffffffffffffffffffffffffffffffffffffffff0016905551909184917f155aaafb6329a2098580462df33ec4b7441b19729b9601c5fc17ae1cf99a8a529190a35050565b600080600080600085875af190508061096c576040517f08c379a000000000000000000000000000000000000000000000000000000000815260206004820152601360248201527f4554485f5452414e534645525f4641494c45440000000000000000000000000060448201526064016104f6565b60006040517fa9059cbb00000000000000000000000000000000000000000000000000000000815273ffffffffffffffffffffffffffffffffffffffff84166004820152826024820152602060006044836000895af13d15601f3d116001600051141617169150508061050a576040517f08c379a000000000000000000000000000000000000000000000000000000000815260206004820152600f60248201527f5452414e534645525f4641494c4544000000000000000000000000000000000060448201526064016104f6565b803573ffffffffffffffffffffffffffffffffffffffff81168114610bb857600080fd5b919050565b60008060408385031215610bd057600080fd5b82359150610be060208401610b94565b90509250929050565b600060208284031215610bfb57600080fd5b61054482610b94565b600080600060608486031215610c1957600080fd5b610c2284610b94565b9250610c3060208501610b94565b9150604084013590509250925092565b600060208284031215610c5257600080fd5b5035919050565b600060208284031215610c6b57600080fd5b813567ffffffffffffffff8116811461054457600080fd5b7f4e487b7100000000000000000000000000000000000000000000000000000000600052601160045260246000fd5b67ffffffffffffffff828116828216039080821115610cd357610cd3610c83565b5092915050565b600067ffffffffffffffff808316818103610cf757610cf7610c83565b600101939250505056fea264697066735822122090fec61b249f4f07c1121f9b8e70af5a6f1f97bdd815c6d06c6978c1a664fd6264736f6c63430008130033",
  "linkReferences": {},
  "deployedLinkReferences": {}
}