{
  "_format": "hh-sol-artifact-1",
  "contractName": "RescueFundsLib",
  "sourceName": "contracts/libraries/RescueFundsLib.sol",
  "abi": [
    {
      "inputs": [],
      "name": "InvalidTokenAddress",
      "type": "error"
    },
    {
      "inputs": [],
      "name": "ETH_ADDRESS",
      "outputs": [
        {
          "internalType": "address",
          "name": "",
          "type": "address"
        }
      ],
      "stateMutability": "view",
      "type": "function"
    }
  ],
  "bytecode": "0x60b1610038600b82828239805160001a607314602b57634e487b7160e01b600052600060045260246000fd5b30600052607381538281f3fe730000000000000000000000000000000000000000301460806040526004361060335760003560e01c8063a734f06e146038575b600080fd5b605273eeeeeeeeeeeeeeeeeeeeeeeeeeeeeeeeeeeeeeee81565b60405173ffffffffffffffffffffffffffffffffffffffff909116815260200160405180910390f3fea2646970667358221220df56af8bf5598bf864dd0c0a62601db0afcb3de8c78f7e9b487addaa258415d464736f6c63430008130033",
  "linkReferences": {},
  "deployedLinkReferences": {}
}