{
  "_format": "hh-sol-artifact-1",
  "contractName": "AccessControlExtended",
  "sourceName": "contracts/utils/AccessControlExtended.sol",
  "abi": [
    {
      "inputs": [
        {
          "internalType": "address",
          "name": "owner_",
          "type": "address"
        }
      ],
      "stateMutability": "nonpayable",
      "type": "constructor"
    },
    {
      "inputs": [
        {
          "internalType": "bytes32",
          "name": "role",
          "type": "bytes32"
        }
      ],
      "name": "NoPermit",
      "type": "error"
    },
    {
      "inputs": [],
      "name": "OnlyNominee",
      "type": "error"
    },
    {
      "inputs": [],
      "name": "OnlyOwner",
      "type": "error"
    },
    {
      "inputs": [],
      "name": "UnequalArrayLengths",
      "type": "error"
    },
    {
      "anonymous": false,
      "inputs": [
        {
          "indexed": true,
          "internalType": "address",
          "name": "claimer",
          "type": "address"
        }
      ],
      "name": "OwnerClaimed",
      "type": "event"
    },
    {
      "anonymous": false,
      "inputs": [
        {
          "indexed": true,
          "internalType": "address",
          "name": "nominee",
          "type": "address"
        }
      ],
      "name": "OwnerNominated",
      "type": "event"
    },
    {
      "anonymous": false,
      "inputs": [
        {
          "indexed": true,
          "internalType": "bytes32",
          "name": "role",
          "type": "bytes32"
        },
        {
          "indexed": true,
          "internalType": "address",
          "name": "grantee",
          "type": "address"
        }
      ],
      "name": "RoleGranted",
      "type": "event"
    },
    {
      "anonymous": false,
      "inputs": [
        {
          "indexed": true,
          "internalType": "bytes32",
          "name": "role",
          "type": "bytes32"
        },
        {
          "indexed": true,
          "internalType": "address",
          "name": "revokee",
          "type": "address"
        }
      ],
      "name": "RoleRevoked",
      "type": "event"
    },
    {
      "inputs": [],
      "name": "claimOwner",
      "outputs": [],
      "stateMutability": "nonpayable",
      "type": "function"
    },
    {
      "inputs": [
        {
          "internalType": "bytes32[]",
          "name": "roleNames_",
          "type": "bytes32[]"
        },
        {
          "internalType": "uint32[]",
          "name": "slugs_",
          "type": "uint32[]"
        },
        {
          "internalType": "address[]",
          "name": "grantees_",
          "type": "address[]"
        }
      ],
      "name": "grantBatchRole",
      "outputs": [],
      "stateMutability": "nonpayable",
      "type": "function"
    },
    {
      "inputs": [
        {
          "internalType": "bytes32",
          "name": "role_",
          "type": "bytes32"
        },
        {
          "internalType": "address",
          "name": "grantee_",
          "type": "address"
        }
      ],
      "name": "grantRole",
      "outputs": [],
      "stateMutability": "nonpayable",
      "type": "function"
    },
    {
      "inputs": [
        {
          "internalType": "bytes32",
          "name": "roleName_",
          "type": "bytes32"
        },
        {
          "internalType": "uint32",
          "name": "chainSlug_",
          "type": "uint32"
        },
        {
          "internalType": "address",
          "name": "grantee_",
          "type": "address"
        }
      ],
      "name": "grantRoleWithSlug",
      "outputs": [],
      "stateMutability": "nonpayable",
      "type": "function"
    },
    {
      "inputs": [
        {
          "internalType": "bytes32",
          "name": "role_",
          "type": "bytes32"
        },
        {
          "internalType": "address",
          "name": "address_",
          "type": "address"
        }
      ],
      "name": "hasRole",
      "outputs": [
        {
          "internalType": "bool",
          "name": "",
          "type": "bool"
        }
      ],
      "stateMutability": "view",
      "type": "function"
    },
    {
      "inputs": [
        {
          "internalType": "bytes32",
          "name": "roleName_",
          "type": "bytes32"
        },
        {
          "internalType": "uint32",
          "name": "chainSlug_",
          "type": "uint32"
        },
        {
          "internalType": "address",
          "name": "address_",
          "type": "address"
        }
      ],
      "name": "hasRoleWithSlug",
      "outputs": [
        {
          "internalType": "bool",
          "name": "",
          "type": "bool"
        }
      ],
      "stateMutability": "view",
      "type": "function"
    },
    {
      "inputs": [
        {
          "internalType": "address",
          "name": "nominee_",
          "type": "address"
        }
      ],
      "name": "nominateOwner",
      "outputs": [],
      "stateMutability": "nonpayable",
      "type": "function"
    },
    {
      "inputs": [],
      "name": "nominee",
      "outputs": [
        {
          "internalType": "address",
          "name": "",
          "type": "address"
        }
      ],
      "stateMutability": "view",
      "type": "function"
    },
    {
      "inputs": [],
      "name": "owner",
      "outputs": [
        {
          "internalType": "address",
          "name": "",
          "type": "address"
        }
      ],
      "stateMutability": "view",
      "type": "function"
    },
    {
      "inputs": [
        {
          "internalType": "bytes32[]",
          "name": "roleNames_",
          "type": "bytes32[]"
        },
        {
          "internalType": "uint32[]",
          "name": "slugs_",
          "type": "uint32[]"
        },
        {
          "internalType": "address[]",
          "name": "grantees_",
          "type": "address[]"
        }
      ],
      "name": "revokeBatchRole",
      "outputs": [],
      "stateMutability": "nonpayable",
      "type": "function"
    },
    {
      "inputs": [
        {
          "internalType": "bytes32",
          "name": "role_",
          "type": "bytes32"
        },
        {
          "internalType": "address",
          "name": "revokee_",
          "type": "address"
        }
      ],
      "name": "revokeRole",
      "outputs": [],
      "stateMutability": "nonpayable",
      "type": "function"
    },
    {
      "inputs": [
        {
          "internalType": "bytes32",
          "name": "roleName_",
          "type": "bytes32"
        },
        {
          "internalType": "uint32",
          "name": "chainSlug_",
          "type": "uint32"
        },
        {
          "internalType": "address",
          "name": "grantee_",
          "type": "address"
        }
      ],
      "name": "revokeRoleWithSlug",
      "outputs": [],
      "stateMutability": "nonpayable",
      "type": "function"
    }
  ],
  "bytecode": "0x608060405234801561001057600080fd5b50604051610da8380380610da883398101604081905261002f91610095565b808061003a81610042565b5050506100c5565b600080546001600160a01b0383166001600160a01b0319918216811783556001805490921690915560405190917ffbe19c9b601f5ee90b44c7390f3fa2319eba01762d34ee372aeafd59b25c7f8791a250565b6000602082840312156100a757600080fd5b81516001600160a01b03811681146100be57600080fd5b9392505050565b610cd4806100d46000396000f3fe608060405234801561001057600080fd5b50600436106100d45760003560e01c806343fa97ca1161008157806391d148541161005b57806391d14854146101b7578063d547741f146101da578063ecb97484146101ed57600080fd5b806343fa97ca146101735780635b94db27146101865780638da5cb5b1461019957600080fd5b80632e7eb258116100b25780632e7eb258146101455780632f2ff15d146101585780633bd1adec1461016b57600080fd5b80631ba8e484146100d95780631e867311146100ee57806320f99c0a14610101575b600080fd5b6100ec6100e7366004610aeb565b610200565b005b6100ec6100fc366004610b73565b610261565b60015473ffffffffffffffffffffffffffffffffffffffff165b60405173ffffffffffffffffffffffffffffffffffffffff90911681526020015b60405180910390f35b6100ec610153366004610aeb565b610407565b6100ec610166366004610c0d565b610463565b6100ec6104c2565b6100ec610181366004610b73565b61051e565b6100ec610194366004610c39565b6106ba565b60005473ffffffffffffffffffffffffffffffffffffffff1661011b565b6101ca6101c5366004610c0d565b61077a565b604051901515815260200161013c565b6100ec6101e8366004610c0d565b6107b5565b6101ca6101fb366004610aeb565b610810565b60005473ffffffffffffffffffffffffffffffffffffffff163314610251576040517f5fc483c500000000000000000000000000000000000000000000000000000000815260040160405180910390fd5b61025c838383610825565b505050565b60005473ffffffffffffffffffffffffffffffffffffffff1633146102b2576040517f5fc483c500000000000000000000000000000000000000000000000000000000815260040160405180910390fd5b84811415806102c15750848314155b156102f8576040517f11e86f7300000000000000000000000000000000000000000000000000000000815260040160405180910390fd5b8460005b818110156103fd57600086868381811061031857610318610c54565b905060200201602081019061032d9190610c83565b63ffffffff1611156103ad576103a888888381811061034e5761034e610c54565b9050602002013587878481811061036757610367610c54565b905060200201602081019061037c9190610c83565b86868581811061038e5761038e610c54565b90506020020160208101906103a39190610c39565b610825565b6103f5565b6103f58888838181106103c2576103c2610c54565b905060200201358585848181106103db576103db610c54565b90506020020160208101906103f09190610c39565b610862565b6001016102fc565b5050505050505050565b60005473ffffffffffffffffffffffffffffffffffffffff163314610458576040517f5fc483c500000000000000000000000000000000000000000000000000000000815260040160405180910390fd5b61025c8383836108e5565b60005473ffffffffffffffffffffffffffffffffffffffff1633146104b4576040517f5fc483c500000000000000000000000000000000000000000000000000000000815260040160405180910390fd5b6104be8282610922565b5050565b60015473ffffffffffffffffffffffffffffffffffffffff163314610513576040517f7c91ccdd00000000000000000000000000000000000000000000000000000000815260040160405180910390fd5b61051c336109a8565b565b60005473ffffffffffffffffffffffffffffffffffffffff16331461056f576040517f5fc483c500000000000000000000000000000000000000000000000000000000815260040160405180910390fd5b848114158061057e5750848314155b156105b5576040517f11e86f7300000000000000000000000000000000000000000000000000000000815260040160405180910390fd5b8460005b818110156103fd5760008686838181106105d5576105d5610c54565b90506020020160208101906105ea9190610c83565b63ffffffff16111561066a5761066588888381811061060b5761060b610c54565b9050602002013587878481811061062457610624610c54565b90506020020160208101906106399190610c83565b86868581811061064b5761064b610c54565b90506020020160208101906106609190610c39565b6108e5565b6106b2565b6106b288888381811061067f5761067f610c54565b9050602002013585858481811061069857610698610c54565b90506020020160208101906106ad9190610c39565b610922565b6001016105b9565b60005473ffffffffffffffffffffffffffffffffffffffff16331461070b576040517f5fc483c500000000000000000000000000000000000000000000000000000000815260040160405180910390fd5b600180547fffffffffffffffffffffffff00000000000000000000000000000000000000001673ffffffffffffffffffffffffffffffffffffffff83169081179091556040517f906a1c6bd7e3091ea86693dd029a831c19049ce77f1dce2ce0bab1cacbabce2290600090a250565b600082815260026020908152604080832073ffffffffffffffffffffffffffffffffffffffff8516845290915281205460ff165b9392505050565b60005473ffffffffffffffffffffffffffffffffffffffff163314610806576040517f5fc483c500000000000000000000000000000000000000000000000000000000815260040160405180910390fd5b6104be8282610862565b600061081d848484610a20565b949350505050565b61025c838360405160200161084a92919091825263ffffffff16602082015260400190565b60405160208183030381529060405280519060200120825b600082815260026020908152604080832073ffffffffffffffffffffffffffffffffffffffff8516808552925280832080547fffffffffffffffffffffffffffffffffffffffffffffffffffffffffffffff0016905551909184917f155aaafb6329a2098580462df33ec4b7441b19729b9601c5fc17ae1cf99a8a529190a35050565b61025c838360405160200161090a92919091825263ffffffff16602082015260400190565b60405160208183030381529060405280519060200120825b600082815260026020908152604080832073ffffffffffffffffffffffffffffffffffffffff8516808552925280832080547fffffffffffffffffffffffffffffffffffffffffffffffffffffffffffffff0016600117905551909184917f2ae6a113c0ed5b78a53413ffbb7679881f11145ccfba4fb92e863dfcd5a1d2f39190a35050565b6000805473ffffffffffffffffffffffffffffffffffffffff83167fffffffffffffffffffffffff0000000000000000000000000000000000000000918216811783556001805490921690915560405190917ffbe19c9b601f5ee90b44c7390f3fa2319eba01762d34ee372aeafd59b25c7f8791a250565b600061081d8484604051602001610a4792919091825263ffffffff16602082015260400190565b604080517fffffffffffffffffffffffffffffffffffffffffffffffffffffffffffffffe0818403018152918152815160209283012060009081526002835281812073ffffffffffffffffffffffffffffffffffffffff8716825290925290205460ff1690565b803563ffffffff81168114610ac257600080fd5b919050565b803573ffffffffffffffffffffffffffffffffffffffff81168114610ac257600080fd5b600080600060608486031215610b0057600080fd5b83359250610b1060208501610aae565b9150610b1e60408501610ac7565b90509250925092565b60008083601f840112610b3957600080fd5b50813567ffffffffffffffff811115610b5157600080fd5b6020830191508360208260051b8501011115610b6c57600080fd5b9250929050565b60008060008060008060608789031215610b8c57600080fd5b863567ffffffffffffffff80821115610ba457600080fd5b610bb08a838b01610b27565b90985096506020890135915080821115610bc957600080fd5b610bd58a838b01610b27565b90965094506040890135915080821115610bee57600080fd5b50610bfb89828a01610b27565b979a9699509497509295939492505050565b60008060408385031215610c2057600080fd5b82359150610c3060208401610ac7565b90509250929050565b600060208284031215610c4b57600080fd5b6107ae82610ac7565b7f4e487b7100000000000000000000000000000000000000000000000000000000600052603260045260246000fd5b600060208284031215610c9557600080fd5b6107ae82610aae56fea2646970667358221220537394d5a60a56c181cec22cdbee67d1b1070d29ebe09223143b79a911ddab0764736f6c63430008130033",
  "linkReferences": {},
  "deployedLinkReferences": {}
}