{
  "_format": "hh-sol-artifact-1",
  "contractName": "FastSwitchboard",
  "sourceName": "contracts/switchboard/default-switchboards/FastSwitchboard.sol",
  "abi": [
    {
      "inputs": [
        {
          "internalType": "address",
          "name": "owner_",
          "type": "address"
        },
        {
          "internalType": "address",
          "name": "socket_",
          "type": "address"
        },
        {
          "internalType": "uint32",
          "name": "chainSlug_",
          "type": "uint32"
        },
        {
          "internalType": "uint256",
          "name": "timeoutInSeconds_",
          "type": "uint256"
        },
        {
          "internalType": "contract ISignatureVerifier",
          "name": "signatureVerifier_",
          "type": "address"
        }
      ],
      "stateMutability": "nonpayable",
      "type": "constructor"
    },
    {
      "inputs": [],
      "name": "AlreadyAttested",
      "type": "error"
    },
    {
      "inputs": [],
      "name": "InvalidNonce",
      "type": "error"
    },
    {
      "inputs": [],
      "name": "InvalidRole",
      "type": "error"
    },
    {
      "inputs": [],
      "name": "InvalidRoot",
      "type": "error"
    },
    {
      "inputs": [],
      "name": "InvalidTokenAddress",
      "type": "error"
    },
    {
      "inputs": [
        {
          "internalType": "bytes32",
          "name": "role",
          "type": "bytes32"
        }
      ],
      "name": "NoPermit",
      "type": "error"
    },
    {
      "inputs": [],
      "name": "OnlyExecutionManager",
      "type": "error"
    },
    {
      "inputs": [],
      "name": "OnlyNominee",
      "type": "error"
    },
    {
      "inputs": [],
      "name": "OnlyOwner",
      "type": "error"
    },
    {
      "inputs": [],
      "name": "UnequalArrayLengths",
      "type": "error"
    },
    {
      "inputs": [],
      "name": "WatcherFound",
      "type": "error"
    },
    {
      "inputs": [],
      "name": "WatcherNotFound",
      "type": "error"
    },
    {
      "inputs": [],
      "name": "ZeroAddress",
      "type": "error"
    },
    {
      "anonymous": false,
      "inputs": [
        {
          "indexed": false,
          "internalType": "bool",
          "name": "isGlobalTipped",
          "type": "bool"
        }
      ],
      "name": "GlobalTripChanged",
      "type": "event"
    },
    {
      "anonymous": false,
      "inputs": [
        {
          "indexed": true,
          "internalType": "address",
          "name": "claimer",
          "type": "address"
        }
      ],
      "name": "OwnerClaimed",
      "type": "event"
    },
    {
      "anonymous": false,
      "inputs": [
        {
          "indexed": true,
          "internalType": "address",
          "name": "nominee",
          "type": "address"
        }
      ],
      "name": "OwnerNominated",
      "type": "event"
    },
    {
      "anonymous": false,
      "inputs": [
        {
          "indexed": false,
          "internalType": "uint32",
          "name": "srcChainSlug",
          "type": "uint32"
        },
        {
          "indexed": false,
          "internalType": "bool",
          "name": "isPathTripped",
          "type": "bool"
        }
      ],
      "name": "PathTripChanged",
      "type": "event"
    },
    {
      "anonymous": false,
      "inputs": [
        {
          "indexed": false,
          "internalType": "bytes32",
          "name": "packetId",
          "type": "bytes32"
        },
        {
          "indexed": false,
          "internalType": "uint256",
          "name": "proposalCount",
          "type": "uint256"
        },
        {
          "indexed": false,
          "internalType": "bytes32",
          "name": "root",
          "type": "bytes32"
        },
        {
          "indexed": false,
          "internalType": "address",
          "name": "watcher",
          "type": "address"
        },
        {
          "indexed": false,
          "internalType": "uint256",
          "name": "attestationsCount",
          "type": "uint256"
        }
      ],
      "name": "ProposalAttested",
      "type": "event"
    },
    {
      "anonymous": false,
      "inputs": [
        {
          "indexed": false,
          "internalType": "bytes32",
          "name": "packetId",
          "type": "bytes32"
        },
        {
          "indexed": false,
          "internalType": "uint256",
          "name": "proposalCount",
          "type": "uint256"
        }
      ],
      "name": "ProposalTripped",
      "type": "event"
    },
    {
      "anonymous": false,
      "inputs": [
        {
          "indexed": true,
          "internalType": "bytes32",
          "name": "role",
          "type": "bytes32"
        },
        {
          "indexed": true,
          "internalType": "address",
          "name": "grantee",
          "type": "address"
        }
      ],
      "name": "RoleGranted",
      "type": "event"
    },
    {
      "anonymous": false,
      "inputs": [
        {
          "indexed": true,
          "internalType": "bytes32",
          "name": "role",
          "type": "bytes32"
        },
        {
          "indexed": true,
          "internalType": "address",
          "name": "revokee",
          "type": "address"
        }
      ],
      "name": "RoleRevoked",
      "type": "event"
    },
    {
      "anonymous": false,
      "inputs": [
        {
          "indexed": false,
          "internalType": "address",
          "name": "newSocket",
          "type": "address"
        }
      ],
      "name": "SocketSet",
      "type": "event"
    },
    {
      "anonymous": false,
      "inputs": [
        {
          "indexed": false,
          "internalType": "uint32",
          "name": "siblingChainSlug",
          "type": "uint32"
        },
        {
          "components": [
            {
              "internalType": "uint128",
              "name": "switchboardFees",
              "type": "uint128"
            },
            {
              "internalType": "uint128",
              "name": "verificationOverheadFees",
              "type": "uint128"
            }
          ],
          "indexed": false,
          "internalType": "struct SwitchboardBase.Fees",
          "name": "fees",
          "type": "tuple"
        }
      ],
      "name": "SwitchboardFeesSet",
      "type": "event"
    },
    {
      "inputs": [
        {
          "internalType": "bytes32",
          "name": "root_",
          "type": "bytes32"
        },
        {
          "internalType": "bytes32",
          "name": "packetId_",
          "type": "bytes32"
        },
        {
          "internalType": "uint256",
          "name": "proposalCount_",
          "type": "uint256"
        },
        {
          "internalType": "uint32",
          "name": "srcChainSlug_",
          "type": "uint32"
        },
        {
          "internalType": "uint256",
          "name": "proposeTime_",
          "type": "uint256"
        }
      ],
      "name": "allowPacket",
      "outputs": [
        {
          "internalType": "bool",
          "name": "",
          "type": "bool"
        }
      ],
      "stateMutability": "view",
      "type": "function"
    },
    {
      "inputs": [
        {
          "internalType": "bytes32",
          "name": "packetId_",
          "type": "bytes32"
        },
        {
          "internalType": "uint256",
          "name": "proposalCount_",
          "type": "uint256"
        },
        {
          "internalType": "bytes32",
          "name": "root_",
          "type": "bytes32"
        },
        {
          "internalType": "bytes",
          "name": "signature_",
          "type": "bytes"
        }
      ],
      "name": "attest",
      "outputs": [],
      "stateMutability": "nonpayable",
      "type": "function"
    },
    {
      "inputs": [
        {
          "internalType": "bytes32",
          "name": "",
          "type": "bytes32"
        }
      ],
      "name": "attestations",
      "outputs": [
        {
          "internalType": "uint256",
          "name": "",
          "type": "uint256"
        }
      ],
      "stateMutability": "view",
      "type": "function"
    },
    {
      "inputs": [],
      "name": "chainSlug",
      "outputs": [
        {
          "internalType": "uint32",
          "name": "",
          "type": "uint32"
        }
      ],
      "stateMutability": "view",
      "type": "function"
    },
    {
      "inputs": [],
      "name": "claimOwner",
      "outputs": [],
      "stateMutability": "nonpayable",
      "type": "function"
    },
    {
      "inputs": [
        {
          "internalType": "uint32",
          "name": "",
          "type": "uint32"
        }
      ],
      "name": "fees",
      "outputs": [
        {
          "internalType": "uint128",
          "name": "switchboardFees",
          "type": "uint128"
        },
        {
          "internalType": "uint128",
          "name": "verificationOverheadFees",
          "type": "uint128"
        }
      ],
      "stateMutability": "view",
      "type": "function"
    },
    {
      "inputs": [
        {
          "internalType": "uint32",
          "name": "dstChainSlug_",
          "type": "uint32"
        }
      ],
      "name": "getMinFees",
      "outputs": [
        {
          "internalType": "uint128",
          "name": "",
          "type": "uint128"
        },
        {
          "internalType": "uint128",
          "name": "",
          "type": "uint128"
        }
      ],
      "stateMutability": "view",
      "type": "function"
    },
    {
      "inputs": [
        {
          "internalType": "bytes32[]",
          "name": "roleNames_",
          "type": "bytes32[]"
        },
        {
          "internalType": "uint32[]",
          "name": "slugs_",
          "type": "uint32[]"
        },
        {
          "internalType": "address[]",
          "name": "grantees_",
          "type": "address[]"
        }
      ],
      "name": "grantBatchRole",
      "outputs": [],
      "stateMutability": "nonpayable",
      "type": "function"
    },
    {
      "inputs": [
        {
          "internalType": "bytes32",
          "name": "role_",
          "type": "bytes32"
        },
        {
          "internalType": "address",
          "name": "grantee_",
          "type": "address"
        }
      ],
      "name": "grantRole",
      "outputs": [],
      "stateMutability": "nonpayable",
      "type": "function"
    },
    {
      "inputs": [
        {
          "internalType": "bytes32",
          "name": "roleName_",
          "type": "bytes32"
        },
        {
          "internalType": "uint32",
          "name": "chainSlug_",
          "type": "uint32"
        },
        {
          "internalType": "address",
          "name": "grantee_",
          "type": "address"
        }
      ],
      "name": "grantRoleWithSlug",
      "outputs": [],
      "stateMutability": "nonpayable",
      "type": "function"
    },
    {
      "inputs": [
        {
          "internalType": "uint32",
          "name": "srcChainSlug_",
          "type": "uint32"
        },
        {
          "internalType": "address",
          "name": "watcher_",
          "type": "address"
        }
      ],
      "name": "grantWatcherRole",
      "outputs": [],
      "stateMutability": "nonpayable",
      "type": "function"
    },
    {
      "inputs": [
        {
          "internalType": "bytes32",
          "name": "role_",
          "type": "bytes32"
        },
        {
          "internalType": "address",
          "name": "address_",
          "type": "address"
        }
      ],
      "name": "hasRole",
      "outputs": [
        {
          "internalType": "bool",
          "name": "",
          "type": "bool"
        }
      ],
      "stateMutability": "view",
      "type": "function"
    },
    {
      "inputs": [
        {
          "internalType": "bytes32",
          "name": "roleName_",
          "type": "bytes32"
        },
        {
          "internalType": "uint32",
          "name": "chainSlug_",
          "type": "uint32"
        },
        {
          "internalType": "address",
          "name": "address_",
          "type": "address"
        }
      ],
      "name": "hasRoleWithSlug",
      "outputs": [
        {
          "internalType": "bool",
          "name": "",
          "type": "bool"
        }
      ],
      "stateMutability": "view",
      "type": "function"
    },
    {
      "inputs": [
        {
          "internalType": "uint32",
          "name": "",
          "type": "uint32"
        }
      ],
      "name": "initialPacketCount",
      "outputs": [
        {
          "internalType": "uint256",
          "name": "",
          "type": "uint256"
        }
      ],
      "stateMutability": "view",
      "type": "function"
    },
    {
      "inputs": [
        {
          "internalType": "address",
          "name": "",
          "type": "address"
        },
        {
          "internalType": "bytes32",
          "name": "",
          "type": "bytes32"
        }
      ],
      "name": "isAttested",
      "outputs": [
        {
          "internalType": "bool",
          "name": "",
          "type": "bool"
        }
      ],
      "stateMutability": "view",
      "type": "function"
    },
    {
      "inputs": [],
      "name": "isGlobalTipped",
      "outputs": [
        {
          "internalType": "bool",
          "name": "",
          "type": "bool"
        }
      ],
      "stateMutability": "view",
      "type": "function"
    },
    {
      "inputs": [
        {
          "internalType": "bytes32",
          "name": "role_",
          "type": "bytes32"
        }
      ],
      "name": "isNonWatcherRole",
      "outputs": [
        {
          "internalType": "bool",
          "name": "",
          "type": "bool"
        }
      ],
      "stateMutability": "pure",
      "type": "function"
    },
    {
      "inputs": [
        {
          "internalType": "uint32",
          "name": "",
          "type": "uint32"
        }
      ],
      "name": "isPathTripped",
      "outputs": [
        {
          "internalType": "bool",
          "name": "",
          "type": "bool"
        }
      ],
      "stateMutability": "view",
      "type": "function"
    },
    {
      "inputs": [
        {
          "internalType": "bytes32",
          "name": "",
          "type": "bytes32"
        },
        {
          "internalType": "uint256",
          "name": "",
          "type": "uint256"
        }
      ],
      "name": "isProposalTripped",
      "outputs": [
        {
          "internalType": "bool",
          "name": "",
          "type": "bool"
        }
      ],
      "stateMutability": "view",
      "type": "function"
    },
    {
      "inputs": [
        {
          "internalType": "bytes32",
          "name": "",
          "type": "bytes32"
        }
      ],
      "name": "isRootValid",
      "outputs": [
        {
          "internalType": "bool",
          "name": "",
          "type": "bool"
        }
      ],
      "stateMutability": "view",
      "type": "function"
    },
    {
      "inputs": [
        {
          "internalType": "address",
          "name": "",
          "type": "address"
        }
      ],
      "name": "nextNonce",
      "outputs": [
        {
          "internalType": "uint256",
          "name": "",
          "type": "uint256"
        }
      ],
      "stateMutability": "view",
      "type": "function"
    },
    {
      "inputs": [
        {
          "internalType": "address",
          "name": "nominee_",
          "type": "address"
        }
      ],
      "name": "nominateOwner",
      "outputs": [],
      "stateMutability": "nonpayable",
      "type": "function"
    },
    {
      "inputs": [],
      "name": "nominee",
      "outputs": [
        {
          "internalType": "address",
          "name": "",
          "type": "address"
        }
      ],
      "stateMutability": "view",
      "type": "function"
    },
    {
      "inputs": [],
      "name": "owner",
      "outputs": [
        {
          "internalType": "address",
          "name": "",
          "type": "address"
        }
      ],
      "stateMutability": "view",
      "type": "function"
    },
    {
      "inputs": [
        {
          "internalType": "uint32",
          "name": "",
          "type": "uint32"
        }
      ],
      "name": "receiveFees",
      "outputs": [],
      "stateMutability": "payable",
      "type": "function"
    },
    {
      "inputs": [
        {
          "internalType": "uint32",
          "name": "siblingChainSlug_",
          "type": "uint32"
        },
        {
          "internalType": "uint256",
          "name": "maxPacketLength_",
          "type": "uint256"
        },
        {
          "internalType": "uint256",
          "name": "capacitorType_",
          "type": "uint256"
        },
        {
          "internalType": "uint256",
          "name": "initialPacketCount_",
          "type": "uint256"
        },
        {
          "internalType": "address",
          "name": "siblingSwitchboard_",
          "type": "address"
        }
      ],
      "name": "registerSiblingSlug",
      "outputs": [],
      "stateMutability": "nonpayable",
      "type": "function"
    },
    {
      "inputs": [
        {
          "internalType": "address",
          "name": "token_",
          "type": "address"
        },
        {
          "internalType": "address",
          "name": "rescueTo_",
          "type": "address"
        },
        {
          "internalType": "uint256",
          "name": "amount_",
          "type": "uint256"
        }
      ],
      "name": "rescueFunds",
      "outputs": [],
      "stateMutability": "nonpayable",
      "type": "function"
    },
    {
      "inputs": [
        {
          "internalType": "bytes32[]",
          "name": "roleNames_",
          "type": "bytes32[]"
        },
        {
          "internalType": "uint32[]",
          "name": "slugs_",
          "type": "uint32[]"
        },
        {
          "internalType": "address[]",
          "name": "grantees_",
          "type": "address[]"
        }
      ],
      "name": "revokeBatchRole",
      "outputs": [],
      "stateMutability": "nonpayable",
      "type": "function"
    },
    {
      "inputs": [
        {
          "internalType": "bytes32",
          "name": "role_",
          "type": "bytes32"
        },
        {
          "internalType": "address",
          "name": "grantee_",
          "type": "address"
        }
      ],
      "name": "revokeRole",
      "outputs": [],
      "stateMutability": "nonpayable",
      "type": "function"
    },
    {
      "inputs": [
        {
          "internalType": "bytes32",
          "name": "roleName_",
          "type": "bytes32"
        },
        {
          "internalType": "uint32",
          "name": "chainSlug_",
          "type": "uint32"
        },
        {
          "internalType": "address",
          "name": "grantee_",
          "type": "address"
        }
      ],
      "name": "revokeRoleWithSlug",
      "outputs": [],
      "stateMutability": "nonpayable",
      "type": "function"
    },
    {
      "inputs": [
        {
          "internalType": "uint32",
          "name": "srcChainSlug_",
          "type": "uint32"
        },
        {
          "internalType": "address",
          "name": "watcher_",
          "type": "address"
        }
      ],
      "name": "revokeWatcherRole",
      "outputs": [],
      "stateMutability": "nonpayable",
      "type": "function"
    },
    {
      "inputs": [
        {
          "internalType": "uint256",
          "name": "nonce_",
          "type": "uint256"
        },
        {
          "internalType": "uint32",
          "name": "dstChainSlug_",
          "type": "uint32"
        },
        {
          "internalType": "uint128",
          "name": "switchboardFees_",
          "type": "uint128"
        },
        {
          "internalType": "uint128",
          "name": "verificationOverheadFees_",
          "type": "uint128"
        },
        {
          "internalType": "bytes",
          "name": "signature_",
          "type": "bytes"
        }
      ],
      "name": "setFees",
      "outputs": [],
      "stateMutability": "nonpayable",
      "type": "function"
    },
    {
      "inputs": [],
      "name": "signatureVerifier__",
      "outputs": [
        {
          "internalType": "contract ISignatureVerifier",
          "name": "",
          "type": "address"
        }
      ],
      "stateMutability": "view",
      "type": "function"
    },
    {
      "inputs": [],
      "name": "socket__",
      "outputs": [
        {
          "internalType": "contract ISocket",
          "name": "",
          "type": "address"
        }
      ],
      "stateMutability": "view",
      "type": "function"
    },
    {
      "inputs": [],
      "name": "timeoutInSeconds",
      "outputs": [
        {
          "internalType": "uint256",
          "name": "",
          "type": "uint256"
        }
      ],
      "stateMutability": "view",
      "type": "function"
    },
    {
      "inputs": [
        {
          "internalType": "uint32",
          "name": "",
          "type": "uint32"
        }
      ],
      "name": "totalWatchers",
      "outputs": [
        {
          "internalType": "uint256",
          "name": "",
          "type": "uint256"
        }
      ],
      "stateMutability": "view",
      "type": "function"
    },
    {
      "inputs": [
        {
          "internalType": "uint256",
          "name": "nonce_",
          "type": "uint256"
        },
        {
          "internalType": "bytes",
          "name": "signature_",
          "type": "bytes"
        }
      ],
      "name": "tripGlobal",
      "outputs": [],
      "stateMutability": "nonpayable",
      "type": "function"
    },
    {
      "inputs": [
        {
          "internalType": "uint256",
          "name": "nonce_",
          "type": "uint256"
        },
        {
          "internalType": "uint32",
          "name": "srcChainSlug_",
          "type": "uint32"
        },
        {
          "internalType": "bytes",
          "name": "signature_",
          "type": "bytes"
        }
      ],
      "name": "tripPath",
      "outputs": [],
      "stateMutability": "nonpayable",
      "type": "function"
    },
    {
      "inputs": [
        {
          "internalType": "uint256",
          "name": "nonce_",
          "type": "uint256"
        },
        {
          "internalType": "bytes32",
          "name": "packetId_",
          "type": "bytes32"
        },
        {
          "internalType": "uint256",
          "name": "proposalCount_",
          "type": "uint256"
        },
        {
          "internalType": "bytes",
          "name": "signature_",
          "type": "bytes"
        }
      ],
      "name": "tripProposal",
      "outputs": [],
      "stateMutability": "nonpayable",
      "type": "function"
    },
    {
      "inputs": [
        {
          "internalType": "uint256",
          "name": "nonce_",
          "type": "uint256"
        },
        {
          "internalType": "bytes",
          "name": "signature_",
          "type": "bytes"
        }
      ],
      "name": "unTrip",
      "outputs": [],
      "stateMutability": "nonpayable",
      "type": "function"
    },
    {
      "inputs": [
        {
          "internalType": "uint256",
          "name": "nonce_",
          "type": "uint256"
        },
        {
          "internalType": "uint32",
          "name": "srcChainSlug_",
          "type": "uint32"
        },
        {
          "internalType": "bytes",
          "name": "signature_",
          "type": "bytes"
        }
      ],
      "name": "unTripPath",
      "outputs": [],
      "stateMutability": "nonpayable",
      "type": "function"
    },
    {
      "inputs": [
        {
          "internalType": "uint32",
          "name": "siblingChainSlug_",
          "type": "uint32"
        },
        {
          "internalType": "address",
          "name": "siblingSwitchboard_",
          "type": "address"
        }
      ],
      "name": "updateSibling",
      "outputs": [],
      "stateMutability": "nonpayable",
      "type": "function"
    },
    {
      "inputs": [
        {
          "internalType": "address",
          "name": "withdrawTo_",
          "type": "address"
        }
      ],
      "name": "withdrawFees",
      "outputs": [],
      "stateMutability": "nonpayable",
      "type": "function"
    }
  ],
  "bytecode": "0x6101006040523480156200001257600080fd5b5060405162004034380380620040348339810160408190526200003591620000e2565b83838383888080620000478162000076565b5050506001600160a01b0393841660a05263ffffffff90921660c05260e05216608052506200015e9350505050565b600080546001600160a01b0383166001600160a01b0319918216811783556001805490921690915560405190917ffbe19c9b601f5ee90b44c7390f3fa2319eba01762d34ee372aeafd59b25c7f8791a250565b6001600160a01b0381168114620000df57600080fd5b50565b600080600080600060a08688031215620000fb57600080fd5b85516200010881620000c9565b60208701519095506200011b81620000c9565b604087015190945063ffffffff811681146200013657600080fd5b6060870151608088015191945092506200015081620000c9565b809150509295509295909350565b60805160a05160c05160e051613e176200021d600039600081816109b201526117dc0152600081816107c00152818161122201528181611acf01528181611d0e0152818161233a0152818161267c015281816129e40152612c7701526000818161085901528181612059015281816121a301528181612206015261257a0152600081816109070152818161126f01528181611b1c01528181611d4d01528181612387015281816126fb01528181612a310152612ce50152613e176000f3fe6080604052600436106102dc5760003560e01c806389ee875511610184578063c6a261d2116100d6578063d5b8da731161008a578063efec6cd411610064578063efec6cd4146109a0578063f22b460e146109d4578063f37f3e37146109f457600080fd5b8063d5b8da73146108f5578063ecb9748414610929578063ef7b76901461094957600080fd5b8063d2883fbe116100bb578063d2883fbe14610895578063d39a38c1146108b5578063d547741f146108d557600080fd5b8063c6a261d214610847578063c87793081461087b57600080fd5b8063a085186311610138578063b349ba6511610112578063b349ba65146107ae578063b947aac6146107f7578063be94a4761461082757600080fd5b8063a085186314610740578063a9a541b214610760578063aac965571461077357600080fd5b806391d148541161016957806391d14854146106d3578063940992a3146106f35780639aefe4e01461072057600080fd5b806389ee8755146106885780638da5cb5b146106a857600080fd5b80632f2ff15d1161023d5780634c408180116101f15780637a83df80116101cb5780637a83df801461061b5780637c1388141461063b57806382987d301461066857600080fd5b80634c408180146105bb5780635b94db27146105db5780636ccae054146105fb57600080fd5b806331d1e0631161022257806331d1e0631461054b5780633bd1adec1461058657806343fa97ca1461059b57600080fd5b80632f2ff15d146104eb57806330ef41b41461050b57600080fd5b80631e8673111161029457806320f99c0a1161027957806320f99c0a1461045f57806325750e37146104ab5780632e7eb258146104cb57600080fd5b80631e8673111461041f5780632085254a1461043f57600080fd5b80630de8ede4116102c55780630de8ede4146103bd578063164e68de146103df5780631ba8e484146103ff57600080fd5b806306da42e0146102e15780630cd55abf14610382575b600080fd5b3480156102ed57600080fd5b506103546102fc3660046134cb565b63ffffffff166000908152600760209081526040918290208251808401909352546fffffffffffffffffffffffffffffffff808216808552700100000000000000000000000000000000909204169290910182905291565b604080516fffffffffffffffffffffffffffffffff9384168152929091166020830152015b60405180910390f35b34801561038e57600080fd5b506103af61039d366004613508565b60066020526000908152604090205481565b604051908152602001610379565b3480156103c957600080fd5b506103dd6103d836600461352c565b610a21565b005b3480156103eb57600080fd5b506103dd6103fa366004613508565b610c37565b34801561040b57600080fd5b506103dd61041a366004613563565b610d1f565b34801561042b57600080fd5b506103dd61043a3660046135ef565b610dd9565b34801561044b57600080fd5b506103dd61045a36600461352c565b610fd7565b34801561046b57600080fd5b5060015473ffffffffffffffffffffffffffffffffffffffff165b60405173ffffffffffffffffffffffffffffffffffffffff9091168152602001610379565b3480156104b757600080fd5b506103dd6104c6366004613763565b6111e9565b3480156104d757600080fd5b506103dd6104e6366004613563565b611402565b3480156104f757600080fd5b506103dd6105063660046137aa565b6114b7565b34801561051757600080fd5b5061053b6105263660046137cf565b600c6020526000908152604090205460ff1681565b6040519015158152602001610379565b34801561055757600080fd5b5061053b6105663660046137e8565b600a60209081526000928352604080842090915290825290205460ff1681565b34801561059257600080fd5b506103dd611520565b3480156105a757600080fd5b506103dd6105b63660046135ef565b61157c565b3480156105c757600080fd5b5061053b6105d6366004613814565b611732565b3480156105e757600080fd5b506103dd6105f6366004613508565b611824565b34801561060757600080fd5b506103dd61061636600461385b565b6118e4565b34801561062757600080fd5b5061053b6106363660046137cf565b611982565b34801561064757600080fd5b506103af6106563660046134cb565b60086020526000908152604090205481565b34801561067457600080fd5b506103dd61068336600461389c565b611a8e565b34801561069457600080fd5b506103dd6106a33660046138f3565b611cc9565b3480156106b457600080fd5b5060005473ffffffffffffffffffffffffffffffffffffffff16610486565b3480156106df57600080fd5b5061053b6106ee3660046137aa565b611f1c565b3480156106ff57600080fd5b506103af61070e3660046137cf565b600b6020526000908152604090205481565b34801561072c57600080fd5b506103dd61073b36600461394d565b611f59565b34801561074c57600080fd5b506103dd61075b36600461352c565b6120c5565b6103dd61076e3660046134cb565b612204565b34801561077f57600080fd5b5061053b61078e3660046139a1565b600560209081526000928352604080842090915290825290205460ff1681565b3480156107ba57600080fd5b506107e27f000000000000000000000000000000000000000000000000000000000000000081565b60405163ffffffff9091168152602001610379565b34801561080357600080fd5b5061053b6108123660046134cb565b60046020526000908152604090205460ff1681565b34801561083357600080fd5b506103dd61084236600461389c565b6122f9565b34801561085357600080fd5b506104867f000000000000000000000000000000000000000000000000000000000000000081565b34801561088757600080fd5b5060035461053b9060ff1681565b3480156108a157600080fd5b506103dd6108b0366004613a05565b612535565b3480156108c157600080fd5b506103dd6108d0366004613763565b6129ab565b3480156108e157600080fd5b506103dd6108f03660046137aa565b612bc0565b34801561090157600080fd5b506104867f000000000000000000000000000000000000000000000000000000000000000081565b34801561093557600080fd5b5061053b610944366004613563565b612c29565b34801561095557600080fd5b506103546109643660046134cb565b6007602052600090815260409020546fffffffffffffffffffffffffffffffff8082169170010000000000000000000000000000000090041682565b3480156109ac57600080fd5b506103af7f000000000000000000000000000000000000000000000000000000000000000081565b3480156109e057600080fd5b506103dd6109ef366004613a86565b612c3e565b348015610a0057600080fd5b506103af610a0f3660046134cb565b60096020526000908152604090205481565b3360009081527f0f4a237b7f9e071a612ddea08a06576f25cc7dffe13a46307ee64fe2318b3c3e60205260409020547f71840dc4906352362b0cdaf79870196c8e42acafade72d5d5a6d59291253ceb19060ff16610ab3576040517f962f6333000000000000000000000000000000000000000000000000000000008152600481018290526024015b60405180910390fd5b610ade7f2125d1e225cadc5c8296e2cc1f96ee607770bf4a4a16131e62f6819937437c898484612eee565b610b14576040517fa278e4ad00000000000000000000000000000000000000000000000000000000815260040160405180910390fd5b610b3f7f2125d1e225cadc5c8296e2cc1f96ee607770bf4a4a16131e62f6819937437c898484612f7c565b63ffffffff8316600090815260076020908152604080832060099092529091205460016fffffffffffffffffffffffffffffffff8216118015610b94575081546fffffffffffffffffffffffffffffffff1615155b15610c0a5780610ba5600182613b22565b8354610bc391906fffffffffffffffffffffffffffffffff16613b52565b610bcd9190613b86565b82547fffffffffffffffffffffffffffffffff00000000000000000000000000000000166fffffffffffffffffffffffffffffffff919091161782555b63ffffffff85166000908152600960205260408120805491610c2b83613bdc565b91905055505050505050565b3360009081527f9b7ec560033b826bc253a5f1a8b5e6a61c8d2a6e8731a9872b68296f6024c5ac60205260409020547f5d8e12c39142ff96d79d04d15d1ba1269e4fe57bb9d26f43523628b34ba108ec9060ff16610cc4576040517f962f633300000000000000000000000000000000000000000000000000000000815260048101829052602401610aaa565b73ffffffffffffffffffffffffffffffffffffffff8216610d11576040517fd92e233d00000000000000000000000000000000000000000000000000000000815260040160405180910390fd5b610d1b8247612fbd565b5050565b60005473ffffffffffffffffffffffffffffffffffffffff163314610d70576040517f5fc483c500000000000000000000000000000000000000000000000000000000815260040160405180910390fd5b7f429672025b2dcb8754ca4b57943f34ac66900598787cb1f1e857291dedbf34d38314610dc9576040517fd954416a00000000000000000000000000000000000000000000000000000000815260040160405180910390fd5b610dd4838383612f7c565b505050565b60005473ffffffffffffffffffffffffffffffffffffffff163314610e2a576040517f5fc483c500000000000000000000000000000000000000000000000000000000815260040160405180910390fd5b8481141580610e395750848314155b15610e70576040517f11e86f7300000000000000000000000000000000000000000000000000000000815260040160405180910390fd5b8460005b81811015610fcd57610e9d888883818110610e9157610e91613c11565b90506020020135611982565b15610f93576000868683818110610eb657610eb6613c11565b9050602002016020810190610ecb91906134cb565b63ffffffff161115610f4b57610f46888883818110610eec57610eec613c11565b90506020020135878784818110610f0557610f05613c11565b9050602002016020810190610f1a91906134cb565b868685818110610f2c57610f2c613c11565b9050602002016020810190610f419190613508565b612f7c565b610fc5565b610f46888883818110610f6057610f60613c11565b90506020020135858584818110610f7957610f79613c11565b9050602002016020810190610f8e9190613508565b613032565b6040517fd954416a00000000000000000000000000000000000000000000000000000000815260040160405180910390fd5b600101610e74565b5050505050505050565b3360009081527f0f4a237b7f9e071a612ddea08a06576f25cc7dffe13a46307ee64fe2318b3c3e60205260409020547f71840dc4906352362b0cdaf79870196c8e42acafade72d5d5a6d59291253ceb19060ff16611064576040517f962f633300000000000000000000000000000000000000000000000000000000815260048101829052602401610aaa565b61108f7f2125d1e225cadc5c8296e2cc1f96ee607770bf4a4a16131e62f6819937437c898484612eee565b156110c6576040517fa080b55800000000000000000000000000000000000000000000000000000000815260040160405180910390fd5b6110f17f2125d1e225cadc5c8296e2cc1f96ee607770bf4a4a16131e62f6819937437c8984846130b5565b63ffffffff831660009081526007602090815260408083206009909252909120546fffffffffffffffffffffffffffffffff811615801590611145575081546fffffffffffffffffffffffffffffffff1615155b156111bb5780611156816001613c40565b835461117491906fffffffffffffffffffffffffffffffff16613b52565b61117e9190613b86565b82547fffffffffffffffffffffffffffffffff00000000000000000000000000000000166fffffffffffffffffffffffffffffffff919091161782555b63ffffffff8516600090815260096020526040812080549091906111de90613c69565b909155505050505050565b604080517fa7d456f2444d46f78a51def7ecdf108d72f72da2e10ce355caa5e99a17bed2de6020820152309181019190915263ffffffff7f000000000000000000000000000000000000000000000000000000000000000016606082015260808101839052600060a082018190529073ffffffffffffffffffffffffffffffffffffffff7f000000000000000000000000000000000000000000000000000000000000000016906397aba7f99060c00160405160208183030381529060405280519060200120846040518363ffffffff1660e01b81526004016112cd929190613ca1565b602060405180830381865afa1580156112ea573d6000803e3d6000fd5b505050506040513d601f19601f8201168201806040525081019061130e9190613d15565b905061133a7fb0a81253fa41a5cd7c5885c220c30d519a0d552984e0d69edda03449f69fa6db826130f6565b73ffffffffffffffffffffffffffffffffffffffff8116600090815260066020526040902080546001810190915583146113a0576040517f756688fe00000000000000000000000000000000000000000000000000000000815260040160405180910390fd5b600380547fffffffffffffffffffffffffffffffffffffffffffffffffffffffffffffff00169055604051600081527f42a60e0dc12250ea896a8f5156f1f3aa4567cd2bd87a72bc097210dc02ec2e05906020015b60405180910390a1505050565b60005473ffffffffffffffffffffffffffffffffffffffff163314611453576040517f5fc483c500000000000000000000000000000000000000000000000000000000815260040160405180910390fd5b7f429672025b2dcb8754ca4b57943f34ac66900598787cb1f1e857291dedbf34d383146114ac576040517fd954416a00000000000000000000000000000000000000000000000000000000815260040160405180910390fd5b610dd48383836130b5565b60005473ffffffffffffffffffffffffffffffffffffffff163314611508576040517f5fc483c500000000000000000000000000000000000000000000000000000000815260040160405180910390fd5b61151182611982565b15610f9357610d1b8282613162565b60015473ffffffffffffffffffffffffffffffffffffffff163314611571576040517f7c91ccdd00000000000000000000000000000000000000000000000000000000815260040160405180910390fd5b61157a336131e8565b565b60005473ffffffffffffffffffffffffffffffffffffffff1633146115cd576040517f5fc483c500000000000000000000000000000000000000000000000000000000815260040160405180910390fd5b84811415806115dc5750848314155b15611613576040517f11e86f7300000000000000000000000000000000000000000000000000000000815260040160405180910390fd5b8460005b81811015610fcd57611634888883818110610e9157610e91613c11565b15610f9357600086868381811061164d5761164d613c11565b905060200201602081019061166291906134cb565b63ffffffff1611156116e2576116dd88888381811061168357611683613c11565b9050602002013587878481811061169c5761169c613c11565b90506020020160208101906116b191906134cb565b8686858181106116c3576116c3613c11565b90506020020160208101906116d89190613508565b6130b5565b61172a565b6116dd8888838181106116f7576116f7613c11565b9050602002013585858481811061171057611710613c11565b90506020020160208101906117259190613508565b613162565b600101611617565b600354600090859060ff168061175d575063ffffffff841660009081526004602052604090205460ff165b806117815750600086815260056020908152604080832088845290915290205460ff165b806117aa575063ffffffff841660009081526008602052604090205467ffffffffffffffff8216105b156117b957600091505061181b565b6000878152600c602052604090205460ff16156117da57600191505061181b565b7f00000000000000000000000000000000000000000000000000000000000000006118058442613d32565b111561181557600191505061181b565b60009150505b95945050505050565b60005473ffffffffffffffffffffffffffffffffffffffff163314611875576040517f5fc483c500000000000000000000000000000000000000000000000000000000815260040160405180910390fd5b600180547fffffffffffffffffffffffff00000000000000000000000000000000000000001673ffffffffffffffffffffffffffffffffffffffff83169081179091556040517f906a1c6bd7e3091ea86693dd029a831c19049ce77f1dce2ce0bab1cacbabce2290600090a250565b3360009081527f4933f7bec34ee32db93e9f5cd7e0519781b395282211f4f6857489046ea38f7660205260409020547fc4c453d647953c0fd35db5a34ee76e60fb4abc3a8fb891a25936b70b38f292539060ff16611971576040517f962f633300000000000000000000000000000000000000000000000000000000815260048101829052602401610aaa565b61197c848484613260565b50505050565b60007fd66a896d5b3e8cd31bfd557e6ebdb5bba4561c7ce6573d5c6716876cbc83dbdd8214806119d157507fb0a81253fa41a5cd7c5885c220c30d519a0d552984e0d69edda03449f69fa6db82145b806119fb57507f5d8e12c39142ff96d79d04d15d1ba1269e4fe57bb9d26f43523628b34ba108ec82145b80611a2557507fc4c453d647953c0fd35db5a34ee76e60fb4abc3a8fb891a25936b70b38f2925382145b80611a4f57507f71840dc4906352362b0cdaf79870196c8e42acafade72d5d5a6d59291253ceb182145b80611a7957507f429672025b2dcb8754ca4b57943f34ac66900598787cb1f1e857291dedbf34d382145b15611a8657506001919050565b506000919050565b604080517fc9c6c9004cdd87e14f6d7be800064bea944fdafc4e66c833d9da91c10d4ced356020820152309181019190915263ffffffff80841660608301527f000000000000000000000000000000000000000000000000000000000000000016608082015260a08101849052600060c082018190529073ffffffffffffffffffffffffffffffffffffffff7f000000000000000000000000000000000000000000000000000000000000000016906397aba7f99060e00160405160208183030381529060405280519060200120846040518363ffffffff1660e01b8152600401611b7a929190613ca1565b602060405180830381865afa158015611b97573d6000803e3d6000fd5b505050506040513d601f19601f82011682018060405250810190611bbb9190613d15565b9050611be77fb0a81253fa41a5cd7c5885c220c30d519a0d552984e0d69edda03449f69fa6db826130f6565b73ffffffffffffffffffffffffffffffffffffffff811660009081526006602052604090208054600181019091558414611c4d576040517f756688fe00000000000000000000000000000000000000000000000000000000815260040160405180910390fd5b63ffffffff8316600081815260046020908152604080832080547fffffffffffffffffffffffffffffffffffffffffffffffffffffffffffffff001690558051938452908301919091527f43b1a9ba48bea5f72f92aaaf96b18ec134518690384df35d04b1316ca68147e191015b60405180910390a150505050565b604080517f119101cda5c91f869cec4313411657e772bec4c5a184dd6ab7a60859e3d347836020820152309181019190915260e084811c6060830181905263ffffffff7f000000000000000000000000000000000000000000000000000000000000000016608084015260a0830187905260c08301869052908201849052906000907f000000000000000000000000000000000000000000000000000000000000000073ffffffffffffffffffffffffffffffffffffffff16906397aba7f9906101000160405160208183030381529060405280519060200120856040518363ffffffff1660e01b8152600401611dc1929190613ca1565b602060405180830381865afa158015611dde573d6000803e3d6000fd5b505050506040513d601f19601f82011682018060405250810190611e029190613d15565b9050611e357f2125d1e225cadc5c8296e2cc1f96ee607770bf4a4a16131e62f6819937437c898363ffffffff1683613350565b73ffffffffffffffffffffffffffffffffffffffff811660009081526006602052604090208054600181019091558614611e9b576040517f756688fe00000000000000000000000000000000000000000000000000000000815260040160405180910390fd5b600085815260056020908152604080832087845282529182902080547fffffffffffffffffffffffffffffffffffffffffffffffffffffffffffffff0016600117905581518781529081018690527f876c775784dd569d1ecd6e1a52c87169c22c4e906a138c91a59f451fa0f431b5910160405180910390a1505050505050565b600082815260026020908152604080832073ffffffffffffffffffffffffffffffffffffffff8516845290915281205460ff165b90505b92915050565b3360009081527f0f4a237b7f9e071a612ddea08a06576f25cc7dffe13a46307ee64fe2318b3c3e60205260409020547f71840dc4906352362b0cdaf79870196c8e42acafade72d5d5a6d59291253ceb19060ff16611fe6576040517f962f633300000000000000000000000000000000000000000000000000000000815260048101829052602401610aaa565b63ffffffff861660008181526008602052604090819020859055517f0b04bb410000000000000000000000000000000000000000000000000000000081526004810191909152602481018690526044810185905273ffffffffffffffffffffffffffffffffffffffff83811660648301527f00000000000000000000000000000000000000000000000000000000000000001690630b04bb419060840160408051808303816000875af11580156120a1573d6000803e3d6000fd5b505050506040513d601f19601f82011682018060405250810190610fcd9190613d45565b3360009081527f0f4a237b7f9e071a612ddea08a06576f25cc7dffe13a46307ee64fe2318b3c3e60205260409020547f71840dc4906352362b0cdaf79870196c8e42acafade72d5d5a6d59291253ceb19060ff16612152576040517f962f633300000000000000000000000000000000000000000000000000000000815260048101829052602401610aaa565b6040517f81403a0200000000000000000000000000000000000000000000000000000000815263ffffffff8416600482015273ffffffffffffffffffffffffffffffffffffffff83811660248301527f000000000000000000000000000000000000000000000000000000000000000016906381403a0290604401600060405180830381600087803b1580156121e757600080fd5b505af11580156121fb573d6000803e3d6000fd5b50505050505050565b7f000000000000000000000000000000000000000000000000000000000000000073ffffffffffffffffffffffffffffffffffffffff16626186f76040518163ffffffff1660e01b8152600401602060405180830381865afa15801561226e573d6000803e3d6000fd5b505050506040513d601f19601f820116820180604052508101906122929190613d15565b73ffffffffffffffffffffffffffffffffffffffff163373ffffffffffffffffffffffffffffffffffffffff16146122f6576040517f03c377c500000000000000000000000000000000000000000000000000000000815260040160405180910390fd5b50565b604080517f4623a5d5b82ed238c8ba6e51cffa4ddaf241150d9af32813faab00132f55a4566020820152309181019190915263ffffffff80841660608301527f000000000000000000000000000000000000000000000000000000000000000016608082015260a08101849052600160c082015260009073ffffffffffffffffffffffffffffffffffffffff7f000000000000000000000000000000000000000000000000000000000000000016906397aba7f99060e00160405160208183030381529060405280519060200120846040518363ffffffff1660e01b81526004016123e5929190613ca1565b602060405180830381865afa158015612402573d6000803e3d6000fd5b505050506040513d601f19601f820116820180604052508101906124269190613d15565b90506124597f2125d1e225cadc5c8296e2cc1f96ee607770bf4a4a16131e62f6819937437c898463ffffffff1683613350565b73ffffffffffffffffffffffffffffffffffffffff8116600090815260066020526040902080546001810190915584146124bf576040517f756688fe00000000000000000000000000000000000000000000000000000000815260040160405180910390fd5b63ffffffff831660008181526004602090815260409182902080547fffffffffffffffffffffffffffffffffffffffffffffffffffffffffffffff001660019081179091558251938452908301527f43b1a9ba48bea5f72f92aaaf96b18ec134518690384df35d04b1316ca68147e19101611cbb565b6040517f4ad701bc000000000000000000000000000000000000000000000000000000008152600481018690526024810185905230604482015260e086901c906000907f000000000000000000000000000000000000000000000000000000000000000073ffffffffffffffffffffffffffffffffffffffff1690634ad701bc90606401602060405180830381865afa1580156125d6573d6000803e3d6000fd5b505050506040513d601f19601f820116820180604052508101906125fa9190613d74565b905080612633576040517f504570e300000000000000000000000000000000000000000000000000000000815260040160405180910390fd5b84811461266c576040517f504570e300000000000000000000000000000000000000000000000000000000815260040160405180910390fd5b60408051306020808301919091527f000000000000000000000000000000000000000000000000000000000000000063ffffffff1682840152606082018a90526080820189905260a08083018990528351808403909101815260c083019384905280519101207f97aba7f9000000000000000000000000000000000000000000000000000000009092526000917f000000000000000000000000000000000000000000000000000000000000000073ffffffffffffffffffffffffffffffffffffffff16916397aba7f991612747918990899060c401613d8d565b602060405180830381865afa158015612764573d6000803e3d6000fd5b505050506040513d601f19601f820116820180604052508101906127889190613d15565b73ffffffffffffffffffffffffffffffffffffffff81166000908152600a6020908152604080832086845290915290205490915060ff16156127f6576040517f35d9080500000000000000000000000000000000000000000000000000000000815260040160405180910390fd5b6128217f2125d1e225cadc5c8296e2cc1f96ee607770bf4a4a16131e62f6819937437c898483612eee565b612857576040517fa278e4ad00000000000000000000000000000000000000000000000000000000815260040160405180910390fd5b73ffffffffffffffffffffffffffffffffffffffff81166000908152600a60209081526040808320858452825280832080547fffffffffffffffffffffffffffffffffffffffffffffffffffffffffffffff00166001179055600b909152812080549091906128c590613c69565b9091555063ffffffff8316600090815260096020908152604080832054858452600b909252909120541061292b576000828152600c6020526040902080547fffffffffffffffffffffffffffffffffffffffffffffffffffffffffffffff001660011790555b6000828152600b60209081526040918290205482518b81529182018a905291810184905273ffffffffffffffffffffffffffffffffffffffff8316606082015260808101919091527f8cfaedaacfb148cee9ec5ed036100285c6f3ede20c1637a618733cbd631e92079060a0015b60405180910390a15050505050505050565b604080517fbdfa1b22b053b80e8209cb4421ce6b25b45bb164e02718501cb19a46c4df987c6020820152309181019190915263ffffffff7f000000000000000000000000000000000000000000000000000000000000000016606082015260808101839052600160a082015260009073ffffffffffffffffffffffffffffffffffffffff7f000000000000000000000000000000000000000000000000000000000000000016906397aba7f99060c00160405160208183030381529060405280519060200120846040518363ffffffff1660e01b8152600401612a8f929190613ca1565b602060405180830381865afa158015612aac573d6000803e3d6000fd5b505050506040513d601f19601f82011682018060405250810190612ad09190613d15565b9050612afc7fd66a896d5b3e8cd31bfd557e6ebdb5bba4561c7ce6573d5c6716876cbc83dbdd826130f6565b73ffffffffffffffffffffffffffffffffffffffff811660009081526006602052604090208054600181019091558314612b62576040517f756688fe00000000000000000000000000000000000000000000000000000000815260040160405180910390fd5b600380547fffffffffffffffffffffffffffffffffffffffffffffffffffffffffffffff001660019081179091556040519081527f42a60e0dc12250ea896a8f5156f1f3aa4567cd2bd87a72bc097210dc02ec2e05906020016113f5565b60005473ffffffffffffffffffffffffffffffffffffffff163314612c11576040517f5fc483c500000000000000000000000000000000000000000000000000000000815260040160405180910390fd5b612c1a82611982565b15610f9357610d1b8282613032565b6000612c36848484612eee565b949350505050565b604080517ff2deac1744cfd52ddfce21c5ff26abf413f6418dc4a35916e26daefd87e04ab66020820152309181019190915263ffffffff7f0000000000000000000000000000000000000000000000000000000000000000811660608301528616608082015260a081018790526fffffffffffffffffffffffffffffffff80861660c0830152841660e082015260009073ffffffffffffffffffffffffffffffffffffffff7f000000000000000000000000000000000000000000000000000000000000000016906397aba7f990610100016040516020818303038152906040528051906020012085856040518463ffffffff1660e01b8152600401612d4693929190613d8d565b602060405180830381865afa158015612d63573d6000803e3d6000fd5b505050506040513d601f19601f82011682018060405250810190612d879190613d15565b9050612dba7f429672025b2dcb8754ca4b57943f34ac66900598787cb1f1e857291dedbf34d38763ffffffff1683613350565b73ffffffffffffffffffffffffffffffffffffffff811660009081526006602052604090208054600181019091558714612e20576040517f756688fe00000000000000000000000000000000000000000000000000000000815260040160405180910390fd5b60408051808201825263ffffffff881660009081526009602052918220548190612e4a9089613b52565b6fffffffffffffffffffffffffffffffff908116825287811660209283015263ffffffff8a166000818152600784526040908190208551868601805186167001000000000000000000000000000000000291861691909117909155815192835285518416948301949094529251909116918101919091529091507faebc3dd035ce00dd026bd60872bea44979224507aa49434f67ec5f9ae924aaa390606001612999565b6000612c368484604051602001612f1592919091825263ffffffff16602082015260400190565b604080517fffffffffffffffffffffffffffffffffffffffffffffffffffffffffffffffe0818403018152918152815160209283012060009081526002835281812073ffffffffffffffffffffffffffffffffffffffff8716825290925290205460ff1690565b610dd48383604051602001612fa192919091825263ffffffff16602082015260400190565b6040516020818303038152906040528051906020012082613032565b600080600080600085875af1905080610dd4576040517f08c379a000000000000000000000000000000000000000000000000000000000815260206004820152601360248201527f4554485f5452414e534645525f4641494c4544000000000000000000000000006044820152606401610aaa565b600082815260026020908152604080832073ffffffffffffffffffffffffffffffffffffffff8516808552925280832080547fffffffffffffffffffffffffffffffffffffffffffffffffffffffffffffff0016905551909184917f155aaafb6329a2098580462df33ec4b7441b19729b9601c5fc17ae1cf99a8a529190a35050565b610dd483836040516020016130da92919091825263ffffffff16602082015260400190565b6040516020818303038152906040528051906020012082613162565b600082815260026020908152604080832073ffffffffffffffffffffffffffffffffffffffff8516845290915290205460ff16610d1b576040517f962f633300000000000000000000000000000000000000000000000000000000815260048101839052602401610aaa565b600082815260026020908152604080832073ffffffffffffffffffffffffffffffffffffffff8516808552925280832080547fffffffffffffffffffffffffffffffffffffffffffffffffffffffffffffff0016600117905551909184917f2ae6a113c0ed5b78a53413ffbb7679881f11145ccfba4fb92e863dfcd5a1d2f39190a35050565b6000805473ffffffffffffffffffffffffffffffffffffffff83167fffffffffffffffffffffffff0000000000000000000000000000000000000000918216811783556001805490921690915560405190917ffbe19c9b601f5ee90b44c7390f3fa2319eba01762d34ee372aeafd59b25c7f8791a250565b73ffffffffffffffffffffffffffffffffffffffff82166132ad576040517fd92e233d00000000000000000000000000000000000000000000000000000000815260040160405180910390fd5b7fffffffffffffffffffffffff111111111111111111111111111111111111111273ffffffffffffffffffffffffffffffffffffffff8416016132f457610dd48282612fbd565b8273ffffffffffffffffffffffffffffffffffffffff163b600003613345576040517f1eb00b0600000000000000000000000000000000000000000000000000000000815260040160405180910390fd5b610dd48383836133e3565b6040805160208082018690528183018590528251808303840181526060909201835281519181019190912060008181526002835283812073ffffffffffffffffffffffffffffffffffffffff861682529092529190205460ff1661197c576040517f962f633300000000000000000000000000000000000000000000000000000000815260048101829052602401610aaa565b60006040517fa9059cbb00000000000000000000000000000000000000000000000000000000815273ffffffffffffffffffffffffffffffffffffffff84166004820152826024820152602060006044836000895af13d15601f3d116001600051141617169150508061197c576040517f08c379a000000000000000000000000000000000000000000000000000000000815260206004820152600f60248201527f5452414e534645525f4641494c454400000000000000000000000000000000006044820152606401610aaa565b803563ffffffff811681146134c657600080fd5b919050565b6000602082840312156134dd57600080fd5b611f50826134b2565b73ffffffffffffffffffffffffffffffffffffffff811681146122f657600080fd5b60006020828403121561351a57600080fd5b8135613525816134e6565b9392505050565b6000806040838503121561353f57600080fd5b613548836134b2565b91506020830135613558816134e6565b809150509250929050565b60008060006060848603121561357857600080fd5b83359250613588602085016134b2565b91506040840135613598816134e6565b809150509250925092565b60008083601f8401126135b557600080fd5b50813567ffffffffffffffff8111156135cd57600080fd5b6020830191508360208260051b85010111156135e857600080fd5b9250929050565b6000806000806000806060878903121561360857600080fd5b863567ffffffffffffffff8082111561362057600080fd5b61362c8a838b016135a3565b9098509650602089013591508082111561364557600080fd5b6136518a838b016135a3565b9096509450604089013591508082111561366a57600080fd5b5061367789828a016135a3565b979a9699509497509295939492505050565b7f4e487b7100000000000000000000000000000000000000000000000000000000600052604160045260246000fd5b600082601f8301126136c957600080fd5b813567ffffffffffffffff808211156136e4576136e4613689565b604051601f83017fffffffffffffffffffffffffffffffffffffffffffffffffffffffffffffffe0908116603f0116810190828211818310171561372a5761372a613689565b8160405283815286602085880101111561374357600080fd5b836020870160208301376000602085830101528094505050505092915050565b6000806040838503121561377657600080fd5b82359150602083013567ffffffffffffffff81111561379457600080fd5b6137a0858286016136b8565b9150509250929050565b600080604083850312156137bd57600080fd5b823591506020830135613558816134e6565b6000602082840312156137e157600080fd5b5035919050565b600080604083850312156137fb57600080fd5b8235613806816134e6565b946020939093013593505050565b600080600080600060a0868803121561382c57600080fd5b85359450602086013593506040860135925061384a606087016134b2565b949793965091946080013592915050565b60008060006060848603121561387057600080fd5b833561387b816134e6565b9250602084013561388b816134e6565b929592945050506040919091013590565b6000806000606084860312156138b157600080fd5b833592506138c1602085016134b2565b9150604084013567ffffffffffffffff8111156138dd57600080fd5b6138e9868287016136b8565b9150509250925092565b6000806000806080858703121561390957600080fd5b843593506020850135925060408501359150606085013567ffffffffffffffff81111561393557600080fd5b613941878288016136b8565b91505092959194509250565b600080600080600060a0868803121561396557600080fd5b61396e866134b2565b94506020860135935060408601359250606086013591506080860135613993816134e6565b809150509295509295909350565b600080604083850312156139b457600080fd5b50508035926020909101359150565b60008083601f8401126139d557600080fd5b50813567ffffffffffffffff8111156139ed57600080fd5b6020830191508360208285010111156135e857600080fd5b600080600080600060808688031215613a1d57600080fd5b853594506020860135935060408601359250606086013567ffffffffffffffff811115613a4957600080fd5b613a55888289016139c3565b969995985093965092949392505050565b80356fffffffffffffffffffffffffffffffff811681146134c657600080fd5b60008060008060008060a08789031215613a9f57600080fd5b86359550613aaf602088016134b2565b9450613abd60408801613a66565b9350613acb60608801613a66565b9250608087013567ffffffffffffffff811115613ae757600080fd5b61367789828a016139c3565b7f4e487b7100000000000000000000000000000000000000000000000000000000600052601160045260246000fd5b6fffffffffffffffffffffffffffffffff828116828216039080821115613b4b57613b4b613af3565b5092915050565b6fffffffffffffffffffffffffffffffff818116838216028082169190828114613b7e57613b7e613af3565b505092915050565b60006fffffffffffffffffffffffffffffffff80841680613bd0577f4e487b7100000000000000000000000000000000000000000000000000000000600052601260045260246000fd5b92169190910492915050565b600081613beb57613beb613af3565b507fffffffffffffffffffffffffffffffffffffffffffffffffffffffffffffffff0190565b7f4e487b7100000000000000000000000000000000000000000000000000000000600052603260045260246000fd5b6fffffffffffffffffffffffffffffffff818116838216019080821115613b4b57613b4b613af3565b60007fffffffffffffffffffffffffffffffffffffffffffffffffffffffffffffffff8203613c9a57613c9a613af3565b5060010190565b82815260006020604081840152835180604085015260005b81811015613cd557858101830151858201606001528201613cb9565b5060006060828601015260607fffffffffffffffffffffffffffffffffffffffffffffffffffffffffffffffe0601f830116850101925050509392505050565b600060208284031215613d2757600080fd5b8151613525816134e6565b81810381811115611f5357611f53613af3565b60008060408385031215613d5857600080fd5b8251613d63816134e6565b6020840151909250613558816134e6565b600060208284031215613d8657600080fd5b5051919050565b83815260406020820152816040820152818360608301376000818301606090810191909152601f9092017fffffffffffffffffffffffffffffffffffffffffffffffffffffffffffffffe01601019291505056fea26469706673582212208870bda2e647762bd5dfe7300dd2108f21006c5957b4213d8f99eb58591645e364736f6c63430008130033",
  "linkReferences": {},
  "deployedLinkReferences": {}
}