{
  "_format": "hh-sol-artifact-1",
  "contractName": "TransmitManager",
  "sourceName": "contracts/TransmitManager.sol",
  "abi": [
    {
      "inputs": [
        {
          "internalType": "address",
          "name": "owner_",
          "type": "address"
        },
        {
          "internalType": "uint32",
          "name": "chainSlug_",
          "type": "uint32"
        },
        {
          "internalType": "contract ISocket",
          "name": "socket_",
          "type": "address"
        },
        {
          "internalType": "contract ISignatureVerifier",
          "name": "signatureVerifier_",
          "type": "address"
        }
      ],
      "stateMutability": "nonpayable",
      "type": "constructor"
    },
    {
      "inputs": [],
      "name": "InvalidNonce",
      "type": "error"
    },
    {
      "inputs": [],
      "name": "InvalidTokenAddress",
      "type": "error"
    },
    {
      "inputs": [
        {
          "internalType": "bytes32",
          "name": "role",
          "type": "bytes32"
        }
      ],
      "name": "NoPermit",
      "type": "error"
    },
    {
      "inputs": [],
      "name": "OnlyExecutionManager",
      "type": "error"
    },
    {
      "inputs": [],
      "name": "OnlyNominee",
      "type": "error"
    },
    {
      "inputs": [],
      "name": "OnlyOwner",
      "type": "error"
    },
    {
      "inputs": [],
      "name": "UnequalArrayLengths",
      "type": "error"
    },
    {
      "inputs": [],
      "name": "ZeroAddress",
      "type": "error"
    },
    {
      "anonymous": false,
      "inputs": [
        {
          "indexed": true,
          "internalType": "address",
          "name": "claimer",
          "type": "address"
        }
      ],
      "name": "OwnerClaimed",
      "type": "event"
    },
    {
      "anonymous": false,
      "inputs": [
        {
          "indexed": true,
          "internalType": "address",
          "name": "nominee",
          "type": "address"
        }
      ],
      "name": "OwnerNominated",
      "type": "event"
    },
    {
      "anonymous": false,
      "inputs": [
        {
          "indexed": true,
          "internalType": "bytes32",
          "name": "role",
          "type": "bytes32"
        },
        {
          "indexed": true,
          "internalType": "address",
          "name": "grantee",
          "type": "address"
        }
      ],
      "name": "RoleGranted",
      "type": "event"
    },
    {
      "anonymous": false,
      "inputs": [
        {
          "indexed": true,
          "internalType": "bytes32",
          "name": "role",
          "type": "bytes32"
        },
        {
          "indexed": true,
          "internalType": "address",
          "name": "revokee",
          "type": "address"
        }
      ],
      "name": "RoleRevoked",
      "type": "event"
    },
    {
      "anonymous": false,
      "inputs": [
        {
          "indexed": false,
          "internalType": "address",
          "name": "signatureVerifier",
          "type": "address"
        }
      ],
      "name": "SignatureVerifierSet",
      "type": "event"
    },
    {
      "anonymous": false,
      "inputs": [
        {
          "indexed": false,
          "internalType": "uint256",
          "name": "dstChainSlug",
          "type": "uint256"
        },
        {
          "indexed": false,
          "internalType": "uint256",
          "name": "transmissionFees",
          "type": "uint256"
        }
      ],
      "name": "TransmissionFeesSet",
      "type": "event"
    },
    {
      "inputs": [],
      "name": "chainSlug",
      "outputs": [
        {
          "internalType": "uint32",
          "name": "",
          "type": "uint32"
        }
      ],
      "stateMutability": "view",
      "type": "function"
    },
    {
      "inputs": [
        {
          "internalType": "uint32",
          "name": "siblingSlug_",
          "type": "uint32"
        },
        {
          "internalType": "bytes32",
          "name": "digest_",
          "type": "bytes32"
        },
        {
          "internalType": "bytes",
          "name": "signature_",
          "type": "bytes"
        }
      ],
      "name": "checkTransmitter",
      "outputs": [
        {
          "internalType": "address",
          "name": "",
          "type": "address"
        },
        {
          "internalType": "bool",
          "name": "",
          "type": "bool"
        }
      ],
      "stateMutability": "view",
      "type": "function"
    },
    {
      "inputs": [],
      "name": "claimOwner",
      "outputs": [],
      "stateMutability": "nonpayable",
      "type": "function"
    },
    {
      "inputs": [
        {
          "internalType": "bytes32[]",
          "name": "roleNames_",
          "type": "bytes32[]"
        },
        {
          "internalType": "uint32[]",
          "name": "slugs_",
          "type": "uint32[]"
        },
        {
          "internalType": "address[]",
          "name": "grantees_",
          "type": "address[]"
        }
      ],
      "name": "grantBatchRole",
      "outputs": [],
      "stateMutability": "nonpayable",
      "type": "function"
    },
    {
      "inputs": [
        {
          "internalType": "bytes32",
          "name": "role_",
          "type": "bytes32"
        },
        {
          "internalType": "address",
          "name": "grantee_",
          "type": "address"
        }
      ],
      "name": "grantRole",
      "outputs": [],
      "stateMutability": "nonpayable",
      "type": "function"
    },
    {
      "inputs": [
        {
          "internalType": "bytes32",
          "name": "roleName_",
          "type": "bytes32"
        },
        {
          "internalType": "uint32",
          "name": "chainSlug_",
          "type": "uint32"
        },
        {
          "internalType": "address",
          "name": "grantee_",
          "type": "address"
        }
      ],
      "name": "grantRoleWithSlug",
      "outputs": [],
      "stateMutability": "nonpayable",
      "type": "function"
    },
    {
      "inputs": [
        {
          "internalType": "bytes32",
          "name": "role_",
          "type": "bytes32"
        },
        {
          "internalType": "address",
          "name": "address_",
          "type": "address"
        }
      ],
      "name": "hasRole",
      "outputs": [
        {
          "internalType": "bool",
          "name": "",
          "type": "bool"
        }
      ],
      "stateMutability": "view",
      "type": "function"
    },
    {
      "inputs": [
        {
          "internalType": "bytes32",
          "name": "roleName_",
          "type": "bytes32"
        },
        {
          "internalType": "uint32",
          "name": "chainSlug_",
          "type": "uint32"
        },
        {
          "internalType": "address",
          "name": "address_",
          "type": "address"
        }
      ],
      "name": "hasRoleWithSlug",
      "outputs": [
        {
          "internalType": "bool",
          "name": "",
          "type": "bool"
        }
      ],
      "stateMutability": "view",
      "type": "function"
    },
    {
      "inputs": [
        {
          "internalType": "address",
          "name": "",
          "type": "address"
        }
      ],
      "name": "nextNonce",
      "outputs": [
        {
          "internalType": "uint256",
          "name": "",
          "type": "uint256"
        }
      ],
      "stateMutability": "view",
      "type": "function"
    },
    {
      "inputs": [
        {
          "internalType": "address",
          "name": "nominee_",
          "type": "address"
        }
      ],
      "name": "nominateOwner",
      "outputs": [],
      "stateMutability": "nonpayable",
      "type": "function"
    },
    {
      "inputs": [],
      "name": "nominee",
      "outputs": [
        {
          "internalType": "address",
          "name": "",
          "type": "address"
        }
      ],
      "stateMutability": "view",
      "type": "function"
    },
    {
      "inputs": [],
      "name": "owner",
      "outputs": [
        {
          "internalType": "address",
          "name": "",
          "type": "address"
        }
      ],
      "stateMutability": "view",
      "type": "function"
    },
    {
      "inputs": [
        {
          "internalType": "uint32",
          "name": "",
          "type": "uint32"
        }
      ],
      "name": "receiveFees",
      "outputs": [],
      "stateMutability": "payable",
      "type": "function"
    },
    {
      "inputs": [
        {
          "internalType": "address",
          "name": "token_",
          "type": "address"
        },
        {
          "internalType": "address",
          "name": "rescueTo_",
          "type": "address"
        },
        {
          "internalType": "uint256",
          "name": "amount_",
          "type": "uint256"
        }
      ],
      "name": "rescueFunds",
      "outputs": [],
      "stateMutability": "nonpayable",
      "type": "function"
    },
    {
      "inputs": [
        {
          "internalType": "bytes32[]",
          "name": "roleNames_",
          "type": "bytes32[]"
        },
        {
          "internalType": "uint32[]",
          "name": "slugs_",
          "type": "uint32[]"
        },
        {
          "internalType": "address[]",
          "name": "grantees_",
          "type": "address[]"
        }
      ],
      "name": "revokeBatchRole",
      "outputs": [],
      "stateMutability": "nonpayable",
      "type": "function"
    },
    {
      "inputs": [
        {
          "internalType": "bytes32",
          "name": "role_",
          "type": "bytes32"
        },
        {
          "internalType": "address",
          "name": "revokee_",
          "type": "address"
        }
      ],
      "name": "revokeRole",
      "outputs": [],
      "stateMutability": "nonpayable",
      "type": "function"
    },
    {
      "inputs": [
        {
          "internalType": "bytes32",
          "name": "roleName_",
          "type": "bytes32"
        },
        {
          "internalType": "uint32",
          "name": "chainSlug_",
          "type": "uint32"
        },
        {
          "internalType": "address",
          "name": "grantee_",
          "type": "address"
        }
      ],
      "name": "revokeRoleWithSlug",
      "outputs": [],
      "stateMutability": "nonpayable",
      "type": "function"
    },
    {
      "inputs": [
        {
          "internalType": "address",
          "name": "signatureVerifier_",
          "type": "address"
        }
      ],
      "name": "setSignatureVerifier",
      "outputs": [],
      "stateMutability": "nonpayable",
      "type": "function"
    },
    {
      "inputs": [
        {
          "internalType": "uint256",
          "name": "nonce_",
          "type": "uint256"
        },
        {
          "internalType": "uint32",
          "name": "dstChainSlug_",
          "type": "uint32"
        },
        {
          "internalType": "uint128",
          "name": "transmissionFees_",
          "type": "uint128"
        },
        {
          "internalType": "bytes",
          "name": "signature_",
          "type": "bytes"
        }
      ],
      "name": "setTransmissionFees",
      "outputs": [],
      "stateMutability": "nonpayable",
      "type": "function"
    },
    {
      "inputs": [],
      "name": "signatureVerifier__",
      "outputs": [
        {
          "internalType": "contract ISignatureVerifier",
          "name": "",
          "type": "address"
        }
      ],
      "stateMutability": "view",
      "type": "function"
    },
    {
      "inputs": [],
      "name": "socket__",
      "outputs": [
        {
          "internalType": "contract ISocket",
          "name": "",
          "type": "address"
        }
      ],
      "stateMutability": "view",
      "type": "function"
    },
    {
      "inputs": [
        {
          "internalType": "address",
          "name": "withdrawTo_",
          "type": "address"
        }
      ],
      "name": "withdrawFees",
      "outputs": [],
      "stateMutability": "nonpayable",
      "type": "function"
    }
  ],
  "bytecode": "0x60c06040523480156200001157600080fd5b5060405162001da738038062001da78339810160408190526200003491620000e4565b838080620000428162000078565b50505063ffffffff92909216608052600380546001600160a01b0319166001600160a01b039384161790551660a0525062000154565b600080546001600160a01b0383166001600160a01b0319918216811783556001805490921690915560405190917ffbe19c9b601f5ee90b44c7390f3fa2319eba01762d34ee372aeafd59b25c7f8791a250565b6001600160a01b0381168114620000e157600080fd5b50565b60008060008060808587031215620000fb57600080fd5b84516200010881620000cb565b602086015190945063ffffffff811681146200012357600080fd5b60408601519093506200013681620000cb565b60608601519092506200014981620000cb565b939692955090935050565b60805160a051611c186200018f6000396000818161045201528181610dbf0152610f800152600081816103bd0152610c3e0152611c186000f3fe6080604052600436106101755760003560e01c80637348746b116100cb578063b7ee4eb91161007f578063d5b8da7311610059578063d5b8da7314610494578063e08a6605146104c1578063ecb97484146104e157600080fd5b8063b7ee4eb9146103f4578063c6a261d214610440578063d547741f1461047457600080fd5b806391d14854116100b057806391d1485414610368578063a9a541b214610398578063b349ba65146103ab57600080fd5b80637348746b1461031d5780638da5cb5b1461033d57600080fd5b80632e7eb2581161012d57806343fa97ca1161010757806343fa97ca146102bd5780635b94db27146102dd5780636ccae054146102fd57600080fd5b80632e7eb258146102685780632f2ff15d146102885780633bd1adec146102a857600080fd5b80631ba8e4841161015e5780631ba8e484146101dc5780631e867311146101fc57806320f99c0a1461021c57600080fd5b80630cd55abf1461017a578063164e68de146101ba575b600080fd5b34801561018657600080fd5b506101a7610195366004611838565b60046020526000908152604090205481565b6040519081526020015b60405180910390f35b3480156101c657600080fd5b506101da6101d5366004611838565b610501565b005b3480156101e857600080fd5b506101da6101f736600461186e565b6105ee565b34801561020857600080fd5b506101da6102173660046118fa565b61064f565b34801561022857600080fd5b5060015473ffffffffffffffffffffffffffffffffffffffff165b60405173ffffffffffffffffffffffffffffffffffffffff90911681526020016101b1565b34801561027457600080fd5b506101da61028336600461186e565b6107f5565b34801561029457600080fd5b506101da6102a3366004611994565b610851565b3480156102b457600080fd5b506101da6108ac565b3480156102c957600080fd5b506101da6102d83660046118fa565b610908565b3480156102e957600080fd5b506101da6102f8366004611838565b610aa4565b34801561030957600080fd5b506101da6103183660046119c4565b610b64565b34801561032957600080fd5b506101da610338366004611a47565b610c02565b34801561034957600080fd5b5060005473ffffffffffffffffffffffffffffffffffffffff16610243565b34801561037457600080fd5b50610388610383366004611994565b610f43565b60405190151581526020016101b1565b6101da6103a6366004611acd565b610f7e565b3480156103b757600080fd5b506103df7f000000000000000000000000000000000000000000000000000000000000000081565b60405163ffffffff90911681526020016101b1565b34801561040057600080fd5b5061041461040f366004611ae8565b611073565b6040805173ffffffffffffffffffffffffffffffffffffffff90931683529015156020830152016101b1565b34801561044c57600080fd5b506102437f000000000000000000000000000000000000000000000000000000000000000081565b34801561048057600080fd5b506101da61048f366004611994565b61114f565b3480156104a057600080fd5b506003546102439073ffffffffffffffffffffffffffffffffffffffff1681565b3480156104cd57600080fd5b506101da6104dc366004611838565b6111aa565b3480156104ed57600080fd5b506103886104fc36600461186e565b6112b1565b3360009081527f9b7ec560033b826bc253a5f1a8b5e6a61c8d2a6e8731a9872b68296f6024c5ac60205260409020547f5d8e12c39142ff96d79d04d15d1ba1269e4fe57bb9d26f43523628b34ba108ec9060ff16610593576040517f962f6333000000000000000000000000000000000000000000000000000000008152600481018290526024015b60405180910390fd5b73ffffffffffffffffffffffffffffffffffffffff82166105e0576040517fd92e233d00000000000000000000000000000000000000000000000000000000815260040160405180910390fd5b6105ea82476112c6565b5050565b60005473ffffffffffffffffffffffffffffffffffffffff16331461063f576040517f5fc483c500000000000000000000000000000000000000000000000000000000815260040160405180910390fd5b61064a83838361133b565b505050565b60005473ffffffffffffffffffffffffffffffffffffffff1633146106a0576040517f5fc483c500000000000000000000000000000000000000000000000000000000815260040160405180910390fd5b84811415806106af5750848314155b156106e6576040517f11e86f7300000000000000000000000000000000000000000000000000000000815260040160405180910390fd5b8460005b818110156107eb57600086868381811061070657610706611b42565b905060200201602081019061071b9190611acd565b63ffffffff16111561079b5761079688888381811061073c5761073c611b42565b9050602002013587878481811061075557610755611b42565b905060200201602081019061076a9190611acd565b86868581811061077c5761077c611b42565b90506020020160208101906107919190611838565b61133b565b6107e3565b6107e38888838181106107b0576107b0611b42565b905060200201358585848181106107c9576107c9611b42565b90506020020160208101906107de9190611838565b611378565b6001016106ea565b5050505050505050565b60005473ffffffffffffffffffffffffffffffffffffffff163314610846576040517f5fc483c500000000000000000000000000000000000000000000000000000000815260040160405180910390fd5b61064a8383836113fb565b60005473ffffffffffffffffffffffffffffffffffffffff1633146108a2576040517f5fc483c500000000000000000000000000000000000000000000000000000000815260040160405180910390fd5b6105ea8282611438565b60015473ffffffffffffffffffffffffffffffffffffffff1633146108fd576040517f7c91ccdd00000000000000000000000000000000000000000000000000000000815260040160405180910390fd5b610906336114be565b565b60005473ffffffffffffffffffffffffffffffffffffffff163314610959576040517f5fc483c500000000000000000000000000000000000000000000000000000000815260040160405180910390fd5b84811415806109685750848314155b1561099f576040517f11e86f7300000000000000000000000000000000000000000000000000000000815260040160405180910390fd5b8460005b818110156107eb5760008686838181106109bf576109bf611b42565b90506020020160208101906109d49190611acd565b63ffffffff161115610a5457610a4f8888838181106109f5576109f5611b42565b90506020020135878784818110610a0e57610a0e611b42565b9050602002016020810190610a239190611acd565b868685818110610a3557610a35611b42565b9050602002016020810190610a4a9190611838565b6113fb565b610a9c565b610a9c888883818110610a6957610a69611b42565b90506020020135858584818110610a8257610a82611b42565b9050602002016020810190610a979190611838565b611438565b6001016109a3565b60005473ffffffffffffffffffffffffffffffffffffffff163314610af5576040517f5fc483c500000000000000000000000000000000000000000000000000000000815260040160405180910390fd5b600180547fffffffffffffffffffffffff00000000000000000000000000000000000000001673ffffffffffffffffffffffffffffffffffffffff83169081179091556040517f906a1c6bd7e3091ea86693dd029a831c19049ce77f1dce2ce0bab1cacbabce2290600090a250565b3360009081527f4933f7bec34ee32db93e9f5cd7e0519781b395282211f4f6857489046ea38f7660205260409020547fc4c453d647953c0fd35db5a34ee76e60fb4abc3a8fb891a25936b70b38f292539060ff16610bf1576040517f962f63330000000000000000000000000000000000000000000000000000000081526004810182905260240161058a565b610bfc848484611536565b50505050565b600354604080517ff2deac1744cfd52ddfce21c5ff26abf413f6418dc4a35916e26daefd87e04ab66020820152309181019190915263ffffffff7f0000000000000000000000000000000000000000000000000000000000000000811660608301528616608082015260a081018790526fffffffffffffffffffffffffffffffff851660c082015260009173ffffffffffffffffffffffffffffffffffffffff16906397aba7f99060e0016040516020818303038152906040528051906020012085856040518463ffffffff1660e01b8152600401610ce393929190611b71565b602060405180830381865afa158015610d00573d6000803e3d6000fd5b505050506040513d601f19601f82011682018060405250810190610d249190611bc5565b9050610d577f429672025b2dcb8754ca4b57943f34ac66900598787cb1f1e857291dedbf34d38663ffffffff1683611626565b73ffffffffffffffffffffffffffffffffffffffff811660009081526004602052604090208054600181019091558614610dbd576040517f756688fe00000000000000000000000000000000000000000000000000000000815260040160405180910390fd5b7f000000000000000000000000000000000000000000000000000000000000000073ffffffffffffffffffffffffffffffffffffffff16626186f76040518163ffffffff1660e01b8152600401602060405180830381865afa158015610e27573d6000803e3d6000fd5b505050506040513d601f19601f82011682018060405250810190610e4b9190611bc5565b6040517f3b13d3f100000000000000000000000000000000000000000000000000000000815263ffffffff871660048201526fffffffffffffffffffffffffffffffff8616602482015273ffffffffffffffffffffffffffffffffffffffff9190911690633b13d3f190604401600060405180830381600087803b158015610ed257600080fd5b505af1158015610ee6573d6000803e3d6000fd5b50506040805163ffffffff891681526fffffffffffffffffffffffffffffffff881660208201527f0c554cd460714597ac16fee554411cb5345edd9c8e3a07d8e6fbcb513bbe9bae935001905060405180910390a1505050505050565b600082815260026020908152604080832073ffffffffffffffffffffffffffffffffffffffff8516845290915281205460ff165b9392505050565b7f000000000000000000000000000000000000000000000000000000000000000073ffffffffffffffffffffffffffffffffffffffff16626186f76040518163ffffffff1660e01b8152600401602060405180830381865afa158015610fe8573d6000803e3d6000fd5b505050506040513d601f19601f8201168201806040525081019061100c9190611bc5565b73ffffffffffffffffffffffffffffffffffffffff163373ffffffffffffffffffffffffffffffffffffffff1614611070576040517f03c377c500000000000000000000000000000000000000000000000000000000815260040160405180910390fd5b50565b6003546040517f97aba7f90000000000000000000000000000000000000000000000000000000081526000918291829173ffffffffffffffffffffffffffffffffffffffff16906397aba7f9906110d290899089908990600401611b71565b602060405180830381865afa1580156110ef573d6000803e3d6000fd5b505050506040513d601f19601f820116820180604052508101906111139190611bc5565b9050806111417fd6a0f92c822ccba0fa91b30f08f085e68bc8eb3bb140aa16f8dc33ea47eb6cf289846116b9565b925092505094509492505050565b60005473ffffffffffffffffffffffffffffffffffffffff1633146111a0576040517f5fc483c500000000000000000000000000000000000000000000000000000000815260040160405180910390fd5b6105ea8282611378565b3360009081527f0f4a237b7f9e071a612ddea08a06576f25cc7dffe13a46307ee64fe2318b3c3e60205260409020547f71840dc4906352362b0cdaf79870196c8e42acafade72d5d5a6d59291253ceb19060ff16611237576040517f962f63330000000000000000000000000000000000000000000000000000000081526004810182905260240161058a565b600380547fffffffffffffffffffffffff00000000000000000000000000000000000000001673ffffffffffffffffffffffffffffffffffffffff84169081179091556040519081527fcb341def955dbf73920141be056568edde30b1dbc56a29396945e5596a03c68c9060200160405180910390a15050565b60006112be8484846116b9565b949350505050565b600080600080600085875af190508061064a576040517f08c379a000000000000000000000000000000000000000000000000000000000815260206004820152601360248201527f4554485f5452414e534645525f4641494c454400000000000000000000000000604482015260640161058a565b61064a838360405160200161136092919091825263ffffffff16602082015260400190565b60405160208183030381529060405280519060200120825b600082815260026020908152604080832073ffffffffffffffffffffffffffffffffffffffff8516808552925280832080547fffffffffffffffffffffffffffffffffffffffffffffffffffffffffffffff0016905551909184917f155aaafb6329a2098580462df33ec4b7441b19729b9601c5fc17ae1cf99a8a529190a35050565b61064a838360405160200161142092919091825263ffffffff16602082015260400190565b60405160208183030381529060405280519060200120825b600082815260026020908152604080832073ffffffffffffffffffffffffffffffffffffffff8516808552925280832080547fffffffffffffffffffffffffffffffffffffffffffffffffffffffffffffff0016600117905551909184917f2ae6a113c0ed5b78a53413ffbb7679881f11145ccfba4fb92e863dfcd5a1d2f39190a35050565b6000805473ffffffffffffffffffffffffffffffffffffffff83167fffffffffffffffffffffffff0000000000000000000000000000000000000000918216811783556001805490921690915560405190917ffbe19c9b601f5ee90b44c7390f3fa2319eba01762d34ee372aeafd59b25c7f8791a250565b73ffffffffffffffffffffffffffffffffffffffff8216611583576040517fd92e233d00000000000000000000000000000000000000000000000000000000815260040160405180910390fd5b7fffffffffffffffffffffffff111111111111111111111111111111111111111273ffffffffffffffffffffffffffffffffffffffff8416016115ca5761064a82826112c6565b8273ffffffffffffffffffffffffffffffffffffffff163b60000361161b576040517f1eb00b0600000000000000000000000000000000000000000000000000000000815260040160405180910390fd5b61064a838383611747565b6040805160208082018690528183018590528251808303840181526060909201835281519181019190912060008181526002835283812073ffffffffffffffffffffffffffffffffffffffff861682529092529190205460ff16610bfc576040517f962f63330000000000000000000000000000000000000000000000000000000081526004810182905260240161058a565b60006112be84846040516020016116e092919091825263ffffffff16602082015260400190565b604080517fffffffffffffffffffffffffffffffffffffffffffffffffffffffffffffffe0818403018152918152815160209283012060009081526002835281812073ffffffffffffffffffffffffffffffffffffffff8716825290925290205460ff1690565b60006040517fa9059cbb00000000000000000000000000000000000000000000000000000000815273ffffffffffffffffffffffffffffffffffffffff84166004820152826024820152602060006044836000895af13d15601f3d1160016000511416171691505080610bfc576040517f08c379a000000000000000000000000000000000000000000000000000000000815260206004820152600f60248201527f5452414e534645525f4641494c45440000000000000000000000000000000000604482015260640161058a565b73ffffffffffffffffffffffffffffffffffffffff8116811461107057600080fd5b60006020828403121561184a57600080fd5b8135610f7781611816565b803563ffffffff8116811461186957600080fd5b919050565b60008060006060848603121561188357600080fd5b8335925061189360208501611855565b915060408401356118a381611816565b809150509250925092565b60008083601f8401126118c057600080fd5b50813567ffffffffffffffff8111156118d857600080fd5b6020830191508360208260051b85010111156118f357600080fd5b9250929050565b6000806000806000806060878903121561191357600080fd5b863567ffffffffffffffff8082111561192b57600080fd5b6119378a838b016118ae565b9098509650602089013591508082111561195057600080fd5b61195c8a838b016118ae565b9096509450604089013591508082111561197557600080fd5b5061198289828a016118ae565b979a9699509497509295939492505050565b600080604083850312156119a757600080fd5b8235915060208301356119b981611816565b809150509250929050565b6000806000606084860312156119d957600080fd5b83356119e481611816565b925060208401356119f481611816565b929592945050506040919091013590565b60008083601f840112611a1757600080fd5b50813567ffffffffffffffff811115611a2f57600080fd5b6020830191508360208285010111156118f357600080fd5b600080600080600060808688031215611a5f57600080fd5b85359450611a6f60208701611855565b935060408601356fffffffffffffffffffffffffffffffff81168114611a9457600080fd5b9250606086013567ffffffffffffffff811115611ab057600080fd5b611abc88828901611a05565b969995985093965092949392505050565b600060208284031215611adf57600080fd5b610f7782611855565b60008060008060608587031215611afe57600080fd5b611b0785611855565b935060208501359250604085013567ffffffffffffffff811115611b2a57600080fd5b611b3687828801611a05565b95989497509550505050565b7f4e487b7100000000000000000000000000000000000000000000000000000000600052603260045260246000fd5b83815260406020820152816040820152818360608301376000818301606090810191909152601f9092017fffffffffffffffffffffffffffffffffffffffffffffffffffffffffffffffe016010192915050565b600060208284031215611bd757600080fd5b8151610f778161181656fea2646970667358221220518b576347c95cf712191ccf3bcf075f6991d174bde6a1b02f3f0dd0b075b61064736f6c63430008130033",
  "linkReferences": {},
  "deployedLinkReferences": {}
}