{
  "_format": "hh-sol-artifact-1",
  "contractName": "Socket",
  "sourceName": "contracts/socket/Socket.sol",
  "abi": [
    {
      "inputs": [
        {
          "internalType": "uint32",
          "name": "chainSlug_",
          "type": "uint32"
        },
        {
          "internalType": "address",
          "name": "hasher_",
          "type": "address"
        },
        {
          "internalType": "address",
          "name": "capacitorFactory_",
          "type": "address"
        },
        {
          "internalType": "address",
          "name": "owner_",
          "type": "address"
        },
        {
          "internalType": "string",
          "name": "version_",
          "type": "string"
        }
      ],
      "stateMutability": "nonpayable",
      "type": "constructor"
    },
    {
      "inputs": [],
      "name": "ErrInSourceValidation",
      "type": "error"
    },
    {
      "inputs": [],
      "name": "InvalidCapacitorAddress",
      "type": "error"
    },
    {
      "inputs": [],
      "name": "InvalidConnection",
      "type": "error"
    },
    {
      "inputs": [],
      "name": "InvalidPacketId",
      "type": "error"
    },
    {
      "inputs": [],
      "name": "InvalidProof",
      "type": "error"
    },
    {
      "inputs": [],
      "name": "InvalidTokenAddress",
      "type": "error"
    },
    {
      "inputs": [],
      "name": "InvalidTransmitter",
      "type": "error"
    },
    {
      "inputs": [],
      "name": "LowGasLimit",
      "type": "error"
    },
    {
      "inputs": [],
      "name": "MessageAlreadyExecuted",
      "type": "error"
    },
    {
      "inputs": [
        {
          "internalType": "bytes32",
          "name": "role",
          "type": "bytes32"
        }
      ],
      "name": "NoPermit",
      "type": "error"
    },
    {
      "inputs": [],
      "name": "NotExecutor",
      "type": "error"
    },
    {
      "inputs": [],
      "name": "OnlyNominee",
      "type": "error"
    },
    {
      "inputs": [],
      "name": "OnlyOwner",
      "type": "error"
    },
    {
      "inputs": [],
      "name": "PacketNotProposed",
      "type": "error"
    },
    {
      "inputs": [],
      "name": "PlugDisconnected",
      "type": "error"
    },
    {
      "inputs": [],
      "name": "SwitchboardExists",
      "type": "error"
    },
    {
      "inputs": [],
      "name": "UnequalArrayLengths",
      "type": "error"
    },
    {
      "inputs": [],
      "name": "VerificationFailed",
      "type": "error"
    },
    {
      "inputs": [],
      "name": "ZeroAddress",
      "type": "error"
    },
    {
      "anonymous": false,
      "inputs": [
        {
          "indexed": false,
          "internalType": "address",
          "name": "capacitorFactory",
          "type": "address"
        }
      ],
      "name": "CapacitorFactorySet",
      "type": "event"
    },
    {
      "anonymous": false,
      "inputs": [
        {
          "indexed": false,
          "internalType": "address",
          "name": "executionManager",
          "type": "address"
        }
      ],
      "name": "ExecutionManagerSet",
      "type": "event"
    },
    {
      "anonymous": false,
      "inputs": [
        {
          "indexed": false,
          "internalType": "bytes32",
          "name": "msgId",
          "type": "bytes32"
        }
      ],
      "name": "ExecutionSuccess",
      "type": "event"
    },
    {
      "anonymous": false,
      "inputs": [
        {
          "indexed": false,
          "internalType": "address",
          "name": "hasher",
          "type": "address"
        }
      ],
      "name": "HasherSet",
      "type": "event"
    },
    {
      "anonymous": false,
      "inputs": [
        {
          "indexed": false,
          "internalType": "uint32",
          "name": "localChainSlug",
          "type": "uint32"
        },
        {
          "indexed": false,
          "internalType": "address",
          "name": "localPlug",
          "type": "address"
        },
        {
          "indexed": false,
          "internalType": "uint32",
          "name": "dstChainSlug",
          "type": "uint32"
        },
        {
          "indexed": false,
          "internalType": "address",
          "name": "dstPlug",
          "type": "address"
        },
        {
          "indexed": false,
          "internalType": "bytes32",
          "name": "msgId",
          "type": "bytes32"
        },
        {
          "indexed": false,
          "internalType": "uint256",
          "name": "minMsgGasLimit",
          "type": "uint256"
        },
        {
          "indexed": false,
          "internalType": "bytes32",
          "name": "executionParams",
          "type": "bytes32"
        },
        {
          "indexed": false,
          "internalType": "bytes32",
          "name": "transmissionParams",
          "type": "bytes32"
        },
        {
          "indexed": false,
          "internalType": "bytes",
          "name": "payload",
          "type": "bytes"
        },
        {
          "components": [
            {
              "internalType": "uint128",
              "name": "transmissionFees",
              "type": "uint128"
            },
            {
              "internalType": "uint128",
              "name": "executionFee",
              "type": "uint128"
            },
            {
              "internalType": "uint128",
              "name": "switchboardFees",
              "type": "uint128"
            }
          ],
          "indexed": false,
          "internalType": "struct ISocket.Fees",
          "name": "fees",
          "type": "tuple"
        }
      ],
      "name": "MessageOutbound",
      "type": "event"
    },
    {
      "anonymous": false,
      "inputs": [
        {
          "indexed": true,
          "internalType": "address",
          "name": "claimer",
          "type": "address"
        }
      ],
      "name": "OwnerClaimed",
      "type": "event"
    },
    {
      "anonymous": false,
      "inputs": [
        {
          "indexed": true,
          "internalType": "address",
          "name": "nominee",
          "type": "address"
        }
      ],
      "name": "OwnerNominated",
      "type": "event"
    },
    {
      "anonymous": false,
      "inputs": [
        {
          "indexed": true,
          "internalType": "address",
          "name": "transmitter",
          "type": "address"
        },
        {
          "indexed": true,
          "internalType": "bytes32",
          "name": "packetId",
          "type": "bytes32"
        },
        {
          "indexed": false,
          "internalType": "uint256",
          "name": "proposalCount",
          "type": "uint256"
        },
        {
          "indexed": false,
          "internalType": "bytes32",
          "name": "root",
          "type": "bytes32"
        },
        {
          "indexed": false,
          "internalType": "address",
          "name": "switchboard",
          "type": "address"
        }
      ],
      "name": "PacketProposed",
      "type": "event"
    },
    {
      "anonymous": false,
      "inputs": [
        {
          "indexed": false,
          "internalType": "address",
          "name": "plug",
          "type": "address"
        },
        {
          "indexed": false,
          "internalType": "uint32",
          "name": "siblingChainSlug",
          "type": "uint32"
        },
        {
          "indexed": false,
          "internalType": "address",
          "name": "siblingPlug",
          "type": "address"
        },
        {
          "indexed": false,
          "internalType": "address",
          "name": "inboundSwitchboard",
          "type": "address"
        },
        {
          "indexed": false,
          "internalType": "address",
          "name": "outboundSwitchboard",
          "type": "address"
        },
        {
          "indexed": false,
          "internalType": "address",
          "name": "capacitor",
          "type": "address"
        },
        {
          "indexed": false,
          "internalType": "address",
          "name": "decapacitor",
          "type": "address"
        }
      ],
      "name": "PlugConnected",
      "type": "event"
    },
    {
      "anonymous": false,
      "inputs": [
        {
          "indexed": true,
          "internalType": "bytes32",
          "name": "role",
          "type": "bytes32"
        },
        {
          "indexed": true,
          "internalType": "address",
          "name": "grantee",
          "type": "address"
        }
      ],
      "name": "RoleGranted",
      "type": "event"
    },
    {
      "anonymous": false,
      "inputs": [
        {
          "indexed": true,
          "internalType": "bytes32",
          "name": "role",
          "type": "bytes32"
        },
        {
          "indexed": true,
          "internalType": "address",
          "name": "revokee",
          "type": "address"
        }
      ],
      "name": "RoleRevoked",
      "type": "event"
    },
    {
      "anonymous": false,
      "inputs": [
        {
          "indexed": true,
          "internalType": "address",
          "name": "transmitter",
          "type": "address"
        },
        {
          "indexed": true,
          "internalType": "bytes32",
          "name": "packetId",
          "type": "bytes32"
        },
        {
          "indexed": false,
          "internalType": "uint256",
          "name": "batchSize",
          "type": "uint256"
        },
        {
          "indexed": false,
          "internalType": "bytes32",
          "name": "root",
          "type": "bytes32"
        },
        {
          "indexed": false,
          "internalType": "bytes",
          "name": "signature",
          "type": "bytes"
        }
      ],
      "name": "Sealed",
      "type": "event"
    },
    {
      "anonymous": false,
      "inputs": [
        {
          "indexed": false,
          "internalType": "address",
          "name": "switchboard",
          "type": "address"
        },
        {
          "indexed": false,
          "internalType": "uint32",
          "name": "siblingChainSlug",
          "type": "uint32"
        },
        {
          "indexed": false,
          "internalType": "address",
          "name": "siblingSwitchboard",
          "type": "address"
        }
      ],
      "name": "SiblingSwitchboardUpdated",
      "type": "event"
    },
    {
      "anonymous": false,
      "inputs": [
        {
          "indexed": false,
          "internalType": "address",
          "name": "switchboard",
          "type": "address"
        },
        {
          "indexed": false,
          "internalType": "uint32",
          "name": "siblingChainSlug",
          "type": "uint32"
        },
        {
          "indexed": false,
          "internalType": "address",
          "name": "capacitor",
          "type": "address"
        },
        {
          "indexed": false,
          "internalType": "address",
          "name": "decapacitor",
          "type": "address"
        },
        {
          "indexed": false,
          "internalType": "uint256",
          "name": "maxPacketLength",
          "type": "uint256"
        },
        {
          "indexed": false,
          "internalType": "uint256",
          "name": "capacitorType",
          "type": "uint256"
        }
      ],
      "name": "SwitchboardAdded",
      "type": "event"
    },
    {
      "anonymous": false,
      "inputs": [
        {
          "indexed": false,
          "internalType": "address",
          "name": "transmitManager",
          "type": "address"
        }
      ],
      "name": "TransmitManagerSet",
      "type": "event"
    },
    {
      "inputs": [],
      "name": "capacitorFactory__",
      "outputs": [
        {
          "internalType": "contract ICapacitorFactory",
          "name": "",
          "type": "address"
        }
      ],
      "stateMutability": "view",
      "type": "function"
    },
    {
      "inputs": [
        {
          "internalType": "address",
          "name": "",
          "type": "address"
        }
      ],
      "name": "capacitorToSlug",
      "outputs": [
        {
          "internalType": "uint32",
          "name": "",
          "type": "uint32"
        }
      ],
      "stateMutability": "view",
      "type": "function"
    },
    {
      "inputs": [
        {
          "internalType": "address",
          "name": "",
          "type": "address"
        },
        {
          "internalType": "uint32",
          "name": "",
          "type": "uint32"
        }
      ],
      "name": "capacitors__",
      "outputs": [
        {
          "internalType": "contract ICapacitor",
          "name": "",
          "type": "address"
        }
      ],
      "stateMutability": "view",
      "type": "function"
    },
    {
      "inputs": [],
      "name": "chainSlug",
      "outputs": [
        {
          "internalType": "uint32",
          "name": "",
          "type": "uint32"
        }
      ],
      "stateMutability": "view",
      "type": "function"
    },
    {
      "inputs": [],
      "name": "claimOwner",
      "outputs": [],
      "stateMutability": "nonpayable",
      "type": "function"
    },
    {
      "inputs": [
        {
          "internalType": "uint32",
          "name": "siblingChainSlug_",
          "type": "uint32"
        },
        {
          "internalType": "address",
          "name": "siblingPlug_",
          "type": "address"
        },
        {
          "internalType": "address",
          "name": "inboundSwitchboard_",
          "type": "address"
        },
        {
          "internalType": "address",
          "name": "outboundSwitchboard_",
          "type": "address"
        }
      ],
      "name": "connect",
      "outputs": [],
      "stateMutability": "nonpayable",
      "type": "function"
    },
    {
      "inputs": [
        {
          "internalType": "address",
          "name": "",
          "type": "address"
        },
        {
          "internalType": "uint32",
          "name": "",
          "type": "uint32"
        }
      ],
      "name": "decapacitors__",
      "outputs": [
        {
          "internalType": "contract IDecapacitor",
          "name": "",
          "type": "address"
        }
      ],
      "stateMutability": "view",
      "type": "function"
    },
    {
      "inputs": [
        {
          "components": [
            {
              "internalType": "bytes32",
              "name": "packetId",
              "type": "bytes32"
            },
            {
              "internalType": "uint256",
              "name": "proposalCount",
              "type": "uint256"
            },
            {
              "internalType": "uint256",
              "name": "executionGasLimit",
              "type": "uint256"
            },
            {
              "internalType": "bytes",
              "name": "decapacitorProof",
              "type": "bytes"
            },
            {
              "internalType": "bytes",
              "name": "signature",
              "type": "bytes"
            }
          ],
          "internalType": "struct ISocket.ExecutionDetails",
          "name": "executionDetails_",
          "type": "tuple"
        },
        {
          "components": [
            {
              "internalType": "bytes32",
              "name": "msgId",
              "type": "bytes32"
            },
            {
              "internalType": "uint256",
              "name": "executionFee",
              "type": "uint256"
            },
            {
              "internalType": "uint256",
              "name": "minMsgGasLimit",
              "type": "uint256"
            },
            {
              "internalType": "bytes32",
              "name": "executionParams",
              "type": "bytes32"
            },
            {
              "internalType": "bytes",
              "name": "payload",
              "type": "bytes"
            }
          ],
          "internalType": "struct ISocket.MessageDetails",
          "name": "messageDetails_",
          "type": "tuple"
        }
      ],
      "name": "execute",
      "outputs": [],
      "stateMutability": "payable",
      "type": "function"
    },
    {
      "inputs": [],
      "name": "executionManager__",
      "outputs": [
        {
          "internalType": "contract IExecutionManager",
          "name": "",
          "type": "address"
        }
      ],
      "stateMutability": "view",
      "type": "function"
    },
    {
      "inputs": [
        {
          "internalType": "uint256",
          "name": "minMsgGasLimit_",
          "type": "uint256"
        },
        {
          "internalType": "uint256",
          "name": "payloadSize_",
          "type": "uint256"
        },
        {
          "internalType": "bytes32",
          "name": "executionParams_",
          "type": "bytes32"
        },
        {
          "internalType": "bytes32",
          "name": "transmissionParams_",
          "type": "bytes32"
        },
        {
          "internalType": "uint32",
          "name": "siblingChainSlug_",
          "type": "uint32"
        },
        {
          "internalType": "address",
          "name": "plug_",
          "type": "address"
        }
      ],
      "name": "getMinFees",
      "outputs": [
        {
          "internalType": "uint256",
          "name": "totalFees",
          "type": "uint256"
        }
      ],
      "stateMutability": "view",
      "type": "function"
    },
    {
      "inputs": [
        {
          "internalType": "address",
          "name": "plugAddress_",
          "type": "address"
        },
        {
          "internalType": "uint32",
          "name": "siblingChainSlug_",
          "type": "uint32"
        }
      ],
      "name": "getPlugConfig",
      "outputs": [
        {
          "internalType": "address",
          "name": "siblingPlug",
          "type": "address"
        },
        {
          "internalType": "address",
          "name": "inboundSwitchboard__",
          "type": "address"
        },
        {
          "internalType": "address",
          "name": "outboundSwitchboard__",
          "type": "address"
        },
        {
          "internalType": "address",
          "name": "capacitor__",
          "type": "address"
        },
        {
          "internalType": "address",
          "name": "decapacitor__",
          "type": "address"
        }
      ],
      "stateMutability": "view",
      "type": "function"
    },
    {
      "inputs": [],
      "name": "globalMessageCount",
      "outputs": [
        {
          "internalType": "uint64",
          "name": "",
          "type": "uint64"
        }
      ],
      "stateMutability": "view",
      "type": "function"
    },
    {
      "inputs": [
        {
          "internalType": "bytes32[]",
          "name": "roleNames_",
          "type": "bytes32[]"
        },
        {
          "internalType": "uint32[]",
          "name": "slugs_",
          "type": "uint32[]"
        },
        {
          "internalType": "address[]",
          "name": "grantees_",
          "type": "address[]"
        }
      ],
      "name": "grantBatchRole",
      "outputs": [],
      "stateMutability": "nonpayable",
      "type": "function"
    },
    {
      "inputs": [
        {
          "internalType": "bytes32",
          "name": "role_",
          "type": "bytes32"
        },
        {
          "internalType": "address",
          "name": "grantee_",
          "type": "address"
        }
      ],
      "name": "grantRole",
      "outputs": [],
      "stateMutability": "nonpayable",
      "type": "function"
    },
    {
      "inputs": [
        {
          "internalType": "bytes32",
          "name": "roleName_",
          "type": "bytes32"
        },
        {
          "internalType": "uint32",
          "name": "chainSlug_",
          "type": "uint32"
        },
        {
          "internalType": "address",
          "name": "grantee_",
          "type": "address"
        }
      ],
      "name": "grantRoleWithSlug",
      "outputs": [],
      "stateMutability": "nonpayable",
      "type": "function"
    },
    {
      "inputs": [
        {
          "internalType": "bytes32",
          "name": "role_",
          "type": "bytes32"
        },
        {
          "internalType": "address",
          "name": "address_",
          "type": "address"
        }
      ],
      "name": "hasRole",
      "outputs": [
        {
          "internalType": "bool",
          "name": "",
          "type": "bool"
        }
      ],
      "stateMutability": "view",
      "type": "function"
    },
    {
      "inputs": [
        {
          "internalType": "bytes32",
          "name": "roleName_",
          "type": "bytes32"
        },
        {
          "internalType": "uint32",
          "name": "chainSlug_",
          "type": "uint32"
        },
        {
          "internalType": "address",
          "name": "address_",
          "type": "address"
        }
      ],
      "name": "hasRoleWithSlug",
      "outputs": [
        {
          "internalType": "bool",
          "name": "",
          "type": "bool"
        }
      ],
      "stateMutability": "view",
      "type": "function"
    },
    {
      "inputs": [],
      "name": "hasher__",
      "outputs": [
        {
          "internalType": "contract IHasher",
          "name": "",
          "type": "address"
        }
      ],
      "stateMutability": "view",
      "type": "function"
    },
    {
      "inputs": [
        {
          "internalType": "bytes32",
          "name": "packetId_",
          "type": "bytes32"
        },
        {
          "internalType": "uint256",
          "name": "proposalCount_",
          "type": "uint256"
        },
        {
          "internalType": "address",
          "name": "switchboard_",
          "type": "address"
        }
      ],
      "name": "isPacketProposed",
      "outputs": [
        {
          "internalType": "bool",
          "name": "",
          "type": "bool"
        }
      ],
      "stateMutability": "view",
      "type": "function"
    },
    {
      "inputs": [
        {
          "internalType": "bytes32",
          "name": "",
          "type": "bytes32"
        }
      ],
      "name": "messageExecuted",
      "outputs": [
        {
          "internalType": "bool",
          "name": "",
          "type": "bool"
        }
      ],
      "stateMutability": "view",
      "type": "function"
    },
    {
      "inputs": [
        {
          "internalType": "address",
          "name": "nominee_",
          "type": "address"
        }
      ],
      "name": "nominateOwner",
      "outputs": [],
      "stateMutability": "nonpayable",
      "type": "function"
    },
    {
      "inputs": [],
      "name": "nominee",
      "outputs": [
        {
          "internalType": "address",
          "name": "",
          "type": "address"
        }
      ],
      "stateMutability": "view",
      "type": "function"
    },
    {
      "inputs": [
        {
          "internalType": "uint32",
          "name": "siblingChainSlug_",
          "type": "uint32"
        },
        {
          "internalType": "uint256",
          "name": "minMsgGasLimit_",
          "type": "uint256"
        },
        {
          "internalType": "bytes32",
          "name": "executionParams_",
          "type": "bytes32"
        },
        {
          "internalType": "bytes32",
          "name": "transmissionParams_",
          "type": "bytes32"
        },
        {
          "internalType": "bytes",
          "name": "payload_",
          "type": "bytes"
        }
      ],
      "name": "outbound",
      "outputs": [
        {
          "internalType": "bytes32",
          "name": "msgId",
          "type": "bytes32"
        }
      ],
      "stateMutability": "payable",
      "type": "function"
    },
    {
      "inputs": [],
      "name": "owner",
      "outputs": [
        {
          "internalType": "address",
          "name": "",
          "type": "address"
        }
      ],
      "stateMutability": "view",
      "type": "function"
    },
    {
      "inputs": [
        {
          "internalType": "bytes32",
          "name": "",
          "type": "bytes32"
        },
        {
          "internalType": "uint256",
          "name": "",
          "type": "uint256"
        },
        {
          "internalType": "address",
          "name": "",
          "type": "address"
        }
      ],
      "name": "packetIdRoots",
      "outputs": [
        {
          "internalType": "bytes32",
          "name": "",
          "type": "bytes32"
        }
      ],
      "stateMutability": "view",
      "type": "function"
    },
    {
      "inputs": [
        {
          "internalType": "bytes32",
          "name": "",
          "type": "bytes32"
        }
      ],
      "name": "proposalCount",
      "outputs": [
        {
          "internalType": "uint256",
          "name": "",
          "type": "uint256"
        }
      ],
      "stateMutability": "view",
      "type": "function"
    },
    {
      "inputs": [
        {
          "internalType": "bytes32",
          "name": "packetId_",
          "type": "bytes32"
        },
        {
          "internalType": "bytes32",
          "name": "root_",
          "type": "bytes32"
        },
        {
          "internalType": "address",
          "name": "switchboard_",
          "type": "address"
        },
        {
          "internalType": "bytes",
          "name": "signature_",
          "type": "bytes"
        }
      ],
      "name": "proposeForSwitchboard",
      "outputs": [],
      "stateMutability": "payable",
      "type": "function"
    },
    {
      "inputs": [
        {
          "internalType": "uint32",
          "name": "siblingChainSlug_",
          "type": "uint32"
        },
        {
          "internalType": "uint256",
          "name": "maxPacketLength_",
          "type": "uint256"
        },
        {
          "internalType": "uint256",
          "name": "capacitorType_",
          "type": "uint256"
        },
        {
          "internalType": "address",
          "name": "siblingSwitchboard_",
          "type": "address"
        }
      ],
      "name": "registerSwitchboardForSibling",
      "outputs": [
        {
          "internalType": "address",
          "name": "capacitor",
          "type": "address"
        },
        {
          "internalType": "address",
          "name": "decapacitor",
          "type": "address"
        }
      ],
      "stateMutability": "nonpayable",
      "type": "function"
    },
    {
      "inputs": [
        {
          "internalType": "address",
          "name": "token_",
          "type": "address"
        },
        {
          "internalType": "address",
          "name": "rescueTo_",
          "type": "address"
        },
        {
          "internalType": "uint256",
          "name": "amount_",
          "type": "uint256"
        }
      ],
      "name": "rescueFunds",
      "outputs": [],
      "stateMutability": "nonpayable",
      "type": "function"
    },
    {
      "inputs": [
        {
          "internalType": "bytes32[]",
          "name": "roleNames_",
          "type": "bytes32[]"
        },
        {
          "internalType": "uint32[]",
          "name": "slugs_",
          "type": "uint32[]"
        },
        {
          "internalType": "address[]",
          "name": "grantees_",
          "type": "address[]"
        }
      ],
      "name": "revokeBatchRole",
      "outputs": [],
      "stateMutability": "nonpayable",
      "type": "function"
    },
    {
      "inputs": [
        {
          "internalType": "bytes32",
          "name": "role_",
          "type": "bytes32"
        },
        {
          "internalType": "address",
          "name": "revokee_",
          "type": "address"
        }
      ],
      "name": "revokeRole",
      "outputs": [],
      "stateMutability": "nonpayable",
      "type": "function"
    },
    {
      "inputs": [
        {
          "internalType": "bytes32",
          "name": "roleName_",
          "type": "bytes32"
        },
        {
          "internalType": "uint32",
          "name": "chainSlug_",
          "type": "uint32"
        },
        {
          "internalType": "address",
          "name": "grantee_",
          "type": "address"
        }
      ],
      "name": "revokeRoleWithSlug",
      "outputs": [],
      "stateMutability": "nonpayable",
      "type": "function"
    },
    {
      "inputs": [
        {
          "internalType": "bytes32",
          "name": "",
          "type": "bytes32"
        },
        {
          "internalType": "uint256",
          "name": "",
          "type": "uint256"
        },
        {
          "internalType": "address",
          "name": "",
          "type": "address"
        }
      ],
      "name": "rootProposedAt",
      "outputs": [
        {
          "internalType": "uint256",
          "name": "",
          "type": "uint256"
        }
      ],
      "stateMutability": "view",
      "type": "function"
    },
    {
      "inputs": [
        {
          "internalType": "uint256",
          "name": "batchSize_",
          "type": "uint256"
        },
        {
          "internalType": "address",
          "name": "capacitorAddress_",
          "type": "address"
        },
        {
          "internalType": "bytes",
          "name": "signature_",
          "type": "bytes"
        }
      ],
      "name": "seal",
      "outputs": [],
      "stateMutability": "payable",
      "type": "function"
    },
    {
      "inputs": [
        {
          "internalType": "address",
          "name": "capacitorFactory_",
          "type": "address"
        }
      ],
      "name": "setCapacitorFactory",
      "outputs": [],
      "stateMutability": "nonpayable",
      "type": "function"
    },
    {
      "inputs": [
        {
          "internalType": "address",
          "name": "executionManager_",
          "type": "address"
        }
      ],
      "name": "setExecutionManager",
      "outputs": [],
      "stateMutability": "nonpayable",
      "type": "function"
    },
    {
      "inputs": [
        {
          "internalType": "address",
          "name": "hasher_",
          "type": "address"
        }
      ],
      "name": "setHasher",
      "outputs": [],
      "stateMutability": "nonpayable",
      "type": "function"
    },
    {
      "inputs": [
        {
          "internalType": "address",
          "name": "transmitManager_",
          "type": "address"
        }
      ],
      "name": "setTransmitManager",
      "outputs": [],
      "stateMutability": "nonpayable",
      "type": "function"
    },
    {
      "inputs": [],
      "name": "transmitManager__",
      "outputs": [
        {
          "internalType": "contract ITransmitManager",
          "name": "",
          "type": "address"
        }
      ],
      "stateMutability": "view",
      "type": "function"
    },
    {
      "inputs": [
        {
          "internalType": "uint32",
          "name": "siblingChainSlug_",
          "type": "uint32"
        },
        {
          "internalType": "address",
          "name": "siblingSwitchboard_",
          "type": "address"
        }
      ],
      "name": "useSiblingSwitchboard",
      "outputs": [],
      "stateMutability": "nonpayable",
      "type": "function"
    },
    {
      "inputs": [],
      "name": "version",
      "outputs": [
        {
          "internalType": "bytes32",
          "name": "",
          "type": "bytes32"
        }
      ],
      "stateMutability": "view",
      "type": "function"
    }
  ],
  "bytecode": "0x60c06040523480156200001157600080fd5b50604051620047313803806200473183398101604081905262000034916200012d565b84818380806200004481620000a6565b50505063ffffffff9190911660a0528051602090910120608052505060088054600160401b600160e01b031916680100000000000000006001600160a01b0394851602179055600080546001600160a01b031916919092161790555062000257565b600580546001600160a01b0383166001600160a01b031991821681179092556006805490911690556040517ffbe19c9b601f5ee90b44c7390f3fa2319eba01762d34ee372aeafd59b25c7f8790600090a250565b80516001600160a01b03811681146200011257600080fd5b919050565b634e487b7160e01b600052604160045260246000fd5b600080600080600060a086880312156200014657600080fd5b855163ffffffff811681146200015b57600080fd5b945060206200016c878201620000fa565b94506200017c60408801620000fa565b93506200018c60608801620000fa565b60808801519093506001600160401b0380821115620001aa57600080fd5b818901915089601f830112620001bf57600080fd5b815181811115620001d457620001d462000117565b604051601f8201601f19908116603f01168101908382118183101715620001ff57620001ff62000117565b816040528281528c868487010111156200021857600080fd5b600093505b828410156200023c57848401860151818501870152928501926200021d565b60008684830101528096505050505050509295509295909350565b60805160a05161447c620002b56000396000818161090b01528181611392015281816119d701528181611b0b0152818161263e015281816128d70152612fea015260008181610647015281816125dd01526128ac015261447c6000f3fe6080604052600436106102c55760003560e01c806354fd4d501161017957806391d14854116100d6578063c85ce3251161008a578063e992e0ff11610064578063e992e0ff146109d9578063ea93a50914610a13578063ecb9748414610a4357600080fd5b8063c85ce32514610993578063d547741f146109a6578063dc309863146109c657600080fd5b8063b349ba65116100bb578063b349ba65146108f9578063b39691061461092d578063c085c22b1461096657600080fd5b806391d14854146108b95780639ae3f05a146108d957600080fd5b806379cfc0061161012d5780638288a927116101125780638288a927146108205780638da5cb5b146108405780638df132c61461086b57600080fd5b806379cfc006146107d357806381403a021461080057600080fd5b80635febe7e71161015e5780635febe7e7146106895780636ccae054146106c75780636f38f870146106e757600080fd5b806354fd4d50146106355780635b94db271461066957600080fd5b80633386774f1161022757806341805c24116101db578063440406eb116101c0578063440406eb146105a75780634ad701bc146105d75780634afae4021461061557600080fd5b806341805c241461055a57806343fa97ca1461058757600080fd5b80633b1be6781161020c5780633b1be678146104d75780633bd1adec146104f7578063401ae0751461050c57600080fd5b80633386774f1461046e57806335dd06681461048f57600080fd5b806320f99c0a1161027e5780632e7eb258116102635780632e7eb2581461040e5780632f2ff15d1461042e57806330d20f871461044e57600080fd5b806320f99c0a146103d0578063275c41c9146103fb57600080fd5b80631381ba4d116102af5780631381ba4d1461036e5780631ba8e484146103905780631e867311146103b057600080fd5b80626186f7146102ca5780630b04bb4114610321575b600080fd5b3480156102d657600080fd5b50600a546102f79073ffffffffffffffffffffffffffffffffffffffff1681565b60405173ffffffffffffffffffffffffffffffffffffffff90911681526020015b60405180910390f35b34801561032d57600080fd5b5061034161033c366004613720565b610a63565b6040805173ffffffffffffffffffffffffffffffffffffffff938416815292909116602083015201610318565b34801561037a57600080fd5b5061038e610389366004613768565b610e0c565b005b34801561039c57600080fd5b5061038e6103ab366004613785565b610f19565b3480156103bc57600080fd5b5061038e6103cb366004613811565b610f7a565b3480156103dc57600080fd5b5060065473ffffffffffffffffffffffffffffffffffffffff166102f7565b61038e6104093660046138c3565b611120565b34801561041a57600080fd5b5061038e610429366004613785565b6115d8565b34801561043a57600080fd5b5061038e610449366004613927565b611634565b34801561045a57600080fd5b5061038e610469366004613768565b611693565b61048161047c366004613999565b611793565b604051908152602001610318565b34801561049b57600080fd5b506104c26104aa366004613768565b60026020526000908152604090205463ffffffff1681565b60405163ffffffff9091168152602001610318565b3480156104e357600080fd5b5061038e6104f23660046139f8565b611b65565b34801561050357600080fd5b5061038e611d47565b34801561051857600080fd5b506102f7610527366004613a47565b600460209081526000928352604080842090915290825290205473ffffffffffffffffffffffffffffffffffffffff1681565b34801561056657600080fd5b506009546102f79073ffffffffffffffffffffffffffffffffffffffff1681565b34801561059357600080fd5b5061038e6105a2366004613811565b611da3565b3480156105b357600080fd5b506105c76105c2366004613a7c565b611f3f565b6040519015158152602001610318565b3480156105e357600080fd5b506104816105f2366004613a7c565b600c60209081526000938452604080852082529284528284209052825290205481565b34801561062157600080fd5b5061038e610630366004613768565b611f8e565b34801561064157600080fd5b506104817f000000000000000000000000000000000000000000000000000000000000000081565b34801561067557600080fd5b5061038e610684366004613768565b61209c565b34801561069557600080fd5b506104816106a4366004613a7c565b600d60209081526000938452604080852082529284528284209052825290205481565b3480156106d357600080fd5b5061038e6106e2366004613aaa565b61215c565b3480156106f357600080fd5b5061078c610702366004613a47565b73ffffffffffffffffffffffffffffffffffffffff918216600090815260016020818152604080842063ffffffff95909516845293815291839020835160a081018552815486168082529282015486169381018490526002820154861694810185905260038201548616606082018190526004909201549095166080909501859052909490939290565b6040805173ffffffffffffffffffffffffffffffffffffffff968716815294861660208601529285169284019290925283166060830152909116608082015260a001610318565b3480156107df57600080fd5b506104816107ee366004613aeb565b600e6020526000908152604090205481565b34801561080c57600080fd5b5061038e61081b366004613b04565b6121fa565b34801561082c57600080fd5b5061038e61083b366004613768565b612255565b34801561084c57600080fd5b5060055473ffffffffffffffffffffffffffffffffffffffff166102f7565b34801561087757600080fd5b506102f7610886366004613a47565b600360209081526000928352604080842090915290825290205473ffffffffffffffffffffffffffffffffffffffff1681565b3480156108c557600080fd5b506105c76108d4366004613927565b612355565b3480156108e557600080fd5b506104816108f4366004613b30565b612390565b34801561090557600080fd5b506104c27f000000000000000000000000000000000000000000000000000000000000000081565b34801561093957600080fd5b506008546102f79068010000000000000000900473ffffffffffffffffffffffffffffffffffffffff1681565b34801561097257600080fd5b506000546102f79073ffffffffffffffffffffffffffffffffffffffff1681565b61038e6109a1366004613b8c565b6124d9565b3480156109b257600080fd5b5061038e6109c1366004613927565b6127e7565b61038e6109d4366004613be8565b612842565b3480156109e557600080fd5b506008546109fa9067ffffffffffffffff1681565b60405167ffffffffffffffff9091168152602001610318565b348015610a1f57600080fd5b506105c7610a2e366004613aeb565b600b6020526000908152604090205460ff1681565b348015610a4f57600080fd5b506105c7610a5e366004613785565b612aa1565b33600081815260036020908152604080832063ffffffff891684529091528120549091829173ffffffffffffffffffffffffffffffffffffffff1615610ad5576040517f2dff855500000000000000000000000000000000000000000000000000000000815260040160405180910390fd5b600080546040517f284fb3630000000000000000000000000000000000000000000000000000000081526004810188905263ffffffff8a16602482015260448101899052829173ffffffffffffffffffffffffffffffffffffffff169063284fb3639060640160408051808303816000875af1158015610b59573d6000803e3d6000fd5b505050506040513d601f19601f82011682018060405250810190610b7d9190613c52565b9150915081945080935088600260008773ffffffffffffffffffffffffffffffffffffffff1673ffffffffffffffffffffffffffffffffffffffff16815260200190815260200160002060006101000a81548163ffffffff021916908363ffffffff16021790555081600360008573ffffffffffffffffffffffffffffffffffffffff1673ffffffffffffffffffffffffffffffffffffffff16815260200190815260200160002060008b63ffffffff1663ffffffff16815260200190815260200160002060006101000a81548173ffffffffffffffffffffffffffffffffffffffff021916908373ffffffffffffffffffffffffffffffffffffffff16021790555080600460008573ffffffffffffffffffffffffffffffffffffffff1673ffffffffffffffffffffffffffffffffffffffff16815260200190815260200160002060008b63ffffffff1663ffffffff16815260200190815260200160002060006101000a81548173ffffffffffffffffffffffffffffffffffffffff021916908373ffffffffffffffffffffffffffffffffffffffff1602179055507fe797daee214784c2b0a3c67d7700cdb94fa243f27a14283eb643ee0fdc520d30838a87878c8c604051610d9c9695949392919073ffffffffffffffffffffffffffffffffffffffff968716815263ffffffff959095166020860152928516604085015293166060830152608082019290925260a081019190915260c00190565b60405180910390a16040805173ffffffffffffffffffffffffffffffffffffffff858116825263ffffffff8c16602083015288168183015290517f2a53ef9531d7243776a776fb7d718a6c9ebe2818f1a875f06df1f39af0bf599b9181900360600190a150505094509492505050565b3360009081527f45f9541cf4ad029f180498070b7e92d865c32641a6f46018a578b750f26cde3760205260409020547f71840dc4906352362b0cdaf79870196c8e42acafade72d5d5a6d59291253ceb19060ff16610e9e576040517f962f6333000000000000000000000000000000000000000000000000000000008152600481018290526024015b60405180910390fd5b600a80547fffffffffffffffffffffffff00000000000000000000000000000000000000001673ffffffffffffffffffffffffffffffffffffffff84169081179091556040519081527fc7d6b56a07930ef230a86f7fc3ee39eca236764293f0d1a764347ae831252040906020015b60405180910390a15050565b60055473ffffffffffffffffffffffffffffffffffffffff163314610f6a576040517f5fc483c500000000000000000000000000000000000000000000000000000000815260040160405180910390fd5b610f75838383612aae565b505050565b60055473ffffffffffffffffffffffffffffffffffffffff163314610fcb576040517f5fc483c500000000000000000000000000000000000000000000000000000000815260040160405180910390fd5b8481141580610fda5750848314155b15611011576040517f11e86f7300000000000000000000000000000000000000000000000000000000815260040160405180910390fd5b8460005b8181101561111657600086868381811061103157611031613c81565b90506020020160208101906110469190613cb0565b63ffffffff1611156110c6576110c188888381811061106757611067613c81565b9050602002013587878481811061108057611080613c81565b90506020020160208101906110959190613cb0565b8686858181106110a7576110a7613c81565b90506020020160208101906110bc9190613768565b612aae565b61110e565b61110e8888838181106110db576110db613c81565b905060200201358585848181106110f4576110f4613c81565b90506020020160208101906111099190613768565b612aeb565b600101611015565b5050505050505050565b80356000908152600b602052604090205460ff161561116b576040517f7448c64c00000000000000000000000000000000000000000000000000000000815260040160405180910390fd5b80356000908152600b60205260409081902080547fffffffffffffffffffffffffffffffffffffffffffffffffffffffffffffff00166001179055808201359083013510156111e6576040517fd38edae000000000000000000000000000000000000000000000000000000000815260040160405180910390fd5b813561121e576040517fb21147c100000000000000000000000000000000000000000000000000000000815260040160405180910390fd5b803560e090811c908335901c8114611262576040517fb39fb5d500000000000000000000000000000000000000000000000000000000815260040160405180910390fd5b6040805160a08101825260008082526020808301829052828401828152606084018381526080850184905273ffffffffffffffffffffffffffffffffffffffff8835871c81811686526001855287862063ffffffff8a1687528552878620600281015483169094528354821687526003909301548116825289358552600c84528685208a8501358652845286852091511684529091529290205480611333576040517f1c93605200000000000000000000000000000000000000000000000000000000815260040160405180910390fd5b60085482516040517f02ea143100000000000000000000000000000000000000000000000000000000815260009268010000000000000000900473ffffffffffffffffffffffffffffffffffffffff16916302ea1431916113be9189917f0000000000000000000000000000000000000000000000000000000000000000908a908d90600401613d14565b6020604051808303816000875af11580156113dd573d6000803e3d6000fd5b505050506040513d601f19601f820116820180604052508101906114019190613e01565b600a54909150600090819073ffffffffffffffffffffffffffffffffffffffff1663954d09c98461143560808d018d613e1a565b6040518463ffffffff1660e01b815260040161145393929190613e7f565b6040805180830381865afa15801561146f573d6000803e3d6000fd5b505050506040513d601f19601f820116820180604052508101906114939190613eb2565b91509150806114ce576040517fc32d1d7600000000000000000000000000000000000000000000000000000000815260040160405180910390fd5b600a546040517fa56d92ce00000000000000000000000000000000000000000000000000000000815260608a0135600482015234602482015273ffffffffffffffffffffffffffffffffffffffff9091169063a56d92ce9060440160006040518083038186803b15801561154157600080fd5b505afa158015611555573d6000803e3d6000fd5b505050506115b489600001358a602001358986888a8f806060019061157a9190613e1a565b8080601f016020809104026020016040519081016040528093929190818152602001838380828437600092019190915250612b6e92505050565b6115cd82878960408d01356115c88d613f85565b612d46565b505050505050505050565b60055473ffffffffffffffffffffffffffffffffffffffff163314611629576040517f5fc483c500000000000000000000000000000000000000000000000000000000815260040160405180910390fd5b610f75838383612eba565b60055473ffffffffffffffffffffffffffffffffffffffff163314611685576040517f5fc483c500000000000000000000000000000000000000000000000000000000815260040160405180910390fd5b61168f8282612ef7565b5050565b3360009081527f45f9541cf4ad029f180498070b7e92d865c32641a6f46018a578b750f26cde3760205260409020547f71840dc4906352362b0cdaf79870196c8e42acafade72d5d5a6d59291253ceb19060ff16611720576040517f962f633300000000000000000000000000000000000000000000000000000000815260048101829052602401610e95565b600980547fffffffffffffffffffffffff00000000000000000000000000000000000000001673ffffffffffffffffffffffffffffffffffffffff84169081179091556040519081527f03d960b6dfd88e82390cc07c64a7a51b63c3b8ecdc888d02d4697995a912cc0590602001610f0d565b6040805160a0810182526000808252602080830182905282840182905260608301829052608083018290523382526001815283822063ffffffff8b16835290529182205473ffffffffffffffffffffffffffffffffffffffff16808252611826576040517fe741bafb00000000000000000000000000000000000000000000000000000000815260040160405180910390fd5b33600090815260016020818152604080842063ffffffff8d168086528184529185209384015473ffffffffffffffffffffffffffffffffffffffff908116878501529190945292905260040154166080820152805161188490612f7d565b91506000611910888686905089898660800151876020015173ffffffffffffffffffffffffffffffffffffffff16632ff9f2c96040518163ffffffff1660e01b8152600401602060405180830381865afa1580156118e6573d6000803e3d6000fd5b505050506040513d601f19601f8201168201806040525081019061190a9190613e01565b8f61301d565b905060006040518060a0016040528085815260200183602001516fffffffffffffffffffffffffffffffff1681526020018a815260200189815260200187878080601f016020809104026020016040519081016040528093929190818152602001838380828437600081840152601f19601f820116905080830192505050505050508152509050600060088054906101000a900473ffffffffffffffffffffffffffffffffffffffff1673ffffffffffffffffffffffffffffffffffffffff166302ea14317f0000000000000000000000000000000000000000000000000000000000000000338e8860000151876040518663ffffffff1660e01b8152600401611a1e9594939291906140cb565b6020604051808303816000875af1158015611a3d573d6000803e3d6000fd5b505050506040513d601f19601f82011682018060405250810190611a619190613e01565b60208501516040517f920ee8a80000000000000000000000000000000000000000000000000000000081526004810183905291925073ffffffffffffffffffffffffffffffffffffffff169063920ee8a890602401600060405180830381600087803b158015611ad057600080fd5b505af1158015611ae4573d6000803e3d6000fd5b505050507f45d70e73f9a26cea18d4009d1ad25ffbdc4114ce9d8ceb15959ae9eadb0a3a2c7f0000000000000000000000000000000000000000000000000000000000000000338d8760000151898f8f8f8f8f8d604051611b4f9b9a9998979695949392919061415a565b60405180910390a1505050509695505050505050565b73ffffffffffffffffffffffffffffffffffffffff828116600090815260036020908152604080832063ffffffff89168452909152902054161580611be0575073ffffffffffffffffffffffffffffffffffffffff818116600090815260036020908152604080832063ffffffff8916845290915290205416155b15611c17576040517f63228f2900000000000000000000000000000000000000000000000000000000815260040160405180910390fd5b33600081815260016020818152604080842063ffffffff8a1680865290835281852080547fffffffffffffffffffffffff000000000000000000000000000000000000000090811673ffffffffffffffffffffffffffffffffffffffff8c811691821784558a8116808a526003808952878b20878c528952878b205499860180549a84169a86168b1790558d8316808c526004808b52898d20898e528b529b899020546002880180549190951690871681179094559086018054861682179055998501805490941681179093558551998a5295890193909352928701919091526060860194909452608085015260a084019190915260c0830152907febaba46465001886e6218eb8da227160a320362ee4aab240ead702addafe55ba9060e0015b60405180910390a15050505050565b60065473ffffffffffffffffffffffffffffffffffffffff163314611d98576040517f7c91ccdd00000000000000000000000000000000000000000000000000000000815260040160405180910390fd5b611da1336131b0565b565b60055473ffffffffffffffffffffffffffffffffffffffff163314611df4576040517f5fc483c500000000000000000000000000000000000000000000000000000000815260040160405180910390fd5b8481141580611e035750848314155b15611e3a576040517f11e86f7300000000000000000000000000000000000000000000000000000000815260040160405180910390fd5b8460005b81811015611116576000868683818110611e5a57611e5a613c81565b9050602002016020810190611e6f9190613cb0565b63ffffffff161115611eef57611eea888883818110611e9057611e90613c81565b90506020020135878784818110611ea957611ea9613c81565b9050602002016020810190611ebe9190613cb0565b868685818110611ed057611ed0613c81565b9050602002016020810190611ee59190613768565b612eba565b611f37565b611f37888883818110611f0457611f04613c81565b90506020020135858584818110611f1d57611f1d613c81565b9050602002016020810190611f329190613768565b612ef7565b600101611e3e565b6000838152600c60209081526040808320858452825280832073ffffffffffffffffffffffffffffffffffffffff8516845290915281205415611f83576001611f86565b60005b949350505050565b3360009081527f45f9541cf4ad029f180498070b7e92d865c32641a6f46018a578b750f26cde3760205260409020547f71840dc4906352362b0cdaf79870196c8e42acafade72d5d5a6d59291253ceb19060ff1661201b576040517f962f633300000000000000000000000000000000000000000000000000000000815260048101829052602401610e95565b600880547fffffffff0000000000000000000000000000000000000000ffffffffffffffff166801000000000000000073ffffffffffffffffffffffffffffffffffffffff8516908102919091179091556040519081527fc7238b23787eb9f8aa74c79b27083bb4b8f0db527df90366b487c40fa0ba2d3a90602001610f0d565b60055473ffffffffffffffffffffffffffffffffffffffff1633146120ed576040517f5fc483c500000000000000000000000000000000000000000000000000000000815260040160405180910390fd5b600680547fffffffffffffffffffffffff00000000000000000000000000000000000000001673ffffffffffffffffffffffffffffffffffffffff83169081179091556040517f906a1c6bd7e3091ea86693dd029a831c19049ce77f1dce2ce0bab1cacbabce2290600090a250565b3360009081527fff9a7b11e174fcce811917e5a8f906a450751019d105ceca5d4a7efe2887160660205260409020547fc4c453d647953c0fd35db5a34ee76e60fb4abc3a8fb891a25936b70b38f292539060ff166121e9576040517f962f633300000000000000000000000000000000000000000000000000000000815260048101829052602401610e95565b6121f4848484613229565b50505050565b6040805133815263ffffffff8416602082015273ffffffffffffffffffffffffffffffffffffffff8316918101919091527f2a53ef9531d7243776a776fb7d718a6c9ebe2818f1a875f06df1f39af0bf599b90606001610f0d565b3360009081527f45f9541cf4ad029f180498070b7e92d865c32641a6f46018a578b750f26cde3760205260409020547f71840dc4906352362b0cdaf79870196c8e42acafade72d5d5a6d59291253ceb19060ff166122e2576040517f962f633300000000000000000000000000000000000000000000000000000000815260048101829052602401610e95565b600080547fffffffffffffffffffffffff00000000000000000000000000000000000000001673ffffffffffffffffffffffffffffffffffffffff84169081179091556040519081527fdd4864dd50be8a1a56c70aebc2953b0890b860197577457ac25fa02f86dadd5590602001610f0d565b600082815260076020908152604080832073ffffffffffffffffffffffffffffffffffffffff8516845290915281205460ff165b9392505050565b73ffffffffffffffffffffffffffffffffffffffff808216600090815260016020818152604080842063ffffffff8816855282528084209092015482517f2ff9f2c900000000000000000000000000000000000000000000000000000000815292519394169284928492632ff9f2c9926004808401938290030181865afa15801561241f573d6000803e3d6000fd5b505050506040513d601f19601f820116820180604052508101906124439190613e01565b73ffffffffffffffffffffffffffffffffffffffff808616600090815260016020908152604080832063ffffffff8b168452909152812060040154929350918291829161249b918e918e918e918e918e91168a613319565b91945092509050806124ad838561423c565b6124b7919061423c565b6fffffffffffffffffffffffffffffffff169c9b505050505050505050505050565b73ffffffffffffffffffffffffffffffffffffffff831660009081526002602052604081205463ffffffff169081900361253f576040517f73d817fb00000000000000000000000000000000000000000000000000000000815260040160405180910390fd5b6040517fd7c9eaac00000000000000000000000000000000000000000000000000000000815260048101869052600090819073ffffffffffffffffffffffffffffffffffffffff87169063d7c9eaac9060240160408051808303816000875af11580156125b0573d6000803e3d6000fd5b505050506040513d601f19601f820116820180604052508101906125d4919061426c565b600954604080517f000000000000000000000000000000000000000000000000000000000000000060208083019190915263ffffffff89168284015267ffffffffffffffff85168c841b7bffffffffffffffffffffffffffffffffffffffff0000000000000000167f000000000000000000000000000000000000000000000000000000000000000060e01b7fffffffff000000000000000000000000000000000000000000000000000000001617176060830181905260808084018890528451808503909101815260a084019485905280519201919091207fb7ee4eb900000000000000000000000000000000000000000000000000000000909352949650929450600092839273ffffffffffffffffffffffffffffffffffffffff169163b7ee4eb99161270b918a918d908d9060a40161429e565b6040805180830381865afa158015612727573d6000803e3d6000fd5b505050506040513d601f19601f8201168201806040525081019061274b9190613eb2565b9150915080612786576040517f58a70a0a00000000000000000000000000000000000000000000000000000000815260040160405180910390fd5b828273ffffffffffffffffffffffffffffffffffffffff167f4bf575a0e4ff12a13816954b1ce8b1e53f30e121ea4f107ac086ec29da524abe8c888c8c6040516127d394939291906142ce565b60405180910390a350505050505050505050565b60055473ffffffffffffffffffffffffffffffffffffffff163314612838576040517f5fc483c500000000000000000000000000000000000000000000000000000000815260040160405180910390fd5b61168f8282612aeb565b84612879576040517fb21147c100000000000000000000000000000000000000000000000000000000815260040160405180910390fd5b600954600090819073ffffffffffffffffffffffffffffffffffffffff1663b7ee4eb96128a68960e01c90565b604080517f0000000000000000000000000000000000000000000000000000000000000000602082015263ffffffff7f00000000000000000000000000000000000000000000000000000000000000001691810191909152606081018b9052608081018a905260a0016040516020818303038152906040528051906020012087876040518563ffffffff1660e01b8152600401612946949392919061429e565b6040805180830381865afa158015612962573d6000803e3d6000fd5b505050506040513d601f19601f820116820180604052508101906129869190613eb2565b91509150806129c1576040517f58a70a0a00000000000000000000000000000000000000000000000000000000815260040160405180910390fd5b6000878152600c60209081526040808320600e8084528285208054865291845282852073ffffffffffffffffffffffffffffffffffffffff808c168088529186528487208d90558d8752600d86528487208454885286528487209187529085529285204290558b855290925281548a93918616927f4b8e305abfc214d75df6e3d0b37dc1b2e6e93726d472df847f312d190dcf870492612a60836142ee565b9091555060408051918252602082018b905273ffffffffffffffffffffffffffffffffffffffff8a169082015260600160405180910390a350505050505050565b6000611f8684848461346d565b610f758383604051602001612ad392919091825263ffffffff16602082015260400190565b60405160208183030381529060405280519060200120825b600082815260076020908152604080832073ffffffffffffffffffffffffffffffffffffffff8516808552925280832080547fffffffffffffffffffffffffffffffffffffffffffffffffffffffffffffff0016905551909184917f155aaafb6329a2098580462df33ec4b7441b19729b9601c5fc17ae1cf99a8a529190a35050565b6060820180516000898152600d602090815260408083208b84528252808320945173ffffffffffffffffffffffffffffffffffffffff908116845294909152908190205490517f4c40818000000000000000000000000000000000000000000000000000000000815260048101879052602481018b9052604481018a905263ffffffff891660648201526084810191909152911690634c4081809060a401602060405180830381865afa158015612c29573d6000803e3d6000fd5b505050506040513d601f19601f82011682018060405250810190612c4d9190614326565b612c83576040517f439cc0cd00000000000000000000000000000000000000000000000000000000815260040160405180910390fd5b816040015173ffffffffffffffffffffffffffffffffffffffff16632d095c438486846040518463ffffffff1660e01b8152600401612cc493929190614341565b6020604051808303816000875af1158015612ce3573d6000803e3d6000fd5b505050506040513d601f19601f82011682018060405250810190612d079190614326565b612d3d576040517f09bde33900000000000000000000000000000000000000000000000000000000815260040160405180910390fd5b50505050505050565b60808101516040517fc41f1f6c00000000000000000000000000000000000000000000000000000000815273ffffffffffffffffffffffffffffffffffffffff86169163c41f1f6c9185913491612da1918991600401614360565b6000604051808303818589803b158015612dba57600080fd5b5088f1158015612dce573d6000803e3d6000fd5b5050600a54602086015186516040517ff1f069d600000000000000000000000000000000000000000000000000000000815273ffffffffffffffffffffffffffffffffffffffff8d811660048301526fffffffffffffffffffffffffffffffff909316602482015260448101919091529116945063f1f069d693506064019150612e559050565b600060405180830381600087803b158015612e6f57600080fd5b505af1158015612e83573d6000803e3d6000fd5b505082516040519081527fdc29884a71d2bb98d3c53dc09718be05c7bfd142b7773a5c5cf2517629290ac092506020019050611d38565b610f758383604051602001612edf92919091825263ffffffff16602082015260400190565b60405160208183030381529060405280519060200120825b600082815260076020908152604080832073ffffffffffffffffffffffffffffffffffffffff8516808552925280832080547fffffffffffffffffffffffffffffffffffffffffffffffffffffffffffffff0016600117905551909184917f2ae6a113c0ed5b78a53413ffbb7679881f11145ccfba4fb92e863dfcd5a1d2f39190a35050565b6008805460009167ffffffffffffffff9091169082612f9b8361437f565b91906101000a81548167ffffffffffffffff021916908367ffffffffffffffff16021790555067ffffffffffffffff1660408373ffffffffffffffffffffffffffffffffffffffff16901b60e07f000000000000000000000000000000000000000000000000000000000000000063ffffffff16901b171760001b9050919050565b604080516060810182526000808252602082018190529181018290529061304483866134fb565b6fffffffffffffffffffffffffffffffff90911660408401819052600a5491925073ffffffffffffffffffffffffffffffffffffffff909116906371c4717b9034908c908c908c908c908a9061309b908d906143a6565b6009546040517fffffffff0000000000000000000000000000000000000000000000000000000060e08b901b168152600481019790975260248701959095526044860193909352606485019190915263ffffffff1660848401526fffffffffffffffffffffffffffffffff90811660a4840152861660c483015273ffffffffffffffffffffffffffffffffffffffff90811660e48301528916610104820152610124810188905261014401604080518083038185885af1158015613163573d6000803e3d6000fd5b50505050506040513d601f19601f82011682018060405250810190613188919061441c565b6fffffffffffffffffffffffffffffffff908116845216602083015250979650505050505050565b6005805473ffffffffffffffffffffffffffffffffffffffff83167fffffffffffffffffffffffff000000000000000000000000000000000000000091821681179092556006805490911690556040517ffbe19c9b601f5ee90b44c7390f3fa2319eba01762d34ee372aeafd59b25c7f8790600090a250565b73ffffffffffffffffffffffffffffffffffffffff8216613276576040517fd92e233d00000000000000000000000000000000000000000000000000000000815260040160405180910390fd5b7fffffffffffffffffffffffff111111111111111111111111111111111111111273ffffffffffffffffffffffffffffffffffffffff8416016132bd57610f75828261359e565b8273ffffffffffffffffffffffffffffffffffffffff163b60000361330e576040517f1eb00b0600000000000000000000000000000000000000000000000000000000815260040160405180910390fd5b610f75838383613613565b600080600080600061332b88886134fb565b909450915061333a86856143a6565b9350600a60009054906101000a900473ffffffffffffffffffffffffffffffffffffffff1673ffffffffffffffffffffffffffffffffffffffff1663aea3d96b8d8d8d8d8d600960009054906101000a900473ffffffffffffffffffffffffffffffffffffffff166040518763ffffffff1660e01b81526004016134029695949392919095865260208601949094526040850192909252606084015263ffffffff16608083015273ffffffffffffffffffffffffffffffffffffffff1660a082015260c00190565b6040805180830381865afa15801561341e573d6000803e3d6000fd5b505050506040513d601f19601f82011682018060405250810190613442919061441c565b9550905061345086866143a6565b945061345c828261423c565b925050509750975097945050505050565b6000611f86848460405160200161349492919091825263ffffffff16602082015260400190565b604080517fffffffffffffffffffffffffffffffffffffffffffffffffffffffffffffffe0818403018152918152815160209283012060009081526007835281812073ffffffffffffffffffffffffffffffffffffffff8716825290925290205460ff1690565b6040517f06da42e000000000000000000000000000000000000000000000000000000000815263ffffffff83166004820152600090819073ffffffffffffffffffffffffffffffffffffffff8416906306da42e0906024016040805180830381865afa15801561356f573d6000803e3d6000fd5b505050506040513d601f19601f82011682018060405250810190613593919061441c565b909590945092505050565b600080600080600085875af1905080610f75576040517f08c379a000000000000000000000000000000000000000000000000000000000815260206004820152601360248201527f4554485f5452414e534645525f4641494c4544000000000000000000000000006044820152606401610e95565b60006040517fa9059cbb00000000000000000000000000000000000000000000000000000000815273ffffffffffffffffffffffffffffffffffffffff84166004820152826024820152602060006044836000895af13d15601f3d11600160005114161716915050806121f4576040517f08c379a000000000000000000000000000000000000000000000000000000000815260206004820152600f60248201527f5452414e534645525f4641494c454400000000000000000000000000000000006044820152606401610e95565b803563ffffffff811681146136f657600080fd5b919050565b73ffffffffffffffffffffffffffffffffffffffff8116811461371d57600080fd5b50565b6000806000806080858703121561373657600080fd5b61373f856136e2565b93506020850135925060408501359150606085013561375d816136fb565b939692955090935050565b60006020828403121561377a57600080fd5b8135612389816136fb565b60008060006060848603121561379a57600080fd5b833592506137aa602085016136e2565b915060408401356137ba816136fb565b809150509250925092565b60008083601f8401126137d757600080fd5b50813567ffffffffffffffff8111156137ef57600080fd5b6020830191508360208260051b850101111561380a57600080fd5b9250929050565b6000806000806000806060878903121561382a57600080fd5b863567ffffffffffffffff8082111561384257600080fd5b61384e8a838b016137c5565b9098509650602089013591508082111561386757600080fd5b6138738a838b016137c5565b9096509450604089013591508082111561388c57600080fd5b5061389989828a016137c5565b979a9699509497509295939492505050565b600060a082840312156138bd57600080fd5b50919050565b600080604083850312156138d657600080fd5b823567ffffffffffffffff808211156138ee57600080fd5b6138fa868387016138ab565b9350602085013591508082111561391057600080fd5b5061391d858286016138ab565b9150509250929050565b6000806040838503121561393a57600080fd5b82359150602083013561394c816136fb565b809150509250929050565b60008083601f84011261396957600080fd5b50813567ffffffffffffffff81111561398157600080fd5b60208301915083602082850101111561380a57600080fd5b60008060008060008060a087890312156139b257600080fd5b6139bb876136e2565b9550602087013594506040870135935060608701359250608087013567ffffffffffffffff8111156139ec57600080fd5b61389989828a01613957565b60008060008060808587031215613a0e57600080fd5b613a17856136e2565b93506020850135613a27816136fb565b92506040850135613a37816136fb565b9150606085013561375d816136fb565b60008060408385031215613a5a57600080fd5b8235613a65816136fb565b9150613a73602084016136e2565b90509250929050565b600080600060608486031215613a9157600080fd5b833592506020840135915060408401356137ba816136fb565b600080600060608486031215613abf57600080fd5b8335613aca816136fb565b92506020840135613ada816136fb565b929592945050506040919091013590565b600060208284031215613afd57600080fd5b5035919050565b60008060408385031215613b1757600080fd5b613b20836136e2565b9150602083013561394c816136fb565b60008060008060008060c08789031215613b4957600080fd5b86359550602087013594506040870135935060608701359250613b6e608088016136e2565b915060a0870135613b7e816136fb565b809150509295509295509295565b60008060008060608587031215613ba257600080fd5b843593506020850135613bb4816136fb565b9250604085013567ffffffffffffffff811115613bd057600080fd5b613bdc87828801613957565b95989497509550505050565b600080600080600060808688031215613c0057600080fd5b85359450602086013593506040860135613c19816136fb565b9250606086013567ffffffffffffffff811115613c3557600080fd5b613c4188828901613957565b969995985093965092949392505050565b60008060408385031215613c6557600080fd5b8251613c70816136fb565b602084015190925061394c816136fb565b7f4e487b7100000000000000000000000000000000000000000000000000000000600052603260045260246000fd5b600060208284031215613cc257600080fd5b612389826136e2565b8183528181602085013750600060208284010152600060207fffffffffffffffffffffffffffffffffffffffffffffffffffffffffffffffe0601f840116840101905092915050565b600063ffffffff808816835273ffffffffffffffffffffffffffffffffffffffff808816602085015281871660408501528086166060850152505060a06080830152823560a0830152602083013560c0830152604083013560e0830152606083013561010083015260808301357fffffffffffffffffffffffffffffffffffffffffffffffffffffffffffffffe1843603018112613db157600080fd5b830160208101903567ffffffffffffffff811115613dce57600080fd5b803603821315613ddd57600080fd5b60a0610120850152613df461014085018284613ccb565b9998505050505050505050565b600060208284031215613e1357600080fd5b5051919050565b60008083357fffffffffffffffffffffffffffffffffffffffffffffffffffffffffffffffe1843603018112613e4f57600080fd5b83018035915067ffffffffffffffff821115613e6a57600080fd5b60200191503681900382131561380a57600080fd5b838152604060208201526000613e99604083018486613ccb565b95945050505050565b805180151581146136f657600080fd5b60008060408385031215613ec557600080fd5b8251613ed0816136fb565b9150613a7360208401613ea2565b7f4e487b7100000000000000000000000000000000000000000000000000000000600052604160045260246000fd5b60405160a0810167ffffffffffffffff81118282101715613f3057613f30613ede565b60405290565b604051601f82017fffffffffffffffffffffffffffffffffffffffffffffffffffffffffffffffe016810167ffffffffffffffff81118282101715613f7d57613f7d613ede565b604052919050565b600060a08236031215613f9757600080fd5b613f9f613f0d565b82358152602080840135818301526040840135604083015260608401356060830152608084013567ffffffffffffffff80821115613fdc57600080fd5b9085019036601f830112613fef57600080fd5b81358181111561400157614001613ede565b614031847fffffffffffffffffffffffffffffffffffffffffffffffffffffffffffffffe0601f84011601613f36565b9150808252368482850101111561404757600080fd5b808484018584013760009082019093019290925250608082015292915050565b6000815180845260005b8181101561408d57602081850181015186830182015201614071565b5060006020828601015260207fffffffffffffffffffffffffffffffffffffffffffffffffffffffffffffffe0601f83011685010191505092915050565b600063ffffffff808816835273ffffffffffffffffffffffffffffffffffffffff808816602085015281871660408501528086166060850152505060a06080830152825160a0830152602083015160c0830152604083015160e08301526060830151610100830152608083015160a061012084015261414e610140840182614067565b98975050505050505050565b600061018063ffffffff808f16845273ffffffffffffffffffffffffffffffffffffffff808f166020860152818e166040860152808d16606086015250508960808401528860a08401528760c08401528660e0840152806101008401526141c48184018688613ccb565b9150506fffffffffffffffffffffffffffffffff808451166101208401528060208501511661014084015280604085015116610160840152509c9b505050505050505050505050565b7f4e487b7100000000000000000000000000000000000000000000000000000000600052601160045260246000fd5b6fffffffffffffffffffffffffffffffff8181168382160190808211156142655761426561420d565b5092915050565b6000806040838503121561427f57600080fd5b82519150602083015167ffffffffffffffff8116811461394c57600080fd5b63ffffffff851681528360208201526060604082015260006142c4606083018486613ccb565b9695505050505050565b8481528360208201526060604082015260006142c4606083018486613ccb565b60007fffffffffffffffffffffffffffffffffffffffffffffffffffffffffffffffff820361431f5761431f61420d565b5060010190565b60006020828403121561433857600080fd5b61238982613ea2565b838152826020820152606060408201526000613e996060830184614067565b63ffffffff83168152604060208201526000611f866040830184614067565b600067ffffffffffffffff80831681810361439c5761439c61420d565b6001019392505050565b60006fffffffffffffffffffffffffffffffff808416806143f0577f4e487b7100000000000000000000000000000000000000000000000000000000600052601260045260246000fd5b92169190910492915050565b80516fffffffffffffffffffffffffffffffff811681146136f657600080fd5b6000806040838503121561442f57600080fd5b614438836143fc565b9150613a73602084016143fc56fea2646970667358221220ed20bcf7132415e727869f4a439f4839d5f051a42316bc8773b589c684477d5c64736f6c63430008130033",
  "linkReferences": {},
  "deployedLinkReferences": {}
}